{
  "_format": "hh-sol-artifact-1",
  "contractName": "MyTokenV2",
  "sourceName": "contracts/example/MyTokenV2.sol",
  "abi": [
    {
      "inputs": [
        {
          "internalType": "address",
          "name": "spender",
          "type": "address"
        },
        {
          "internalType": "uint256",
          "name": "allowance",
          "type": "uint256"
        },
        {
          "internalType": "uint256",
          "name": "needed",
          "type": "uint256"
        }
      ],
      "name": "ERC20InsufficientAllowance",
      "type": "error"
    },
    {
      "inputs": [
        {
          "internalType": "address",
          "name": "sender",
          "type": "address"
        },
        {
          "internalType": "uint256",
          "name": "balance",
          "type": "uint256"
        },
        {
          "internalType": "uint256",
          "name": "needed",
          "type": "uint256"
        }
      ],
      "name": "ERC20InsufficientBalance",
      "type": "error"
    },
    {
      "inputs": [
        {
          "internalType": "address",
          "name": "approver",
          "type": "address"
        }
      ],
      "name": "ERC20InvalidApprover",
      "type": "error"
    },
    {
      "inputs": [
        {
          "internalType": "address",
          "name": "receiver",
          "type": "address"
        }
      ],
      "name": "ERC20InvalidReceiver",
      "type": "error"
    },
    {
      "inputs": [
        {
          "internalType": "address",
          "name": "sender",
          "type": "address"
        }
      ],
      "name": "ERC20InvalidSender",
      "type": "error"
    },
    {
      "inputs": [
        {
          "internalType": "address",
          "name": "spender",
          "type": "address"
        }
      ],
      "name": "ERC20InvalidSpender",
      "type": "error"
    },
    {
      "inputs": [],
      "name": "InvalidInitialization",
      "type": "error"
    },
    {
      "inputs": [],
      "name": "NotInitializing",
      "type": "error"
    },
    {
      "inputs": [
        {
          "internalType": "address",
          "name": "owner",
          "type": "address"
        }
      ],
      "name": "OwnableInvalidOwner",
      "type": "error"
    },
    {
      "inputs": [
        {
          "internalType": "address",
          "name": "account",
          "type": "address"
        }
      ],
      "name": "OwnableUnauthorizedAccount",
      "type": "error"
    },
    {
      "anonymous": false,
      "inputs": [
        {
          "indexed": true,
          "internalType": "address",
          "name": "owner",
          "type": "address"
        },
        {
          "indexed": true,
          "internalType": "address",
          "name": "spender",
          "type": "address"
        },
        {
          "indexed": false,
          "internalType": "uint256",
          "name": "value",
          "type": "uint256"
        }
      ],
      "name": "Approval",
      "type": "event"
    },
    {
      "anonymous": false,
      "inputs": [
        {
          "indexed": false,
          "internalType": "uint64",
          "name": "version",
          "type": "uint64"
        }
      ],
      "name": "Initialized",
      "type": "event"
    },
    {
      "anonymous": false,
      "inputs": [
        {
          "indexed": true,
          "internalType": "address",
          "name": "previousOwner",
          "type": "address"
        },
        {
          "indexed": true,
          "internalType": "address",
          "name": "newOwner",
          "type": "address"
        }
      ],
      "name": "OwnershipTransferred",
      "type": "event"
    },
    {
      "anonymous": false,
      "inputs": [
        {
          "indexed": true,
          "internalType": "address",
          "name": "from",
          "type": "address"
        },
        {
          "indexed": true,
          "internalType": "address",
          "name": "to",
          "type": "address"
        },
        {
          "indexed": false,
          "internalType": "uint256",
          "name": "value",
          "type": "uint256"
        }
      ],
      "name": "Transfer",
      "type": "event"
    },
    {
      "inputs": [
        {
          "internalType": "address",
          "name": "owner",
          "type": "address"
        },
        {
          "internalType": "address",
          "name": "spender",
          "type": "address"
        }
      ],
      "name": "allowance",
      "outputs": [
        {
          "internalType": "uint256",
          "name": "",
          "type": "uint256"
        }
      ],
      "stateMutability": "view",
      "type": "function"
    },
    {
      "inputs": [
        {
          "internalType": "address",
          "name": "spender",
          "type": "address"
        },
        {
          "internalType": "uint256",
          "name": "value",
          "type": "uint256"
        }
      ],
      "name": "approve",
      "outputs": [
        {
          "internalType": "bool",
          "name": "",
          "type": "bool"
        }
      ],
      "stateMutability": "nonpayable",
      "type": "function"
    },
    {
      "inputs": [
        {
          "internalType": "address",
          "name": "account",
          "type": "address"
        }
      ],
      "name": "balanceOf",
      "outputs": [
        {
          "internalType": "uint256",
          "name": "",
          "type": "uint256"
        }
      ],
      "stateMutability": "view",
      "type": "function"
    },
    {
      "inputs": [],
      "name": "decimals",
      "outputs": [
        {
          "internalType": "uint8",
          "name": "",
          "type": "uint8"
        }
      ],
      "stateMutability": "view",
      "type": "function"
    },
    {
      "inputs": [
        {
          "internalType": "string",
          "name": "name",
          "type": "string"
        },
        {
          "internalType": "string",
          "name": "symbol",
          "type": "string"
        },
        {
          "internalType": "uint256",
          "name": "initialValue",
          "type": "uint256"
        }
      ],
      "name": "initialize",
      "outputs": [],
      "stateMutability": "nonpayable",
      "type": "function"
    },
    {
      "inputs": [],
      "name": "myValue",
      "outputs": [
        {
          "internalType": "uint256",
          "name": "",
          "type": "uint256"
        }
      ],
      "stateMutability": "view",
      "type": "function"
    },
    {
      "inputs": [],
      "name": "name",
      "outputs": [
        {
          "internalType": "string",
          "name": "",
          "type": "string"
        }
      ],
      "stateMutability": "view",
      "type": "function"
    },
    {
      "inputs": [],
      "name": "owner",
      "outputs": [
        {
          "internalType": "address",
          "name": "",
          "type": "address"
        }
      ],
      "stateMutability": "view",
      "type": "function"
    },
    {
      "inputs": [],
      "name": "renounceOwnership",
      "outputs": [],
      "stateMutability": "nonpayable",
      "type": "function"
    },
    {
      "inputs": [
        {
          "internalType": "uint256",
          "name": "newValue",
          "type": "uint256"
        }
      ],
      "name": "setMyValue",
      "outputs": [],
      "stateMutability": "nonpayable",
      "type": "function"
    },
    {
      "inputs": [],
      "name": "symbol",
      "outputs": [
        {
          "internalType": "string",
          "name": "",
          "type": "string"
        }
      ],
      "stateMutability": "view",
      "type": "function"
    },
    {
      "inputs": [],
      "name": "totalSupply",
      "outputs": [
        {
          "internalType": "uint256",
          "name": "",
          "type": "uint256"
        }
      ],
      "stateMutability": "view",
      "type": "function"
    },
    {
      "inputs": [
        {
          "internalType": "address",
          "name": "to",
          "type": "address"
        },
        {
          "internalType": "uint256",
          "name": "value",
          "type": "uint256"
        }
      ],
      "name": "transfer",
      "outputs": [
        {
          "internalType": "bool",
          "name": "",
          "type": "bool"
        }
      ],
      "stateMutability": "nonpayable",
      "type": "function"
    },
    {
      "inputs": [
        {
          "internalType": "address",
          "name": "from",
          "type": "address"
        },
        {
          "internalType": "address",
          "name": "to",
          "type": "address"
        },
        {
          "internalType": "uint256",
          "name": "value",
          "type": "uint256"
        }
      ],
      "name": "transferFrom",
      "outputs": [
        {
          "internalType": "bool",
          "name": "",
          "type": "bool"
        }
      ],
      "stateMutability": "nonpayable",
      "type": "function"
    },
    {
      "inputs": [
        {
          "internalType": "address",
          "name": "newOwner",
          "type": "address"
        }
      ],
      "name": "transferOwnership",
      "outputs": [],
      "stateMutability": "nonpayable",
      "type": "function"
    },
    {
      "inputs": [],
      "name": "version",
      "outputs": [
        {
          "internalType": "string",
          "name": "",
          "type": "string"
        }
      ],
      "stateMutability": "pure",
      "type": "function"
    }
  ],
  "bytecode": "0x60808060405234601557610fbd908161001b8239f35b600080fdfe6080604052600436101561001257600080fd5b60003560e01c806306fdde0314610b11578063095ea7b314610a9057806318160ddd14610a535780631cbd2f6514610a3257806323b872dd1461094f578063313ce5671461093357806347f1aae71461091557806354fd4d50146108d957806370a0823114610892578063715018a6146108285780638da5cb5b146107f257806395d89b41146106fb578063a9059cbb146106ca578063b119490e14610145578063dd62ed3e146100fc5763f2fde38b146100cc57600080fd5b346100f75760203660031901126100f7576100f56100e8610c1c565b6100f0610daa565b610d34565b005b600080fd5b346100f75760403660031901126100f757610115610c1c565b610126610120610c32565b91610cfb565b9060018060a01b03166000526020526020604060002054604051908152f35b346100f75760603660031901126100f75760043567ffffffffffffffff81116100f757610176903690600401610c6a565b60243567ffffffffffffffff81116100f757610196903690600401610c6a565b600080516020610f688339815191525460ff8160401c16159067ffffffffffffffff8116801590816106c2575b60011490816106b8575b1590816106af575b5061069e5767ffffffffffffffff198116600117600080516020610f688339815191525581610671575b50610208610eb9565b610210610eb9565b825167ffffffffffffffff811161055d57610239600080516020610ee883398151915254610cc1565b601f81116105ff575b506020601f821160011461057e5781929394600092610573575b50508160011b916000199060031b1c191617600080516020610ee8833981519152555b815167ffffffffffffffff811161055d576102a8600080516020610f2883398151915254610cc1565b601f81116104eb575b50602092601f821160011461046c5792819293600092610461575b50508160011b916000199060031b1c191617600080516020610f28833981519152555b6102f7610eb9565b6102ff610eb9565b61030833610d34565b331561044b577f52c63247e1f47db19d5ce0460030c497f067ca4cebf71ba98eeadabe20bace02546b204fce5e3e250261100000008101809111610435577f52c63247e1f47db19d5ce0460030c497f067ca4cebf71ba98eeadabe20bace0255600090338252600080516020610f08833981519152602052604082206b204fce5e3e2502611000000081540190556040516b204fce5e3e250261100000008152827fddf252ad1be2c89b69c2b068fc378daa952ba7f163c4a11628f55a4df523b3ef60203393a360443582556103db5780f35b68ff000000000000000019600080516020610f688339815191525416600080516020610f68833981519152557fc7f505b2f371ae2175ee4913f4499e1f2633a7b5936321eed1cdaeb6115181d2602060405160018152a180f35b634e487b7160e01b600052601160045260246000fd5b63ec442f0560e01b600052600060045260246000fd5b0151905083806102cc565b601f19821693600080516020610f28833981519152600052806000209160005b8681106104d357508360019596106104ba575b505050811b01600080516020610f28833981519152556102ef565b015160001960f88460031b161c1916905583808061049f565b9192602060018192868501518155019401920161048c565b600080516020610f288339815191526000527f46a2803e59a4de4e7a4c574b1243f25977ac4c77d5a1a4a609b5394cebb4a2aa601f830160051c81019160208410610553575b601f0160051c01905b81811061054757506102b1565b6000815560010161053a565b9091508190610531565b634e487b7160e01b600052604160045260246000fd5b01519050848061025c565b601f19821690600080516020610ee8833981519152600052806000209160005b8181106105e7575095836001959697106105ce575b505050811b01600080516020610ee88339815191525561027f565b015160001960f88460031b161c191690558480806105b3565b9192602060018192868b01518155019401920161059e565b600080516020610ee88339815191526000527f2ae08a8e29253f69ac5d979a101956ab8f8d9d7ded63fa7a83b16fc47648eab0601f830160051c81019160208410610667575b601f0160051c01905b81811061065b5750610242565b6000815560010161064e565b9091508190610645565b68ffffffffffffffffff19166801000000000000000117600080516020610f6883398151915255836101ff565b63f92ee8a960e01b60005260046000fd5b905015856101d5565b303b1591506101cd565b8391506101c3565b346100f75760403660031901126100f7576106f06106e6610c1c565b6024359033610de0565b602060405160018152f35b346100f75760003660031901126100f7576040516000600080516020610f288339815191525461072a81610cc1565b80845290600181169081156107ce5750600114610762575b61075e8361075281850382610c48565b60405191829182610bd3565b0390f35b600080516020610f2883398151915260009081527f46a2803e59a4de4e7a4c574b1243f25977ac4c77d5a1a4a609b5394cebb4a2aa939250905b8082106107b457509091508101602001610752610742565b91926001816020925483858801015201910190929161079c565b60ff191660208086019190915291151560051b840190910191506107529050610742565b346100f75760003660031901126100f757600080516020610f48833981519152546040516001600160a01b039091168152602090f35b346100f75760003660031901126100f757610841610daa565b600080516020610f4883398151915280546001600160a01b031981169091556000906001600160a01b03167f8be0079c531659141344cd1fd0a4f28419497f9722a3daafe3b4186f6b6457e08280a3005b346100f75760203660031901126100f7576001600160a01b036108b3610c1c565b16600052600080516020610f088339815191526020526020604060002054604051908152f35b346100f75760003660031901126100f75761075e60408051906108fc8183610c48565b60028252612b1960f11b60208301525191829182610bd3565b346100f75760003660031901126100f7576020600054604051908152f35b346100f75760003660031901126100f757602060405160128152f35b346100f75760603660031901126100f757610968610c1c565b610970610c32565b6044359061097d83610cfb565b336000908152602091909152604090205492600184016109a2575b6106f09350610de0565b828410610a15576001600160a01b038116156109ff5733156109e9576106f0936109cb82610cfb565b60018060a01b03331660005260205283604060002091039055610998565b634a1406b160e11b600052600060045260246000fd5b63e602df0560e01b600052600060045260246000fd5b8284637dc7a0d960e11b6000523360045260245260445260646000fd5b346100f75760203660031901126100f757610a4b610daa565b600435600055005b346100f75760003660031901126100f75760207f52c63247e1f47db19d5ce0460030c497f067ca4cebf71ba98eeadabe20bace0254604051908152f35b346100f75760403660031901126100f757610aa9610c1c565b6024359033156109ff576001600160a01b03169081156109e957610acc33610cfb565b82600052602052806040600020556040519081527f8c5be1e5ebec7d5bd14f71427d1e84f3dd0314c0f7b2291e5b200ac8c7c3b92560203392a3602060405160018152f35b346100f75760003660031901126100f7576040516000600080516020610ee883398151915254610b4081610cc1565b80845290600181169081156107ce5750600114610b675761075e8361075281850382610c48565b600080516020610ee883398151915260009081527f2ae08a8e29253f69ac5d979a101956ab8f8d9d7ded63fa7a83b16fc47648eab0939250905b808210610bb957509091508101602001610752610742565b919260018160209254838588010152019101909291610ba1565b91909160208152825180602083015260005b818110610c06575060409293506000838284010152601f8019910116010190565b8060208092870101516040828601015201610be5565b600435906001600160a01b03821682036100f757565b602435906001600160a01b03821682036100f757565b90601f8019910116810190811067ffffffffffffffff82111761055d57604052565b81601f820112156100f75780359067ffffffffffffffff821161055d5760405192610c9f601f8401601f191660200185610c48565b828452602083830101116100f757816000926020809301838601378301015290565b90600182811c92168015610cf1575b6020831014610cdb57565b634e487b7160e01b600052602260045260246000fd5b91607f1691610cd0565b6001600160a01b031660009081527f52c63247e1f47db19d5ce0460030c497f067ca4cebf71ba98eeadabe20bace016020526040902090565b6001600160a01b03168015610d9457600080516020610f4883398151915280546001600160a01b0319811683179091556001600160a01b03167f8be0079c531659141344cd1fd0a4f28419497f9722a3daafe3b4186f6b6457e0600080a3565b631e4fbdf760e01b600052600060045260246000fd5b600080516020610f48833981519152546001600160a01b03163303610dcb57565b63118cdaa760e01b6000523360045260246000fd5b6001600160a01b0316908115610ea3576001600160a01b031691821561044b576000828152600080516020610f088339815191526020526040812054828110610e895791604082827fddf252ad1be2c89b69c2b068fc378daa952ba7f163c4a11628f55a4df523b3ef958760209652600080516020610f0883398151915286520382822055868152600080516020610f08833981519152845220818154019055604051908152a3565b916064928463391434e360e21b8452600452602452604452fd5b634b637e8f60e11b600052600060045260246000fd5b60ff600080516020610f688339815191525460401c1615610ed657565b631afcd79f60e31b60005260046000fdfe52c63247e1f47db19d5ce0460030c497f067ca4cebf71ba98eeadabe20bace0352c63247e1f47db19d5ce0460030c497f067ca4cebf71ba98eeadabe20bace0052c63247e1f47db19d5ce0460030c497f067ca4cebf71ba98eeadabe20bace049016d09d72d40fdae2fd8ceac6b6234c7706214fd39c1cd1e609a0528c199300f0c57e16840df040f15088dc2f81fe391c3923bec73e23a9662efc9c229c6a00a2646970667358221220681694157e04a77fac7f14f9b025a410f3b35f59aa45c99b390bb666201d6fa864736f6c634300081c0033",
  "linkReferences": {},
  "deployedLinkReferences": {}
}