{
  "_format": "hh-sol-artifact-1",
  "contractName": "FRouter",
  "sourceName": "contracts/fun/FRouter.sol",
  "abi": [
    {
      "inputs": [],
      "stateMutability": "nonpayable",
      "type": "constructor"
    },
    {
      "inputs": [],
      "name": "AccessControlBadConfirmation",
      "type": "error"
    },
    {
      "inputs": [
        {
          "internalType": "address",
          "name": "account",
          "type": "address"
        },
        {
          "internalType": "bytes32",
          "name": "neededRole",
          "type": "bytes32"
        }
      ],
      "name": "AccessControlUnauthorizedAccount",
      "type": "error"
    },
    {
      "inputs": [],
      "name": "InvalidInitialization",
      "type": "error"
    },
    {
      "inputs": [],
      "name": "NotInitializing",
      "type": "error"
    },
    {
      "inputs": [],
      "name": "ReentrancyGuardReentrantCall",
      "type": "error"
    },
    {
      "inputs": [
        {
          "internalType": "address",
          "name": "token",
          "type": "address"
        }
      ],
      "name": "SafeERC20FailedOperation",
      "type": "error"
    },
    {
      "inputs": [],
      "name": "ZeroPairAddress",
      "type": "error"
    },
    {
      "anonymous": false,
      "inputs": [
        {
          "indexed": false,
          "internalType": "uint64",
          "name": "version",
          "type": "uint64"
        }
      ],
      "name": "Initialized",
      "type": "event"
    },
    {
      "anonymous": false,
      "inputs": [
        {
          "indexed": true,
          "internalType": "bytes32",
          "name": "role",
          "type": "bytes32"
        },
        {
          "indexed": true,
          "internalType": "bytes32",
          "name": "previousAdminRole",
          "type": "bytes32"
        },
        {
          "indexed": true,
          "internalType": "bytes32",
          "name": "newAdminRole",
          "type": "bytes32"
        }
      ],
      "name": "RoleAdminChanged",
      "type": "event"
    },
    {
      "anonymous": false,
      "inputs": [
        {
          "indexed": true,
          "internalType": "bytes32",
          "name": "role",
          "type": "bytes32"
        },
        {
          "indexed": true,
          "internalType": "address",
          "name": "account",
          "type": "address"
        },
        {
          "indexed": true,
          "internalType": "address",
          "name": "sender",
          "type": "address"
        }
      ],
      "name": "RoleGranted",
      "type": "event"
    },
    {
      "anonymous": false,
      "inputs": [
        {
          "indexed": true,
          "internalType": "bytes32",
          "name": "role",
          "type": "bytes32"
        },
        {
          "indexed": true,
          "internalType": "address",
          "name": "account",
          "type": "address"
        },
        {
          "indexed": true,
          "internalType": "address",
          "name": "sender",
          "type": "address"
        }
      ],
      "name": "RoleRevoked",
      "type": "event"
    },
    {
      "inputs": [],
      "name": "ADMIN_ROLE",
      "outputs": [
        {
          "internalType": "bytes32",
          "name": "",
          "type": "bytes32"
        }
      ],
      "stateMutability": "view",
      "type": "function"
    },
    {
      "inputs": [],
      "name": "DEFAULT_ADMIN_ROLE",
      "outputs": [
        {
          "internalType": "bytes32",
          "name": "",
          "type": "bytes32"
        }
      ],
      "stateMutability": "view",
      "type": "function"
    },
    {
      "inputs": [],
      "name": "EXECUTOR_ROLE",
      "outputs": [
        {
          "internalType": "bytes32",
          "name": "",
          "type": "bytes32"
        }
      ],
      "stateMutability": "view",
      "type": "function"
    },
    {
      "inputs": [
        {
          "internalType": "address",
          "name": "token_",
          "type": "address"
        },
        {
          "internalType": "uint256",
          "name": "amountToken_",
          "type": "uint256"
        },
        {
          "internalType": "uint256",
          "name": "amountAsset_",
          "type": "uint256"
        }
      ],
      "name": "addInitialLiquidity",
      "outputs": [
        {
          "internalType": "uint256",
          "name": "",
          "type": "uint256"
        },
        {
          "internalType": "uint256",
          "name": "",
          "type": "uint256"
        }
      ],
      "stateMutability": "nonpayable",
      "type": "function"
    },
    {
      "inputs": [
        {
          "internalType": "address",
          "name": "pair",
          "type": "address"
        },
        {
          "internalType": "address",
          "name": "asset",
          "type": "address"
        },
        {
          "internalType": "address",
          "name": "spender",
          "type": "address"
        },
        {
          "internalType": "uint256",
          "name": "amount",
          "type": "uint256"
        }
      ],
      "name": "approval",
      "outputs": [],
      "stateMutability": "nonpayable",
      "type": "function"
    },
    {
      "inputs": [],
      "name": "assetToken",
      "outputs": [
        {
          "internalType": "address",
          "name": "",
          "type": "address"
        }
      ],
      "stateMutability": "view",
      "type": "function"
    },
    {
      "inputs": [
        {
          "internalType": "uint256",
          "name": "amountIn",
          "type": "uint256"
        },
        {
          "internalType": "address",
          "name": "tokenAddress",
          "type": "address"
        },
        {
          "internalType": "address",
          "name": "to",
          "type": "address"
        }
      ],
      "name": "buy",
      "outputs": [
        {
          "internalType": "uint256",
          "name": "",
          "type": "uint256"
        },
        {
          "internalType": "uint256",
          "name": "",
          "type": "uint256"
        }
      ],
      "stateMutability": "nonpayable",
      "type": "function"
    },
    {
      "inputs": [],
      "name": "factory",
      "outputs": [
        {
          "internalType": "contract FFactory",
          "name": "",
          "type": "address"
        }
      ],
      "stateMutability": "view",
      "type": "function"
    },
    {
      "inputs": [
        {
          "internalType": "address",
          "name": "token",
          "type": "address"
        },
        {
          "internalType": "address",
          "name": "assetToken_",
          "type": "address"
        },
        {
          "internalType": "uint256",
          "name": "amountIn",
          "type": "uint256"
        }
      ],
      "name": "getAmountsOut",
      "outputs": [
        {
          "internalType": "uint256",
          "name": "_amountOut",
          "type": "uint256"
        }
      ],
      "stateMutability": "view",
      "type": "function"
    },
    {
      "inputs": [
        {
          "internalType": "bytes32",
          "name": "role",
          "type": "bytes32"
        }
      ],
      "name": "getRoleAdmin",
      "outputs": [
        {
          "internalType": "bytes32",
          "name": "",
          "type": "bytes32"
        }
      ],
      "stateMutability": "view",
      "type": "function"
    },
    {
      "inputs": [
        {
          "internalType": "address",
          "name": "tokenAddress",
          "type": "address"
        }
      ],
      "name": "graduate",
      "outputs": [],
      "stateMutability": "nonpayable",
      "type": "function"
    },
    {
      "inputs": [
        {
          "internalType": "bytes32",
          "name": "role",
          "type": "bytes32"
        },
        {
          "internalType": "address",
          "name": "account",
          "type": "address"
        }
      ],
      "name": "grantRole",
      "outputs": [],
      "stateMutability": "nonpayable",
      "type": "function"
    },
    {
      "inputs": [
        {
          "internalType": "bytes32",
          "name": "role",
          "type": "bytes32"
        },
        {
          "internalType": "address",
          "name": "account",
          "type": "address"
        }
      ],
      "name": "hasRole",
      "outputs": [
        {
          "internalType": "bool",
          "name": "",
          "type": "bool"
        }
      ],
      "stateMutability": "view",
      "type": "function"
    },
    {
      "inputs": [
        {
          "internalType": "address",
          "name": "factory_",
          "type": "address"
        },
        {
          "internalType": "address",
          "name": "assetToken_",
          "type": "address"
        }
      ],
      "name": "initialize",
      "outputs": [],
      "stateMutability": "nonpayable",
      "type": "function"
    },
    {
      "inputs": [
        {
          "internalType": "bytes32",
          "name": "role",
          "type": "bytes32"
        },
        {
          "internalType": "address",
          "name": "callerConfirmation",
          "type": "address"
        }
      ],
      "name": "renounceRole",
      "outputs": [],
      "stateMutability": "nonpayable",
      "type": "function"
    },
    {
      "inputs": [
        {
          "internalType": "bytes32",
          "name": "role",
          "type": "bytes32"
        },
        {
          "internalType": "address",
          "name": "account",
          "type": "address"
        }
      ],
      "name": "revokeRole",
      "outputs": [],
      "stateMutability": "nonpayable",
      "type": "function"
    },
    {
      "inputs": [
        {
          "internalType": "uint256",
          "name": "amountIn",
          "type": "uint256"
        },
        {
          "internalType": "address",
          "name": "tokenAddress",
          "type": "address"
        },
        {
          "internalType": "address",
          "name": "to",
          "type": "address"
        }
      ],
      "name": "sell",
      "outputs": [
        {
          "internalType": "uint256",
          "name": "",
          "type": "uint256"
        },
        {
          "internalType": "uint256",
          "name": "",
          "type": "uint256"
        }
      ],
      "stateMutability": "nonpayable",
      "type": "function"
    },
    {
      "inputs": [
        {
          "internalType": "address",
          "name": "newManager",
          "type": "address"
        }
      ],
      "name": "setTaxManager",
      "outputs": [],
      "stateMutability": "nonpayable",
      "type": "function"
    },
    {
      "inputs": [
        {
          "internalType": "bytes4",
          "name": "interfaceId",
          "type": "bytes4"
        }
      ],
      "name": "supportsInterface",
      "outputs": [
        {
          "internalType": "bool",
          "name": "",
          "type": "bool"
        }
      ],
      "stateMutability": "view",
      "type": "function"
    },
    {
      "inputs": [],
      "name": "taxManager",
      "outputs": [
        {
          "internalType": "address",
          "name": "",
          "type": "address"
        }
      ],
      "stateMutability": "view",
      "type": "function"
    }
  ],
  "bytecode": "0x6080806040523460d2577ff0c57e16840df040f15088dc2f81fe391c3923bec73e23a9662efc9c229c6a005460ff8160401c1660c1576002600160401b03196001600160401b03821601605c575b6040516119b490816100d88239f35b6001600160401b0319166001600160401b039081177ff0c57e16840df040f15088dc2f81fe391c3923bec73e23a9662efc9c229c6a005581527fc7f505b2f371ae2175ee4913f4499e1f2633a7b5936321eed1cdaeb6115181d290602090a13880604d565b63f92ee8a960e01b60005260046000fd5b600080fdfe608080604052600436101561001357600080fd5b600090813560e01c90816301ffc9a7146111bc5750806307bd026514611181578063095e3913146110c55780631083f7611461109c578063248a9ca31461107d5780632f2ff15d1461104b57806336568abe1461100657806345608d0014610fce578063485cc95514610e075780634d23773014610dde5780636f08e1771461093357806375b238fc146108f857806391d148541461089f578063a217fddf14610883578063ab3c475a1461079d578063ba37fd3814610652578063c45a01551461062b578063d547741f146105f0578063e753858a146102c05763ff6d8d05146100fd57600080fd5b346102295760203660031901126102295761017b602061011b611211565b610123611563565b61012b61181a565b61013f6001600160a01b0382161515611298565b835460015460405163e6a4390560e01b81526001600160a01b039384166004820152908316602482015293849290911690829081906044820190565b03915afa90811561022c578291610291575b506001600160a01b031680156102825760405163c66f245560e01b81528291602082600481845afa91821561027757839261023b575b50803b1561023757604051635c921eb960e01b8152336004820152602481019290925282908290604490829084905af1801561022c57610214575b50600160008051602061193f8339815191525580f35b8161021e916112e4565b6102295780386101fe565b80fd5b6040513d84823e3d90fd5b5050fd5b925090506020823d60201161026f575b81610258602093836112e4565b8101031261026a5782915190386101c3565b600080fd5b3d915061024b565b6040513d85823e3d90fd5b63081ce35d60e01b8252600482fd5b6102b3915060203d6020116102b9575b6102ab81836112e4565b81019061131c565b3861018d565b503d6102a1565b5034610229576102cf3661123d565b90916102d9611563565b6102e161181a565b6102f56001600160a01b0384161515611298565b6103096001600160a01b0383161515611298565b80156105ab57835460015460405163e6a4390560e01b81526001600160a01b03868116600483015291821660248201819052909591909216929190602086604481875afa95861561053857879661058a575b506001600160a01b03861693841561057b57604051634f7041a560e01b815288959493929190602081600481855afa908115610538578791610543575b5090602060646103aa87600495611538565b049160405193848092630e2ad37b60e41b82525afa9485156105385761041695899583610404958b9361050f575b506103e7906103f1939461137e565b9b8c978892611856565b60015489906001600160a01b0316611856565b6001546001600160a01b03169061138b565b92813b1561050b576040516302ccb1b360e41b81526001600160a01b0391909116600482015260248101849052828160448183865af19081156102775783916104f2575b5050602090608460405180948193635673b02d60e01b83528160048401528760248401528860448401528160648401525af180156104e757604094506104ba575b50600160008051602061193f8339815191525582519182526020820152f35b6104db9060203d6020116104e0575b6104d381836112e4565b81019061154b565b61049b565b503d6104c9565b6040513d86823e3d90fd5b816104fc916112e4565b61050757813861045a565b5080fd5b8280fd5b6103f19350906105306103e79260203d6020116102b9576102ab81836112e4565b9350906103d8565b6040513d89823e3d90fd5b919650506020813d602011610573575b81610560602093836112e4565b8101031261026a57518895906020610398565b3d9150610553565b63081ce35d60e01b8852600488fd5b6105a491965060203d6020116102b9576102ab81836112e4565b943861035b565b60405162461bcd60e51b815260206004820152601f60248201527f616d6f756e74496e206d7573742062652067726561746572207468616e2030006044820152606490fd5b503461022957604036600319011261022957610627600435610610611227565b9061062261061d82611277565b6115d5565b61177a565b5080f35b5034610229578060031936011261022957546040516001600160a01b039091168152602090f35b50346102295760603660031901126102295761066c611211565b602435906044359061067c611563565b6001600160a01b038116906106d590602090610699841515611298565b865460015460405163e6a4390560e01b81526001600160a01b039384166004820152908316602482015293849290911690829081906044820190565b03915afa908115610792578591610773575b506001600160a01b038116918215610764579161070a8560209388953390611856565b604460405180948193630d9778e560e11b83528860048401528760248401525af180156104e75760409450610747575b5082519182526020820152f35b61075f9060203d6020116104e0576104d381836112e4565b61073a565b63081ce35d60e01b8652600486fd5b61078c915060203d6020116102b9576102ab81836112e4565b386106e7565b6040513d87823e3d90fd5b5034610229576080366003190112610229576107b7611211565b6107bf611227565b906044356001600160a01b0381169182820361087f57610833936107f66020946107e7611563565b6107ef61181a565b1515611298565b604051632e2952f960e11b81526001600160a01b039384166004820152921660248301526064803560448401529193849283918791839190820190565b03926001600160a01b03165af1801561022c576108605750600160008051602061193f8339815191525580f35b6108789060203d6020116104e0576104d381836112e4565b50386101fe565b8480fd5b5034610229578060031936011261022957602090604051908152f35b50346102295760403660031901126102295760406108bb611227565b91600435815260008051602061191f833981519152602052209060018060a01b0316600052602052602060ff604060002054166040519015158152f35b503461022957806003193601126102295760206040517fa49807205ce4d355092ef5a8a18f56e8913cf4a201fbe287825b095693c217758152f35b5034610229576109423661123d565b9061094b61181a565b610953611563565b6001600160a01b038116918215159161096b83611298565b61097f6001600160a01b0383161515611298565b8415610da857855460015460405163e6a4390560e01b81526001600160a01b03848116600483015291821660248201529160209183916044918391165afa908115610538578791610d89575b506001600160a01b03811693841561057b576109e690611298565b865460015460405163e6a4390560e01b81526001600160a01b0394851660048201529084166024820181905293909160209183916044918391165afa908115610d7e578891610d5f575b506001600160a01b031690811561057b5760408051630240bc6b60e21b81529081600481865afa928315610d545789918a94610d13575b5090602060049260405193848092637464fc3d60e01b82525afa8015610d0857899487938c92610cc7575b508590610ac59715600014610cb65791610ab3610ab992610abf959461133b565b9061135e565b9061137e565b96611856565b845460405163cc1776d360e01b81526001600160a01b039091169186602083600481875afa8015610ca95786938291610c70575b50610b08600494606492611538565b04936020610b16868961137e565b9160405195868092630e2ad37b60e41b82525afa93841561022c578294610c4f575b50853b1561050757604051635c921eb960e01b81526001600160a01b0393909316600484015260248301528160448183885af1801561053857610c37575b5090829186933b15610c3357604051635c921eb960e01b81526001600160a01b039190911660048201526024810191909152828160448183865af1908115610277578391610c1e575b5050602090608460405180948193635673b02d60e01b83528860048401528160248401528160448401528760648401525af180156104e757604094506104ba5750600160008051602061193f8339815191525582519182526020820152f35b81610c28916112e4565b610507578138610bbf565b8380fd5b86610c469197929493976112e4565b94909138610b76565b610c6991945060203d6020116102b9576102ab81836112e4565b9238610b38565b9350506020833d602011610ca1575b81610c8c602093836112e4565b81010312610229579151859290610b08610af9565b3d9150610c7f565b50604051903d90823e3d90fd5b91610ab3610ab992610abf9561133b565b95509250506020843d602011610d00575b81610ce5602093836112e4565b81010312610cfc5792518893869290919085610a92565b8980fd5b3d9150610cd8565b6040513d8c823e3d90fd5b915092506040813d604011610d4c575b81610d30604093836112e4565b81010312610d48578051602091820151939091610a67565b8880fd5b3d9150610d23565b6040513d8b823e3d90fd5b610d78915060203d6020116102b9576102ab81836112e4565b38610a30565b6040513d8a823e3d90fd5b610da2915060203d6020116102b9576102ab81836112e4565b386109cb565b60405162461bcd60e51b815260206004820152600e60248201526d2d32b9379020b6b7bab73a1024b760911b6044820152606490fd5b50346102295780600319360112610229576002546040516001600160a01b039091168152602090f35b503461022957604036600319011261022957610e21611211565b610e29611227565b60008051602061195f833981519152549160ff8360401c16159267ffffffffffffffff811680159081610fc6575b6001149081610fbc575b159081610fb3575b50610fa45767ffffffffffffffff19811660011760008051602061195f8339815191525583610f77575b50610e9c6118f0565b610ea46118f0565b600160008051602061193f83398151915255610ebe6118f0565b610ec73361161f565b506001600160a01b031690610edd821515611298565b6001600160a01b031690610ef2821515611298565b6001600160601b0360a01b8454161783556001600160601b0360a01b6001541617600155610f1d5780f35b68ff00000000000000001960008051602061195f833981519152541660008051602061195f833981519152557fc7f505b2f371ae2175ee4913f4499e1f2633a7b5936321eed1cdaeb6115181d2602060405160018152a180f35b68ffffffffffffffffff1916680100000000000000011760008051602061195f8339815191525538610e93565b63f92ee8a960e01b8552600485fd5b90501538610e69565b303b159150610e61565b859150610e57565b5034610229576060366003190112610229576020610ffe610fed611211565b610ff5611227565b6044359161138b565b604051908152f35b503461022957604036600319011261022957611020611227565b336001600160a01b0382160361103c576106279060043561177a565b63334bd91960e11b8252600482fd5b50346102295760403660031901126102295761062760043561106b611227565b9061107861061d82611277565b6116d1565b5034610229576020366003190112610229576020610ffe600435611277565b50346102295780600319360112610229576001546040516001600160a01b039091168152602090f35b5034610229576020366003190112610229576110df611211565b7fa49807205ce4d355092ef5a8a18f56e8913cf4a201fbe287825b095693c21775825260008051602061191f8339815191526020908152604080842033855290915282205460ff161561114a5760018060a01b03166001600160601b0360a01b600254161760025580f35b63e2517d3f60e01b8252336004527fa49807205ce4d355092ef5a8a18f56e8913cf4a201fbe287825b095693c21775602452604482fd5b503461022957806003193601126102295760206040517fd8aa0f3194971a2a116679f7c2090f6939c8d4e01a2a8d7e41d55e5351469e638152f35b9050346105075760203660031901126105075760043563ffffffff60e01b811680910361050b5760209250637965db0b60e01b8114908115611200575b5015158152f35b6301ffc9a760e01b149050386111f9565b600435906001600160a01b038216820361026a57565b602435906001600160a01b038216820361026a57565b606090600319011261026a57600435906024356001600160a01b038116810361026a57906044356001600160a01b038116810361026a5790565b60005260008051602061191f83398151915260205260016040600020015490565b1561129f57565b60405162461bcd60e51b815260206004820152601f60248201527f5a65726f2061646472657373657320617265206e6f7420616c6c6f7765642e006044820152606490fd5b90601f8019910116810190811067ffffffffffffffff82111761130657604052565b634e487b7160e01b600052604160045260246000fd5b9081602091031261026a57516001600160a01b038116810361026a5790565b9190820180921161134857565b634e487b7160e01b600052601160045260246000fd5b8115611368570490565b634e487b7160e01b600052601260045260246000fd5b9190820391821161134857565b9092916113a26001600160a01b0383161515611298565b60005460015460405163e6a4390560e01b81526001600160a01b0394851660048201529084166024820181905293909160209183916044918391165afa9081156114ba57600091611519575b506001600160a01b03169384156115085760408051630240bc6b60e21b8152939084600481895afa9182156114ba5760009485936114c6575b506020600495969760405196878092637464fc3d60e01b82525afa9485156114ba57600095611486575b506001600160a01b0316036114755791610ab3610ab992611472959461133b565b90565b91610ab3610ab9926114729561133b565b90946020823d6020116114b2575b816114a1602093836112e4565b810103126102295750519338611451565b3d9150611494565b6040513d6000823e3d90fd5b949692506040853d604011611500575b816114e3604093836112e4565b810103126114fc57845160209586015193975094611427565b8680fd5b3d91506114d6565b63081ce35d60e01b60005260046000fd5b611532915060203d6020116102b9576102ab81836112e4565b386113ee565b8181029291811591840414171561134857565b9081602091031261026a5751801515810361026a5790565b3360009081527f52fce5e8a5d0d9e8d1ea29f4525e512e9c27bf92cae50374d497f918ab48f382602052604090205460ff161561159c57565b63e2517d3f60e01b600052336004527fd8aa0f3194971a2a116679f7c2090f6939c8d4e01a2a8d7e41d55e5351469e6360245260446000fd5b600081815260008051602061191f8339815191526020908152604080832033845290915290205460ff16156116075750565b63e2517d3f60e01b6000523360045260245260446000fd5b6001600160a01b03811660009081527fb7db2dd08fcb62d0c9e08c51941cae53c267786a0b75803fb7960902fc8ef97d602052604090205460ff166116cb576001600160a01b031660008181527fb7db2dd08fcb62d0c9e08c51941cae53c267786a0b75803fb7960902fc8ef97d60205260408120805460ff191660011790553391907f2f8788117e7eff1d82e926ec794901d17c78024a50270940304540a733656f0d8180a4600190565b50600090565b600081815260008051602061191f833981519152602090815260408083206001600160a01b038616845290915290205460ff1661177357600081815260008051602061191f833981519152602090815260408083206001600160a01b0395909516808452949091528120805460ff19166001179055339291907f2f8788117e7eff1d82e926ec794901d17c78024a50270940304540a733656f0d9080a4600190565b5050600090565b600081815260008051602061191f833981519152602090815260408083206001600160a01b038616845290915290205460ff161561177357600081815260008051602061191f833981519152602090815260408083206001600160a01b0395909516808452949091528120805460ff19169055339291907ff6391f5c32d9c69d2a47ea670b442974b53935d1edc7fd64eb21e047a839171b9080a4600190565b600260008051602061193f833981519152541461184557600260008051602061193f83398151915255565b633ee5aeb560e01b60005260046000fd5b6040516323b872dd60e01b60208083019182526001600160a01b039485166024840152949093166044820152606480820195909552938452926000919061189e6084826112e4565b519082855af1156114ba576000513d6118e757506001600160a01b0381163b155b6118c65750565b635274afe760e01b60009081526001600160a01b0391909116600452602490fd5b600114156118bf565b60ff60008051602061195f8339815191525460401c161561190d57565b631afcd79f60e31b60005260046000fdfe02dd7bc7dec4dceedda775e58dd541e08a116c6c53815c0bd028192f7b6268009b779b17422d0df92223018b32b4d1fa46e071723d6817e2486d003becc55f00f0c57e16840df040f15088dc2f81fe391c3923bec73e23a9662efc9c229c6a00a2646970667358221220711fc423ddc18a34f35081362da17658dec801d8d5be0c3f09fb5cc2567216bc64736f6c634300081c0033",
  "linkReferences": {},
  "deployedLinkReferences": {}
}