{
  "_format": "hh-sol-artifact-1",
  "contractName": "FactoryWidePauseWindow",
  "sourceName": "contracts/dexPool/balancer-v2/@balancer-labs/v2-pool-utils/contracts/factories/FactoryWidePauseWindow.sol",
  "abi": [
    {
      "inputs": [],
      "stateMutability": "nonpayable",
      "type": "constructor"
    },
    {
      "inputs": [],
      "name": "getPauseConfiguration",
      "outputs": [
        {
          "internalType": "uint256",
          "name": "pauseWindowDuration",
          "type": "uint256"
        },
        {
          "internalType": "uint256",
          "name": "bufferPeriodDuration",
          "type": "uint256"
        }
      ],
      "stateMutability": "view",
      "type": "function"
    }
  ],
  "bytecode": "0x60a080604052346041576276a7004201804211602b5760805260d6908161004782396080518160360152f35b634e487b7160e01b600052601160045260246000fd5b600080fdfe60806040526004361015601157600080fd5b60003560e01c632da47c4014602557600080fd5b34609b576000366003190112609b577f0000000000000000000000000000000000000000000000000000000000000000804210600014609157428103908111607b5760409062278d005b82519182526020820152f35b634e487b7160e01b600052601160045260246000fd5b506040600080606f565b600080fdfea2646970667358221220f270682489498df9146005edf7f4c5bff80c9318d116108d39db9282a905d1f464736f6c634300081c0033",
  "linkReferences": {},
  "deployedLinkReferences": {}
}