{
  "_format": "hh-sol-artifact-1",
  "contractName": "AgentFactoryV3",
  "sourceName": "contracts/virtualPersona/AgentFactoryV3.sol",
  "abi": [
    {
      "inputs": [],
      "stateMutability": "nonpayable",
      "type": "constructor"
    },
    {
      "inputs": [],
      "name": "AccessControlBadConfirmation",
      "type": "error"
    },
    {
      "inputs": [
        {
          "internalType": "address",
          "name": "account",
          "type": "address"
        },
        {
          "internalType": "bytes32",
          "name": "neededRole",
          "type": "bytes32"
        }
      ],
      "name": "AccessControlUnauthorizedAccount",
      "type": "error"
    },
    {
      "inputs": [],
      "name": "EnforcedPause",
      "type": "error"
    },
    {
      "inputs": [],
      "name": "ExpectedPause",
      "type": "error"
    },
    {
      "inputs": [],
      "name": "FailedDeployment",
      "type": "error"
    },
    {
      "inputs": [
        {
          "internalType": "uint256",
          "name": "balance",
          "type": "uint256"
        },
        {
          "internalType": "uint256",
          "name": "needed",
          "type": "uint256"
        }
      ],
      "name": "InsufficientBalance",
      "type": "error"
    },
    {
      "inputs": [],
      "name": "InvalidInitialization",
      "type": "error"
    },
    {
      "inputs": [],
      "name": "NotInitializing",
      "type": "error"
    },
    {
      "inputs": [
        {
          "internalType": "address",
          "name": "token",
          "type": "address"
        }
      ],
      "name": "SafeERC20FailedOperation",
      "type": "error"
    },
    {
      "anonymous": false,
      "inputs": [
        {
          "indexed": false,
          "internalType": "uint256",
          "name": "newThreshold",
          "type": "uint256"
        }
      ],
      "name": "ApplicationThresholdUpdated",
      "type": "event"
    },
    {
      "anonymous": false,
      "inputs": [
        {
          "indexed": false,
          "internalType": "address",
          "name": "newGov",
          "type": "address"
        }
      ],
      "name": "GovUpdated",
      "type": "event"
    },
    {
      "anonymous": false,
      "inputs": [
        {
          "indexed": false,
          "internalType": "address",
          "name": "token",
          "type": "address"
        },
        {
          "indexed": false,
          "internalType": "address",
          "name": "dao",
          "type": "address"
        }
      ],
      "name": "ImplContractsUpdated",
      "type": "event"
    },
    {
      "anonymous": false,
      "inputs": [
        {
          "indexed": false,
          "internalType": "uint64",
          "name": "version",
          "type": "uint64"
        }
      ],
      "name": "Initialized",
      "type": "event"
    },
    {
      "anonymous": false,
      "inputs": [
        {
          "indexed": false,
          "internalType": "uint256",
          "name": "id",
          "type": "uint256"
        }
      ],
      "name": "NewApplication",
      "type": "event"
    },
    {
      "anonymous": false,
      "inputs": [
        {
          "indexed": false,
          "internalType": "uint256",
          "name": "virtualId",
          "type": "uint256"
        },
        {
          "indexed": false,
          "internalType": "address",
          "name": "token",
          "type": "address"
        },
        {
          "indexed": false,
          "internalType": "address",
          "name": "dao",
          "type": "address"
        },
        {
          "indexed": false,
          "internalType": "address",
          "name": "tba",
          "type": "address"
        },
        {
          "indexed": false,
          "internalType": "address",
          "name": "veToken",
          "type": "address"
        },
        {
          "indexed": false,
          "internalType": "address",
          "name": "lp",
          "type": "address"
        }
      ],
      "name": "NewPersona",
      "type": "event"
    },
    {
      "anonymous": false,
      "inputs": [
        {
          "indexed": false,
          "internalType": "address",
          "name": "token",
          "type": "address"
        },
        {
          "indexed": false,
          "internalType": "address",
          "name": "lp",
          "type": "address"
        }
      ],
      "name": "NewPersonaOasis",
      "type": "event"
    },
    {
      "anonymous": false,
      "inputs": [
        {
          "indexed": false,
          "internalType": "address",
          "name": "account",
          "type": "address"
        }
      ],
      "name": "Paused",
      "type": "event"
    },
    {
      "anonymous": false,
      "inputs": [
        {
          "indexed": true,
          "internalType": "bytes32",
          "name": "role",
          "type": "bytes32"
        },
        {
          "indexed": true,
          "internalType": "bytes32",
          "name": "previousAdminRole",
          "type": "bytes32"
        },
        {
          "indexed": true,
          "internalType": "bytes32",
          "name": "newAdminRole",
          "type": "bytes32"
        }
      ],
      "name": "RoleAdminChanged",
      "type": "event"
    },
    {
      "anonymous": false,
      "inputs": [
        {
          "indexed": true,
          "internalType": "bytes32",
          "name": "role",
          "type": "bytes32"
        },
        {
          "indexed": true,
          "internalType": "address",
          "name": "account",
          "type": "address"
        },
        {
          "indexed": true,
          "internalType": "address",
          "name": "sender",
          "type": "address"
        }
      ],
      "name": "RoleGranted",
      "type": "event"
    },
    {
      "anonymous": false,
      "inputs": [
        {
          "indexed": true,
          "internalType": "bytes32",
          "name": "role",
          "type": "bytes32"
        },
        {
          "indexed": true,
          "internalType": "address",
          "name": "account",
          "type": "address"
        },
        {
          "indexed": true,
          "internalType": "address",
          "name": "sender",
          "type": "address"
        }
      ],
      "name": "RoleRevoked",
      "type": "event"
    },
    {
      "anonymous": false,
      "inputs": [
        {
          "indexed": false,
          "internalType": "address",
          "name": "account",
          "type": "address"
        }
      ],
      "name": "Unpaused",
      "type": "event"
    },
    {
      "inputs": [],
      "name": "BONDING_ROLE",
      "outputs": [
        {
          "internalType": "bytes32",
          "name": "",
          "type": "bytes32"
        }
      ],
      "stateMutability": "view",
      "type": "function"
    },
    {
      "inputs": [],
      "name": "DEFAULT_ADMIN_ROLE",
      "outputs": [
        {
          "internalType": "bytes32",
          "name": "",
          "type": "bytes32"
        }
      ],
      "stateMutability": "view",
      "type": "function"
    },
    {
      "inputs": [],
      "name": "WITHDRAW_ROLE",
      "outputs": [
        {
          "internalType": "bytes32",
          "name": "",
          "type": "bytes32"
        }
      ],
      "stateMutability": "view",
      "type": "function"
    },
    {
      "inputs": [],
      "name": "_baseTokenSymbol",
      "outputs": [
        {
          "internalType": "string",
          "name": "",
          "type": "string"
        }
      ],
      "stateMutability": "view",
      "type": "function"
    },
    {
      "inputs": [
        {
          "internalType": "uint256",
          "name": "",
          "type": "uint256"
        }
      ],
      "name": "allDAOs",
      "outputs": [
        {
          "internalType": "address",
          "name": "",
          "type": "address"
        }
      ],
      "stateMutability": "view",
      "type": "function"
    },
    {
      "inputs": [
        {
          "internalType": "uint256",
          "name": "",
          "type": "uint256"
        }
      ],
      "name": "allTokens",
      "outputs": [
        {
          "internalType": "address",
          "name": "",
          "type": "address"
        }
      ],
      "stateMutability": "view",
      "type": "function"
    },
    {
      "inputs": [
        {
          "internalType": "uint256",
          "name": "",
          "type": "uint256"
        }
      ],
      "name": "allTradingTokens",
      "outputs": [
        {
          "internalType": "address",
          "name": "",
          "type": "address"
        }
      ],
      "stateMutability": "view",
      "type": "function"
    },
    {
      "inputs": [],
      "name": "applicationThreshold",
      "outputs": [
        {
          "internalType": "uint256",
          "name": "",
          "type": "uint256"
        }
      ],
      "stateMutability": "view",
      "type": "function"
    },
    {
      "inputs": [],
      "name": "assetToken",
      "outputs": [
        {
          "internalType": "address",
          "name": "",
          "type": "address"
        }
      ],
      "stateMutability": "view",
      "type": "function"
    },
    {
      "inputs": [],
      "name": "defaultDelegatee",
      "outputs": [
        {
          "internalType": "address",
          "name": "",
          "type": "address"
        }
      ],
      "stateMutability": "view",
      "type": "function"
    },
    {
      "inputs": [
        {
          "internalType": "uint256",
          "name": "id",
          "type": "uint256"
        },
        {
          "internalType": "bool",
          "name": "canStake",
          "type": "bool"
        }
      ],
      "name": "executeApplication",
      "outputs": [],
      "stateMutability": "nonpayable",
      "type": "function"
    },
    {
      "inputs": [
        {
          "internalType": "uint256",
          "name": "id",
          "type": "uint256"
        },
        {
          "internalType": "uint256",
          "name": "totalSupply",
          "type": "uint256"
        },
        {
          "internalType": "uint256",
          "name": "lpSupply",
          "type": "uint256"
        },
        {
          "internalType": "address",
          "name": "vault",
          "type": "address"
        }
      ],
      "name": "executeBondingCurveApplication",
      "outputs": [
        {
          "internalType": "address",
          "name": "",
          "type": "address"
        }
      ],
      "stateMutability": "nonpayable",
      "type": "function"
    },
    {
      "inputs": [
        {
          "internalType": "uint256",
          "name": "proposalId",
          "type": "uint256"
        }
      ],
      "name": "getApplication",
      "outputs": [
        {
          "components": [
            {
              "internalType": "string",
              "name": "name",
              "type": "string"
            },
            {
              "internalType": "string",
              "name": "symbol",
              "type": "string"
            },
            {
              "internalType": "string",
              "name": "tokenURI",
              "type": "string"
            },
            {
              "internalType": "enum AgentFactoryV3.ApplicationStatus",
              "name": "status",
              "type": "uint8"
            },
            {
              "internalType": "uint256",
              "name": "withdrawableAmount",
              "type": "uint256"
            },
            {
              "internalType": "address",
              "name": "proposer",
              "type": "address"
            },
            {
              "internalType": "uint8[]",
              "name": "cores",
              "type": "uint8[]"
            },
            {
              "internalType": "uint256",
              "name": "proposalEndBlock",
              "type": "uint256"
            },
            {
              "internalType": "uint256",
              "name": "virtualId",
              "type": "uint256"
            },
            {
              "internalType": "bytes32",
              "name": "tbaSalt",
              "type": "bytes32"
            },
            {
              "internalType": "address",
              "name": "tbaImplementation",
              "type": "address"
            },
            {
              "internalType": "uint32",
              "name": "daoVotingPeriod",
              "type": "uint32"
            },
            {
              "internalType": "uint256",
              "name": "daoThreshold",
              "type": "uint256"
            }
          ],
          "internalType": "struct AgentFactoryV3.Application",
          "name": "",
          "type": "tuple"
        }
      ],
      "stateMutability": "view",
      "type": "function"
    },
    {
      "inputs": [],
      "name": "getKuruRouterAddress",
      "outputs": [
        {
          "internalType": "address",
          "name": "",
          "type": "address"
        }
      ],
      "stateMutability": "view",
      "type": "function"
    },
    {
      "inputs": [
        {
          "internalType": "bytes32",
          "name": "role",
          "type": "bytes32"
        }
      ],
      "name": "getRoleAdmin",
      "outputs": [
        {
          "internalType": "bytes32",
          "name": "",
          "type": "bytes32"
        }
      ],
      "stateMutability": "view",
      "type": "function"
    },
    {
      "inputs": [],
      "name": "gov",
      "outputs": [
        {
          "internalType": "address",
          "name": "",
          "type": "address"
        }
      ],
      "stateMutability": "view",
      "type": "function"
    },
    {
      "inputs": [
        {
          "internalType": "bytes32",
          "name": "role",
          "type": "bytes32"
        },
        {
          "internalType": "address",
          "name": "account",
          "type": "address"
        }
      ],
      "name": "grantRole",
      "outputs": [],
      "stateMutability": "nonpayable",
      "type": "function"
    },
    {
      "inputs": [
        {
          "internalType": "bytes32",
          "name": "role",
          "type": "bytes32"
        },
        {
          "internalType": "address",
          "name": "account",
          "type": "address"
        }
      ],
      "name": "hasRole",
      "outputs": [
        {
          "internalType": "bool",
          "name": "",
          "type": "bool"
        }
      ],
      "stateMutability": "view",
      "type": "function"
    },
    {
      "inputs": [
        {
          "internalType": "string",
          "name": "name",
          "type": "string"
        },
        {
          "internalType": "string",
          "name": "symbol",
          "type": "string"
        },
        {
          "internalType": "uint8[]",
          "name": "cores",
          "type": "uint8[]"
        },
        {
          "internalType": "bytes32",
          "name": "tbaSalt",
          "type": "bytes32"
        },
        {
          "internalType": "address",
          "name": "tbaImplementation",
          "type": "address"
        },
        {
          "internalType": "uint32",
          "name": "daoVotingPeriod",
          "type": "uint32"
        },
        {
          "internalType": "uint256",
          "name": "daoThreshold",
          "type": "uint256"
        },
        {
          "internalType": "uint256",
          "name": "applicationThreshold_",
          "type": "uint256"
        }
      ],
      "name": "initFromBondingCurve",
      "outputs": [
        {
          "internalType": "uint256",
          "name": "",
          "type": "uint256"
        }
      ],
      "stateMutability": "nonpayable",
      "type": "function"
    },
    {
      "inputs": [
        {
          "internalType": "address",
          "name": "tokenImplementation_",
          "type": "address"
        },
        {
          "internalType": "address",
          "name": "assetToken_",
          "type": "address"
        },
        {
          "internalType": "uint256",
          "name": "applicationThreshold_",
          "type": "uint256"
        },
        {
          "internalType": "uint256",
          "name": "nextId_",
          "type": "uint256"
        },
        {
          "internalType": "address",
          "name": "kuruRouterAddress_",
          "type": "address"
        },
        {
          "internalType": "string",
          "name": "baseTokenSymbol_",
          "type": "string"
        }
      ],
      "name": "initialize",
      "outputs": [],
      "stateMutability": "nonpayable",
      "type": "function"
    },
    {
      "inputs": [],
      "name": "maturityDuration",
      "outputs": [
        {
          "internalType": "uint256",
          "name": "",
          "type": "uint256"
        }
      ],
      "stateMutability": "view",
      "type": "function"
    },
    {
      "inputs": [],
      "name": "pause",
      "outputs": [],
      "stateMutability": "nonpayable",
      "type": "function"
    },
    {
      "inputs": [],
      "name": "paused",
      "outputs": [
        {
          "internalType": "bool",
          "name": "",
          "type": "bool"
        }
      ],
      "stateMutability": "view",
      "type": "function"
    },
    {
      "inputs": [
        {
          "internalType": "string",
          "name": "name",
          "type": "string"
        },
        {
          "internalType": "string",
          "name": "symbol",
          "type": "string"
        },
        {
          "internalType": "string",
          "name": "tokenURI",
          "type": "string"
        },
        {
          "internalType": "uint8[]",
          "name": "cores",
          "type": "uint8[]"
        },
        {
          "internalType": "bytes32",
          "name": "tbaSalt",
          "type": "bytes32"
        },
        {
          "internalType": "address",
          "name": "tbaImplementation",
          "type": "address"
        },
        {
          "internalType": "uint32",
          "name": "daoVotingPeriod",
          "type": "uint32"
        },
        {
          "internalType": "uint256",
          "name": "daoThreshold",
          "type": "uint256"
        }
      ],
      "name": "proposeAgent",
      "outputs": [
        {
          "internalType": "uint256",
          "name": "",
          "type": "uint256"
        }
      ],
      "stateMutability": "nonpayable",
      "type": "function"
    },
    {
      "inputs": [
        {
          "internalType": "bytes32",
          "name": "role",
          "type": "bytes32"
        },
        {
          "internalType": "address",
          "name": "callerConfirmation",
          "type": "address"
        }
      ],
      "name": "renounceRole",
      "outputs": [],
      "stateMutability": "nonpayable",
      "type": "function"
    },
    {
      "inputs": [
        {
          "internalType": "bytes32",
          "name": "role",
          "type": "bytes32"
        },
        {
          "internalType": "address",
          "name": "account",
          "type": "address"
        }
      ],
      "name": "revokeRole",
      "outputs": [],
      "stateMutability": "nonpayable",
      "type": "function"
    },
    {
      "inputs": [
        {
          "internalType": "uint256",
          "name": "newThreshold",
          "type": "uint256"
        }
      ],
      "name": "setApplicationThreshold",
      "outputs": [],
      "stateMutability": "nonpayable",
      "type": "function"
    },
    {
      "inputs": [
        {
          "internalType": "address",
          "name": "newToken",
          "type": "address"
        }
      ],
      "name": "setAssetToken",
      "outputs": [],
      "stateMutability": "nonpayable",
      "type": "function"
    },
    {
      "inputs": [
        {
          "internalType": "address",
          "name": "newDelegatee",
          "type": "address"
        }
      ],
      "name": "setDefaultDelegatee",
      "outputs": [],
      "stateMutability": "nonpayable",
      "type": "function"
    },
    {
      "inputs": [
        {
          "internalType": "address",
          "name": "token",
          "type": "address"
        }
      ],
      "name": "setImplementations",
      "outputs": [],
      "stateMutability": "nonpayable",
      "type": "function"
    },
    {
      "inputs": [
        {
          "internalType": "address",
          "name": "kuruRouterAddress_",
          "type": "address"
        }
      ],
      "name": "setKuruRouterAddress",
      "outputs": [],
      "stateMutability": "nonpayable",
      "type": "function"
    },
    {
      "inputs": [
        {
          "internalType": "uint256",
          "name": "newDuration",
          "type": "uint256"
        }
      ],
      "name": "setMaturityDuration",
      "outputs": [],
      "stateMutability": "nonpayable",
      "type": "function"
    },
    {
      "inputs": [
        {
          "internalType": "address",
          "name": "newTokenAdmin",
          "type": "address"
        }
      ],
      "name": "setTokenAdmin",
      "outputs": [],
      "stateMutability": "nonpayable",
      "type": "function"
    },
    {
      "inputs": [
        {
          "internalType": "uint256",
          "name": "maxSupply",
          "type": "uint256"
        },
        {
          "internalType": "uint256",
          "name": "lpSupply",
          "type": "uint256"
        },
        {
          "internalType": "uint256",
          "name": "vaultSupply",
          "type": "uint256"
        },
        {
          "internalType": "uint256",
          "name": "maxTokensPerWallet",
          "type": "uint256"
        },
        {
          "internalType": "uint256",
          "name": "maxTokensPerTxn",
          "type": "uint256"
        },
        {
          "internalType": "uint256",
          "name": "botProtectionDurationInSeconds",
          "type": "uint256"
        },
        {
          "internalType": "address",
          "name": "vault",
          "type": "address"
        }
      ],
      "name": "setTokenSupplyParams",
      "outputs": [],
      "stateMutability": "nonpayable",
      "type": "function"
    },
    {
      "inputs": [
        {
          "internalType": "uint256",
          "name": "projectBuyTaxBasisPoints",
          "type": "uint256"
        },
        {
          "internalType": "uint256",
          "name": "projectSellTaxBasisPoints",
          "type": "uint256"
        },
        {
          "internalType": "uint256",
          "name": "taxSwapThresholdBasisPoints",
          "type": "uint256"
        },
        {
          "internalType": "address",
          "name": "projectTaxRecipient",
          "type": "address"
        }
      ],
      "name": "setTokenTaxParams",
      "outputs": [],
      "stateMutability": "nonpayable",
      "type": "function"
    },
    {
      "inputs": [
        {
          "internalType": "bytes4",
          "name": "interfaceId",
          "type": "bytes4"
        }
      ],
      "name": "supportsInterface",
      "outputs": [
        {
          "internalType": "bool",
          "name": "",
          "type": "bool"
        }
      ],
      "stateMutability": "view",
      "type": "function"
    },
    {
      "inputs": [],
      "name": "tokenImplementation",
      "outputs": [
        {
          "internalType": "address",
          "name": "",
          "type": "address"
        }
      ],
      "stateMutability": "view",
      "type": "function"
    },
    {
      "inputs": [],
      "name": "totalAgents",
      "outputs": [
        {
          "internalType": "uint256",
          "name": "",
          "type": "uint256"
        }
      ],
      "stateMutability": "view",
      "type": "function"
    },
    {
      "inputs": [],
      "name": "unpause",
      "outputs": [],
      "stateMutability": "nonpayable",
      "type": "function"
    },
    {
      "inputs": [
        {
          "internalType": "uint256",
          "name": "id",
          "type": "uint256"
        }
      ],
      "name": "withdraw",
      "outputs": [],
      "stateMutability": "nonpayable",
      "type": "function"
    }
  ],
  "bytecode": "0x6080806040523460d2577ff0c57e16840df040f15088dc2f81fe391c3923bec73e23a9662efc9c229c6a005460ff8160401c1660c1576002600160401b03196001600160401b03821601605c575b604051613aaf90816100d88239f35b6001600160401b0319166001600160401b039081177ff0c57e16840df040f15088dc2f81fe391c3923bec73e23a9662efc9c229c6a005581527fc7f505b2f371ae2175ee4913f4499e1f2633a7b5936321eed1cdaeb6115181d290602090a13880604d565b63f92ee8a960e01b60005260046000fd5b600080fdfe608080604052600436101561001357600080fd5b600090813560e01c90816301ffc9a714612f0b57508063063513b714612eed5780630c4cb55c14612ec45780631083f76114612e9b57806312d43a5114612e725780631f2f4bfd1461263857806323c315961461231f578063248a9ca3146122f857806326bde5aa146122b85780632a7d4a1f146121185780632e1a7d4d14611fb05780632f2ff15d14611f7e5780632f3a3d5d14611f555780633094afb314611f1a57806336568abe14611ed55780633f4ba83a14611e535780635c975abb14611e235780635ca3cedf14611c9e578063634282af14611c315780638456cb5914611bbc57806391d1485414611b635780639352dace14611b235780639bd22f6014611ae35780639d7b684214611aa35780639e4ec30a146113e0578063a217fddf146113c4578063aa3d000a14610ed0578063b4136bd814610e4f578063b4a5153314610e26578063bd1cf25814610dd8578063c505371214610dba578063c6ce40c914610a77578063d547741f14610a3c578063d739ac2914610a19578063ddf44275146109fb578063df1d67ce146109b8578063e02023a11461097d578063e887b1cc14610939578063f0cf157a1461021b5763f7457594146101d957600080fd5b34610218576020366003190112610218576101f2612fa1565b6101fa61363e565b60018060a01b03166001600160601b0360a01b600a541617600a5580f35b80fd5b503461021857610100366003190112610218576004356001600160401b0381116109355761024d9036906004016130b0565b906024356001600160401b0381116109355761026d9036906004016130b0565b906044356001600160401b0381116109355761028d903690600401613106565b92610296612fcd565b60a4359063ffffffff82168092036109315760e435956102b4613916565b6102bc6135cc565b6005546040516370a0823160e01b81523360048201526001600160a01b0390911690602081602481855afa80156108f057899088906108fb575b610302925010156134bf565b604051636eb1769f60e11b8152336004820152306024820152602081604481855afa9081156108f05790899188916108b4575b50916103468261035b94101561350b565b61035284511515613562565b30903390613940565b845495610367876135a7565b86556040519461037686613042565b8552602085015260209660405161038d898261308f565b868152604086015285606086015260808501523360a085015260c08401524360e08401528361010084015260643561012084015260018060a01b031661014083015261016082015260c43561018082015282825260078452604082209181518051906001600160401b0382116107ca576104118261040b8754613176565b876133ce565b8690601f831160011461084c576104409291849183610751575b50508160011b916000199060031b1c19161790565b83555b60208201518051906001600160401b0382116107ca576104738261046a6001880154613176565b600188016133ce565b8690601f83116001146107de576104a192918491836107515750508160011b916000199060031b1c19161790565b60018401555b60408201518051906001600160401b0382116107ca576104d7826104ce6002880154613176565b600288016133ce565b8690601f831160011461075c5761050592918491836107515750508160011b916000199060031b1c19161790565b60028401555b6060820151600381101561073d576105269060038501613491565b6080820151600484015560a08201516005840180546001600160a01b0319166001600160a01b039290921691909117905560c0820151805160068501916001600160401b03821161072957600160401b821161072957879083548385558084106106dd575b5001918352868320908060051c92845b84811061069f5750601f1982169091039081610653575b60e0860151600788015561010086015160088801556101208601516009880155610140860151600a8801805461016089015163ffffffff60a01b60a09190911b166001600160a01b039093166001600160c01b031990911617919091179055610180860151600b880155604051888152899089907f0ff47c4a3dc48719ecfd1876116e80d7d76ec7cb67248ae49449f9104747af29908390a1604051908152f35b90845b8982821061067157505050500155610180600b3880806105b2565b61069584978360ff60019596975116919060ff809160031b9316831b921b19161790565b9601929101610656565b85865b8b8082106106b85750508482015560010161059b565b845191949260019260ff600388901b81811b19909316911690911b17920193016106a2565b61070790858752838720601f80870160051c8201928188168061070d575b500160051c01906133b7565b3861058b565b600019850190815490600019908a0360031b1c169055386106fb565b634e487b7160e01b84526041600452602484fd5b634e487b7160e01b82526021600452602482fd5b01519050388061042b565b91906002860184528784209084935b89601f19851686106107b157506001945083601f19811610610798575b505050811b01600284015561050b565b015160001960f88460031b161c19169055388080610788565b828201518455948501946001909301929091019061076b565b634e487b7160e01b83526041600452602483fd5b91906001860184528784209084935b89601f198516861061083357506001945083601f1981161061081a575b505050811b0160018401556104a7565b015160001960f88460031b161c1916905538808061080a565b82820151845594850194600190930192909101906107ed565b91908584528784209084935b89601f198516861061089b57506001945083601f19811610610882575b505050811b018355610443565b015160001960f88460031b161c19169055388080610875565b8282015184559485019460019093019290910190610858565b9150506020813d6020116108e8575b816108d06020938361308f565b810103126108e357518890610346610335565b600080fd5b3d91506108c3565b6040513d89823e3d90fd5b50506020813d602011610929575b816109166020938361308f565b810103126108e3578861030291516102f6565b3d9150610909565b8380fd5b5080fd5b5034610218576020366003190112610218576004359060095482101561021857602061096483613011565b905460405160039290921b1c6001600160a01b03168152f35b503461021857806003193601126102185760206040517f5d8e12c39142ff96d79d04d15d1ba1269e4fe57bb9d26f43523628b34ba108ec8152f35b50346102185780600319360112610218576109f76040516109e3816109dc816131b0565b038261308f565b604051918291602083526020830190612f60565b0390f35b50346102185780600319360112610218576020600254604051908152f35b503461021857602036600319011261021857610a3361363e565b60043560065580f35b503461021857604036600319011261021857610a73600435610a5c612fb7565b90610a6e610a6982613396565b613691565b613876565b5080f35b50346102185760c036600319011261021857610a91612fa1565b90610a9a612fb7565b91610aa3612fcd565b60a4356001600160401b03811161093157610ac29036906004016130b0565b93600080516020613a5a833981519152549260ff8460401c1615936001600160401b03811680159081610db2575b6001149081610da8575b159081610d9f575b50610d905767ffffffffffffffff198116600117600080516020613a5a8339815191525584610d63575b50610b356139eb565b610b3d6139eb565b60ff19600080516020613a3a8339815191525416600080516020613a3a83398151915255610b696139eb565b60018060a01b03166001600160601b0360a01b600154161760015560018060a01b03166001600160601b0360a01b60055416176005556044356002556064358355610bb33361371b565b5060018060a01b03166001600160601b0360a01b600e541617600e5582516001600160401b0381116107ca57610bea600f54613176565b601f8111610d0a575b506020601f8211600114610c895781908495610c249495926107515750508160011b916000199060031b1c19161790565b600f555b610c2f5780f35b68ff000000000000000019600080516020613a5a8339815191525416600080516020613a5a833981519152557fc7f505b2f371ae2175ee4913f4499e1f2633a7b5936321eed1cdaeb6115181d2602060405160018152a180f35b600f84527f8d1108e10bcb7c27dddfc02ed9d693a074039d026cf4ea4240b40f7d581ac80290601f198316855b818110610cf257509583600195969710610cd9575b505050811b01600f55610c28565b015160001960f88460031b161c19169055388080610ccb565b9192602060018192868b015181550194019201610cb6565b600f8452610d53907f8d1108e10bcb7c27dddfc02ed9d693a074039d026cf4ea4240b40f7d581ac802601f840160051c81019160208510610d59575b601f0160051c01906133b7565b38610bf3565b9091508190610d46565b68ffffffffffffffffff19166801000000000000000117600080516020613a5a8339815191525538610b2c565b63f92ee8a960e01b8652600486fd5b90501538610b02565b303b159150610afa565b869150610af0565b50346102185780600319360112610218576020600354604051908152f35b5034610218576020366003190112610218577fcfa33021ab0175831433b2f3bd8eeb24a22f5ae53ca0e660a246811754f9e34a6020600435610e1861363e565b80600255604051908152a180f35b5034610218578060031936011261021857600e546040516001600160a01b039091168152602090f35b5034610218576020366003190112610218576004359060045482101561021857600454821015610ebc57600481527f8a35acfbc15ff81a39ae7d344fd709f28e8600b4aa8c65c6b64bfe7fe36bd19b9091015460405160039290921b1c6001600160a01b03168152602090f35b634e487b7160e01b81526032600452602490fd5b503461021857604036600319011261021857600435906024358015150361021857600854610f0460ff8260a01c1615613359565b60ff60a01b1916600160a01b1760085581815260076020526040812060050154336001600160a01b0391909116148015611374575b610f429061340a565b600e54604051600c546001600160a01b03909216918184610f6283613176565b808352926001811690811561135557506001146112f7575b610f869250038261308f565b60405193610f9e85610f97816131b0565b038661308f565b808452600760205260ff60036040862001541660038110156112e357610fc49015613445565b600a546001600160a01b0316156112a857835260076020526001604084209260048401958587549755600385018360ff1982541617905561102e604051956110178761101081846132d6565b038861308f565b61102760405180968193016132d6565b038461308f565b600154608881901c62ffffff16763d602d80600a3d3981f3363d3d373d3d3d363d7300000017875260781b6001600160781b0319166e5af43d82803e903d91602b57fd5bf3176020526037600987f06001600160a01b038116959094908615611299576110fa6110da916110ec604051976110a889613074565b600a546001600160a01b039081168a52600554166020808b019190915260408051918201529485936060850190612f60565b838103601f1901604085015290612f60565b03601f19810183528261308f565b863b156112955793918793916040519586946304b02e3d60e31b86526004860187905b6002821061126f575050509161116d61115c86959361114a6111849660e060448a015260e4890190612f60565b87810360031901606489015290612f60565b858103600319016084870152613251565b9160a48501526003198483030160c4850152612f60565b038183875af180156112645790849161124b575b5050600954600160401b81101561072957936111e7916111bf866001879801600955613011565b81546001600160a01b0360039290921b82811b199091169087901b17909155600554166136db565b803b1561124857818091602460405180948193631672aef960e21b83523060048401525af1801561123d57611228575b506008805460ff60a01b1916905580f35b816112329161308f565b610218578038611217565b6040513d84823e3d90fd5b50fd5b816112559161308f565b611260578238611198565b8280fd5b6040513d86823e3d90fd5b82516001600160a01b031681528c9850899750602092830192600192909201910161111d565b8780fd5b63b06ebf3d60e01b8852600488fd5b60405162461bcd60e51b8152602060048201526013602482015272151bdad95b8818591b5a5b881b9bdd081cd95d606a1b6044820152606490fd5b634e487b7160e01b85526021600452602485fd5b50600c85529084907fdf6966c971051c3d54ec59162606531493a51404a002842f56009d7e5cf4a8c75b818310611339575050906020610f8692820101610f7a565b6020919350806001915483858801015201910190918392611321565b60209250610f8694915060ff191682840152151560051b820101610f7a565b507f5d8e12c39142ff96d79d04d15d1ba1269e4fe57bb9d26f43523628b34ba108ec8152600080516020613a1a83398151915260209081526040808320336000908152925290205460ff16610f39565b5034610218578060031936011261021857602090604051908152f35b503461021857610100366003190112610218576004356001600160401b038111610935576114129036906004016130b0565b6024356001600160401b038111611260576114319036906004016130b0565b6044356001600160401b038111610931576114509036906004016130b0565b916064356001600160401b038111611a9f57611470903690600401613106565b60a4356001600160a01b03811690819003611a9b5760c4359163ffffffff8316809303611a975761149f613916565b6005546040516370a0823160e01b81523360048201526001600160a01b0390911690602081602481855afa908115611a8c578991611a5a575b506114e8600254809210156134bf565b604051636eb1769f60e11b815233600482015230602482015291602083604481845afa928315611a4f578a93611a19575b506103468261152994101561350b565b865495611535876135a7565b8855600254906040519561154887613042565b865260208601968752604086015287606086015260808501523360a085015260c08401524360e08401528561010084015260843561012084015261014083015261016082015260e4356101808201528284526007602052604084209181518051906001600160401b0382116118c2576115c58261040b8754613176565b602090601f83116001146119b6576115f492918891836107515750508160011b916000199060031b1c19161790565b83555b518051906001600160401b0382116119a2576116238261161a6001870154613176565b600187016133ce565b602090601f83116001146119395761165292918791836107515750508160011b916000199060031b1c19161790565b60018301555b6002820160408201518051906001600160401b0382116118c257611686826116808554613176565b856133ce565b602090601f83116001146118d6576116b592918891836107515750508160011b916000199060031b1c19161790565b90555b606081015160038110156112e3576116d39060038401613491565b6080810151600483015560a08101516005830180546001600160a01b0319166001600160a01b039290921691909117905560c0810151805160068401916001600160401b0382116118c257600160401b82116118c2576020908354838555808410611893575b500191865260208620908060051c92875b8481106118545750601f1982169091039081611803575b60e0850151600787015561010085015160088701556101208501516009870155610140850151600a8701805461016088015163ffffffff60a01b60a09190911b166001600160a01b039093166001600160c01b031990911617919091179055610180850151600b87015560405187815260209088907f0ff47c4a3dc48719ecfd1876116e80d7d76ec7cb67248ae49449f9104747af29908390a1604051908152f35b90875b818110611824575050500193909355602092610180600b3880611761565b909197602061184a6001928460ff8d5116919060ff809160031b9316831b921b19161790565b9901929101611806565b88895b6020811061186c57508482015560010161174a565b835190939160019160209160ff600388901b81811b199092169216901b1792019301611857565b6118bc90858a52838a20601f80870160051c8201928188168061070d57500160051c01906133b7565b38611739565b634e487b7160e01b87526041600452602487fd5b8388528188209190601f198416895b8181106119215750908460019594939210611908575b505050811b0190556116b8565b015160001960f88460031b161c191690553880806118fb565b929360206001819287860151815501950193016118e5565b6001850187528187209190601f198416885b81811061198a5750908460019594939210611971575b505050811b016001830155611658565b015160001960f88460031b161c19169055388080611961565b9293602060018192878601518155019501930161194b565b634e487b7160e01b86526041600452602486fd5b8588528188209190601f198416895b818110611a0157509084600195949392106119e8575b505050811b0183556115f7565b015160001960f88460031b161c191690553880806119db565b929360206001819287860151815501950193016119c5565b92506020833d602011611a47575b81611a346020938361308f565b810103126108e357915191610346611519565b3d9150611a27565b6040513d8c823e3d90fd5b90506020813d602011611a84575b81611a756020938361308f565b810103126108e35751386114d8565b3d9150611a68565b6040513d8b823e3d90fd5b8680fd5b8580fd5b8480fd5b503461021857602036600319011261021857611abd612fa1565b611ac561363e565b60018060a01b03166001600160601b0360a01b600b541617600b5580f35b503461021857602036600319011261021857611afd612fa1565b611b0561363e565b60018060a01b03166001600160601b0360a01b600e541617600e5580f35b503461021857602036600319011261021857611b3d612fa1565b611b4561363e565b60018060a01b03166001600160601b0360a01b600154161760015580f35b5034610218576040366003190112610218576040611b7f612fb7565b916004358152600080516020613a1a833981519152602052209060018060a01b0316600052602052602060ff604060002054166040519015158152f35b5034610218578060031936011261021857611bd561363e565b611bdd613916565b600160ff19600080516020613a3a833981519152541617600080516020613a3a833981519152557f62e78cea01bee320cd4e420270b5ea74000d11b0c9f74754ebdbfc544b05a2586020604051338152a180f35b5034610218576020366003190112610218576004359060035482101561021857600354821015610ebc5760038082527fc2575a0e9e593c00f959f8c92f12db2869c3395a3b0502d05e2516446f71f85b92909201546040516001600160a01b039290931b1c168152602090f35b503461021857611cad36612fe3565b91611cb994939461363e565b6040519460208601526040850152606084015260018060a01b0316608083015260808252611ce860a08361308f565b81516001600160401b038111611e0f57611d03600d54613176565b601f8111611dc1575b50602092601f8211600114611d435782938291611d3d94926107515750508160011b916000199060031b1c19161790565b600d5580f35b600d8352601f198216937fd7b6990105719101dabeb77144f2a3385c8033acd3af97e9423a695e81ad1eb591845b868110611da95750836001959610611d90575b505050811b01600d5580f35b015160001960f88460031b161c19169055388080611d84565b91926020600181928685015181550194019201611d71565b600d8352611e09907fd7b6990105719101dabeb77144f2a3385c8033acd3af97e9423a695e81ad1eb5601f840160051c81019160208510610d5957601f0160051c01906133b7565b38611d0c565b634e487b7160e01b82526041600452602482fd5b5034610218578060031936011261021857602060ff600080516020613a3a83398151915254166040519015158152f35b5034610218578060031936011261021857611e6c61363e565b600080516020613a3a8339815191525460ff811615611ec65760ff1916600080516020613a3a833981519152557f5db9ee0a495bf2e6ff9c91a7834c1ba4fdd244a5e8aa4e537bd38aeae4b073aa6020604051338152a180f35b638dfc202b60e01b8252600482fd5b503461021857604036600319011261021857611eef612fb7565b336001600160a01b03821603611f0b57610a7390600435613876565b63334bd91960e11b8252600482fd5b503461021857806003193601126102185760206040517f360f1ba4dc07a42c6671063d838f69946ccc4187f391399e06fd8ed4605900f38152f35b50346102185780600319360112610218576001546040516001600160a01b039091168152602090f35b503461021857604036600319011261021857610a73600435611f9e612fb7565b90611fab610a6982613396565b6137cd565b503461021857602036600319011261021857600854611fd560ff8260a01c1615613359565b60ff60a01b1916600160a01b176008556004358152600760205260408120600581018054336001600160a01b03919091161480156120c8575b6120179061340a565b600382019060ff82541660038110156112e3576120349015613445565b600783015443111561208357600492909201805490849055815460ff19166002179091556005549154612073926001600160a01b0391821691166136db565b6008805460ff60a01b1916905580f35b60405162461bcd60e51b815260206004820152601e60248201527f4170706c69636174696f6e206973206e6f74206d6174757265642079657400006044820152606490fd5b507f5d8e12c39142ff96d79d04d15d1ba1269e4fe57bb9d26f43523628b34ba108ec8352600080516020613a1a83398151915260209081526040808520336000908152925290205460ff1661200e565b50346102185760e03660031901126102185760c4356001600160a01b03811691908290036102185761214861363e565b60405191600435602084015260243560408401526044356060840152606435608084015260843560a084015260a43560c084015260e083015260e082526121916101008361308f565b81516001600160401b038111611e0f576121ac600c54613176565b601f811161226a575b50602092601f82116001146121ec57829382916121e694926107515750508160011b916000199060031b1c19161790565b600c5580f35b600c8352601f198216937fdf6966c971051c3d54ec59162606531493a51404a002842f56009d7e5cf4a8c791845b8681106122525750836001959610612239575b505050811b01600c5580f35b015160001960f88460031b161c1916905538808061222d565b9192602060018192868501518155019401920161221a565b600c83526122b2907fdf6966c971051c3d54ec59162606531493a51404a002842f56009d7e5cf4a8c7601f840160051c81019160208510610d5957601f0160051c01906133b7565b386121b5565b5034610218576020366003190112610218576122d2612fa1565b6122da61363e565b60018060a01b03166001600160601b0360a01b600554161760055580f35b5034610218576020366003190112610218576020612317600435613396565b604051908152f35b50346102185761232e36612fe3565b9092916123396135cc565b60085461234c60ff8260a01c1615613359565b60ff60a01b1916600160a01b1760085583810381811161262457604051948260208701526040860152606085015280608085015260a08401528360c084015260018060a01b031660e083015260e082526123a86101008361308f565b60018060a01b03600e541691604051916123c583611027816131b0565b808552600760205260ff6003604087200154166003811015612610576123eb9015613445565b600a546001600160a01b0316156112a857845260076020526001604085209360048501938685549555600386018360ff1982541617905561243e604051966110178861243781846132d6565b038961308f565b600154608881901c62ffffff16763d602d80600a3d3981f3363d3d373d3d3d363d7300000017885260781b6001600160781b0319166e5af43d82803e903d91602b57fd5bf3176020526037600988f06001600160a01b038116969094908715612601576124b86110da916110ec604051976110a889613074565b873b156125fd5793918893916040519586946304b02e3d60e31b86526004860187905b600282106125d7575050509161116d61115c86959361114a6125089660e060448a015260e4890190612f60565b038183885af180156125cc576125b8575b50600954600160401b8110156125a457906111bf82600161253e959401600955613011565b803b1561093557604051631672aef960e21b8152306004820152828160248183865af1801561259957612584575b6008805460ff60a01b19169055604051828152602090f35b61258f83809261308f565b610935578161256c565b6040513d85823e3d90fd5b634e487b7160e01b85526041600452602485fd5b846125c59195929561308f565b9238612519565b6040513d87823e3d90fd5b82516001600160a01b031681528d985089975060209283019260019290920191016124db565b8880fd5b63b06ebf3d60e01b8952600489fd5b634e487b7160e01b86526021600452602486fd5b634e487b7160e01b86526011600452602486fd5b5034610218576020366003190112610218578061018060405161265a81613042565b6060815260606020820152606060408201528260608201528260808201528260a0820152606060c08201528260e0820152826101008201528261012082015282610140820152826101608201520152600435815260076020526040812090604051906126c582613042565b6040516126d6816109dc81876132d6565b82526040516126ec816109dc81600188016132d6565b602083019081526040519361270885610f9781600285016132d6565b6040840194855260ff600382015416606085019060038110156112e357815260048201546080860190815260058301546001600160a01b031660a087019081526040516006850180548083529088526020808920949593949293928492918301918a915b81601f840110612cca575491818110612cb6575b818110612c9f575b818110612c88575b818110612c71575b818110612c5b575b818110612c44575b818110612c2d575b818110612c16575b818110612bff575b818110612be8575b818110612bd1575b818110612bba575b818110612ba3575b818110612b8c575b818110612b75575b818110612b5e575b818110612b47575b818110612b30575b818110612b19575b818110612b02575b818110612aeb575b818110612ad4575b818110612abd575b818110612aa6575b818110612a8f575b818110612a78575b818110612a61575b818110612a4a575b818110612a33575b818110612a1c575b818110612a05575b106129f7575b5003612882908361308f565b60c0880191825260078501549160e089019283526008860154936101008a019485526009870154956101208b01968752600a8801549b6101408c01988d600160a01b60019003168a526101608d01809e60a01c63ffffffff169052600b0154996101808d019a8b526040519c60208e52518d602081016101a090526101c00161290a91612f60565b90518d8203601f190160408f01526129229190612f60565b90518c8203601f190160608e015261293a9190612f60565b935160038110156129e35760808c01525160a08b0152516001600160a01b031660c08a015251888203601f190160e08a0152805180835260209283019892909101915b8181106129ca5750509051610100880152505161012086015251610140850152516001600160a01b0316610160840152925163ffffffff1661018083015291516101a08201529081900390f35b825160ff1689526020988901989092019160010161297d565b634e487b7160e01b8b52602160045260248bfd5b60f81c815260200138612876565b92602060019160ff8560f01c168152019301612870565b92602060019160ff8560e81c168152019301612868565b92602060019160ff8560e01c168152019301612860565b92602060019160ff8560d81c168152019301612858565b92602060019160ff8560d01c168152019301612850565b92602060019160ff8560c81c168152019301612848565b92602060019160ff8560c01c168152019301612840565b92602060019160ff8560b81c168152019301612838565b92602060019160ff8560b01c168152019301612830565b92602060019160ff8560a81c168152019301612828565b92602060019160ff8560a01c168152019301612820565b92602060019160ff8560981c168152019301612818565b92602060019160ff8560901c168152019301612810565b92602060019160ff8560881c168152019301612808565b92602060019160ff8560801c168152019301612800565b92602060019160ff8560781c1681520193016127f8565b92602060019160ff8560701c1681520193016127f0565b92602060019160ff8560681c1681520193016127e8565b92602060019160ff8560601c1681520193016127e0565b92602060019160ff8560581c1681520193016127d8565b92602060019160ff8560501c1681520193016127d0565b92602060019160ff8560481c1681520193016127c8565b92602060019160ff8560401c1681520193016127c0565b92602060019160ff8560381c1681520193016127b8565b92602060019160ff8560301c1681520193016127b0565b92602060019160ff8560281c1681520193016127a8565b92602060019160ff85831c1681520193016127a0565b92602060019160ff8560181c168152019301612798565b92602060019160ff8560101c168152019301612790565b92602060019160ff8560081c168152019301612788565b92602060019160ff85168152019301612780565b935090916001610400602092865460ff8116825260ff8160081c168583015260ff8160101c16604083015260ff8160181c16606083015260ff81861c16608083015260ff8160281c1660a083015260ff8160301c1660c083015260ff8160381c1660e083015260ff8160401c1661010083015260ff8160481c1661012083015260ff8160501c1661014083015260ff8160581c1661016083015260ff8160601c1661018083015260ff8160681c166101a083015260ff8160701c166101c083015260ff8160781c166101e083015260ff8160801c1661020083015260ff8160881c1661022083015260ff8160901c1661024083015260ff8160981c1661026083015260ff8160a01c1661028083015260ff8160a81c166102a083015260ff8160b01c166102c083015260ff8160b81c166102e083015260ff8160c01c1661030083015260ff8160c81c1661032083015260ff8160d01c1661034083015260ff8160d81c1661036083015260ff8160e01c1661038083015260ff8160e81c166103a083015260ff8160f01c166103c083015260f81c6103e082015201940192019085939261276c565b50346102185780600319360112610218576008546040516001600160a01b039091168152602090f35b50346102185780600319360112610218576005546040516001600160a01b039091168152602090f35b5034610218578060031936011261021857600b546040516001600160a01b039091168152602090f35b50346102185780600319360112610218576020600654604051908152f35b9050346109355760203660031901126109355760043563ffffffff60e01b81168091036112605760209250637965db0b60e01b8114908115612f4f575b5015158152f35b6301ffc9a760e01b14905038612f48565b919082519283825260005b848110612f8c575050826000602080949584010152601f8019910116010190565b80602080928401015182828601015201612f6b565b600435906001600160a01b03821682036108e357565b602435906001600160a01b03821682036108e357565b608435906001600160a01b03821682036108e357565b60809060031901126108e3576004359060243590604435906064356001600160a01b03811681036108e35790565b60095481101561302c57600960005260206000200190600090565b634e487b7160e01b600052603260045260246000fd5b6101a081019081106001600160401b0382111761305e57604052565b634e487b7160e01b600052604160045260246000fd5b604081019081106001600160401b0382111761305e57604052565b90601f801991011681019081106001600160401b0382111761305e57604052565b81601f820112156108e3578035906001600160401b03821161305e57604051926130e4601f8401601f19166020018561308f565b828452602083830101116108e357816000926020809301838601378301015290565b81601f820112156108e3578035916001600160401b03831161305e578260051b9160405193613138602085018661308f565b84526020808501938201019182116108e357602001915b81831061315c5750505090565b823560ff811681036108e35781526020928301920161314f565b90600182811c921680156131a6575b602083101461319057565b634e487b7160e01b600052602260045260246000fd5b91607f1691613185565b600f54600092916131c082613176565b808252916001811690811561323557506001146131db575050565b600f60009081529293509091907f8d1108e10bcb7c27dddfc02ed9d693a074039d026cf4ea4240b40f7d581ac8025b83831061321b575060209250010190565b60018160209294939454838587010152019101919061320a565b9050602093945060ff929192191683830152151560051b010190565b600d546000929161326182613176565b8082529160018116908115613235575060011461327c575050565b600d60009081529293509091907fd7b6990105719101dabeb77144f2a3385c8033acd3af97e9423a695e81ad1eb55b8383106132bc575060209250010190565b6001816020929493945483858701015201910191906132ab565b600092918154916132e683613176565b808352926001811690811561333c575060011461330257505050565b60009081526020812093945091925b838310613322575060209250010190565b600181602092949394548385870101520191019190613311565b915050602093945060ff929192191683830152151560051b010190565b1561336057565b60405162461bcd60e51b815260206004820152600e60248201526d31b0b73737ba103932b2b73a32b960911b6044820152606490fd5b600052600080516020613a1a83398151915260205260016040600020015490565b8181106133c2575050565b600081556001016133b7565b9190601f81116133dd57505050565b613408926000526020600020906020601f840160051c83019310610d5957601f0160051c01906133b7565b565b1561341157565b60405162461bcd60e51b815260206004820152600c60248201526b2737ba10383937b837b9b2b960a11b6044820152606490fd5b1561344c57565b60405162461bcd60e51b815260206004820152601960248201527f4170706c69636174696f6e206973206e6f7420616374697665000000000000006044820152606490fd5b9060038110156134a95760ff80198354169116179055565b634e487b7160e01b600052602160045260246000fd5b156134c657565b60405162461bcd60e51b815260206004820152601860248201527f496e73756666696369656e7420617373657420746f6b656e00000000000000006044820152606490fd5b1561351257565b60405162461bcd60e51b815260206004820152602260248201527f496e73756666696369656e7420617373657420746f6b656e20616c6c6f77616e604482015261636560f01b6064820152608490fd5b1561356957565b60405162461bcd60e51b815260206004820152601660248201527510dbdc995cc81b5d5cdd081899481c1c9bdd9a59195960521b6044820152606490fd5b60001981146135b65760010190565b634e487b7160e01b600052601160045260246000fd5b3360009081527f7fd9957335868d530b3a02e10a71f86271a34deadb5ee52b2ba3d611ed087617602052604090205460ff161561360557565b63e2517d3f60e01b600052336004527f360f1ba4dc07a42c6671063d838f69946ccc4187f391399e06fd8ed4605900f360245260446000fd5b3360009081527fb7db2dd08fcb62d0c9e08c51941cae53c267786a0b75803fb7960902fc8ef97d602052604090205460ff161561367757565b63e2517d3f60e01b60005233600452600060245260446000fd5b6000818152600080516020613a1a8339815191526020908152604080832033845290915290205460ff16156136c35750565b63e2517d3f60e01b6000523360045260245260446000fd5b60405163a9059cbb60e01b60208201526001600160a01b0390921660248301526044808301939093529181526134089161371660648361308f565b613984565b6001600160a01b03811660009081527fb7db2dd08fcb62d0c9e08c51941cae53c267786a0b75803fb7960902fc8ef97d602052604090205460ff166137c7576001600160a01b031660008181527fb7db2dd08fcb62d0c9e08c51941cae53c267786a0b75803fb7960902fc8ef97d60205260408120805460ff191660011790553391907f2f8788117e7eff1d82e926ec794901d17c78024a50270940304540a733656f0d8180a4600190565b50600090565b6000818152600080516020613a1a833981519152602090815260408083206001600160a01b038616845290915290205460ff1661386f576000818152600080516020613a1a833981519152602090815260408083206001600160a01b0395909516808452949091528120805460ff19166001179055339291907f2f8788117e7eff1d82e926ec794901d17c78024a50270940304540a733656f0d9080a4600190565b5050600090565b6000818152600080516020613a1a833981519152602090815260408083206001600160a01b038616845290915290205460ff161561386f576000818152600080516020613a1a833981519152602090815260408083206001600160a01b0395909516808452949091528120805460ff19169055339291907ff6391f5c32d9c69d2a47ea670b442974b53935d1edc7fd64eb21e047a839171b9080a4600190565b60ff600080516020613a3a833981519152541661392f57565b63d93c066560e01b60005260046000fd5b6040516323b872dd60e01b60208201526001600160a01b0392831660248201529290911660448301526064808301939093529181526134089161371660848361308f565b906000602091828151910182855af1156139df576000513d6139d657506001600160a01b0381163b155b6139b55750565b635274afe760e01b60009081526001600160a01b0391909116600452602490fd5b600114156139ae565b6040513d6000823e3d90fd5b60ff600080516020613a5a8339815191525460401c1615613a0857565b631afcd79f60e31b60005260046000fdfe02dd7bc7dec4dceedda775e58dd541e08a116c6c53815c0bd028192f7b626800cd5ed15c6e187e77e9aee88184c21f4f2182ab5827cb3b7e07fbedcd63f03300f0c57e16840df040f15088dc2f81fe391c3923bec73e23a9662efc9c229c6a00a26469706673582212209c5af32cee24c622f78f6d32892ee8b4e56fd5c4f4a688dc28f44067e10c5d2c64736f6c634300081c0033",
  "linkReferences": {},
  "deployedLinkReferences": {}
}