{
  "_format": "hh-sol-artifact-1",
  "contractName": "Bonding",
  "sourceName": "contracts/fun/Bonding.sol",
  "abi": [
    {
      "inputs": [],
      "stateMutability": "nonpayable",
      "type": "constructor"
    },
    {
      "inputs": [],
      "name": "InvalidInitialization",
      "type": "error"
    },
    {
      "inputs": [],
      "name": "NotInitializing",
      "type": "error"
    },
    {
      "inputs": [
        {
          "internalType": "address",
          "name": "owner",
          "type": "address"
        }
      ],
      "name": "OwnableInvalidOwner",
      "type": "error"
    },
    {
      "inputs": [
        {
          "internalType": "address",
          "name": "account",
          "type": "address"
        }
      ],
      "name": "OwnableUnauthorizedAccount",
      "type": "error"
    },
    {
      "inputs": [],
      "name": "ReentrancyGuardReentrantCall",
      "type": "error"
    },
    {
      "inputs": [
        {
          "internalType": "address",
          "name": "token",
          "type": "address"
        }
      ],
      "name": "SafeERC20FailedOperation",
      "type": "error"
    },
    {
      "inputs": [],
      "name": "ZeroPairAddress",
      "type": "error"
    },
    {
      "anonymous": false,
      "inputs": [
        {
          "indexed": true,
          "internalType": "address",
          "name": "token",
          "type": "address"
        },
        {
          "indexed": false,
          "internalType": "uint256",
          "name": "amount0",
          "type": "uint256"
        },
        {
          "indexed": false,
          "internalType": "uint256",
          "name": "amount1",
          "type": "uint256"
        }
      ],
      "name": "Deployed",
      "type": "event"
    },
    {
      "anonymous": false,
      "inputs": [
        {
          "indexed": true,
          "internalType": "address",
          "name": "token",
          "type": "address"
        },
        {
          "indexed": false,
          "internalType": "address",
          "name": "agentToken",
          "type": "address"
        }
      ],
      "name": "Graduated",
      "type": "event"
    },
    {
      "anonymous": false,
      "inputs": [
        {
          "indexed": false,
          "internalType": "uint64",
          "name": "version",
          "type": "uint64"
        }
      ],
      "name": "Initialized",
      "type": "event"
    },
    {
      "anonymous": false,
      "inputs": [
        {
          "indexed": true,
          "internalType": "address",
          "name": "token",
          "type": "address"
        },
        {
          "indexed": true,
          "internalType": "address",
          "name": "pair",
          "type": "address"
        },
        {
          "indexed": false,
          "internalType": "uint256",
          "name": "",
          "type": "uint256"
        }
      ],
      "name": "Launched",
      "type": "event"
    },
    {
      "anonymous": false,
      "inputs": [
        {
          "indexed": true,
          "internalType": "address",
          "name": "previousOwner",
          "type": "address"
        },
        {
          "indexed": true,
          "internalType": "address",
          "name": "newOwner",
          "type": "address"
        }
      ],
      "name": "OwnershipTransferred",
      "type": "event"
    },
    {
      "inputs": [],
      "name": "K",
      "outputs": [
        {
          "internalType": "uint256",
          "name": "",
          "type": "uint256"
        }
      ],
      "stateMutability": "view",
      "type": "function"
    },
    {
      "inputs": [],
      "name": "agentFactory",
      "outputs": [
        {
          "internalType": "address",
          "name": "",
          "type": "address"
        }
      ],
      "stateMutability": "view",
      "type": "function"
    },
    {
      "inputs": [],
      "name": "assetRate",
      "outputs": [
        {
          "internalType": "uint256",
          "name": "",
          "type": "uint256"
        }
      ],
      "stateMutability": "view",
      "type": "function"
    },
    {
      "inputs": [
        {
          "internalType": "uint256",
          "name": "amountIn",
          "type": "uint256"
        },
        {
          "internalType": "address",
          "name": "tokenAddress",
          "type": "address"
        }
      ],
      "name": "buy",
      "outputs": [
        {
          "internalType": "bool",
          "name": "",
          "type": "bool"
        }
      ],
      "stateMutability": "nonpayable",
      "type": "function"
    },
    {
      "inputs": [],
      "name": "factory",
      "outputs": [
        {
          "internalType": "contract FFactory",
          "name": "",
          "type": "address"
        }
      ],
      "stateMutability": "view",
      "type": "function"
    },
    {
      "inputs": [],
      "name": "fee",
      "outputs": [
        {
          "internalType": "uint256",
          "name": "",
          "type": "uint256"
        }
      ],
      "stateMutability": "view",
      "type": "function"
    },
    {
      "inputs": [
        {
          "internalType": "address",
          "name": "account",
          "type": "address"
        }
      ],
      "name": "getUserTokens",
      "outputs": [
        {
          "internalType": "address[]",
          "name": "",
          "type": "address[]"
        }
      ],
      "stateMutability": "view",
      "type": "function"
    },
    {
      "inputs": [],
      "name": "gradThreshold",
      "outputs": [
        {
          "internalType": "uint256",
          "name": "",
          "type": "uint256"
        }
      ],
      "stateMutability": "view",
      "type": "function"
    },
    {
      "inputs": [],
      "name": "initialSupply",
      "outputs": [
        {
          "internalType": "uint256",
          "name": "",
          "type": "uint256"
        }
      ],
      "stateMutability": "view",
      "type": "function"
    },
    {
      "inputs": [
        {
          "internalType": "address",
          "name": "factory_",
          "type": "address"
        },
        {
          "internalType": "address",
          "name": "router_",
          "type": "address"
        },
        {
          "internalType": "address",
          "name": "feeTo_",
          "type": "address"
        },
        {
          "internalType": "uint256",
          "name": "fee_",
          "type": "uint256"
        },
        {
          "internalType": "uint256",
          "name": "initialSupply_",
          "type": "uint256"
        },
        {
          "internalType": "uint256",
          "name": "assetRate_",
          "type": "uint256"
        },
        {
          "internalType": "uint256",
          "name": "maxTx_",
          "type": "uint256"
        },
        {
          "internalType": "address",
          "name": "agentFactory_",
          "type": "address"
        },
        {
          "internalType": "uint256",
          "name": "gradThreshold_",
          "type": "uint256"
        }
      ],
      "name": "initialize",
      "outputs": [],
      "stateMutability": "nonpayable",
      "type": "function"
    },
    {
      "inputs": [
        {
          "internalType": "string",
          "name": "_name",
          "type": "string"
        },
        {
          "internalType": "string",
          "name": "_ticker",
          "type": "string"
        },
        {
          "internalType": "uint8[]",
          "name": "cores",
          "type": "uint8[]"
        },
        {
          "internalType": "string",
          "name": "desc",
          "type": "string"
        },
        {
          "internalType": "string",
          "name": "img",
          "type": "string"
        },
        {
          "internalType": "string[4]",
          "name": "urls",
          "type": "string[4]"
        },
        {
          "internalType": "uint256",
          "name": "purchaseAmount",
          "type": "uint256"
        }
      ],
      "name": "launch",
      "outputs": [
        {
          "internalType": "address",
          "name": "",
          "type": "address"
        },
        {
          "internalType": "address",
          "name": "",
          "type": "address"
        },
        {
          "internalType": "uint256",
          "name": "",
          "type": "uint256"
        }
      ],
      "stateMutability": "nonpayable",
      "type": "function"
    },
    {
      "inputs": [],
      "name": "maxTx",
      "outputs": [
        {
          "internalType": "uint256",
          "name": "",
          "type": "uint256"
        }
      ],
      "stateMutability": "view",
      "type": "function"
    },
    {
      "inputs": [],
      "name": "owner",
      "outputs": [
        {
          "internalType": "address",
          "name": "",
          "type": "address"
        }
      ],
      "stateMutability": "view",
      "type": "function"
    },
    {
      "inputs": [
        {
          "internalType": "address",
          "name": "",
          "type": "address"
        }
      ],
      "name": "profile",
      "outputs": [
        {
          "internalType": "address",
          "name": "user",
          "type": "address"
        }
      ],
      "stateMutability": "view",
      "type": "function"
    },
    {
      "inputs": [
        {
          "internalType": "uint256",
          "name": "",
          "type": "uint256"
        }
      ],
      "name": "profiles",
      "outputs": [
        {
          "internalType": "address",
          "name": "",
          "type": "address"
        }
      ],
      "stateMutability": "view",
      "type": "function"
    },
    {
      "inputs": [],
      "name": "renounceOwnership",
      "outputs": [],
      "stateMutability": "nonpayable",
      "type": "function"
    },
    {
      "inputs": [],
      "name": "router",
      "outputs": [
        {
          "internalType": "contract FRouter",
          "name": "",
          "type": "address"
        }
      ],
      "stateMutability": "view",
      "type": "function"
    },
    {
      "inputs": [
        {
          "internalType": "uint256",
          "name": "amountIn",
          "type": "uint256"
        },
        {
          "internalType": "address",
          "name": "tokenAddress",
          "type": "address"
        }
      ],
      "name": "sell",
      "outputs": [
        {
          "internalType": "bool",
          "name": "",
          "type": "bool"
        }
      ],
      "stateMutability": "nonpayable",
      "type": "function"
    },
    {
      "inputs": [
        {
          "internalType": "uint256",
          "name": "newRate",
          "type": "uint256"
        }
      ],
      "name": "setAssetRate",
      "outputs": [],
      "stateMutability": "nonpayable",
      "type": "function"
    },
    {
      "inputs": [
        {
          "components": [
            {
              "internalType": "bytes32",
              "name": "tbaSalt",
              "type": "bytes32"
            },
            {
              "internalType": "address",
              "name": "tbaImplementation",
              "type": "address"
            },
            {
              "internalType": "uint32",
              "name": "daoVotingPeriod",
              "type": "uint32"
            },
            {
              "internalType": "uint256",
              "name": "daoThreshold",
              "type": "uint256"
            }
          ],
          "internalType": "struct Bonding.DeployParams",
          "name": "params",
          "type": "tuple"
        }
      ],
      "name": "setDeployParams",
      "outputs": [],
      "stateMutability": "nonpayable",
      "type": "function"
    },
    {
      "inputs": [
        {
          "internalType": "uint256",
          "name": "newFee",
          "type": "uint256"
        },
        {
          "internalType": "address",
          "name": "newFeeTo",
          "type": "address"
        }
      ],
      "name": "setFee",
      "outputs": [],
      "stateMutability": "nonpayable",
      "type": "function"
    },
    {
      "inputs": [
        {
          "internalType": "uint256",
          "name": "newThreshold",
          "type": "uint256"
        }
      ],
      "name": "setGradThreshold",
      "outputs": [],
      "stateMutability": "nonpayable",
      "type": "function"
    },
    {
      "inputs": [
        {
          "internalType": "uint256",
          "name": "newSupply",
          "type": "uint256"
        }
      ],
      "name": "setInitialSupply",
      "outputs": [],
      "stateMutability": "nonpayable",
      "type": "function"
    },
    {
      "inputs": [
        {
          "internalType": "uint256",
          "name": "maxTx_",
          "type": "uint256"
        }
      ],
      "name": "setMaxTx",
      "outputs": [],
      "stateMutability": "nonpayable",
      "type": "function"
    },
    {
      "inputs": [
        {
          "internalType": "address",
          "name": "",
          "type": "address"
        }
      ],
      "name": "tokenInfo",
      "outputs": [
        {
          "internalType": "address",
          "name": "creator",
          "type": "address"
        },
        {
          "internalType": "address",
          "name": "token",
          "type": "address"
        },
        {
          "internalType": "address",
          "name": "pair",
          "type": "address"
        },
        {
          "internalType": "address",
          "name": "agentToken",
          "type": "address"
        },
        {
          "components": [
            {
              "internalType": "address",
              "name": "token",
              "type": "address"
            },
            {
              "internalType": "string",
              "name": "name",
              "type": "string"
            },
            {
              "internalType": "string",
              "name": "_name",
              "type": "string"
            },
            {
              "internalType": "string",
              "name": "ticker",
              "type": "string"
            },
            {
              "internalType": "uint256",
              "name": "supply",
              "type": "uint256"
            },
            {
              "internalType": "uint256",
              "name": "price",
              "type": "uint256"
            },
            {
              "internalType": "uint256",
              "name": "marketCap",
              "type": "uint256"
            },
            {
              "internalType": "uint256",
              "name": "liquidity",
              "type": "uint256"
            },
            {
              "internalType": "uint256",
              "name": "volume",
              "type": "uint256"
            },
            {
              "internalType": "uint256",
              "name": "volume24H",
              "type": "uint256"
            },
            {
              "internalType": "uint256",
              "name": "prevPrice",
              "type": "uint256"
            },
            {
              "internalType": "uint256",
              "name": "lastUpdated",
              "type": "uint256"
            }
          ],
          "internalType": "struct Bonding.Data",
          "name": "data",
          "type": "tuple"
        },
        {
          "internalType": "string",
          "name": "description",
          "type": "string"
        },
        {
          "internalType": "string",
          "name": "image",
          "type": "string"
        },
        {
          "internalType": "string",
          "name": "twitter",
          "type": "string"
        },
        {
          "internalType": "string",
          "name": "telegram",
          "type": "string"
        },
        {
          "internalType": "string",
          "name": "youtube",
          "type": "string"
        },
        {
          "internalType": "string",
          "name": "website",
          "type": "string"
        },
        {
          "internalType": "bool",
          "name": "trading",
          "type": "bool"
        },
        {
          "internalType": "bool",
          "name": "tradingOnUniswap",
          "type": "bool"
        }
      ],
      "stateMutability": "view",
      "type": "function"
    },
    {
      "inputs": [
        {
          "internalType": "uint256",
          "name": "",
          "type": "uint256"
        }
      ],
      "name": "tokenInfos",
      "outputs": [
        {
          "internalType": "address",
          "name": "",
          "type": "address"
        }
      ],
      "stateMutability": "view",
      "type": "function"
    },
    {
      "inputs": [
        {
          "internalType": "address",
          "name": "newOwner",
          "type": "address"
        }
      ],
      "name": "transferOwnership",
      "outputs": [],
      "stateMutability": "nonpayable",
      "type": "function"
    },
    {
      "inputs": [
        {
          "internalType": "address",
          "name": "srcTokenAddress",
          "type": "address"
        },
        {
          "internalType": "address[]",
          "name": "accounts",
          "type": "address[]"
        }
      ],
      "name": "unwrapToken",
      "outputs": [],
      "stateMutability": "nonpayable",
      "type": "function"
    }
  ],
  "bytecode": "0x6080806040523460d2577ff0c57e16840df040f15088dc2f81fe391c3923bec73e23a9662efc9c229c6a005460ff8160401c1660c1576002600160401b03196001600160401b03821601605c575b6040516158a290816100d88239f35b6001600160401b0319166001600160401b039081177ff0c57e16840df040f15088dc2f81fe391c3923bec73e23a9662efc9c229c6a005581527fc7f505b2f371ae2175ee4913f4499e1f2633a7b5936321eed1cdaeb6115181d290602090a13880604d565b63f92ee8a960e01b60005260046000fd5b600080fdfe6080604052600436101561001257600080fd5b6000803560e01c806309c8962c1461406d578063378dc3dc1461404f5780633c0b93aa146129f85780634189a68e1461269557806343fb4d24146125fa578063519dc8d2146124a957806361402596146124865780636edd12e014612468578063715018a6146123fe5780637437681e146123e05780637c13774b1461237a5780637deb60251461132b5780637df107ea146113025780637f13a90b146108ce5780638da5cb5b146108985780639dd9d0fd14610857578063a932492f14610836578063b4f2e8b8146107f0578063bc337182146107cd578063c36fe3d61461074c578063c45a015514610723578063cc489688146106ca578063ddca3f43146106ac578063e8e6ed691461068e578063ea6eef4914610427578063f2fde38b146103fa578063f5dab7111461017c5763f887ea401461015157600080fd5b346101795780600319360112610179576002546040516001600160a01b039091168152602090f35b80fd5b5034610179576020366003190112610179576001600160a01b0361019e6141b8565b168152600e6020526040902080546001820154600283015460038401546001600160a01b03928316949383169391831692166101dc600483016142b9565b604051806101ed8160108701614236565b036101f89082614114565b604051806102098160128801614236565b036102149082614114565b60405191826102268160138901614236565b036102319084614114565b60405193846102438160148a01614236565b0361024e9086614114565b60405195866102608160158b01614236565b0361026b9088614114565b604051978861027d8160168401614236565b03610288908a614114565b60170154986040519b8c9b8c5260208c015260408b015260608a0152608089016101a09052600160a01b600190038151166101a08a015260208101516101c08a0161018090526103208a016102dc91614397565b60408201518a820361019f19016101e08c01526102f99190614397565b60608201518a820361019f19016102008c01526103169190614397565b9060808101516102208b015260a08101516102408b015260c08101516102608b015260e08101516102808b01526101008101516102a08b01526101208101516102c08b01526101408101516102e08b015261016001516103008a015288810360a08a015261038391614397565b87810360c089015261039491614397565b86810360e08801526103a591614397565b8581036101008701526103b791614397565b8481036101208601526103c991614397565b8381036101408501526103db91614397565b9060ff8116151561016084015260081c60ff1615156101808301520390f35b5034610179576020366003190112610179576104246104176141b8565b61041f6145b8565b614542565b80f35b503461017957610120366003190112610179576104426141b8565b61044a6141a2565b6044356001600160a01b0381169081900361068a5760e4356001600160a01b0381169260643592918490036106865760008051602061584d833981519152549460ff8660401c1615956001600160401b0381168015908161067e575b6001149081610674575b15908161066b575b5061065c5767ffffffffffffffff19811660011760008051602061584d833981519152558661062f575b506104eb614790565b6104f3614790565b6104fc33614542565b610504614790565b61050c614790565b600160008051602061582d8339815191525560018060a01b03166001600160601b0360a01b600154161760015560018060a01b03166001600160601b0360a01b60025416176002556001600160601b0360a01b855416178455670de0b6b3a7640000810290808204670de0b6b3a7640000149015171561061b576103e8900460045560843560035560a43560055560c4356007556001600160601b0360a01b6008541617600855610104356006556105c15780f35b68ff00000000000000001960008051602061584d833981519152541660008051602061584d833981519152557fc7f505b2f371ae2175ee4913f4499e1f2633a7b5936321eed1cdaeb6115181d2602060405160018152a180f35b634e487b7160e01b84526011600452602484fd5b68ffffffffffffffffff1916680100000000000000011760008051602061584d83398151915255386104e2565b63f92ee8a960e01b8852600488fd5b905015386104b8565b303b1591506104b0565b8891506104a6565b8580fd5b8380fd5b50346101795780600319360112610179576020600554604051908152f35b50346101795780600319360112610179576020600454604051908152f35b5034610179576020366003190112610179576004356106e76145b8565b80156106f35760055580f35b60405162461bcd60e51b81526020600482015260086024820152672930ba329032b93960c11b6044820152606490fd5b50346101795780600319360112610179576001546040516001600160a01b039091168152602090f35b50346101795760203660031901126101795760043590600d5482101561017957600d548210156107b957600d81527fd7b6990105719101dabeb77144f2a3385c8033acd3af97e9423a695e81ad1eb59091015460405160039290921b1c6001600160a01b03168152602090f35b634e487b7160e01b81526032600452602490fd5b5034610179576020366003190112610179576107e76145b8565b60043560075580f35b50346101795760403660031901126101795761080a6141a2565b6108126145b8565b60048035905581546001600160a01b0319166001600160a01b039190911617815580f35b503461017957806003193601126101795760206040516502ba7def30008152f35b5034610179576020366003190112610179576020906001600160a01b0361087c6141b8565b168152600c8252604060018060a01b0391205416604051908152f35b503461017957806003193601126101795760008051602061580d833981519152546040516001600160a01b039091168152602090f35b5034610179576040366003190112610179576108e86141b8565b602435906001600160401b0382116112fe57366023830112156112fe5781600401356109138161418b565b926109216040519485614114565b8184526024602085019260051b8201019036821161068657602401915b8183106112da575050506001600160a01b038116808452600e6020526040808520905191929161096d816140dd565b81546001600160a01b03908116825260018301548116602083015260028301548116604083015260038301541660608201908152916109ae600482016142b9565b60808301526040516109ce816109c78160108601614236565b0382614114565b60a08301526040516011820180548083529089526020808a20908301918a915b81601f840110611138579360ff95938193610b0e936017975491818110611125575b81811061110f575b8181106110f9575b8181106110e3575b8181106110ce575b8181106110b8575b8181106110a2575b81811061108c575b818110611076575b818110611060575b81811061104a575b818110611034575b81811061101e575b818110611008575b818110610ff2575b818110610fdc575b818110610fc6575b818110610fb0575b818110610f9a575b818110610f84575b818110610f6e575b818110610f58575b818110610f42575b818110610f2c575b818110610f16575b818110610f00575b818110610eea575b818110610ed4575b818110610ebe575b818110610ea8575b818110610e92575b10610e84575b500382614114565b60c0850152604051610b27816109c78160128601614236565b60e0850152604051610b40816109c78160138601614236565b610100850152604051610b5a816109c78160148601614236565b610120850152604051610b74816109c78160158601614236565b610140850152604051610b8e816109c78160168601614236565b6101608501520154818116151561018084015260081c1615906101a08215910152610e3f5751600154600254604051631083f76160e01b81526001600160a01b039384169493909281169160209184916004918391165afa908115610d6457610c30936020938993610e20575b5060405163e6a4390560e01b81526001600160a01b039182166004820152921660248301529092839190829081906044820190565b03915afa908115610e15578591610de6575b506001600160a01b03811615610dd757845b8451811015610dd35760018060a01b0360208260051b870101511690604051916370a0823160e01b8352806004840152602083602481895afa928315610dc8578893610d93575b5082610cad575b506001915001610c54565b853b15610d845760405163079cc67960e41b81526001600160a01b03821660048201526024810184905288908181604481838c5af18015610d8857610d6f575b50506040516323b872dd60e01b81526001600160a01b03858116600483015291909116602482015260448101929092526020826064818a885af1918215610d645760019215610ca257610d569060203d8111610d5d575b610d4e8183614114565b8101906144dd565b5038610ca2565b503d610d44565b6040513d89823e3d90fd5b81610d7991614114565b610d84578738610ced565b8780fd5b6040513d84823e3d90fd5b90925060203d8111610dc1575b610daa8183614114565b602082600092810103126101795750519138610c9b565b503d610da0565b6040513d8a823e3d90fd5b8580f35b63081ce35d60e01b8552600485fd5b610e08915060203d602011610e0e575b610e008183614114565b8101906143bc565b38610c42565b503d610df6565b6040513d87823e3d90fd5b610e38919350843d8611610e0e57610e008183614114565b9138610bfb565b60405162461bcd60e51b815260206004820152601a60248201527f546f6b656e206973206e6f7420677261647561746564207965740000000000006044820152606490fd5b60f81c815260200138610b06565b9260206001918b8560f01c168152019301610b00565b9260206001918b8560e81c168152019301610af8565b9260206001918b8560e01c168152019301610af0565b9260206001918b8560d81c168152019301610ae8565b9260206001918b8560d01c168152019301610ae0565b9260206001918b8560c81c168152019301610ad8565b9260206001918b8560c01c168152019301610ad0565b9260206001918b8560b81c168152019301610ac8565b9260206001918b8560b01c168152019301610ac0565b9260206001918b8560a81c168152019301610ab8565b9260206001918b8560a01c168152019301610ab0565b9260206001918b8560981c168152019301610aa8565b9260206001918b8560901c168152019301610aa0565b9260206001918b8560881c168152019301610a98565b9260206001918b8560801c168152019301610a90565b9260206001918b8560781c168152019301610a88565b9260206001918b8560701c168152019301610a80565b9260206001918b8560681c168152019301610a78565b9260206001918b8560601c168152019301610a70565b9260206001918b8560581c168152019301610a68565b9260206001918b8560501c168152019301610a60565b9260206001918b8560481c168152019301610a58565b9260206001918b8560401c168152019301610a50565b9260206001918b8560381c168152019301610a48565b9260206001918b8560301c168152019301610a40565b9260206001918b8560281c168152019301610a38565b9260206001918b85831c168152019301610a30565b9260206001918b8560181c168152019301610a28565b9260206001918b8560101c168152019301610a20565b9260206001918b8560081c168152019301610a18565b9260206001918b85168152019301610a10565b926001610400602092865460ff8116825260ff8160081c168583015260ff8160101c16604083015260ff8160181c16606083015260ff81861c16608083015260ff8160281c1660a083015260ff8160301c1660c083015260ff8160381c1660e083015260ff8160401c1661010083015260ff8160481c1661012083015260ff8160501c1661014083015260ff8160581c1661016083015260ff8160601c1661018083015260ff8160681c166101a083015260ff8160701c166101c083015260ff8160781c166101e083015260ff8160801c1661020083015260ff8160881c1661022083015260ff8160901c1661024083015260ff8160981c1661026083015260ff8160a01c1661028083015260ff8160a81c166102a083015260ff8160b01c166102c083015260ff8160b81c166102e083015260ff8160c01c1661030083015260ff8160c81c1661032083015260ff8160d01c1661034083015260ff8160d81c1661036083015260ff8160e01c1661038083015260ff8160e81c166103a083015260ff8160f01c166103c083015260f81c6103e08201520194019201916109ee565b82356001600160a01b03811681036112fa5781526020928301920161093e565b8680fd5b8280fd5b50346101795780600319360112610179576008546040516001600160a01b039091168152602090f35b5034610179576040366003190112610179576113456141a2565b6001600160a01b038116808352600e602052604083206017015490929061136e9060ff166144f5565b600154600254604051631083f76160e01b81526001600160a01b0391821692909116602082600481865afa918215611b6857916020916113e593869261235b575b5060405163e6a4390560e01b81526001600160a01b03808916600483015290921660248301529092839190829081906044820190565b03915afa9081156121f557839161233c575b506001600160a01b0316801561232d5760408051630240bc6b60e21b81529291839060049082905afa9182156121f55783908493612309575b50604080516373a9c2c560e11b815260048035908201526001600160a01b0387166024820152336044820152928390606490829088905af1908115611b6857849285926122cb575b5061148761148d9284926143db565b93614535565b858452600e6020526114a6600f604086200154426143db565b908060011b92818404600214821517156122b75761155890620151806114ef6114e8886114e38760088f8e6040918152600e60205220015461443c565b61444f565b948861444f565b94119485156122985781935b8615612282578a8952600e602052600960408a200154955b8b8a52600e602052600960408b2001558a8952600e602052600a60408a200155898852600e602052600b604089200155888752600e602052600c604088200154614535565b878652600e602052600c604087200155868552600e602052600d604086200155858452600e602052600e60408520015561226c575b600654101580612253575b6115a8575b602060405160018152f35b828152600e602052604081209160178301805460ff811680612245575b156122005761ffff1916610100179055600154600254604051631083f76160e01b81526001600160a01b0391821693909290911690602083600481875afa928315610e15579161164e93916020938793610e20575060405163e6a4390560e01b81526001600160a01b039182166004820152921660248301529092839190829081906044820190565b03915afa9081156121f55783916121d6575b506001600160a01b0381169384156121c75760405163c66f245560e01b815290602082600481895afa918215610e1557859261218f575b506040516316d3df1560e31b8152936020856004818a5afa948515611bac57869561215b575b50803b156106865785809160246040518094819363ff6d8d0560e01b83528d60048401525af18015611bac57612147575b50600254604051631083f76160e01b815290602090829060049082906001600160a01b03165afa908115611bac5761173f9184918891612128575b506008546001600160a01b039081169116614637565b60018060a01b0360085416600682019260405180948890805490611762826141fc565b916001811690811561210157506001146120c0575b5050600a6117dc96826910313c902ca490233ab760b11b6117a694979596975203601519810185520183614114565b876011850160095494600a54600b54966117f16040519a8b986378678abd60e11b8a5261010060048b01526101048a0190614397565b8881036003190160248a015260078b01614236565b8781036003190160448901528454808252948652602080872091019486915b81601f840110611f0c579260209a928a989795928997955491818110611efa575b818110611ee4575b818110611ece575b818110611eb8575b818110611ea4575b818110611e8e575b818110611e78575b818110611e62575b818110611e4c575b818110611e36575b818110611e20575b818110611e0a575b818110611df4575b818110611dde575b818110611dc8575b818110611db2575b818110611d9c575b818110611d86575b818110611d70575b818110611d5a575b818110611d44575b818110611d2e575b818110611d18575b818110611d02575b818110611cec575b818110611cd6575b818110611cc0575b818110611caa575b818110611c94575b818110611c7e575b818110611c68575b10611c55575b5060648601526001600160a01b038116608486015260a01c63ffffffff1660a485015260c484015260e483015203925af1918215610e15578592611c21575b50600880549082015460405163313ce56760e01b81526001600160a01b0390921693916020816004818d5afa908115610dc8576119b592916119af918a91611c08575b50614718565b9061444f565b9060405163313ce56760e01b81526020816004818d5afa908115610dc85791886119f46119ee608494602097968491611bdb5750614718565b8a61444f565b9660405197889586946311e18acb60e11b86526004860152602485015260448401528b60648401525af1918215610e15578592611bb7575b5060030180546001600160a01b0319166001600160a01b039283169081179091556002546040516370a0823160e01b81526004810188905291969216916020826024818a5afa918215611bac578692611b73575b50823b1561068657906084869283604051958694859363559e23ad60e11b855260048501528b602485015230604485015260648401525af18015611b6857908491611b53575b5050843b156112fe5760405163079cc67960e41b81526001600160a01b039190911660048201526024810191909152818160448183885af18015610d8857611b3e575b505060207f381d54fa425631e6266af114239150fae1d5db67bb65b4fa9ecc65013107e07e91604051908152a238808061159d565b611b49828092614114565b6101795780611b09565b81611b5d91614114565b6112fe578238611ac6565b6040513d86823e3d90fd5b9091506020813d602011611ba4575b81611b8f60209383614114565b81010312611b9f57519038611a80565b600080fd5b3d9150611b82565b6040513d88823e3d90fd5b6003919250611bd49060203d602011610e0e57610e008183614114565b9190611a2c565b611bfb9150883d8a11611c01575b611bf38183614114565b8101906146ff565b386119a9565b503d611be9565b611bfb915060203d602011611c0157611bf38183614114565b9091506020813d602011611c4d575b81611c3d60209383614114565b81010312611b9f57519038611966565b3d9150611c30565b60f81c8552938a019363ffffffff611927565b968d60019160ff8560f01c168152019701611921565b968d60019160ff8560e81c168152019701611919565b968d60019160ff8560e01c168152019701611911565b968d60019160ff8560d81c168152019701611909565b968d60019160ff8560d01c168152019701611901565b968d60019160ff8560c81c1681520197016118f9565b968d60019160ff8560c01c1681520197016118f1565b968d60019160ff8560b81c1681520197016118e9565b968d60019160ff8560b01c1681520197016118e1565b968d60019160ff8560a81c1681520197016118d9565b968d60019160ff8560a01c1681520197016118d1565b968d60019160ff8560981c1681520197016118c9565b968d60019160ff8560901c1681520197016118c1565b968d60019160ff8560881c1681520197016118b9565b968d60019160ff8560801c1681520197016118b1565b968d60019160ff8560781c1681520197016118a9565b968d60019160ff8560701c1681520197016118a1565b968d60019160ff8560681c168152019701611899565b968d60019160ff8560601c168152019701611891565b968d60019160ff8560581c168152019701611889565b968d60019160ff8560501c168152019701611881565b968d60019160ff8560481c168152019701611879565b968d60019160ff8560401c168152019701611871565b968d60019160ff8560381c168152019701611869565b968d60019160ff8560301c168152019701611861565b968d60019160ff8560281c168152019701611859565b828e1c60ff168852968d0196600101611851565b968d60019160ff8560181c168152019701611849565b968d60019160ff8560101c168152019701611841565b968d60019160ff8560081c168152019701611839565b60ff83168852968d0196600101611831565b9850919396989550919360016104006020928a5460ff8116825260ff8160081c168583015260ff8160101c16604083015260ff8160181c16606083015260ff81861c16608083015260ff8160281c1660a083015260ff8160301c1660c083015260ff8160381c1660e083015260ff8160401c1661010083015260ff8160481c1661012083015260ff8160501c1661014083015260ff8160581c1661016083015260ff8160601c1661018083015260ff8160681c166101a083015260ff8160701c166101c083015260ff8160781c166101e083015260ff8160801c1661020083015260ff8160881c1661022083015260ff8160901c1661024083015260ff8160981c1661026083015260ff8160a01c1661028083015260ff8160a81c166102a083015260ff8160b01c166102c083015260ff8160b81c166102e083015260ff8160c01c1661030083015260ff8160c81c1661032083015260ff8160d01c1661034083015260ff8160d81c1661036083015260ff8160e01c1661038083015260ff8160e81c166103a083015260ff8160f01c166103c083015260f81c6103e082015201980192018d95989693918b989593611810565b915091508852846020892089905b8382106120e7575090918201602001905081600a611777565b6020919250806001915483858b01015201910186916120ce565b600a9450602092506117a69593915060ff1916828401528015150282010191819350611777565b612141915060203d602011610e0e57610e008183614114565b38611729565b8561215491969296614114565b93386116ee565b9094506020813d602011612187575b8161217760209383614114565b81010312610686575193386116bd565b3d915061216a565b9091506020813d6020116121bf575b816121ab60209383614114565b810103126121bb57519038611697565b8480fd5b3d915061219e565b63081ce35d60e01b8452600484fd5b6121ef915060203d602011610e0e57610e008183614114565b38611660565b6040513d85823e3d90fd5b60405162461bcd60e51b815260206004820152601760248201527f74726164696e6720697320616c7265616479206f70656e0000000000000000006044820152606490fd5b5060ff8160081c16156115c5565b50828152600e60205260ff601760408320015416611598565b838252600e60205242600f60408420015561158d565b8a8952600e602052600e60408a20015495611513565b898852600e6020526122b182600d60408b200154614535565b936114fb565b634e487b7160e01b86526011600452602486fd5b61148791935061148d92506122f79060403d604011612302575b6122ef8183614114565b81019061446f565b909390925090611478565b503d6122e5565b905061232591925060403d604011612302576122ef8183614114565b919038611430565b63081ce35d60e01b8352600483fd5b612355915060203d602011610e0e57610e008183614114565b386113f7565b612373919250833d8511610e0e57610e008183614114565b90386113af565b50346101795760203660031901126101795760043590600f5482101561017957600f548210156107b957600f90527f8d1108e10bcb7c27dddfc02ed9d693a074039d026cf4ea4240b40f7d581ac80201546040516001600160a01b039091168152602090f35b50346101795780600319360112610179576020600754604051908152f35b50346101795780600319360112610179576124176145b8565b60008051602061580d83398151915280546001600160a01b0319811690915581906001600160a01b03167f8be0079c531659141344cd1fd0a4f28419497f9722a3daafe3b4186f6b6457e08280a380f35b50346101795780600319360112610179576020600654604051908152f35b5034610179576020366003190112610179576124a06145b8565b60043560035580f35b5034610179576020366003190112610179576124c36141b8565b6001600160a01b038082166000818152600c6020526040902054909116036125b5576001600160a01b03168152600c6020526040808220905190600190612509836140f9565b818060a01b0381541683520190604051908160208454918281520190819486526020862090865b818110612596578786888160208961254a838b0384614114565b0152604051928392602084019060208552518091526040840192915b818110612574575050500390f35b82516001600160a01b0316845285945060209384019390920191600101612566565b82546001600160a01b0316845260209093019260019283019201612530565b60405162461bcd60e51b815260206004820152601c60248201527f557365722050726f66696c6520646f7365206e6f742065786973742e000000006044820152606490fd5b50346101795760803660031901126101795760405161261881614090565b60043581526126256141a2565b602082019081526044359063ffffffff8216820361068a5760408301918252606083019260643584526126566145b8565b5160095551600a8054925163ffffffff60a01b60a09190911b166001600160a01b039092166001600160c01b03199093169290921717905551600b5580f35b5034610179576040366003190112610179576126af6141a2565b6001600160a01b038116808352600e60205260408320601701549091906126d89060ff166144f5565b600154600254604051631083f76160e01b81526001600160a01b039182169290911690602081600481865afa8015611bac5761274e9260209288926129d9575b5060405163e6a4390560e01b81526001600160a01b03808816600483015290921660248301529092839190829081906044820190565b03915afa908115610e155785916129ba575b506001600160a01b03168015610dd75760049160408692815194858092630240bc6b60e21b82525afa938415610d88578293839561298d575b5060408051636f08e17760e01b815260048035908201526001600160a01b039092166024830152336044830152909290918391829081606481015b03925af1918215610e155785918693612962575b506127f76127fd928492614535565b936143db565b91838552600e602052612817600f604087200154426143db565b918360011b938085046002148115171561294e57906201518061285a83612854866114e36128c397600860408f8f8152600e60205220015461443c565b9561444f565b941194851561292f5781935b861561291957878952600e602052600960408a200154955b888a52600e602052600960408b200155878952600e602052600a60408a200155868852600e602052600b604089200155858752600e602052600c604088200154614535565b848652600e602052600c604087200155838552600e602052600d604086200155828452600e602052600e60408520015561290257602060405160018152f35b8152600e602052600f60404292200155388061159d565b878952600e602052600e60408a2001549561287e565b868852600e60205261294882600d60408b200154614535565b93612866565b634e487b7160e01b87526011600452602487fd5b6127f793506127fd92506129849060403d604011612302576122ef8183614114565b939092506127e8565b6127d491955060409294506129ae90833d8511612302576122ef8183614114565b94909495915091612799565b6129d3915060203d602011610e0e57610e008183614114565b38612760565b6129f1919250833d8511610e0e57610e008183614114565b9038612718565b50346101795760e0366003190112610179576004356001600160401b03811161404b57612a29903690600401614135565b6024356001600160401b0381116112fe57612a48903690600401614135565b906044356001600160401b03811161068a573660238201121561068a578060040135612a738161418b565b91612a816040519384614114565b8183526024602084019260051b820101903682116112fa57602401915b818310614031575050506064356001600160401b0381116121bb57612ac7903690600401614135565b6084356001600160401b03811161068657612ae6903690600401614135565b9060a435926001600160401b0384116112fa57366023850112156112fa5760405193612b1185614090565b608481018536821161402d5782600401905b828210613ffa575050505060c43593600260008051602061582d8339815191525414613feb57600260008051602061582d833981519152556004549384861115613f9557600254604051631083f76160e01b81529690602090889060049082906001600160a01b03165afa968715613f8a578a97613f69575b506040516370a0823160e01b81523360048201526020816024816001600160a01b038c165afa8015613ecf5782918c91613f34575b5010613ef957612be486612bfe926143db565b8a549096906001600160a01b039081169033908a166145ee565b612c138530336001600160a01b038a166145ee565b612c1c876143fe565b6003546007546040519261104e90818501918583106001600160401b03841117613ee55791612c708e612c62606094899897966147bf8a39608085526080850190614397565b908382036020850152614397565b936040820152015203908af0978815613eda576040516318160ddd60e01b8152976020896004816001600160a01b038e165afa918215613ecf578a998c93613e94575b506001546040516364e329cb60e11b81526001600160a01b039c8d1660048201528a8d1660248201529b168b6044818f5a94602095f19a8b15613e89578c9b613e68575b50600254612d149084906001600160a01b03908116908d16614637565b6005548015613e5457666a94d74f4300000469021e19e0c9bab240000081029080820469021e19e0c9bab24000001490151715613e405783612d559161444f565b670de0b6b3a7640000810290808204670de0b6b3a76400001490151715613e40576127109004908c60408c606460018060a01b03600254169183519485938492631746ffa760e31b845260018060a01b031660048401528a60248401528860448401525af18015613e3357613e15575b50612dcf836143fe565b93612dda838261444f565b918360011b9484860460021485151715613e0057938f97938f97938f9b97938c9b97612e06858461444f565b9660206040519e8f90612e18826140c1565b60018060a01b03168152015260408d015260608c015260808b015260a08a015260c089015260e0880152856101008801528561012088015261014087015242610160870152815160208301519160606040850151940151946040519a612e7d8c6140dd565b338c526001600160a01b039a8b166020808e01918252988c166040808f0191825260608f019b8c5260808f019c8d5260a08f019390935260c08e019390935260e08d01939093526101008c01939093526101208b01939093526101408a0193909352610160890193909352600161018089018190526101a089018e90528b88168e52600e8552928d20885181546001600160a01b0319908116918a169190911782559251938101805484169489169490941790935551600283018054831691881691909117905592516003820180548516918716919091179055925180516004850180549094169516949094179091558201518051919291906001600160401b0382116137e5578190612f9360058601546141fc565b601f8111613dcd575b50602090601f8311600114613d64578b92613d59575b50508160011b916000199060031b1c19161760058301555b60408101518051906001600160401b0382116137e5578190612fef60068601546141fc565b601f8111613d26575b50602090601f8311600114613cbd578b92613cb2575b50508160011b916000199060031b1c19161760068301555b60608101518051906001600160401b0382116137e55761304960078501546141fc565b601f8111613c7f575b50602090601f8311600114613c12576101609392918b9183613c07575b50508160011b916000199060031b1c19161760078401555b6080810151600884015560a0810151600984015560c0810151600a84015560e0810151600b840155610100810151600c840155610120810151600d840155610140810151600e8401550151600f82015560a08201518051906001600160401b038211613b4c5781906130fc60108501546141fc565b601f8111613bd4575b50602090601f8311600114613b6b578a92613b60575b50508160011b916000199060031b1c19161760108201555b60c08201518051906001600160401b038211613b4c57600160401b8211613b4c576020906011840154836011860155808410613afd575b5001906011830189526020892090895b8160051c8110613abe5750601f198116810380613a71575b505050506012810160e08301518051906001600160401b0382116137e55781906131bc84546141fc565b601f8111613a41575b50602090601f83116001146139de578b926139d3575b50508160011b916000199060031b1c19161790555b601381016101008301518051906001600160401b0382116137e557819061321784546141fc565b601f81116139a3575b50602090601f8311600114613940578b92613935575b50508160011b916000199060031b1c19161790555b601481016101208301518051906001600160401b0382116137e557819061327284546141fc565b601f8111613905575b50602090601f83116001146138a2578b92613897575b50508160011b916000199060031b1c19161790555b601581016101408301518051906001600160401b0382116137e55781906132cd84546141fc565b601f8111613867575b50602090601f8311600114613804578b926137f9575b50508160011b916000199060031b1c19161790555b601681016101608301518051906001600160401b0382116137e55761332683546141fc565b601f81116137aa575b50602090601f8311600114613740579180601794926101a096948d92613735575b50508160011b916000199060031b1c19161790555b61018084015191018054929093015161ffff1990921660ff911515919091161790151560081b61ff0016179055600f54600160401b8110156136d657906133b5826001889401600f55600f6141ce565b81546001600160a01b0360039290921b82811b1990911687831690911b17909155336000818152600c6020526040902054909116036135e3576134b0604091338452600c60205261341360018060a01b03871660018587200161449c565b600f548351818152909561346f918391906001600160a01b038b811691908b16907f714aa39317ad9a7a7a99db52b44490da5d068a0b2710fffb1a1282ad3cadae1f90602090a36002546001600160a01b039081169116614637565b60025483516373a9c2c560e11b815260048101929092526001600160a01b038781166024840152306044840152919485939190921691839182906064820190565b03925af18015610e15576135c5575b506040516370a0823160e01b81523060048201526020816024816001600160a01b0387165afa908115610e15578591613592575b5060405163a9059cbb60e01b81523360048201526024810191909152602081604481886001600160a01b0388165af18015610e155761357193949550613575575b50600160008051602061582d83398151915255604080516001600160a01b0394851681529490931660208501529183019190915281906060820190565b0390f35b61358d9060203d602011610d5d57610d4e8183614114565b613534565b90506020813d6020116135bd575b816135ad60209383614114565b810103126121bb575160206134f3565b3d91506135a0565b6135dd9060403d604011612302576122ef8183614114565b506134bf565b90506040516135f1816140f9565b3380825260606020808401918252918852600c90915260408720915182546001600160a01b0319166001600160a01b039190911617825551805191600101906001600160401b03831161372157600160401b8311613721576020908254848455808510613707575b500190875260208720875b8381106136ea5750505050600d54600160401b8110156136d6576134b0869261369783600160409501600d55600d6141ce565b81546001600160a01b0360039290921b82811b19909116339182901b17909255908552600c6020528385206136d19188169060010161449c565b613413565b634e487b7160e01b86526041600452602486fd5b82516001600160a01b031681830155602090920191600101613664565b838a52828a2061371b918101908601614485565b38613659565b634e487b7160e01b88526041600452602488fd5b015190503880613350565b838b52818b209190601f1984168c5b81811061379257509260019285926101a098966017989610613779575b505050811b019055613365565b015160001960f88460031b161c1916905538808061376c565b9293602060018192878601518155019501930161374f565b6137d590848c5260208c20601f850160051c810191602086106137db575b601f0160051c0190614485565b3861332f565b90915081906137c8565b634e487b7160e01b8a52604160045260248afd5b0151905038806132ec565b848c52818c209250601f1984168c5b81811061384f5750908460019594939210613836575b505050811b019055613301565b015160001960f88460031b161c19169055388080613829565b92936020600181928786015181550195019301613813565b61389190858d5260208d20601f850160051c810191602086106137db57601f0160051c0190614485565b386132d6565b015190503880613291565b848c52818c209250601f1984168c5b8181106138ed57509084600195949392106138d4575b505050811b0190556132a6565b015160001960f88460031b161c191690553880806138c7565b929360206001819287860151815501950193016138b1565b61392f90858d5260208d20601f850160051c810191602086106137db57601f0160051c0190614485565b3861327b565b015190503880613236565b848c52818c209250601f1984168c5b81811061398b5750908460019594939210613972575b505050811b01905561324b565b015160001960f88460031b161c19169055388080613965565b9293602060018192878601518155019501930161394f565b6139cd90858d5260208d20601f850160051c810191602086106137db57601f0160051c0190614485565b38613220565b0151905038806131db565b848c52818c209250601f1984168c5b818110613a295750908460019594939210613a10575b505050811b0190556131f0565b015160001960f88460031b161c19169055388080613a03565b929360206001819287860151815501950193016139ed565b613a6b90858d5260208d20601f850160051c810191602086106137db57601f0160051c0190614485565b386131c5565b928a938b5b818110613a8e5750505060051c015538808080613192565b9091946020613ab46001928460ff8a5116919060ff809160031b9316831b921b19161790565b9601929101613a76565b8a8b5b60208110613ad657508382015560010161317a565b855190959160019160209160ff60038a901b81811b199092169216901b1792019501613ac1565b613b2a90601186018c52838c20601f80870160051c82019281881680613b30575b500160051c0190614485565b3861316a565b600019850190815490600019908a0360031b1c16905538613b1e565b634e487b7160e01b89526041600452602489fd5b01519050388061311b565b601085018b52818b209250601f1984168b5b818110613bbc5750908460019594939210613ba3575b505050811b016010820155613133565b015160001960f88460031b161c19169055388080613b93565b92936020600181928786015181550195019301613b7d565b613c0190601086018c5260208c20601f850160051c810191602086106137db57601f0160051c0190614485565b38613105565b01519050388061306f565b600785018b52818b209190601f1984168c5b818110613c67575091600193918561016097969410613c4e575b505050811b016007840155613087565b015160001960f88460031b161c19169055388080613c3e565b92936020600181928786015181550195019301613c24565b613cac90600786018c5260208c20601f850160051c810191602086106137db57601f0160051c0190614485565b38613052565b01519050388061300e565b600686018c52818c209250601f1984168c5b818110613d0e5750908460019594939210613cf5575b505050811b016006830155613026565b015160001960f88460031b161c19169055388080613ce5565b92936020600181928786015181550195019301613ccf565b613d5390600687018d5260208d20601f850160051c810191602086106137db57601f0160051c0190614485565b38612ff8565b015190503880612fb2565b600586018c52818c209250601f1984168c5b818110613db55750908460019594939210613d9c575b505050811b016005830155612fca565b015160001960f88460031b161c19169055388080613d8c565b92936020600181928786015181550195019301613d76565b613dfa90600587018d5260208d20601f850160051c810191602086106137db57601f0160051c0190614485565b38612f9c565b50634e487b7160e01b8f52601160045260248ffd5b613e2d9060403d604011612302576122ef8183614114565b50612dc5565b8e604051903d90823e3d90fd5b634e487b7160e01b8d52601160045260248dfd5b634e487b7160e01b8d52601260045260248dfd5b613e82919b5060203d602011610e0e57610e008183614114565b9938612cf7565b6040513d8e823e3d90fd5b995091506020893d602011613ec7575b81613eb160209383614114565b81010312613ec3578998519138612cb3565b8a80fd5b3d9150613ea4565b6040513d8d823e3d90fd5b6040513d8b823e3d90fd5b634e487b7160e01b8f52604160045260248ffd5b60405162461bcd60e51b8152602060048201526013602482015272125b9cdd59999a58da595b9d08185b5bdd5b9d606a1b6044820152606490fd5b9150506020813d602011613f61575b81613f5060209383614114565b81010312613ec35781905138612bd1565b3d9150613f43565b613f8391975060203d602011610e0e57610e008183614114565b9538612b9c565b6040513d8c823e3d90fd5b60405162461bcd60e51b815260206004820152602860248201527f507572636861736520616d6f756e74206d7573742062652067726561746572206044820152677468616e2066656560c01b6064820152608490fd5b633ee5aeb560e01b8852600488fd5b81356001600160401b0381116140295760209161401e839260043691890101614135565b815201910190612b23565b8b80fd5b8980fd5b823560ff81168103610d8457815260209283019201612a9e565b5080fd5b50346101795780600319360112610179576020600354604051908152f35b5034610179576020366003190112610179576140876145b8565b60043560065580f35b608081019081106001600160401b038211176140ab57604052565b634e487b7160e01b600052604160045260246000fd5b61018081019081106001600160401b038211176140ab57604052565b6101c081019081106001600160401b038211176140ab57604052565b604081019081106001600160401b038211176140ab57604052565b90601f801991011681019081106001600160401b038211176140ab57604052565b81601f82011215611b9f578035906001600160401b0382116140ab5760405192614169601f8401601f191660200185614114565b82845260208383010111611b9f57816000926020809301838601378301015290565b6001600160401b0381116140ab5760051b60200190565b602435906001600160a01b0382168203611b9f57565b600435906001600160a01b0382168203611b9f57565b80548210156141e65760005260206000200190600090565b634e487b7160e01b600052603260045260246000fd5b90600182811c9216801561422c575b602083101461421657565b634e487b7160e01b600052602260045260246000fd5b91607f169161420b565b60009291815491614246836141fc565b808352926001811690811561429c575060011461426257505050565b60009081526020812093945091925b838310614282575060209250010190565b600181602092949394548385870101520191019190614271565b915050602093945060ff929192191683830152151560051b010190565b906040516142c6816140c1565b610160600b829460018060a01b0381541684526040516142ed816109c78160018601614236565b6020850152604051614306816109c78160028601614236565b604085015260405161431f816109c78160038601614236565b606085015260048101546080850152600581015460a0850152600681015460c0850152600781015460e085015260088101546101008501526009810154610120850152600a8101546101408501520154910152565b60005b8381106143875750506000910152565b8181015183820152602001614377565b906020916143b081518092818552858086019101614374565b601f01601f1916010190565b90816020910312611b9f57516001600160a01b0381168103611b9f5790565b919082039182116143e857565b634e487b7160e01b600052601160045260246000fd5b9061443a60246040518094630333ab7160e51b60208301526144298151809260208686019101614374565b81010301601f198101845283614114565b565b818102929181159184041417156143e857565b8115614459570490565b634e487b7160e01b600052601260045260246000fd5b9190826040910312611b9f576020825192015190565b818110614490575050565b60008155600101614485565b8054600160401b8110156140ab576144b9916001820181556141ce565b81546001600160a01b0393841660039290921b91821b9390911b1916919091179055565b90816020910312611b9f57518015158103611b9f5790565b156144fc57565b60405162461bcd60e51b8152602060048201526011602482015270546f6b656e206e6f742074726164696e6760781b6044820152606490fd5b919082018092116143e857565b6001600160a01b031680156145a25760008051602061580d83398151915280546001600160a01b0319811683179091556001600160a01b03167f8be0079c531659141344cd1fd0a4f28419497f9722a3daafe3b4186f6b6457e0600080a3565b631e4fbdf760e01b600052600060045260246000fd5b60008051602061580d833981519152546001600160a01b031633036145d957565b63118cdaa760e01b6000523360045260246000fd5b6040516323b872dd60e01b60208201526001600160a01b03928316602482015292909116604483015260648083019390935291815261443a91614632608483614114565b614729565b60405163095ea7b360e01b60208083019182526001600160a01b038516602484015260448084019690965294825292939092600090614677606486614114565b84519082855af16000513d826146da575b50501561469457505050565b60405163095ea7b360e01b60208201526001600160a01b0390931660248401526000604480850191909152835261443a92614632906146d4606482614114565b82614729565b9091506146f757506001600160a01b0381163b15155b3880614688565b6001146146f0565b90816020910312611b9f575160ff81168103611b9f5790565b60ff16604d81116143e857600a0a90565b906000602091828151910182855af115614784576000513d61477b57506001600160a01b0381163b155b61475a5750565b635274afe760e01b60009081526001600160a01b0391909116600452602490fd5b60011415614753565b6040513d6000823e3d90fd5b60ff60008051602061584d8339815191525460401c16156147ad57565b631afcd79f60e31b60005260046000fdfe60806040523461048c5761104e8038038061001981610491565b92833981019060808183031261048c5780516001600160401b03811161048c57826100459183016104b6565b602082015190926001600160401b03821161048c576100659183016104b6565b90606060408201519101519033156104765760008054336001600160a01b0319821681178355916001600160a01b03909116907f8be0079c531659141344cd1fd0a4f28419497f9722a3daafe3b4186f6b6457e09080a383516001600160401b03811161037f57600254600181811c9116801561046c575b602082101461035f57601f8111610407575b50602094601f82116001146103a057948192939495600092610395575b50508160011b916000199060031b1c1916176002555b82516001600160401b03811161037f57600354600181811c91168015610375575b602082101461035f57601f81116102fa575b506020601f82116001146102935781929394600092610288575b50508160011b916000199060031b1c1916176003555b670de0b6b3a7640000810290808204670de0b6b3a7640000149015171561027257806001553360005260066020526040600020553360005260086020526040600020600160ff198254161790553060005260086020526040600020600160ff198254161790558060045560015490818102818104831482151715610272577fff3dd5e80294197918c284bbfc3dadd97d0b40ce92106110946329088f80068a91606460209204600555604051908152a160405190815260007fddf252ad1be2c89b69c2b068fc378daa952ba7f163c4a11628f55a4df523b3ef60203393a3604051610b2c90816105228239f35b634e487b7160e01b600052601160045260246000fd5b01519050388061016f565b601f198216906003600052806000209160005b8181106102e2575095836001959697106102c9575b505050811b01600355610185565b015160001960f88460031b161c191690553880806102bb565b9192602060018192868b0151815501940192016102a6565b60036000527fc2575a0e9e593c00f959f8c92f12db2869c3395a3b0502d05e2516446f71f85b601f830160051c81019160208410610355575b601f0160051c01905b8181106103495750610155565b6000815560010161033c565b9091508190610333565b634e487b7160e01b600052602260045260246000fd5b90607f1690610143565b634e487b7160e01b600052604160045260246000fd5b01519050388061010c565b601f198216956002600052806000209160005b8881106103ef575083600195969798106103d6575b505050811b01600255610122565b015160001960f88460031b161c191690553880806103c8565b919260206001819286850151815501940192016103b3565b60026000527f405787fa12a823e0f2b7631cc41b3ba8828b3321ca811111fa75cd3aa3bb5ace601f830160051c81019160208410610462575b601f0160051c01905b81811061045657506100ef565b60008155600101610449565b9091508190610440565b90607f16906100dd565b631e4fbdf760e01b600052600060045260246000fd5b600080fd5b6040519190601f01601f191682016001600160401b0381118382101761037f57604052565b81601f8201121561048c578051906001600160401b03821161037f576104e5601f8301601f1916602001610491565b928284526020838301011161048c5760005b82811061050c57505060206000918301015290565b806020809284010151828287010152016104f756fe608080604052600436101561001357600080fd5b60003560e01c90816306fdde031461067c57508063095ea7b31461065657806318160ddd1461063857806323b872dd146105d2578063313ce567146105b657806370a082311461057c578063715018a6146105235780637437681e1461050557806379cc67901461044a5780638da5cb5b1461042157806395d89b4114610300578063a9059cbb146102cf578063c2d0ffca14610252578063db4cf1e0146101ae578063dd62ed3e1461015d5763f2fde38b146100cf57600080fd5b34610158576020366003190112610158576100e8610798565b6100f0610acd565b6001600160a01b0316801561014257600080546001600160a01b03198116831782556001600160a01b0316907f8be0079c531659141344cd1fd0a4f28419497f9722a3daafe3b4186f6b6457e09080a3005b631e4fbdf760e01b600052600060045260246000fd5b600080fd5b3461015857604036600319011261015857610176610798565b61017e6107ae565b6001600160a01b039182166000908152600760209081526040808320949093168252928352819020549051908152f35b34610158576020366003190112610158576101c7610798565b6101cf610acd565b6001600160a01b031680156101f9576000908152600860205260409020805460ff19166001179055005b60405162461bcd60e51b815260206004820152602b60248201527f45524332303a204578636c756465204d61782054782066726f6d20746865207a60448201526a65726f206164647265737360a81b6064820152608490fd5b346101585760203660031901126101585760043561026e610acd565b806004556001548082029082820414821517156102b9577fff3dd5e80294197918c284bbfc3dadd97d0b40ce92106110946329088f80068a91606460209204600555604051908152a1005b634e487b7160e01b600052601160045260246000fd5b34610158576040366003190112610158576102f56102eb610798565b60243590336108d9565b602060405160018152f35b346101585760003660031901126101585760405160006003548060011c90600181168015610417575b602083108114610403578285529081156103e75750600114610390575b50819003601f01601f191681019067ffffffffffffffff82118183101761037a576103768291826040528261074f565b0390f35b634e487b7160e01b600052604160045260246000fd5b905060036000527fc2575a0e9e593c00f959f8c92f12db2869c3395a3b0502d05e2516446f71f85b6000905b8282106103d157506020915082010182610346565b60018160209254838588010152019101906103bc565b90506020925060ff191682840152151560051b82010182610346565b634e487b7160e01b84526022600452602484fd5b91607f1691610329565b34610158576000366003190112610158576000546040516001600160a01b039091168152602090f35b3461015857604036600319011261015857610463610798565b6024359061046f610acd565b6001600160a01b031680156104ce577fddf252ad1be2c89b69c2b068fc378daa952ba7f163c4a11628f55a4df523b3ef6020600093838552600682526104b98160408720546107c4565b848652600683526040862055604051908152a3005b60405162461bcd60e51b815260206004820152600f60248201526e496e76616c6964206164647265737360881b6044820152606490fd5b34610158576000366003190112610158576020600454604051908152f35b346101585760003660031901126101585761053c610acd565b600080546001600160a01b0319811682556001600160a01b03167f8be0079c531659141344cd1fd0a4f28419497f9722a3daafe3b4186f6b6457e08280a3005b34610158576020366003190112610158576001600160a01b0361059d610798565b1660005260066020526020604060002054604051908152f35b3461015857600036600319011261015857602060405160128152f35b34610158576060366003190112610158576102f56105ee610798565b6106306105f96107ae565b6106076044358092856108d9565b6001600160a01b03831660009081526007602090815260408083203384529091529020546107c4565b9033906107d1565b34610158576000366003190112610158576020600154604051908152f35b34610158576040366003190112610158576102f5610672610798565b60243590336107d1565b346101585760003660031901126101585760006002548060011c90600181168015610745575b602083108114610403578285529081156103e757506001146106ee5750819003601f01601f191681019067ffffffffffffffff82118183101761037a576103768291826040528261074f565b905060026000527f405787fa12a823e0f2b7631cc41b3ba8828b3321ca811111fa75cd3aa3bb5ace6000905b82821061072f57506020915082010182610346565b600181602092548385880101520191019061071a565b91607f16916106a2565b91909160208152825180602083015260005b818110610782575060409293506000838284010152601f8019910116010190565b8060208092870101516040828601015201610761565b600435906001600160a01b038216820361015857565b602435906001600160a01b038216820361015857565b919082039182116102b957565b6001600160a01b0316908115610888576001600160a01b03169182156108385760207f8c5be1e5ebec7d5bd14f71427d1e84f3dd0314c0f7b2291e5b200ac8c7c3b925918360005260078252604060002085600052825280604060002055604051908152a3565b60405162461bcd60e51b815260206004820152602260248201527f45524332303a20617070726f766520746f20746865207a65726f206164647265604482015261737360f01b6064820152608490fd5b60405162461bcd60e51b8152602060048201526024808201527f45524332303a20617070726f76652066726f6d20746865207a65726f206164646044820152637265737360e01b6064820152608490fd5b6001600160a01b0316908115610a7a576001600160a01b0316918215610a295780156109d25781600052600860205260ff6040600020541615610993575b81600052600660205261092f816040600020546107c4565b8260005260066020526040600020558260005260066020526040600020548181018091116102b9577fddf252ad1be2c89b69c2b068fc378daa952ba7f163c4a11628f55a4df523b3ef916020918560005260068352604060002055604051908152a3565b6005548111156109175760405162461bcd60e51b815260206004820152600d60248201526c08af0c6cacac8e6409ac2f0a8f609b1b6044820152606490fd5b60405162461bcd60e51b815260206004820152602960248201527f5472616e7366657220616d6f756e74206d7573742062652067726561746572206044820152687468616e207a65726f60b81b6064820152608490fd5b60405162461bcd60e51b815260206004820152602360248201527f45524332303a207472616e7366657220746f20746865207a65726f206164647260448201526265737360e81b6064820152608490fd5b60405162461bcd60e51b815260206004820152602560248201527f45524332303a207472616e736665722066726f6d20746865207a65726f206164604482015264647265737360d81b6064820152608490fd5b6000546001600160a01b03163303610ae157565b63118cdaa760e01b6000523360045260246000fdfea264697066735822122053f1292af34723e20a72902575d303dd89f166a1509cf40d85d611b2a6c6fe4e64736f6c634300081c00339016d09d72d40fdae2fd8ceac6b6234c7706214fd39c1cd1e609a0528c1993009b779b17422d0df92223018b32b4d1fa46e071723d6817e2486d003becc55f00f0c57e16840df040f15088dc2f81fe391c3923bec73e23a9662efc9c229c6a00a2646970667358221220bbf66abaefff0d2e8d51d45ec1a531fe76d27451027b1c4ad6e42b1ba2938f1d64736f6c634300081c0033",
  "linkReferences": {},
  "deployedLinkReferences": {}
}