{"contracts/fun/FRouter.sol":{"FRouter":{"abi":[{"inputs":[],"stateMutability":"nonpayable","type":"constructor"},{"inputs":[],"name":"AccessControlBadConfirmation","type":"error"},{"inputs":[{"internalType":"address","name":"account","type":"address"},{"internalType":"bytes32","name":"neededRole","type":"bytes32"}],"name":"AccessControlUnauthorizedAccount","type":"error"},{"inputs":[],"name":"InvalidInitialization","type":"error"},{"inputs":[],"name":"NotInitializing","type":"error"},{"inputs":[],"name":"ReentrancyGuardReentrantCall","type":"error"},{"inputs":[{"internalType":"address","name":"token","type":"address"}],"name":"SafeERC20FailedOperation","type":"error"},{"inputs":[],"name":"ZeroPairAddress","type":"error"},{"anonymous":false,"inputs":[{"indexed":false,"internalType":"uint64","name":"version","type":"uint64"}],"name":"Initialized","type":"event"},{"anonymous":false,"inputs":[{"indexed":true,"internalType":"bytes32","name":"role","type":"bytes32"},{"indexed":true,"internalType":"bytes32","name":"previousAdminRole","type":"bytes32"},{"indexed":true,"internalType":"bytes32","name":"newAdminRole","type":"bytes32"}],"name":"RoleAdminChanged","type":"event"},{"anonymous":false,"inputs":[{"indexed":true,"internalType":"bytes32","name":"role","type":"bytes32"},{"indexed":true,"internalType":"address","name":"account","type":"address"},{"indexed":true,"internalType":"address","name":"sender","type":"address"}],"name":"RoleGranted","type":"event"},{"anonymous":false,"inputs":[{"indexed":true,"internalType":"bytes32","name":"role","type":"bytes32"},{"indexed":true,"internalType":"address","name":"account","type":"address"},{"indexed":true,"internalType":"address","name":"sender","type":"address"}],"name":"RoleRevoked","type":"event"},{"inputs":[],"name":"ADMIN_ROLE","outputs":[{"internalType":"bytes32","name":"","type":"bytes32"}],"stateMutability":"view","type":"function"},{"inputs":[],"name":"DEFAULT_ADMIN_ROLE","outputs":[{"internalType":"bytes32","name":"","type":"bytes32"}],"stateMutability":"view","type":"function"},{"inputs":[],"name":"EXECUTOR_ROLE","outputs":[{"internalType":"bytes32","name":"","type":"bytes32"}],"stateMutability":"view","type":"function"},{"inputs":[{"internalType":"address","name":"token_","type":"address"},{"internalType":"uint256","name":"amountToken_","type":"uint256"},{"internalType":"uint256","name":"amountAsset_","type":"uint256"}],"name":"addInitialLiquidity","outputs":[{"internalType":"uint256","name":"","type":"uint256"},{"internalType":"uint256","name":"","type":"uint256"}],"stateMutability":"nonpayable","type":"function"},{"inputs":[{"internalType":"address","name":"pair","type":"address"},{"internalType":"address","name":"asset","type":"address"},{"internalType":"address","name":"spender","type":"address"},{"internalType":"uint256","name":"amount","type":"uint256"}],"name":"approval","outputs":[],"stateMutability":"nonpayable","type":"function"},{"inputs":[],"name":"assetToken","outputs":[{"internalType":"address","name":"","type":"address"}],"stateMutability":"view","type":"function"},{"inputs":[{"internalType":"uint256","name":"amountIn","type":"uint256"},{"internalType":"address","name":"tokenAddress","type":"address"},{"internalType":"address","name":"to","type":"address"}],"name":"buy","outputs":[{"internalType":"uint256","name":"","type":"uint256"},{"internalType":"uint256","name":"","type":"uint256"}],"stateMutability":"nonpayable","type":"function"},{"inputs":[],"name":"factory","outputs":[{"internalType":"contract FFactory","name":"","type":"address"}],"stateMutability":"view","type":"function"},{"inputs":[{"internalType":"address","name":"token","type":"address"},{"internalType":"address","name":"assetToken_","type":"address"},{"internalType":"uint256","name":"amountIn","type":"uint256"}],"name":"getAmountsOut","outputs":[{"internalType":"uint256","name":"_amountOut","type":"uint256"}],"stateMutability":"view","type":"function"},{"inputs":[{"internalType":"bytes32","name":"role","type":"bytes32"}],"name":"getRoleAdmin","outputs":[{"internalType":"bytes32","name":"","type":"bytes32"}],"stateMutability":"view","type":"function"},{"inputs":[{"internalType":"address","name":"tokenAddress","type":"address"}],"name":"graduate","outputs":[],"stateMutability":"nonpayable","type":"function"},{"inputs":[{"internalType":"bytes32","name":"role","type":"bytes32"},{"internalType":"address","name":"account","type":"address"}],"name":"grantRole","outputs":[],"stateMutability":"nonpayable","type":"function"},{"inputs":[{"internalType":"bytes32","name":"role","type":"bytes32"},{"internalType":"address","name":"account","type":"address"}],"name":"hasRole","outputs":[{"internalType":"bool","name":"","type":"bool"}],"stateMutability":"view","type":"function"},{"inputs":[{"internalType":"address","name":"factory_","type":"address"},{"internalType":"address","name":"assetToken_","type":"address"}],"name":"initialize","outputs":[],"stateMutability":"nonpayable","type":"function"},{"inputs":[{"internalType":"bytes32","name":"role","type":"bytes32"},{"internalType":"address","name":"callerConfirmation","type":"address"}],"name":"renounceRole","outputs":[],"stateMutability":"nonpayable","type":"function"},{"inputs":[{"internalType":"bytes32","name":"role","type":"bytes32"},{"internalType":"address","name":"account","type":"address"}],"name":"revokeRole","outputs":[],"stateMutability":"nonpayable","type":"function"},{"inputs":[{"internalType":"uint256","name":"amountIn","type":"uint256"},{"internalType":"address","name":"tokenAddress","type":"address"},{"internalType":"address","name":"to","type":"address"}],"name":"sell","outputs":[{"internalType":"uint256","name":"","type":"uint256"},{"internalType":"uint256","name":"","type":"uint256"}],"stateMutability":"nonpayable","type":"function"},{"inputs":[{"internalType":"address","name":"newManager","type":"address"}],"name":"setTaxManager","outputs":[],"stateMutability":"nonpayable","type":"function"},{"inputs":[{"internalType":"bytes4","name":"interfaceId","type":"bytes4"}],"name":"supportsInterface","outputs":[{"internalType":"bool","name":"","type":"bool"}],"stateMutability":"view","type":"function"},{"inputs":[],"name":"taxManager","outputs":[{"internalType":"address","name":"","type":"address"}],"stateMutability":"view","type":"function"}],"evm":{"bytecode":{"linkReferences":{},"object":"6080806040523460d2577ff0c57e16840df040f15088dc2f81fe391c3923bec73e23a9662efc9c229c6a005460ff8160401c1660c1576002600160401b03196001600160401b03821601605c575b6040516119b490816100d88239f35b6001600160401b0319166001600160401b039081177ff0c57e16840df040f15088dc2f81fe391c3923bec73e23a9662efc9c229c6a005581527fc7f505b2f371ae2175ee4913f4499e1f2633a7b5936321eed1cdaeb6115181d290602090a13880604d565b63f92ee8a960e01b60005260046000fd5b600080fdfe608080604052600436101561001357600080fd5b600090813560e01c90816301ffc9a7146111bc5750806307bd026514611181578063095e3913146110c55780631083f7611461109c578063248a9ca31461107d5780632f2ff15d1461104b57806336568abe1461100657806345608d0014610fce578063485cc95514610e075780634d23773014610dde5780636f08e1771461093357806375b238fc146108f857806391d148541461089f578063a217fddf14610883578063ab3c475a1461079d578063ba37fd3814610652578063c45a01551461062b578063d547741f146105f0578063e753858a146102c05763ff6d8d05146100fd57600080fd5b346102295760203660031901126102295761017b602061011b611211565b610123611563565b61012b61181a565b61013f6001600160a01b0382161515611298565b835460015460405163e6a4390560e01b81526001600160a01b039384166004820152908316602482015293849290911690829081906044820190565b03915afa90811561022c578291610291575b506001600160a01b031680156102825760405163c66f245560e01b81528291602082600481845afa91821561027757839261023b575b50803b1561023757604051635c921eb960e01b8152336004820152602481019290925282908290604490829084905af1801561022c57610214575b50600160008051602061193f8339815191525580f35b8161021e916112e4565b6102295780386101fe565b80fd5b6040513d84823e3d90fd5b5050fd5b925090506020823d60201161026f575b81610258602093836112e4565b8101031261026a5782915190386101c3565b600080fd5b3d915061024b565b6040513d85823e3d90fd5b63081ce35d60e01b8252600482fd5b6102b3915060203d6020116102b9575b6102ab81836112e4565b81019061131c565b3861018d565b503d6102a1565b5034610229576102cf3661123d565b90916102d9611563565b6102e161181a565b6102f56001600160a01b0384161515611298565b6103096001600160a01b0383161515611298565b80156105ab57835460015460405163e6a4390560e01b81526001600160a01b03868116600483015291821660248201819052909591909216929190602086604481875afa95861561053857879661058a575b506001600160a01b03861693841561057b57604051634f7041a560e01b815288959493929190602081600481855afa908115610538578791610543575b5090602060646103aa87600495611538565b049160405193848092630e2ad37b60e41b82525afa9485156105385761041695899583610404958b9361050f575b506103e7906103f1939461137e565b9b8c978892611856565b60015489906001600160a01b0316611856565b6001546001600160a01b03169061138b565b92813b1561050b576040516302ccb1b360e41b81526001600160a01b0391909116600482015260248101849052828160448183865af19081156102775783916104f2575b5050602090608460405180948193635673b02d60e01b83528160048401528760248401528860448401528160648401525af180156104e757604094506104ba575b50600160008051602061193f8339815191525582519182526020820152f35b6104db9060203d6020116104e0575b6104d381836112e4565b81019061154b565b61049b565b503d6104c9565b6040513d86823e3d90fd5b816104fc916112e4565b61050757813861045a565b5080fd5b8280fd5b6103f19350906105306103e79260203d6020116102b9576102ab81836112e4565b9350906103d8565b6040513d89823e3d90fd5b919650506020813d602011610573575b81610560602093836112e4565b8101031261026a57518895906020610398565b3d9150610553565b63081ce35d60e01b8852600488fd5b6105a491965060203d6020116102b9576102ab81836112e4565b943861035b565b60405162461bcd60e51b815260206004820152601f60248201527f616d6f756e74496e206d7573742062652067726561746572207468616e2030006044820152606490fd5b503461022957604036600319011261022957610627600435610610611227565b9061062261061d82611277565b6115d5565b61177a565b5080f35b5034610229578060031936011261022957546040516001600160a01b039091168152602090f35b50346102295760603660031901126102295761066c611211565b602435906044359061067c611563565b6001600160a01b038116906106d590602090610699841515611298565b865460015460405163e6a4390560e01b81526001600160a01b039384166004820152908316602482015293849290911690829081906044820190565b03915afa908115610792578591610773575b506001600160a01b038116918215610764579161070a8560209388953390611856565b604460405180948193630d9778e560e11b83528860048401528760248401525af180156104e75760409450610747575b5082519182526020820152f35b61075f9060203d6020116104e0576104d381836112e4565b61073a565b63081ce35d60e01b8652600486fd5b61078c915060203d6020116102b9576102ab81836112e4565b386106e7565b6040513d87823e3d90fd5b5034610229576080366003190112610229576107b7611211565b6107bf611227565b906044356001600160a01b0381169182820361087f57610833936107f66020946107e7611563565b6107ef61181a565b1515611298565b604051632e2952f960e11b81526001600160a01b039384166004820152921660248301526064803560448401529193849283918791839190820190565b03926001600160a01b03165af1801561022c576108605750600160008051602061193f8339815191525580f35b6108789060203d6020116104e0576104d381836112e4565b50386101fe565b8480fd5b5034610229578060031936011261022957602090604051908152f35b50346102295760403660031901126102295760406108bb611227565b91600435815260008051602061191f833981519152602052209060018060a01b0316600052602052602060ff604060002054166040519015158152f35b503461022957806003193601126102295760206040517fa49807205ce4d355092ef5a8a18f56e8913cf4a201fbe287825b095693c217758152f35b5034610229576109423661123d565b9061094b61181a565b610953611563565b6001600160a01b038116918215159161096b83611298565b61097f6001600160a01b0383161515611298565b8415610da857855460015460405163e6a4390560e01b81526001600160a01b03848116600483015291821660248201529160209183916044918391165afa908115610538578791610d89575b506001600160a01b03811693841561057b576109e690611298565b865460015460405163e6a4390560e01b81526001600160a01b0394851660048201529084166024820181905293909160209183916044918391165afa908115610d7e578891610d5f575b506001600160a01b031690811561057b5760408051630240bc6b60e21b81529081600481865afa928315610d545789918a94610d13575b5090602060049260405193848092637464fc3d60e01b82525afa8015610d0857899487938c92610cc7575b508590610ac59715600014610cb65791610ab3610ab992610abf959461133b565b9061135e565b9061137e565b96611856565b845460405163cc1776d360e01b81526001600160a01b039091169186602083600481875afa8015610ca95786938291610c70575b50610b08600494606492611538565b04936020610b16868961137e565b9160405195868092630e2ad37b60e41b82525afa93841561022c578294610c4f575b50853b1561050757604051635c921eb960e01b81526001600160a01b0393909316600484015260248301528160448183885af1801561053857610c37575b5090829186933b15610c3357604051635c921eb960e01b81526001600160a01b039190911660048201526024810191909152828160448183865af1908115610277578391610c1e575b5050602090608460405180948193635673b02d60e01b83528860048401528160248401528160448401528760648401525af180156104e757604094506104ba5750600160008051602061193f8339815191525582519182526020820152f35b81610c28916112e4565b610507578138610bbf565b8380fd5b86610c469197929493976112e4565b94909138610b76565b610c6991945060203d6020116102b9576102ab81836112e4565b9238610b38565b9350506020833d602011610ca1575b81610c8c602093836112e4565b81010312610229579151859290610b08610af9565b3d9150610c7f565b50604051903d90823e3d90fd5b91610ab3610ab992610abf9561133b565b95509250506020843d602011610d00575b81610ce5602093836112e4565b81010312610cfc5792518893869290919085610a92565b8980fd5b3d9150610cd8565b6040513d8c823e3d90fd5b915092506040813d604011610d4c575b81610d30604093836112e4565b81010312610d48578051602091820151939091610a67565b8880fd5b3d9150610d23565b6040513d8b823e3d90fd5b610d78915060203d6020116102b9576102ab81836112e4565b38610a30565b6040513d8a823e3d90fd5b610da2915060203d6020116102b9576102ab81836112e4565b386109cb565b60405162461bcd60e51b815260206004820152600e60248201526d2d32b9379020b6b7bab73a1024b760911b6044820152606490fd5b50346102295780600319360112610229576002546040516001600160a01b039091168152602090f35b503461022957604036600319011261022957610e21611211565b610e29611227565b60008051602061195f833981519152549160ff8360401c16159267ffffffffffffffff811680159081610fc6575b6001149081610fbc575b159081610fb3575b50610fa45767ffffffffffffffff19811660011760008051602061195f8339815191525583610f77575b50610e9c6118f0565b610ea46118f0565b600160008051602061193f83398151915255610ebe6118f0565b610ec73361161f565b506001600160a01b031690610edd821515611298565b6001600160a01b031690610ef2821515611298565b6001600160601b0360a01b8454161783556001600160601b0360a01b6001541617600155610f1d5780f35b68ff00000000000000001960008051602061195f833981519152541660008051602061195f833981519152557fc7f505b2f371ae2175ee4913f4499e1f2633a7b5936321eed1cdaeb6115181d2602060405160018152a180f35b68ffffffffffffffffff1916680100000000000000011760008051602061195f8339815191525538610e93565b63f92ee8a960e01b8552600485fd5b90501538610e69565b303b159150610e61565b859150610e57565b5034610229576060366003190112610229576020610ffe610fed611211565b610ff5611227565b6044359161138b565b604051908152f35b503461022957604036600319011261022957611020611227565b336001600160a01b0382160361103c576106279060043561177a565b63334bd91960e11b8252600482fd5b50346102295760403660031901126102295761062760043561106b611227565b9061107861061d82611277565b6116d1565b5034610229576020366003190112610229576020610ffe600435611277565b50346102295780600319360112610229576001546040516001600160a01b039091168152602090f35b5034610229576020366003190112610229576110df611211565b7fa49807205ce4d355092ef5a8a18f56e8913cf4a201fbe287825b095693c21775825260008051602061191f8339815191526020908152604080842033855290915282205460ff161561114a5760018060a01b03166001600160601b0360a01b600254161760025580f35b63e2517d3f60e01b8252336004527fa49807205ce4d355092ef5a8a18f56e8913cf4a201fbe287825b095693c21775602452604482fd5b503461022957806003193601126102295760206040517fd8aa0f3194971a2a116679f7c2090f6939c8d4e01a2a8d7e41d55e5351469e638152f35b9050346105075760203660031901126105075760043563ffffffff60e01b811680910361050b5760209250637965db0b60e01b8114908115611200575b5015158152f35b6301ffc9a760e01b149050386111f9565b600435906001600160a01b038216820361026a57565b602435906001600160a01b038216820361026a57565b606090600319011261026a57600435906024356001600160a01b038116810361026a57906044356001600160a01b038116810361026a5790565b60005260008051602061191f83398151915260205260016040600020015490565b1561129f57565b60405162461bcd60e51b815260206004820152601f60248201527f5a65726f2061646472657373657320617265206e6f7420616c6c6f7765642e006044820152606490fd5b90601f8019910116810190811067ffffffffffffffff82111761130657604052565b634e487b7160e01b600052604160045260246000fd5b9081602091031261026a57516001600160a01b038116810361026a5790565b9190820180921161134857565b634e487b7160e01b600052601160045260246000fd5b8115611368570490565b634e487b7160e01b600052601260045260246000fd5b9190820391821161134857565b9092916113a26001600160a01b0383161515611298565b60005460015460405163e6a4390560e01b81526001600160a01b0394851660048201529084166024820181905293909160209183916044918391165afa9081156114ba57600091611519575b506001600160a01b03169384156115085760408051630240bc6b60e21b8152939084600481895afa9182156114ba5760009485936114c6575b506020600495969760405196878092637464fc3d60e01b82525afa9485156114ba57600095611486575b506001600160a01b0316036114755791610ab3610ab992611472959461133b565b90565b91610ab3610ab9926114729561133b565b90946020823d6020116114b2575b816114a1602093836112e4565b810103126102295750519338611451565b3d9150611494565b6040513d6000823e3d90fd5b949692506040853d604011611500575b816114e3604093836112e4565b810103126114fc57845160209586015193975094611427565b8680fd5b3d91506114d6565b63081ce35d60e01b60005260046000fd5b611532915060203d6020116102b9576102ab81836112e4565b386113ee565b8181029291811591840414171561134857565b9081602091031261026a5751801515810361026a5790565b3360009081527f52fce5e8a5d0d9e8d1ea29f4525e512e9c27bf92cae50374d497f918ab48f382602052604090205460ff161561159c57565b63e2517d3f60e01b600052336004527fd8aa0f3194971a2a116679f7c2090f6939c8d4e01a2a8d7e41d55e5351469e6360245260446000fd5b600081815260008051602061191f8339815191526020908152604080832033845290915290205460ff16156116075750565b63e2517d3f60e01b6000523360045260245260446000fd5b6001600160a01b03811660009081527fb7db2dd08fcb62d0c9e08c51941cae53c267786a0b75803fb7960902fc8ef97d602052604090205460ff166116cb576001600160a01b031660008181527fb7db2dd08fcb62d0c9e08c51941cae53c267786a0b75803fb7960902fc8ef97d60205260408120805460ff191660011790553391907f2f8788117e7eff1d82e926ec794901d17c78024a50270940304540a733656f0d8180a4600190565b50600090565b600081815260008051602061191f833981519152602090815260408083206001600160a01b038616845290915290205460ff1661177357600081815260008051602061191f833981519152602090815260408083206001600160a01b0395909516808452949091528120805460ff19166001179055339291907f2f8788117e7eff1d82e926ec794901d17c78024a50270940304540a733656f0d9080a4600190565b5050600090565b600081815260008051602061191f833981519152602090815260408083206001600160a01b038616845290915290205460ff161561177357600081815260008051602061191f833981519152602090815260408083206001600160a01b0395909516808452949091528120805460ff19169055339291907ff6391f5c32d9c69d2a47ea670b442974b53935d1edc7fd64eb21e047a839171b9080a4600190565b600260008051602061193f833981519152541461184557600260008051602061193f83398151915255565b633ee5aeb560e01b60005260046000fd5b6040516323b872dd60e01b60208083019182526001600160a01b039485166024840152949093166044820152606480820195909552938452926000919061189e6084826112e4565b519082855af1156114ba576000513d6118e757506001600160a01b0381163b155b6118c65750565b635274afe760e01b60009081526001600160a01b0391909116600452602490fd5b600114156118bf565b60ff60008051602061195f8339815191525460401c161561190d57565b631afcd79f60e31b60005260046000fdfe02dd7bc7dec4dceedda775e58dd541e08a116c6c53815c0bd028192f7b6268009b779b17422d0df92223018b32b4d1fa46e071723d6817e2486d003becc55f00f0c57e16840df040f15088dc2f81fe391c3923bec73e23a9662efc9c229c6a00a2646970667358221220711fc423ddc18a34f35081362da17658dec801d8d5be0c3f09fb5cc2567216bc64736f6c634300081c0033","opcodes":"PUSH1 0x80 DUP1 PUSH1 0x40 MSTORE CALLVALUE PUSH1 0xD2 JUMPI PUSH32 0xF0C57E16840DF040F15088DC2F81FE391C3923BEC73E23A9662EFC9C229C6A00 SLOAD PUSH1 0xFF DUP2 PUSH1 0x40 SHR AND PUSH1 0xC1 JUMPI PUSH1 0x2 PUSH1 0x1 PUSH1 0x40 SHL SUB NOT PUSH1 0x1 PUSH1 0x1 PUSH1 0x40 SHL SUB DUP3 AND ADD PUSH1 0x5C JUMPI JUMPDEST PUSH1 0x40 MLOAD PUSH2 0x19B4 SWAP1 DUP2 PUSH2 0xD8 DUP3 CODECOPY RETURN JUMPDEST PUSH1 0x1 PUSH1 0x1 PUSH1 0x40 SHL SUB NOT AND PUSH1 0x1 PUSH1 0x1 PUSH1 0x40 SHL SUB SWAP1 DUP2 OR PUSH32 0xF0C57E16840DF040F15088DC2F81FE391C3923BEC73E23A9662EFC9C229C6A00 SSTORE DUP2 MSTORE PUSH32 0xC7F505B2F371AE2175EE4913F4499E1F2633A7B5936321EED1CDAEB6115181D2 SWAP1 PUSH1 0x20 SWAP1 LOG1 CODESIZE DUP1 PUSH1 0x4D JUMP JUMPDEST PUSH4 0xF92EE8A9 PUSH1 0xE0 SHL PUSH1 0x0 MSTORE PUSH1 0x4 PUSH1 0x0 REVERT JUMPDEST PUSH1 0x0 DUP1 REVERT INVALID PUSH1 0x80 DUP1 PUSH1 0x40 MSTORE PUSH1 0x4 CALLDATASIZE LT ISZERO PUSH2 0x13 JUMPI PUSH1 0x0 DUP1 REVERT JUMPDEST PUSH1 0x0 SWAP1 DUP2 CALLDATALOAD PUSH1 0xE0 SHR SWAP1 DUP2 PUSH4 0x1FFC9A7 EQ PUSH2 0x11BC JUMPI POP DUP1 PUSH4 0x7BD0265 EQ PUSH2 0x1181 JUMPI DUP1 PUSH4 0x95E3913 EQ PUSH2 0x10C5 JUMPI DUP1 PUSH4 0x1083F761 EQ PUSH2 0x109C JUMPI DUP1 PUSH4 0x248A9CA3 EQ PUSH2 0x107D JUMPI DUP1 PUSH4 0x2F2FF15D EQ PUSH2 0x104B JUMPI DUP1 PUSH4 0x36568ABE EQ PUSH2 0x1006 JUMPI DUP1 PUSH4 0x45608D00 EQ PUSH2 0xFCE JUMPI DUP1 PUSH4 0x485CC955 EQ PUSH2 0xE07 JUMPI DUP1 PUSH4 0x4D237730 EQ PUSH2 0xDDE JUMPI DUP1 PUSH4 0x6F08E177 EQ PUSH2 0x933 JUMPI DUP1 PUSH4 0x75B238FC EQ PUSH2 0x8F8 JUMPI DUP1 PUSH4 0x91D14854 EQ PUSH2 0x89F JUMPI DUP1 PUSH4 0xA217FDDF EQ PUSH2 0x883 JUMPI DUP1 PUSH4 0xAB3C475A EQ PUSH2 0x79D JUMPI DUP1 PUSH4 0xBA37FD38 EQ PUSH2 0x652 JUMPI DUP1 PUSH4 0xC45A0155 EQ PUSH2 0x62B JUMPI DUP1 PUSH4 0xD547741F EQ PUSH2 0x5F0 JUMPI DUP1 PUSH4 0xE753858A EQ PUSH2 0x2C0 JUMPI PUSH4 0xFF6D8D05 EQ PUSH2 0xFD JUMPI PUSH1 0x0 DUP1 REVERT JUMPDEST CALLVALUE PUSH2 0x229 JUMPI PUSH1 0x20 CALLDATASIZE PUSH1 0x3 NOT ADD SLT PUSH2 0x229 JUMPI PUSH2 0x17B PUSH1 0x20 PUSH2 0x11B PUSH2 0x1211 JUMP JUMPDEST PUSH2 0x123 PUSH2 0x1563 JUMP JUMPDEST PUSH2 0x12B PUSH2 0x181A JUMP JUMPDEST PUSH2 0x13F PUSH1 0x1 PUSH1 0x1 PUSH1 0xA0 SHL SUB DUP3 AND ISZERO ISZERO PUSH2 0x1298 JUMP JUMPDEST DUP4 SLOAD PUSH1 0x1 SLOAD PUSH1 0x40 MLOAD PUSH4 0xE6A43905 PUSH1 0xE0 SHL DUP2 MSTORE PUSH1 0x1 PUSH1 0x1 PUSH1 0xA0 SHL SUB SWAP4 DUP5 AND PUSH1 0x4 DUP3 ADD MSTORE SWAP1 DUP4 AND PUSH1 0x24 DUP3 ADD MSTORE SWAP4 DUP5 SWAP3 SWAP1 SWAP2 AND SWAP1 DUP3 SWAP1 DUP2 SWAP1 PUSH1 0x44 DUP3 ADD SWAP1 JUMP JUMPDEST SUB SWAP2 GAS STATICCALL SWAP1 DUP2 ISZERO PUSH2 0x22C JUMPI DUP3 SWAP2 PUSH2 0x291 JUMPI JUMPDEST POP PUSH1 0x1 PUSH1 0x1 PUSH1 0xA0 SHL SUB AND DUP1 ISZERO PUSH2 0x282 JUMPI PUSH1 0x40 MLOAD PUSH4 0xC66F2455 PUSH1 0xE0 SHL DUP2 MSTORE DUP3 SWAP2 PUSH1 0x20 DUP3 PUSH1 0x4 DUP2 DUP5 GAS STATICCALL SWAP2 DUP3 ISZERO PUSH2 0x277 JUMPI DUP4 SWAP3 PUSH2 0x23B JUMPI JUMPDEST POP DUP1 EXTCODESIZE ISZERO PUSH2 0x237 JUMPI PUSH1 0x40 MLOAD PUSH4 0x5C921EB9 PUSH1 0xE0 SHL DUP2 MSTORE CALLER PUSH1 0x4 DUP3 ADD MSTORE PUSH1 0x24 DUP2 ADD SWAP3 SWAP1 SWAP3 MSTORE DUP3 SWAP1 DUP3 SWAP1 PUSH1 0x44 SWAP1 DUP3 SWAP1 DUP5 SWAP1 GAS CALL DUP1 ISZERO PUSH2 0x22C JUMPI PUSH2 0x214 JUMPI JUMPDEST POP PUSH1 0x1 PUSH1 0x0 DUP1 MLOAD PUSH1 0x20 PUSH2 0x193F DUP4 CODECOPY DUP2 MLOAD SWAP2 MSTORE SSTORE DUP1 RETURN JUMPDEST DUP2 PUSH2 0x21E SWAP2 PUSH2 0x12E4 JUMP JUMPDEST PUSH2 0x229 JUMPI DUP1 CODESIZE PUSH2 0x1FE JUMP JUMPDEST DUP1 REVERT JUMPDEST PUSH1 0x40 MLOAD RETURNDATASIZE DUP5 DUP3 RETURNDATACOPY RETURNDATASIZE SWAP1 REVERT JUMPDEST POP POP REVERT JUMPDEST SWAP3 POP SWAP1 POP PUSH1 0x20 DUP3 RETURNDATASIZE PUSH1 0x20 GT PUSH2 0x26F JUMPI JUMPDEST DUP2 PUSH2 0x258 PUSH1 0x20 SWAP4 DUP4 PUSH2 0x12E4 JUMP JUMPDEST DUP2 ADD SUB SLT PUSH2 0x26A JUMPI DUP3 SWAP2 MLOAD SWAP1 CODESIZE PUSH2 0x1C3 JUMP JUMPDEST PUSH1 0x0 DUP1 REVERT JUMPDEST RETURNDATASIZE SWAP2 POP PUSH2 0x24B JUMP JUMPDEST PUSH1 0x40 MLOAD RETURNDATASIZE DUP6 DUP3 RETURNDATACOPY RETURNDATASIZE SWAP1 REVERT JUMPDEST PUSH4 0x81CE35D PUSH1 0xE0 SHL DUP3 MSTORE PUSH1 0x4 DUP3 REVERT JUMPDEST PUSH2 0x2B3 SWAP2 POP PUSH1 0x20 RETURNDATASIZE PUSH1 0x20 GT PUSH2 0x2B9 JUMPI JUMPDEST PUSH2 0x2AB DUP2 DUP4 PUSH2 0x12E4 JUMP JUMPDEST DUP2 ADD SWAP1 PUSH2 0x131C JUMP JUMPDEST CODESIZE PUSH2 0x18D JUMP JUMPDEST POP RETURNDATASIZE PUSH2 0x2A1 JUMP JUMPDEST POP CALLVALUE PUSH2 0x229 JUMPI PUSH2 0x2CF CALLDATASIZE PUSH2 0x123D JUMP JUMPDEST SWAP1 SWAP2 PUSH2 0x2D9 PUSH2 0x1563 JUMP JUMPDEST PUSH2 0x2E1 PUSH2 0x181A JUMP JUMPDEST PUSH2 0x2F5 PUSH1 0x1 PUSH1 0x1 PUSH1 0xA0 SHL SUB DUP5 AND ISZERO ISZERO PUSH2 0x1298 JUMP JUMPDEST PUSH2 0x309 PUSH1 0x1 PUSH1 0x1 PUSH1 0xA0 SHL SUB DUP4 AND ISZERO ISZERO PUSH2 0x1298 JUMP JUMPDEST DUP1 ISZERO PUSH2 0x5AB JUMPI DUP4 SLOAD PUSH1 0x1 SLOAD PUSH1 0x40 MLOAD PUSH4 0xE6A43905 PUSH1 0xE0 SHL DUP2 MSTORE PUSH1 0x1 PUSH1 0x1 PUSH1 0xA0 SHL SUB DUP7 DUP2 AND PUSH1 0x4 DUP4 ADD MSTORE SWAP2 DUP3 AND PUSH1 0x24 DUP3 ADD DUP2 SWAP1 MSTORE SWAP1 SWAP6 SWAP2 SWAP1 SWAP3 AND SWAP3 SWAP2 SWAP1 PUSH1 0x20 DUP7 PUSH1 0x44 DUP2 DUP8 GAS STATICCALL SWAP6 DUP7 ISZERO PUSH2 0x538 JUMPI DUP8 SWAP7 PUSH2 0x58A JUMPI JUMPDEST POP PUSH1 0x1 PUSH1 0x1 PUSH1 0xA0 SHL SUB DUP7 AND SWAP4 DUP5 ISZERO PUSH2 0x57B JUMPI PUSH1 0x40 MLOAD PUSH4 0x4F7041A5 PUSH1 0xE0 SHL DUP2 MSTORE DUP9 SWAP6 SWAP5 SWAP4 SWAP3 SWAP2 SWAP1 PUSH1 0x20 DUP2 PUSH1 0x4 DUP2 DUP6 GAS STATICCALL SWAP1 DUP2 ISZERO PUSH2 0x538 JUMPI DUP8 SWAP2 PUSH2 0x543 JUMPI JUMPDEST POP SWAP1 PUSH1 0x20 PUSH1 0x64 PUSH2 0x3AA DUP8 PUSH1 0x4 SWAP6 PUSH2 0x1538 JUMP JUMPDEST DIV SWAP2 PUSH1 0x40 MLOAD SWAP4 DUP5 DUP1 SWAP3 PUSH4 0xE2AD37B PUSH1 0xE4 SHL DUP3 MSTORE GAS STATICCALL SWAP5 DUP6 ISZERO PUSH2 0x538 JUMPI PUSH2 0x416 SWAP6 DUP10 SWAP6 DUP4 PUSH2 0x404 SWAP6 DUP12 SWAP4 PUSH2 0x50F JUMPI JUMPDEST POP PUSH2 0x3E7 SWAP1 PUSH2 0x3F1 SWAP4 SWAP5 PUSH2 0x137E JUMP JUMPDEST SWAP12 DUP13 SWAP8 DUP9 SWAP3 PUSH2 0x1856 JUMP JUMPDEST PUSH1 0x1 SLOAD DUP10 SWAP1 PUSH1 0x1 PUSH1 0x1 PUSH1 0xA0 SHL SUB AND PUSH2 0x1856 JUMP JUMPDEST PUSH1 0x1 SLOAD PUSH1 0x1 PUSH1 0x1 PUSH1 0xA0 SHL SUB AND SWAP1 PUSH2 0x138B JUMP JUMPDEST SWAP3 DUP2 EXTCODESIZE ISZERO PUSH2 0x50B JUMPI PUSH1 0x40 MLOAD PUSH4 0x2CCB1B3 PUSH1 0xE4 SHL DUP2 MSTORE PUSH1 0x1 PUSH1 0x1 PUSH1 0xA0 SHL SUB SWAP2 SWAP1 SWAP2 AND PUSH1 0x4 DUP3 ADD MSTORE PUSH1 0x24 DUP2 ADD DUP5 SWAP1 MSTORE DUP3 DUP2 PUSH1 0x44 DUP2 DUP4 DUP7 GAS CALL SWAP1 DUP2 ISZERO PUSH2 0x277 JUMPI DUP4 SWAP2 PUSH2 0x4F2 JUMPI JUMPDEST POP POP PUSH1 0x20 SWAP1 PUSH1 0x84 PUSH1 0x40 MLOAD DUP1 SWAP5 DUP2 SWAP4 PUSH4 0x5673B02D PUSH1 0xE0 SHL DUP4 MSTORE DUP2 PUSH1 0x4 DUP5 ADD MSTORE DUP8 PUSH1 0x24 DUP5 ADD MSTORE DUP9 PUSH1 0x44 DUP5 ADD MSTORE DUP2 PUSH1 0x64 DUP5 ADD MSTORE GAS CALL DUP1 ISZERO PUSH2 0x4E7 JUMPI PUSH1 0x40 SWAP5 POP PUSH2 0x4BA JUMPI JUMPDEST POP PUSH1 0x1 PUSH1 0x0 DUP1 MLOAD PUSH1 0x20 PUSH2 0x193F DUP4 CODECOPY DUP2 MLOAD SWAP2 MSTORE SSTORE DUP3 MLOAD SWAP2 DUP3 MSTORE PUSH1 0x20 DUP3 ADD MSTORE RETURN JUMPDEST PUSH2 0x4DB SWAP1 PUSH1 0x20 RETURNDATASIZE PUSH1 0x20 GT PUSH2 0x4E0 JUMPI JUMPDEST PUSH2 0x4D3 DUP2 DUP4 PUSH2 0x12E4 JUMP JUMPDEST DUP2 ADD SWAP1 PUSH2 0x154B JUMP JUMPDEST PUSH2 0x49B JUMP JUMPDEST POP RETURNDATASIZE PUSH2 0x4C9 JUMP JUMPDEST PUSH1 0x40 MLOAD RETURNDATASIZE DUP7 DUP3 RETURNDATACOPY RETURNDATASIZE SWAP1 REVERT JUMPDEST DUP2 PUSH2 0x4FC SWAP2 PUSH2 0x12E4 JUMP JUMPDEST PUSH2 0x507 JUMPI DUP2 CODESIZE PUSH2 0x45A JUMP JUMPDEST POP DUP1 REVERT JUMPDEST DUP3 DUP1 REVERT JUMPDEST PUSH2 0x3F1 SWAP4 POP SWAP1 PUSH2 0x530 PUSH2 0x3E7 SWAP3 PUSH1 0x20 RETURNDATASIZE PUSH1 0x20 GT PUSH2 0x2B9 JUMPI PUSH2 0x2AB DUP2 DUP4 PUSH2 0x12E4 JUMP JUMPDEST SWAP4 POP SWAP1 PUSH2 0x3D8 JUMP JUMPDEST PUSH1 0x40 MLOAD RETURNDATASIZE DUP10 DUP3 RETURNDATACOPY RETURNDATASIZE SWAP1 REVERT JUMPDEST SWAP2 SWAP7 POP POP PUSH1 0x20 DUP2 RETURNDATASIZE PUSH1 0x20 GT PUSH2 0x573 JUMPI JUMPDEST DUP2 PUSH2 0x560 PUSH1 0x20 SWAP4 DUP4 PUSH2 0x12E4 JUMP JUMPDEST DUP2 ADD SUB SLT PUSH2 0x26A JUMPI MLOAD DUP9 SWAP6 SWAP1 PUSH1 0x20 PUSH2 0x398 JUMP JUMPDEST RETURNDATASIZE SWAP2 POP PUSH2 0x553 JUMP JUMPDEST PUSH4 0x81CE35D PUSH1 0xE0 SHL DUP9 MSTORE PUSH1 0x4 DUP9 REVERT JUMPDEST PUSH2 0x5A4 SWAP2 SWAP7 POP PUSH1 0x20 RETURNDATASIZE PUSH1 0x20 GT PUSH2 0x2B9 JUMPI PUSH2 0x2AB DUP2 DUP4 PUSH2 0x12E4 JUMP JUMPDEST SWAP5 CODESIZE PUSH2 0x35B JUMP JUMPDEST PUSH1 0x40 MLOAD PUSH3 0x461BCD PUSH1 0xE5 SHL DUP2 MSTORE PUSH1 0x20 PUSH1 0x4 DUP3 ADD MSTORE PUSH1 0x1F PUSH1 0x24 DUP3 ADD MSTORE PUSH32 0x616D6F756E74496E206D7573742062652067726561746572207468616E203000 PUSH1 0x44 DUP3 ADD MSTORE PUSH1 0x64 SWAP1 REVERT JUMPDEST POP CALLVALUE PUSH2 0x229 JUMPI PUSH1 0x40 CALLDATASIZE PUSH1 0x3 NOT ADD SLT PUSH2 0x229 JUMPI PUSH2 0x627 PUSH1 0x4 CALLDATALOAD PUSH2 0x610 PUSH2 0x1227 JUMP JUMPDEST SWAP1 PUSH2 0x622 PUSH2 0x61D DUP3 PUSH2 0x1277 JUMP JUMPDEST PUSH2 0x15D5 JUMP JUMPDEST PUSH2 0x177A JUMP JUMPDEST POP DUP1 RETURN JUMPDEST POP CALLVALUE PUSH2 0x229 JUMPI DUP1 PUSH1 0x3 NOT CALLDATASIZE ADD SLT PUSH2 0x229 JUMPI SLOAD PUSH1 0x40 MLOAD PUSH1 0x1 PUSH1 0x1 PUSH1 0xA0 SHL SUB SWAP1 SWAP2 AND DUP2 MSTORE PUSH1 0x20 SWAP1 RETURN JUMPDEST POP CALLVALUE PUSH2 0x229 JUMPI PUSH1 0x60 CALLDATASIZE PUSH1 0x3 NOT ADD SLT PUSH2 0x229 JUMPI PUSH2 0x66C PUSH2 0x1211 JUMP JUMPDEST PUSH1 0x24 CALLDATALOAD SWAP1 PUSH1 0x44 CALLDATALOAD SWAP1 PUSH2 0x67C PUSH2 0x1563 JUMP JUMPDEST PUSH1 0x1 PUSH1 0x1 PUSH1 0xA0 SHL SUB DUP2 AND SWAP1 PUSH2 0x6D5 SWAP1 PUSH1 0x20 SWAP1 PUSH2 0x699 DUP5 ISZERO ISZERO PUSH2 0x1298 JUMP JUMPDEST DUP7 SLOAD PUSH1 0x1 SLOAD PUSH1 0x40 MLOAD PUSH4 0xE6A43905 PUSH1 0xE0 SHL DUP2 MSTORE PUSH1 0x1 PUSH1 0x1 PUSH1 0xA0 SHL SUB SWAP4 DUP5 AND PUSH1 0x4 DUP3 ADD MSTORE SWAP1 DUP4 AND PUSH1 0x24 DUP3 ADD MSTORE SWAP4 DUP5 SWAP3 SWAP1 SWAP2 AND SWAP1 DUP3 SWAP1 DUP2 SWAP1 PUSH1 0x44 DUP3 ADD SWAP1 JUMP JUMPDEST SUB SWAP2 GAS STATICCALL SWAP1 DUP2 ISZERO PUSH2 0x792 JUMPI DUP6 SWAP2 PUSH2 0x773 JUMPI JUMPDEST POP PUSH1 0x1 PUSH1 0x1 PUSH1 0xA0 SHL SUB DUP2 AND SWAP2 DUP3 ISZERO PUSH2 0x764 JUMPI SWAP2 PUSH2 0x70A DUP6 PUSH1 0x20 SWAP4 DUP9 SWAP6 CALLER SWAP1 PUSH2 0x1856 JUMP JUMPDEST PUSH1 0x44 PUSH1 0x40 MLOAD DUP1 SWAP5 DUP2 SWAP4 PUSH4 0xD9778E5 PUSH1 0xE1 SHL DUP4 MSTORE DUP9 PUSH1 0x4 DUP5 ADD MSTORE DUP8 PUSH1 0x24 DUP5 ADD MSTORE GAS CALL DUP1 ISZERO PUSH2 0x4E7 JUMPI PUSH1 0x40 SWAP5 POP PUSH2 0x747 JUMPI JUMPDEST POP DUP3 MLOAD SWAP2 DUP3 MSTORE PUSH1 0x20 DUP3 ADD MSTORE RETURN JUMPDEST PUSH2 0x75F SWAP1 PUSH1 0x20 RETURNDATASIZE PUSH1 0x20 GT PUSH2 0x4E0 JUMPI PUSH2 0x4D3 DUP2 DUP4 PUSH2 0x12E4 JUMP JUMPDEST PUSH2 0x73A JUMP JUMPDEST PUSH4 0x81CE35D PUSH1 0xE0 SHL DUP7 MSTORE PUSH1 0x4 DUP7 REVERT JUMPDEST PUSH2 0x78C SWAP2 POP PUSH1 0x20 RETURNDATASIZE PUSH1 0x20 GT PUSH2 0x2B9 JUMPI PUSH2 0x2AB DUP2 DUP4 PUSH2 0x12E4 JUMP JUMPDEST CODESIZE PUSH2 0x6E7 JUMP JUMPDEST PUSH1 0x40 MLOAD RETURNDATASIZE DUP8 DUP3 RETURNDATACOPY RETURNDATASIZE SWAP1 REVERT JUMPDEST POP CALLVALUE PUSH2 0x229 JUMPI PUSH1 0x80 CALLDATASIZE PUSH1 0x3 NOT ADD SLT PUSH2 0x229 JUMPI PUSH2 0x7B7 PUSH2 0x1211 JUMP JUMPDEST PUSH2 0x7BF PUSH2 0x1227 JUMP JUMPDEST SWAP1 PUSH1 0x44 CALLDATALOAD PUSH1 0x1 PUSH1 0x1 PUSH1 0xA0 SHL SUB DUP2 AND SWAP2 DUP3 DUP3 SUB PUSH2 0x87F JUMPI PUSH2 0x833 SWAP4 PUSH2 0x7F6 PUSH1 0x20 SWAP5 PUSH2 0x7E7 PUSH2 0x1563 JUMP JUMPDEST PUSH2 0x7EF PUSH2 0x181A JUMP JUMPDEST ISZERO ISZERO PUSH2 0x1298 JUMP JUMPDEST PUSH1 0x40 MLOAD PUSH4 0x2E2952F9 PUSH1 0xE1 SHL DUP2 MSTORE PUSH1 0x1 PUSH1 0x1 PUSH1 0xA0 SHL SUB SWAP4 DUP5 AND PUSH1 0x4 DUP3 ADD MSTORE SWAP3 AND PUSH1 0x24 DUP4 ADD MSTORE PUSH1 0x64 DUP1 CALLDATALOAD PUSH1 0x44 DUP5 ADD MSTORE SWAP2 SWAP4 DUP5 SWAP3 DUP4 SWAP2 DUP8 SWAP2 DUP4 SWAP2 SWAP1 DUP3 ADD SWAP1 JUMP JUMPDEST SUB SWAP3 PUSH1 0x1 PUSH1 0x1 PUSH1 0xA0 SHL SUB AND GAS CALL DUP1 ISZERO PUSH2 0x22C JUMPI PUSH2 0x860 JUMPI POP PUSH1 0x1 PUSH1 0x0 DUP1 MLOAD PUSH1 0x20 PUSH2 0x193F DUP4 CODECOPY DUP2 MLOAD SWAP2 MSTORE SSTORE DUP1 RETURN JUMPDEST PUSH2 0x878 SWAP1 PUSH1 0x20 RETURNDATASIZE PUSH1 0x20 GT PUSH2 0x4E0 JUMPI PUSH2 0x4D3 DUP2 DUP4 PUSH2 0x12E4 JUMP JUMPDEST POP CODESIZE PUSH2 0x1FE JUMP JUMPDEST DUP5 DUP1 REVERT JUMPDEST POP CALLVALUE PUSH2 0x229 JUMPI DUP1 PUSH1 0x3 NOT CALLDATASIZE ADD SLT PUSH2 0x229 JUMPI PUSH1 0x20 SWAP1 PUSH1 0x40 MLOAD SWAP1 DUP2 MSTORE RETURN JUMPDEST POP CALLVALUE PUSH2 0x229 JUMPI PUSH1 0x40 CALLDATASIZE PUSH1 0x3 NOT ADD SLT PUSH2 0x229 JUMPI PUSH1 0x40 PUSH2 0x8BB PUSH2 0x1227 JUMP JUMPDEST SWAP2 PUSH1 0x4 CALLDATALOAD DUP2 MSTORE PUSH1 0x0 DUP1 MLOAD PUSH1 0x20 PUSH2 0x191F DUP4 CODECOPY DUP2 MLOAD SWAP2 MSTORE PUSH1 0x20 MSTORE KECCAK256 SWAP1 PUSH1 0x1 DUP1 PUSH1 0xA0 SHL SUB AND PUSH1 0x0 MSTORE PUSH1 0x20 MSTORE PUSH1 0x20 PUSH1 0xFF PUSH1 0x40 PUSH1 0x0 KECCAK256 SLOAD AND PUSH1 0x40 MLOAD SWAP1 ISZERO ISZERO DUP2 MSTORE RETURN JUMPDEST POP CALLVALUE PUSH2 0x229 JUMPI DUP1 PUSH1 0x3 NOT CALLDATASIZE ADD SLT PUSH2 0x229 JUMPI PUSH1 0x20 PUSH1 0x40 MLOAD PUSH32 0xA49807205CE4D355092EF5A8A18F56E8913CF4A201FBE287825B095693C21775 DUP2 MSTORE RETURN JUMPDEST POP CALLVALUE PUSH2 0x229 JUMPI PUSH2 0x942 CALLDATASIZE PUSH2 0x123D JUMP JUMPDEST SWAP1 PUSH2 0x94B PUSH2 0x181A JUMP JUMPDEST PUSH2 0x953 PUSH2 0x1563 JUMP JUMPDEST PUSH1 0x1 PUSH1 0x1 PUSH1 0xA0 SHL SUB DUP2 AND SWAP2 DUP3 ISZERO ISZERO SWAP2 PUSH2 0x96B DUP4 PUSH2 0x1298 JUMP JUMPDEST PUSH2 0x97F PUSH1 0x1 PUSH1 0x1 PUSH1 0xA0 SHL SUB DUP4 AND ISZERO ISZERO PUSH2 0x1298 JUMP JUMPDEST DUP5 ISZERO PUSH2 0xDA8 JUMPI DUP6 SLOAD PUSH1 0x1 SLOAD PUSH1 0x40 MLOAD PUSH4 0xE6A43905 PUSH1 0xE0 SHL DUP2 MSTORE PUSH1 0x1 PUSH1 0x1 PUSH1 0xA0 SHL SUB DUP5 DUP2 AND PUSH1 0x4 DUP4 ADD MSTORE SWAP2 DUP3 AND PUSH1 0x24 DUP3 ADD MSTORE SWAP2 PUSH1 0x20 SWAP2 DUP4 SWAP2 PUSH1 0x44 SWAP2 DUP4 SWAP2 AND GAS STATICCALL SWAP1 DUP2 ISZERO PUSH2 0x538 JUMPI DUP8 SWAP2 PUSH2 0xD89 JUMPI JUMPDEST POP PUSH1 0x1 PUSH1 0x1 PUSH1 0xA0 SHL SUB DUP2 AND SWAP4 DUP5 ISZERO PUSH2 0x57B JUMPI PUSH2 0x9E6 SWAP1 PUSH2 0x1298 JUMP JUMPDEST DUP7 SLOAD PUSH1 0x1 SLOAD PUSH1 0x40 MLOAD PUSH4 0xE6A43905 PUSH1 0xE0 SHL DUP2 MSTORE PUSH1 0x1 PUSH1 0x1 PUSH1 0xA0 SHL SUB SWAP5 DUP6 AND PUSH1 0x4 DUP3 ADD MSTORE SWAP1 DUP5 AND PUSH1 0x24 DUP3 ADD DUP2 SWAP1 MSTORE SWAP4 SWAP1 SWAP2 PUSH1 0x20 SWAP2 DUP4 SWAP2 PUSH1 0x44 SWAP2 DUP4 SWAP2 AND GAS STATICCALL SWAP1 DUP2 ISZERO PUSH2 0xD7E JUMPI DUP9 SWAP2 PUSH2 0xD5F JUMPI JUMPDEST POP PUSH1 0x1 PUSH1 0x1 PUSH1 0xA0 SHL SUB AND SWAP1 DUP2 ISZERO PUSH2 0x57B JUMPI PUSH1 0x40 DUP1 MLOAD PUSH4 0x240BC6B PUSH1 0xE2 SHL DUP2 MSTORE SWAP1 DUP2 PUSH1 0x4 DUP2 DUP7 GAS STATICCALL SWAP3 DUP4 ISZERO PUSH2 0xD54 JUMPI DUP10 SWAP2 DUP11 SWAP5 PUSH2 0xD13 JUMPI JUMPDEST POP SWAP1 PUSH1 0x20 PUSH1 0x4 SWAP3 PUSH1 0x40 MLOAD SWAP4 DUP5 DUP1 SWAP3 PUSH4 0x7464FC3D PUSH1 0xE0 SHL DUP3 MSTORE GAS STATICCALL DUP1 ISZERO PUSH2 0xD08 JUMPI DUP10 SWAP5 DUP8 SWAP4 DUP13 SWAP3 PUSH2 0xCC7 JUMPI JUMPDEST POP DUP6 SWAP1 PUSH2 0xAC5 SWAP8 ISZERO PUSH1 0x0 EQ PUSH2 0xCB6 JUMPI SWAP2 PUSH2 0xAB3 PUSH2 0xAB9 SWAP3 PUSH2 0xABF SWAP6 SWAP5 PUSH2 0x133B JUMP JUMPDEST SWAP1 PUSH2 0x135E JUMP JUMPDEST SWAP1 PUSH2 0x137E JUMP JUMPDEST SWAP7 PUSH2 0x1856 JUMP JUMPDEST DUP5 SLOAD PUSH1 0x40 MLOAD PUSH4 0xCC1776D3 PUSH1 0xE0 SHL DUP2 MSTORE PUSH1 0x1 PUSH1 0x1 PUSH1 0xA0 SHL SUB SWAP1 SWAP2 AND SWAP2 DUP7 PUSH1 0x20 DUP4 PUSH1 0x4 DUP2 DUP8 GAS STATICCALL DUP1 ISZERO PUSH2 0xCA9 JUMPI DUP7 SWAP4 DUP3 SWAP2 PUSH2 0xC70 JUMPI JUMPDEST POP PUSH2 0xB08 PUSH1 0x4 SWAP5 PUSH1 0x64 SWAP3 PUSH2 0x1538 JUMP JUMPDEST DIV SWAP4 PUSH1 0x20 PUSH2 0xB16 DUP7 DUP10 PUSH2 0x137E JUMP JUMPDEST SWAP2 PUSH1 0x40 MLOAD SWAP6 DUP7 DUP1 SWAP3 PUSH4 0xE2AD37B PUSH1 0xE4 SHL DUP3 MSTORE GAS STATICCALL SWAP4 DUP5 ISZERO PUSH2 0x22C JUMPI DUP3 SWAP5 PUSH2 0xC4F JUMPI JUMPDEST POP DUP6 EXTCODESIZE ISZERO PUSH2 0x507 JUMPI PUSH1 0x40 MLOAD PUSH4 0x5C921EB9 PUSH1 0xE0 SHL DUP2 MSTORE PUSH1 0x1 PUSH1 0x1 PUSH1 0xA0 SHL SUB SWAP4 SWAP1 SWAP4 AND PUSH1 0x4 DUP5 ADD MSTORE PUSH1 0x24 DUP4 ADD MSTORE DUP2 PUSH1 0x44 DUP2 DUP4 DUP9 GAS CALL DUP1 ISZERO PUSH2 0x538 JUMPI PUSH2 0xC37 JUMPI JUMPDEST POP SWAP1 DUP3 SWAP2 DUP7 SWAP4 EXTCODESIZE ISZERO PUSH2 0xC33 JUMPI PUSH1 0x40 MLOAD PUSH4 0x5C921EB9 PUSH1 0xE0 SHL DUP2 MSTORE PUSH1 0x1 PUSH1 0x1 PUSH1 0xA0 SHL SUB SWAP2 SWAP1 SWAP2 AND PUSH1 0x4 DUP3 ADD MSTORE PUSH1 0x24 DUP2 ADD SWAP2 SWAP1 SWAP2 MSTORE DUP3 DUP2 PUSH1 0x44 DUP2 DUP4 DUP7 GAS CALL SWAP1 DUP2 ISZERO PUSH2 0x277 JUMPI DUP4 SWAP2 PUSH2 0xC1E JUMPI JUMPDEST POP POP PUSH1 0x20 SWAP1 PUSH1 0x84 PUSH1 0x40 MLOAD DUP1 SWAP5 DUP2 SWAP4 PUSH4 0x5673B02D PUSH1 0xE0 SHL DUP4 MSTORE DUP9 PUSH1 0x4 DUP5 ADD MSTORE DUP2 PUSH1 0x24 DUP5 ADD MSTORE DUP2 PUSH1 0x44 DUP5 ADD MSTORE DUP8 PUSH1 0x64 DUP5 ADD MSTORE GAS CALL DUP1 ISZERO PUSH2 0x4E7 JUMPI PUSH1 0x40 SWAP5 POP PUSH2 0x4BA JUMPI POP PUSH1 0x1 PUSH1 0x0 DUP1 MLOAD PUSH1 0x20 PUSH2 0x193F DUP4 CODECOPY DUP2 MLOAD SWAP2 MSTORE SSTORE DUP3 MLOAD SWAP2 DUP3 MSTORE PUSH1 0x20 DUP3 ADD MSTORE RETURN JUMPDEST DUP2 PUSH2 0xC28 SWAP2 PUSH2 0x12E4 JUMP JUMPDEST PUSH2 0x507 JUMPI DUP2 CODESIZE PUSH2 0xBBF JUMP JUMPDEST DUP4 DUP1 REVERT JUMPDEST DUP7 PUSH2 0xC46 SWAP2 SWAP8 SWAP3 SWAP5 SWAP4 SWAP8 PUSH2 0x12E4 JUMP JUMPDEST SWAP5 SWAP1 SWAP2 CODESIZE PUSH2 0xB76 JUMP JUMPDEST PUSH2 0xC69 SWAP2 SWAP5 POP PUSH1 0x20 RETURNDATASIZE PUSH1 0x20 GT PUSH2 0x2B9 JUMPI PUSH2 0x2AB DUP2 DUP4 PUSH2 0x12E4 JUMP JUMPDEST SWAP3 CODESIZE PUSH2 0xB38 JUMP JUMPDEST SWAP4 POP POP PUSH1 0x20 DUP4 RETURNDATASIZE PUSH1 0x20 GT PUSH2 0xCA1 JUMPI JUMPDEST DUP2 PUSH2 0xC8C PUSH1 0x20 SWAP4 DUP4 PUSH2 0x12E4 JUMP JUMPDEST DUP2 ADD SUB SLT PUSH2 0x229 JUMPI SWAP2 MLOAD DUP6 SWAP3 SWAP1 PUSH2 0xB08 PUSH2 0xAF9 JUMP JUMPDEST RETURNDATASIZE SWAP2 POP PUSH2 0xC7F JUMP JUMPDEST POP PUSH1 0x40 MLOAD SWAP1 RETURNDATASIZE SWAP1 DUP3 RETURNDATACOPY RETURNDATASIZE SWAP1 REVERT JUMPDEST SWAP2 PUSH2 0xAB3 PUSH2 0xAB9 SWAP3 PUSH2 0xABF SWAP6 PUSH2 0x133B JUMP JUMPDEST SWAP6 POP SWAP3 POP POP PUSH1 0x20 DUP5 RETURNDATASIZE PUSH1 0x20 GT PUSH2 0xD00 JUMPI JUMPDEST DUP2 PUSH2 0xCE5 PUSH1 0x20 SWAP4 DUP4 PUSH2 0x12E4 JUMP JUMPDEST DUP2 ADD SUB SLT PUSH2 0xCFC JUMPI SWAP3 MLOAD DUP9 SWAP4 DUP7 SWAP3 SWAP1 SWAP2 SWAP1 DUP6 PUSH2 0xA92 JUMP JUMPDEST DUP10 DUP1 REVERT JUMPDEST RETURNDATASIZE SWAP2 POP PUSH2 0xCD8 JUMP JUMPDEST PUSH1 0x40 MLOAD RETURNDATASIZE DUP13 DUP3 RETURNDATACOPY RETURNDATASIZE SWAP1 REVERT JUMPDEST SWAP2 POP SWAP3 POP PUSH1 0x40 DUP2 RETURNDATASIZE PUSH1 0x40 GT PUSH2 0xD4C JUMPI JUMPDEST DUP2 PUSH2 0xD30 PUSH1 0x40 SWAP4 DUP4 PUSH2 0x12E4 JUMP JUMPDEST DUP2 ADD SUB SLT PUSH2 0xD48 JUMPI DUP1 MLOAD PUSH1 0x20 SWAP2 DUP3 ADD MLOAD SWAP4 SWAP1 SWAP2 PUSH2 0xA67 JUMP JUMPDEST DUP9 DUP1 REVERT JUMPDEST RETURNDATASIZE SWAP2 POP PUSH2 0xD23 JUMP JUMPDEST PUSH1 0x40 MLOAD RETURNDATASIZE DUP12 DUP3 RETURNDATACOPY RETURNDATASIZE SWAP1 REVERT JUMPDEST PUSH2 0xD78 SWAP2 POP PUSH1 0x20 RETURNDATASIZE PUSH1 0x20 GT PUSH2 0x2B9 JUMPI PUSH2 0x2AB DUP2 DUP4 PUSH2 0x12E4 JUMP JUMPDEST CODESIZE PUSH2 0xA30 JUMP JUMPDEST PUSH1 0x40 MLOAD RETURNDATASIZE DUP11 DUP3 RETURNDATACOPY RETURNDATASIZE SWAP1 REVERT JUMPDEST PUSH2 0xDA2 SWAP2 POP PUSH1 0x20 RETURNDATASIZE PUSH1 0x20 GT PUSH2 0x2B9 JUMPI PUSH2 0x2AB DUP2 DUP4 PUSH2 0x12E4 JUMP JUMPDEST CODESIZE PUSH2 0x9CB JUMP JUMPDEST PUSH1 0x40 MLOAD PUSH3 0x461BCD PUSH1 0xE5 SHL DUP2 MSTORE PUSH1 0x20 PUSH1 0x4 DUP3 ADD MSTORE PUSH1 0xE PUSH1 0x24 DUP3 ADD MSTORE PUSH14 0x2D32B9379020B6B7BAB73A1024B7 PUSH1 0x91 SHL PUSH1 0x44 DUP3 ADD MSTORE PUSH1 0x64 SWAP1 REVERT JUMPDEST POP CALLVALUE PUSH2 0x229 JUMPI DUP1 PUSH1 0x3 NOT CALLDATASIZE ADD SLT PUSH2 0x229 JUMPI PUSH1 0x2 SLOAD PUSH1 0x40 MLOAD PUSH1 0x1 PUSH1 0x1 PUSH1 0xA0 SHL SUB SWAP1 SWAP2 AND DUP2 MSTORE PUSH1 0x20 SWAP1 RETURN JUMPDEST POP CALLVALUE PUSH2 0x229 JUMPI PUSH1 0x40 CALLDATASIZE PUSH1 0x3 NOT ADD SLT PUSH2 0x229 JUMPI PUSH2 0xE21 PUSH2 0x1211 JUMP JUMPDEST PUSH2 0xE29 PUSH2 0x1227 JUMP JUMPDEST PUSH1 0x0 DUP1 MLOAD PUSH1 0x20 PUSH2 0x195F DUP4 CODECOPY DUP2 MLOAD SWAP2 MSTORE SLOAD SWAP2 PUSH1 0xFF DUP4 PUSH1 0x40 SHR AND ISZERO SWAP3 PUSH8 0xFFFFFFFFFFFFFFFF DUP2 AND DUP1 ISZERO SWAP1 DUP2 PUSH2 0xFC6 JUMPI JUMPDEST PUSH1 0x1 EQ SWAP1 DUP2 PUSH2 0xFBC JUMPI JUMPDEST ISZERO SWAP1 DUP2 PUSH2 0xFB3 JUMPI JUMPDEST POP PUSH2 0xFA4 JUMPI PUSH8 0xFFFFFFFFFFFFFFFF NOT DUP2 AND PUSH1 0x1 OR PUSH1 0x0 DUP1 MLOAD PUSH1 0x20 PUSH2 0x195F DUP4 CODECOPY DUP2 MLOAD SWAP2 MSTORE SSTORE DUP4 PUSH2 0xF77 JUMPI JUMPDEST POP PUSH2 0xE9C PUSH2 0x18F0 JUMP JUMPDEST PUSH2 0xEA4 PUSH2 0x18F0 JUMP JUMPDEST PUSH1 0x1 PUSH1 0x0 DUP1 MLOAD PUSH1 0x20 PUSH2 0x193F DUP4 CODECOPY DUP2 MLOAD SWAP2 MSTORE SSTORE PUSH2 0xEBE PUSH2 0x18F0 JUMP JUMPDEST PUSH2 0xEC7 CALLER PUSH2 0x161F JUMP JUMPDEST POP PUSH1 0x1 PUSH1 0x1 PUSH1 0xA0 SHL SUB AND SWAP1 PUSH2 0xEDD DUP3 ISZERO ISZERO PUSH2 0x1298 JUMP JUMPDEST PUSH1 0x1 PUSH1 0x1 PUSH1 0xA0 SHL SUB AND SWAP1 PUSH2 0xEF2 DUP3 ISZERO ISZERO PUSH2 0x1298 JUMP JUMPDEST PUSH1 0x1 PUSH1 0x1 PUSH1 0x60 SHL SUB PUSH1 0xA0 SHL DUP5 SLOAD AND OR DUP4 SSTORE PUSH1 0x1 PUSH1 0x1 PUSH1 0x60 SHL SUB PUSH1 0xA0 SHL PUSH1 0x1 SLOAD AND OR PUSH1 0x1 SSTORE PUSH2 0xF1D JUMPI DUP1 RETURN JUMPDEST PUSH9 0xFF0000000000000000 NOT PUSH1 0x0 DUP1 MLOAD PUSH1 0x20 PUSH2 0x195F DUP4 CODECOPY DUP2 MLOAD SWAP2 MSTORE SLOAD AND PUSH1 0x0 DUP1 MLOAD PUSH1 0x20 PUSH2 0x195F DUP4 CODECOPY DUP2 MLOAD SWAP2 MSTORE SSTORE PUSH32 0xC7F505B2F371AE2175EE4913F4499E1F2633A7B5936321EED1CDAEB6115181D2 PUSH1 0x20 PUSH1 0x40 MLOAD PUSH1 0x1 DUP2 MSTORE LOG1 DUP1 RETURN JUMPDEST PUSH9 0xFFFFFFFFFFFFFFFFFF NOT AND PUSH9 0x10000000000000001 OR PUSH1 0x0 DUP1 MLOAD PUSH1 0x20 PUSH2 0x195F DUP4 CODECOPY DUP2 MLOAD SWAP2 MSTORE SSTORE CODESIZE PUSH2 0xE93 JUMP JUMPDEST PUSH4 0xF92EE8A9 PUSH1 0xE0 SHL DUP6 MSTORE PUSH1 0x4 DUP6 REVERT JUMPDEST SWAP1 POP ISZERO CODESIZE PUSH2 0xE69 JUMP JUMPDEST ADDRESS EXTCODESIZE ISZERO SWAP2 POP PUSH2 0xE61 JUMP JUMPDEST DUP6 SWAP2 POP PUSH2 0xE57 JUMP JUMPDEST POP CALLVALUE PUSH2 0x229 JUMPI PUSH1 0x60 CALLDATASIZE PUSH1 0x3 NOT ADD SLT PUSH2 0x229 JUMPI PUSH1 0x20 PUSH2 0xFFE PUSH2 0xFED PUSH2 0x1211 JUMP JUMPDEST PUSH2 0xFF5 PUSH2 0x1227 JUMP JUMPDEST PUSH1 0x44 CALLDATALOAD SWAP2 PUSH2 0x138B JUMP JUMPDEST PUSH1 0x40 MLOAD SWAP1 DUP2 MSTORE RETURN JUMPDEST POP CALLVALUE PUSH2 0x229 JUMPI PUSH1 0x40 CALLDATASIZE PUSH1 0x3 NOT ADD SLT PUSH2 0x229 JUMPI PUSH2 0x1020 PUSH2 0x1227 JUMP JUMPDEST CALLER PUSH1 0x1 PUSH1 0x1 PUSH1 0xA0 SHL SUB DUP3 AND SUB PUSH2 0x103C JUMPI PUSH2 0x627 SWAP1 PUSH1 0x4 CALLDATALOAD PUSH2 0x177A JUMP JUMPDEST PUSH4 0x334BD919 PUSH1 0xE1 SHL DUP3 MSTORE PUSH1 0x4 DUP3 REVERT JUMPDEST POP CALLVALUE PUSH2 0x229 JUMPI PUSH1 0x40 CALLDATASIZE PUSH1 0x3 NOT ADD SLT PUSH2 0x229 JUMPI PUSH2 0x627 PUSH1 0x4 CALLDATALOAD PUSH2 0x106B PUSH2 0x1227 JUMP JUMPDEST SWAP1 PUSH2 0x1078 PUSH2 0x61D DUP3 PUSH2 0x1277 JUMP JUMPDEST PUSH2 0x16D1 JUMP JUMPDEST POP CALLVALUE PUSH2 0x229 JUMPI PUSH1 0x20 CALLDATASIZE PUSH1 0x3 NOT ADD SLT PUSH2 0x229 JUMPI PUSH1 0x20 PUSH2 0xFFE PUSH1 0x4 CALLDATALOAD PUSH2 0x1277 JUMP JUMPDEST POP CALLVALUE PUSH2 0x229 JUMPI DUP1 PUSH1 0x3 NOT CALLDATASIZE ADD SLT PUSH2 0x229 JUMPI PUSH1 0x1 SLOAD PUSH1 0x40 MLOAD PUSH1 0x1 PUSH1 0x1 PUSH1 0xA0 SHL SUB SWAP1 SWAP2 AND DUP2 MSTORE PUSH1 0x20 SWAP1 RETURN JUMPDEST POP CALLVALUE PUSH2 0x229 JUMPI PUSH1 0x20 CALLDATASIZE PUSH1 0x3 NOT ADD SLT PUSH2 0x229 JUMPI PUSH2 0x10DF PUSH2 0x1211 JUMP JUMPDEST PUSH32 0xA49807205CE4D355092EF5A8A18F56E8913CF4A201FBE287825B095693C21775 DUP3 MSTORE PUSH1 0x0 DUP1 MLOAD PUSH1 0x20 PUSH2 0x191F DUP4 CODECOPY DUP2 MLOAD SWAP2 MSTORE PUSH1 0x20 SWAP1 DUP2 MSTORE PUSH1 0x40 DUP1 DUP5 KECCAK256 CALLER DUP6 MSTORE SWAP1 SWAP2 MSTORE DUP3 KECCAK256 SLOAD PUSH1 0xFF AND ISZERO PUSH2 0x114A JUMPI PUSH1 0x1 DUP1 PUSH1 0xA0 SHL SUB AND PUSH1 0x1 PUSH1 0x1 PUSH1 0x60 SHL SUB PUSH1 0xA0 SHL PUSH1 0x2 SLOAD AND OR PUSH1 0x2 SSTORE DUP1 RETURN JUMPDEST PUSH4 0xE2517D3F PUSH1 0xE0 SHL DUP3 MSTORE CALLER PUSH1 0x4 MSTORE PUSH32 0xA49807205CE4D355092EF5A8A18F56E8913CF4A201FBE287825B095693C21775 PUSH1 0x24 MSTORE PUSH1 0x44 DUP3 REVERT JUMPDEST POP CALLVALUE PUSH2 0x229 JUMPI DUP1 PUSH1 0x3 NOT CALLDATASIZE ADD SLT PUSH2 0x229 JUMPI PUSH1 0x20 PUSH1 0x40 MLOAD PUSH32 0xD8AA0F3194971A2A116679F7C2090F6939C8D4E01A2A8D7E41D55E5351469E63 DUP2 MSTORE RETURN JUMPDEST SWAP1 POP CALLVALUE PUSH2 0x507 JUMPI PUSH1 0x20 CALLDATASIZE PUSH1 0x3 NOT ADD SLT PUSH2 0x507 JUMPI PUSH1 0x4 CALLDATALOAD PUSH4 0xFFFFFFFF PUSH1 0xE0 SHL DUP2 AND DUP1 SWAP2 SUB PUSH2 0x50B JUMPI PUSH1 0x20 SWAP3 POP PUSH4 0x7965DB0B PUSH1 0xE0 SHL DUP2 EQ SWAP1 DUP2 ISZERO PUSH2 0x1200 JUMPI JUMPDEST POP ISZERO ISZERO DUP2 MSTORE RETURN JUMPDEST PUSH4 0x1FFC9A7 PUSH1 0xE0 SHL EQ SWAP1 POP CODESIZE PUSH2 0x11F9 JUMP JUMPDEST PUSH1 0x4 CALLDATALOAD SWAP1 PUSH1 0x1 PUSH1 0x1 PUSH1 0xA0 SHL SUB DUP3 AND DUP3 SUB PUSH2 0x26A JUMPI JUMP JUMPDEST PUSH1 0x24 CALLDATALOAD SWAP1 PUSH1 0x1 PUSH1 0x1 PUSH1 0xA0 SHL SUB DUP3 AND DUP3 SUB PUSH2 0x26A JUMPI JUMP JUMPDEST PUSH1 0x60 SWAP1 PUSH1 0x3 NOT ADD SLT PUSH2 0x26A JUMPI PUSH1 0x4 CALLDATALOAD SWAP1 PUSH1 0x24 CALLDATALOAD PUSH1 0x1 PUSH1 0x1 PUSH1 0xA0 SHL SUB DUP2 AND DUP2 SUB PUSH2 0x26A JUMPI SWAP1 PUSH1 0x44 CALLDATALOAD PUSH1 0x1 PUSH1 0x1 PUSH1 0xA0 SHL SUB DUP2 AND DUP2 SUB PUSH2 0x26A JUMPI SWAP1 JUMP JUMPDEST PUSH1 0x0 MSTORE PUSH1 0x0 DUP1 MLOAD PUSH1 0x20 PUSH2 0x191F DUP4 CODECOPY DUP2 MLOAD SWAP2 MSTORE PUSH1 0x20 MSTORE PUSH1 0x1 PUSH1 0x40 PUSH1 0x0 KECCAK256 ADD SLOAD SWAP1 JUMP JUMPDEST ISZERO PUSH2 0x129F JUMPI JUMP JUMPDEST PUSH1 0x40 MLOAD PUSH3 0x461BCD PUSH1 0xE5 SHL DUP2 MSTORE PUSH1 0x20 PUSH1 0x4 DUP3 ADD MSTORE PUSH1 0x1F PUSH1 0x24 DUP3 ADD MSTORE PUSH32 0x5A65726F2061646472657373657320617265206E6F7420616C6C6F7765642E00 PUSH1 0x44 DUP3 ADD MSTORE PUSH1 0x64 SWAP1 REVERT JUMPDEST SWAP1 PUSH1 0x1F DUP1 NOT SWAP2 ADD AND DUP2 ADD SWAP1 DUP2 LT PUSH8 0xFFFFFFFFFFFFFFFF DUP3 GT OR PUSH2 0x1306 JUMPI PUSH1 0x40 MSTORE JUMP JUMPDEST PUSH4 0x4E487B71 PUSH1 0xE0 SHL PUSH1 0x0 MSTORE PUSH1 0x41 PUSH1 0x4 MSTORE PUSH1 0x24 PUSH1 0x0 REVERT JUMPDEST SWAP1 DUP2 PUSH1 0x20 SWAP2 SUB SLT PUSH2 0x26A JUMPI MLOAD PUSH1 0x1 PUSH1 0x1 PUSH1 0xA0 SHL SUB DUP2 AND DUP2 SUB PUSH2 0x26A JUMPI SWAP1 JUMP JUMPDEST SWAP2 SWAP1 DUP3 ADD DUP1 SWAP3 GT PUSH2 0x1348 JUMPI JUMP JUMPDEST PUSH4 0x4E487B71 PUSH1 0xE0 SHL PUSH1 0x0 MSTORE PUSH1 0x11 PUSH1 0x4 MSTORE PUSH1 0x24 PUSH1 0x0 REVERT JUMPDEST DUP2 ISZERO PUSH2 0x1368 JUMPI DIV SWAP1 JUMP JUMPDEST PUSH4 0x4E487B71 PUSH1 0xE0 SHL PUSH1 0x0 MSTORE PUSH1 0x12 PUSH1 0x4 MSTORE PUSH1 0x24 PUSH1 0x0 REVERT JUMPDEST SWAP2 SWAP1 DUP3 SUB SWAP2 DUP3 GT PUSH2 0x1348 JUMPI JUMP JUMPDEST SWAP1 SWAP3 SWAP2 PUSH2 0x13A2 PUSH1 0x1 PUSH1 0x1 PUSH1 0xA0 SHL SUB DUP4 AND ISZERO ISZERO PUSH2 0x1298 JUMP JUMPDEST PUSH1 0x0 SLOAD PUSH1 0x1 SLOAD PUSH1 0x40 MLOAD PUSH4 0xE6A43905 PUSH1 0xE0 SHL DUP2 MSTORE PUSH1 0x1 PUSH1 0x1 PUSH1 0xA0 SHL SUB SWAP5 DUP6 AND PUSH1 0x4 DUP3 ADD MSTORE SWAP1 DUP5 AND PUSH1 0x24 DUP3 ADD DUP2 SWAP1 MSTORE SWAP4 SWAP1 SWAP2 PUSH1 0x20 SWAP2 DUP4 SWAP2 PUSH1 0x44 SWAP2 DUP4 SWAP2 AND GAS STATICCALL SWAP1 DUP2 ISZERO PUSH2 0x14BA JUMPI PUSH1 0x0 SWAP2 PUSH2 0x1519 JUMPI JUMPDEST POP PUSH1 0x1 PUSH1 0x1 PUSH1 0xA0 SHL SUB AND SWAP4 DUP5 ISZERO PUSH2 0x1508 JUMPI PUSH1 0x40 DUP1 MLOAD PUSH4 0x240BC6B PUSH1 0xE2 SHL DUP2 MSTORE SWAP4 SWAP1 DUP5 PUSH1 0x4 DUP2 DUP10 GAS STATICCALL SWAP2 DUP3 ISZERO PUSH2 0x14BA JUMPI PUSH1 0x0 SWAP5 DUP6 SWAP4 PUSH2 0x14C6 JUMPI JUMPDEST POP PUSH1 0x20 PUSH1 0x4 SWAP6 SWAP7 SWAP8 PUSH1 0x40 MLOAD SWAP7 DUP8 DUP1 SWAP3 PUSH4 0x7464FC3D PUSH1 0xE0 SHL DUP3 MSTORE GAS STATICCALL SWAP5 DUP6 ISZERO PUSH2 0x14BA JUMPI PUSH1 0x0 SWAP6 PUSH2 0x1486 JUMPI JUMPDEST POP PUSH1 0x1 PUSH1 0x1 PUSH1 0xA0 SHL SUB AND SUB PUSH2 0x1475 JUMPI SWAP2 PUSH2 0xAB3 PUSH2 0xAB9 SWAP3 PUSH2 0x1472 SWAP6 SWAP5 PUSH2 0x133B JUMP JUMPDEST SWAP1 JUMP JUMPDEST SWAP2 PUSH2 0xAB3 PUSH2 0xAB9 SWAP3 PUSH2 0x1472 SWAP6 PUSH2 0x133B JUMP JUMPDEST SWAP1 SWAP5 PUSH1 0x20 DUP3 RETURNDATASIZE PUSH1 0x20 GT PUSH2 0x14B2 JUMPI JUMPDEST DUP2 PUSH2 0x14A1 PUSH1 0x20 SWAP4 DUP4 PUSH2 0x12E4 JUMP JUMPDEST DUP2 ADD SUB SLT PUSH2 0x229 JUMPI POP MLOAD SWAP4 CODESIZE PUSH2 0x1451 JUMP JUMPDEST RETURNDATASIZE SWAP2 POP PUSH2 0x1494 JUMP JUMPDEST PUSH1 0x40 MLOAD RETURNDATASIZE PUSH1 0x0 DUP3 RETURNDATACOPY RETURNDATASIZE SWAP1 REVERT JUMPDEST SWAP5 SWAP7 SWAP3 POP PUSH1 0x40 DUP6 RETURNDATASIZE PUSH1 0x40 GT PUSH2 0x1500 JUMPI JUMPDEST DUP2 PUSH2 0x14E3 PUSH1 0x40 SWAP4 DUP4 PUSH2 0x12E4 JUMP JUMPDEST DUP2 ADD SUB SLT PUSH2 0x14FC JUMPI DUP5 MLOAD PUSH1 0x20 SWAP6 DUP7 ADD MLOAD SWAP4 SWAP8 POP SWAP5 PUSH2 0x1427 JUMP JUMPDEST DUP7 DUP1 REVERT JUMPDEST RETURNDATASIZE SWAP2 POP PUSH2 0x14D6 JUMP JUMPDEST PUSH4 0x81CE35D PUSH1 0xE0 SHL PUSH1 0x0 MSTORE PUSH1 0x4 PUSH1 0x0 REVERT JUMPDEST PUSH2 0x1532 SWAP2 POP PUSH1 0x20 RETURNDATASIZE PUSH1 0x20 GT PUSH2 0x2B9 JUMPI PUSH2 0x2AB DUP2 DUP4 PUSH2 0x12E4 JUMP JUMPDEST CODESIZE PUSH2 0x13EE JUMP JUMPDEST DUP2 DUP2 MUL SWAP3 SWAP2 DUP2 ISZERO SWAP2 DUP5 DIV EQ OR ISZERO PUSH2 0x1348 JUMPI JUMP JUMPDEST SWAP1 DUP2 PUSH1 0x20 SWAP2 SUB SLT PUSH2 0x26A JUMPI MLOAD DUP1 ISZERO ISZERO DUP2 SUB PUSH2 0x26A JUMPI SWAP1 JUMP JUMPDEST CALLER PUSH1 0x0 SWAP1 DUP2 MSTORE PUSH32 0x52FCE5E8A5D0D9E8D1EA29F4525E512E9C27BF92CAE50374D497F918AB48F382 PUSH1 0x20 MSTORE PUSH1 0x40 SWAP1 KECCAK256 SLOAD PUSH1 0xFF AND ISZERO PUSH2 0x159C JUMPI JUMP JUMPDEST PUSH4 0xE2517D3F PUSH1 0xE0 SHL PUSH1 0x0 MSTORE CALLER PUSH1 0x4 MSTORE PUSH32 0xD8AA0F3194971A2A116679F7C2090F6939C8D4E01A2A8D7E41D55E5351469E63 PUSH1 0x24 MSTORE PUSH1 0x44 PUSH1 0x0 REVERT JUMPDEST PUSH1 0x0 DUP2 DUP2 MSTORE PUSH1 0x0 DUP1 MLOAD PUSH1 0x20 PUSH2 0x191F DUP4 CODECOPY DUP2 MLOAD SWAP2 MSTORE PUSH1 0x20 SWAP1 DUP2 MSTORE PUSH1 0x40 DUP1 DUP4 KECCAK256 CALLER DUP5 MSTORE SWAP1 SWAP2 MSTORE SWAP1 KECCAK256 SLOAD PUSH1 0xFF AND ISZERO PUSH2 0x1607 JUMPI POP JUMP JUMPDEST PUSH4 0xE2517D3F PUSH1 0xE0 SHL PUSH1 0x0 MSTORE CALLER PUSH1 0x4 MSTORE PUSH1 0x24 MSTORE PUSH1 0x44 PUSH1 0x0 REVERT JUMPDEST PUSH1 0x1 PUSH1 0x1 PUSH1 0xA0 SHL SUB DUP2 AND PUSH1 0x0 SWAP1 DUP2 MSTORE PUSH32 0xB7DB2DD08FCB62D0C9E08C51941CAE53C267786A0B75803FB7960902FC8EF97D PUSH1 0x20 MSTORE PUSH1 0x40 SWAP1 KECCAK256 SLOAD PUSH1 0xFF AND PUSH2 0x16CB JUMPI PUSH1 0x1 PUSH1 0x1 PUSH1 0xA0 SHL SUB AND PUSH1 0x0 DUP2 DUP2 MSTORE PUSH32 0xB7DB2DD08FCB62D0C9E08C51941CAE53C267786A0B75803FB7960902FC8EF97D PUSH1 0x20 MSTORE PUSH1 0x40 DUP2 KECCAK256 DUP1 SLOAD PUSH1 0xFF NOT AND PUSH1 0x1 OR SWAP1 SSTORE CALLER SWAP2 SWAP1 PUSH32 0x2F8788117E7EFF1D82E926EC794901D17C78024A50270940304540A733656F0D DUP2 DUP1 LOG4 PUSH1 0x1 SWAP1 JUMP JUMPDEST POP PUSH1 0x0 SWAP1 JUMP JUMPDEST PUSH1 0x0 DUP2 DUP2 MSTORE PUSH1 0x0 DUP1 MLOAD PUSH1 0x20 PUSH2 0x191F DUP4 CODECOPY DUP2 MLOAD SWAP2 MSTORE PUSH1 0x20 SWAP1 DUP2 MSTORE PUSH1 0x40 DUP1 DUP4 KECCAK256 PUSH1 0x1 PUSH1 0x1 PUSH1 0xA0 SHL SUB DUP7 AND DUP5 MSTORE SWAP1 SWAP2 MSTORE SWAP1 KECCAK256 SLOAD PUSH1 0xFF AND PUSH2 0x1773 JUMPI PUSH1 0x0 DUP2 DUP2 MSTORE PUSH1 0x0 DUP1 MLOAD PUSH1 0x20 PUSH2 0x191F DUP4 CODECOPY DUP2 MLOAD SWAP2 MSTORE PUSH1 0x20 SWAP1 DUP2 MSTORE PUSH1 0x40 DUP1 DUP4 KECCAK256 PUSH1 0x1 PUSH1 0x1 PUSH1 0xA0 SHL SUB SWAP6 SWAP1 SWAP6 AND DUP1 DUP5 MSTORE SWAP5 SWAP1 SWAP2 MSTORE DUP2 KECCAK256 DUP1 SLOAD PUSH1 0xFF NOT AND PUSH1 0x1 OR SWAP1 SSTORE CALLER SWAP3 SWAP2 SWAP1 PUSH32 0x2F8788117E7EFF1D82E926EC794901D17C78024A50270940304540A733656F0D SWAP1 DUP1 LOG4 PUSH1 0x1 SWAP1 JUMP JUMPDEST POP POP PUSH1 0x0 SWAP1 JUMP JUMPDEST PUSH1 0x0 DUP2 DUP2 MSTORE PUSH1 0x0 DUP1 MLOAD PUSH1 0x20 PUSH2 0x191F DUP4 CODECOPY DUP2 MLOAD SWAP2 MSTORE PUSH1 0x20 SWAP1 DUP2 MSTORE PUSH1 0x40 DUP1 DUP4 KECCAK256 PUSH1 0x1 PUSH1 0x1 PUSH1 0xA0 SHL SUB DUP7 AND DUP5 MSTORE SWAP1 SWAP2 MSTORE SWAP1 KECCAK256 SLOAD PUSH1 0xFF AND ISZERO PUSH2 0x1773 JUMPI PUSH1 0x0 DUP2 DUP2 MSTORE PUSH1 0x0 DUP1 MLOAD PUSH1 0x20 PUSH2 0x191F DUP4 CODECOPY DUP2 MLOAD SWAP2 MSTORE PUSH1 0x20 SWAP1 DUP2 MSTORE PUSH1 0x40 DUP1 DUP4 KECCAK256 PUSH1 0x1 PUSH1 0x1 PUSH1 0xA0 SHL SUB SWAP6 SWAP1 SWAP6 AND DUP1 DUP5 MSTORE SWAP5 SWAP1 SWAP2 MSTORE DUP2 KECCAK256 DUP1 SLOAD PUSH1 0xFF NOT AND SWAP1 SSTORE CALLER SWAP3 SWAP2 SWAP1 PUSH32 0xF6391F5C32D9C69D2A47EA670B442974B53935D1EDC7FD64EB21E047A839171B SWAP1 DUP1 LOG4 PUSH1 0x1 SWAP1 JUMP JUMPDEST PUSH1 0x2 PUSH1 0x0 DUP1 MLOAD PUSH1 0x20 PUSH2 0x193F DUP4 CODECOPY DUP2 MLOAD SWAP2 MSTORE SLOAD EQ PUSH2 0x1845 JUMPI PUSH1 0x2 PUSH1 0x0 DUP1 MLOAD PUSH1 0x20 PUSH2 0x193F DUP4 CODECOPY DUP2 MLOAD SWAP2 MSTORE SSTORE JUMP JUMPDEST PUSH4 0x3EE5AEB5 PUSH1 0xE0 SHL PUSH1 0x0 MSTORE PUSH1 0x4 PUSH1 0x0 REVERT JUMPDEST PUSH1 0x40 MLOAD PUSH4 0x23B872DD PUSH1 0xE0 SHL PUSH1 0x20 DUP1 DUP4 ADD SWAP2 DUP3 MSTORE PUSH1 0x1 PUSH1 0x1 PUSH1 0xA0 SHL SUB SWAP5 DUP6 AND PUSH1 0x24 DUP5 ADD MSTORE SWAP5 SWAP1 SWAP4 AND PUSH1 0x44 DUP3 ADD MSTORE PUSH1 0x64 DUP1 DUP3 ADD SWAP6 SWAP1 SWAP6 MSTORE SWAP4 DUP5 MSTORE SWAP3 PUSH1 0x0 SWAP2 SWAP1 PUSH2 0x189E PUSH1 0x84 DUP3 PUSH2 0x12E4 JUMP JUMPDEST MLOAD SWAP1 DUP3 DUP6 GAS CALL ISZERO PUSH2 0x14BA JUMPI PUSH1 0x0 MLOAD RETURNDATASIZE PUSH2 0x18E7 JUMPI POP PUSH1 0x1 PUSH1 0x1 PUSH1 0xA0 SHL SUB DUP2 AND EXTCODESIZE ISZERO JUMPDEST PUSH2 0x18C6 JUMPI POP JUMP JUMPDEST PUSH4 0x5274AFE7 PUSH1 0xE0 SHL PUSH1 0x0 SWAP1 DUP2 MSTORE PUSH1 0x1 PUSH1 0x1 PUSH1 0xA0 SHL SUB SWAP2 SWAP1 SWAP2 AND PUSH1 0x4 MSTORE PUSH1 0x24 SWAP1 REVERT JUMPDEST PUSH1 0x1 EQ ISZERO PUSH2 0x18BF JUMP JUMPDEST PUSH1 0xFF PUSH1 0x0 DUP1 MLOAD PUSH1 0x20 PUSH2 0x195F DUP4 CODECOPY DUP2 MLOAD SWAP2 MSTORE SLOAD PUSH1 0x40 SHR AND ISZERO PUSH2 0x190D JUMPI JUMP JUMPDEST PUSH4 0x1AFCD79F PUSH1 0xE3 SHL PUSH1 0x0 MSTORE PUSH1 0x4 PUSH1 0x0 REVERT INVALID MUL 0xDD PUSH28 0xC7DEC4DCEEDDA775E58DD541E08A116C6C53815C0BD028192F7B6268 STOP SWAP12 PUSH24 0x9B17422D0DF92223018B32B4D1FA46E071723D6817E2486D STOP EXTCODESIZE 0xEC 0xC5 PUSH0 STOP CREATE 0xC5 PUSH31 0x16840DF040F15088DC2F81FE391C3923BEC73E23A9662EFC9C229C6A00A264 PUSH10 0x70667358221220711FC4 0x23 0xDD 0xC1 DUP11 CALLVALUE RETURN POP DUP2 CALLDATASIZE 0x2D LOG1 PUSH23 0x58DEC801D8D5BE0C3F09FB5CC2567216BC64736F6C6343 STOP ADDMOD SHR STOP CALLER "},"methodIdentifiers":{"ADMIN_ROLE()":"75b238fc","DEFAULT_ADMIN_ROLE()":"a217fddf","EXECUTOR_ROLE()":"07bd0265","addInitialLiquidity(address,uint256,uint256)":"ba37fd38","approval(address,address,address,uint256)":"ab3c475a","assetToken()":"1083f761","buy(uint256,address,address)":"e753858a","factory()":"c45a0155","getAmountsOut(address,address,uint256)":"45608d00","getRoleAdmin(bytes32)":"248a9ca3","graduate(address)":"ff6d8d05","grantRole(bytes32,address)":"2f2ff15d","hasRole(bytes32,address)":"91d14854","initialize(address,address)":"485cc955","renounceRole(bytes32,address)":"36568abe","revokeRole(bytes32,address)":"d547741f","sell(uint256,address,address)":"6f08e177","setTaxManager(address)":"095e3913","supportsInterface(bytes4)":"01ffc9a7","taxManager()":"4d237730"}},"storageLayout":{"storage":[{"astId":5492,"contract":"contracts/fun/FRouter.sol:FRouter","label":"factory","offset":0,"slot":"0","type":"t_contract(FFactory)5067"},{"astId":5494,"contract":"contracts/fun/FRouter.sol:FRouter","label":"assetToken","offset":0,"slot":"1","type":"t_address"},{"astId":5496,"contract":"contracts/fun/FRouter.sol:FRouter","label":"taxManager","offset":0,"slot":"2","type":"t_address"}],"types":{"t_address":{"encoding":"inplace","label":"address","numberOfBytes":"20"},"t_contract(FFactory)5067":{"encoding":"inplace","label":"contract FFactory","numberOfBytes":"20"}}}}}}