{"contracts/fun/Bonding.sol":{"Bonding":{"abi":[{"inputs":[],"stateMutability":"nonpayable","type":"constructor"},{"inputs":[],"name":"InvalidInitialization","type":"error"},{"inputs":[],"name":"NotInitializing","type":"error"},{"inputs":[{"internalType":"address","name":"owner","type":"address"}],"name":"OwnableInvalidOwner","type":"error"},{"inputs":[{"internalType":"address","name":"account","type":"address"}],"name":"OwnableUnauthorizedAccount","type":"error"},{"inputs":[],"name":"ReentrancyGuardReentrantCall","type":"error"},{"inputs":[{"internalType":"address","name":"token","type":"address"}],"name":"SafeERC20FailedOperation","type":"error"},{"inputs":[],"name":"ZeroPairAddress","type":"error"},{"anonymous":false,"inputs":[{"indexed":true,"internalType":"address","name":"token","type":"address"},{"indexed":false,"internalType":"uint256","name":"amount0","type":"uint256"},{"indexed":false,"internalType":"uint256","name":"amount1","type":"uint256"}],"name":"Deployed","type":"event"},{"anonymous":false,"inputs":[{"indexed":true,"internalType":"address","name":"token","type":"address"},{"indexed":false,"internalType":"address","name":"agentToken","type":"address"}],"name":"Graduated","type":"event"},{"anonymous":false,"inputs":[{"indexed":false,"internalType":"uint64","name":"version","type":"uint64"}],"name":"Initialized","type":"event"},{"anonymous":false,"inputs":[{"indexed":true,"internalType":"address","name":"token","type":"address"},{"indexed":true,"internalType":"address","name":"pair","type":"address"},{"indexed":false,"internalType":"uint256","name":"","type":"uint256"}],"name":"Launched","type":"event"},{"anonymous":false,"inputs":[{"indexed":true,"internalType":"address","name":"previousOwner","type":"address"},{"indexed":true,"internalType":"address","name":"newOwner","type":"address"}],"name":"OwnershipTransferred","type":"event"},{"inputs":[],"name":"K","outputs":[{"internalType":"uint256","name":"","type":"uint256"}],"stateMutability":"view","type":"function"},{"inputs":[],"name":"agentFactory","outputs":[{"internalType":"address","name":"","type":"address"}],"stateMutability":"view","type":"function"},{"inputs":[],"name":"assetRate","outputs":[{"internalType":"uint256","name":"","type":"uint256"}],"stateMutability":"view","type":"function"},{"inputs":[{"internalType":"uint256","name":"amountIn","type":"uint256"},{"internalType":"address","name":"tokenAddress","type":"address"}],"name":"buy","outputs":[{"internalType":"bool","name":"","type":"bool"}],"stateMutability":"nonpayable","type":"function"},{"inputs":[],"name":"factory","outputs":[{"internalType":"contract FFactory","name":"","type":"address"}],"stateMutability":"view","type":"function"},{"inputs":[],"name":"fee","outputs":[{"internalType":"uint256","name":"","type":"uint256"}],"stateMutability":"view","type":"function"},{"inputs":[{"internalType":"address","name":"account","type":"address"}],"name":"getUserTokens","outputs":[{"internalType":"address[]","name":"","type":"address[]"}],"stateMutability":"view","type":"function"},{"inputs":[],"name":"gradThreshold","outputs":[{"internalType":"uint256","name":"","type":"uint256"}],"stateMutability":"view","type":"function"},{"inputs":[],"name":"initialSupply","outputs":[{"internalType":"uint256","name":"","type":"uint256"}],"stateMutability":"view","type":"function"},{"inputs":[{"internalType":"address","name":"factory_","type":"address"},{"internalType":"address","name":"router_","type":"address"},{"internalType":"address","name":"feeTo_","type":"address"},{"internalType":"uint256","name":"fee_","type":"uint256"},{"internalType":"uint256","name":"initialSupply_","type":"uint256"},{"internalType":"uint256","name":"assetRate_","type":"uint256"},{"internalType":"uint256","name":"maxTx_","type":"uint256"},{"internalType":"address","name":"agentFactory_","type":"address"},{"internalType":"uint256","name":"gradThreshold_","type":"uint256"}],"name":"initialize","outputs":[],"stateMutability":"nonpayable","type":"function"},{"inputs":[{"internalType":"string","name":"_name","type":"string"},{"internalType":"string","name":"_ticker","type":"string"},{"internalType":"uint8[]","name":"cores","type":"uint8[]"},{"internalType":"string","name":"desc","type":"string"},{"internalType":"string","name":"img","type":"string"},{"internalType":"string[4]","name":"urls","type":"string[4]"},{"internalType":"uint256","name":"purchaseAmount","type":"uint256"}],"name":"launch","outputs":[{"internalType":"address","name":"","type":"address"},{"internalType":"address","name":"","type":"address"},{"internalType":"uint256","name":"","type":"uint256"}],"stateMutability":"nonpayable","type":"function"},{"inputs":[],"name":"maxTx","outputs":[{"internalType":"uint256","name":"","type":"uint256"}],"stateMutability":"view","type":"function"},{"inputs":[],"name":"owner","outputs":[{"internalType":"address","name":"","type":"address"}],"stateMutability":"view","type":"function"},{"inputs":[{"internalType":"address","name":"","type":"address"}],"name":"profile","outputs":[{"internalType":"address","name":"user","type":"address"}],"stateMutability":"view","type":"function"},{"inputs":[{"internalType":"uint256","name":"","type":"uint256"}],"name":"profiles","outputs":[{"internalType":"address","name":"","type":"address"}],"stateMutability":"view","type":"function"},{"inputs":[],"name":"renounceOwnership","outputs":[],"stateMutability":"nonpayable","type":"function"},{"inputs":[],"name":"router","outputs":[{"internalType":"contract FRouter","name":"","type":"address"}],"stateMutability":"view","type":"function"},{"inputs":[{"internalType":"uint256","name":"amountIn","type":"uint256"},{"internalType":"address","name":"tokenAddress","type":"address"}],"name":"sell","outputs":[{"internalType":"bool","name":"","type":"bool"}],"stateMutability":"nonpayable","type":"function"},{"inputs":[{"internalType":"uint256","name":"newRate","type":"uint256"}],"name":"setAssetRate","outputs":[],"stateMutability":"nonpayable","type":"function"},{"inputs":[{"components":[{"internalType":"bytes32","name":"tbaSalt","type":"bytes32"},{"internalType":"address","name":"tbaImplementation","type":"address"},{"internalType":"uint32","name":"daoVotingPeriod","type":"uint32"},{"internalType":"uint256","name":"daoThreshold","type":"uint256"}],"internalType":"struct Bonding.DeployParams","name":"params","type":"tuple"}],"name":"setDeployParams","outputs":[],"stateMutability":"nonpayable","type":"function"},{"inputs":[{"internalType":"uint256","name":"newFee","type":"uint256"},{"internalType":"address","name":"newFeeTo","type":"address"}],"name":"setFee","outputs":[],"stateMutability":"nonpayable","type":"function"},{"inputs":[{"internalType":"uint256","name":"newThreshold","type":"uint256"}],"name":"setGradThreshold","outputs":[],"stateMutability":"nonpayable","type":"function"},{"inputs":[{"internalType":"uint256","name":"newSupply","type":"uint256"}],"name":"setInitialSupply","outputs":[],"stateMutability":"nonpayable","type":"function"},{"inputs":[{"internalType":"uint256","name":"maxTx_","type":"uint256"}],"name":"setMaxTx","outputs":[],"stateMutability":"nonpayable","type":"function"},{"inputs":[{"internalType":"address","name":"","type":"address"}],"name":"tokenInfo","outputs":[{"internalType":"address","name":"creator","type":"address"},{"internalType":"address","name":"token","type":"address"},{"internalType":"address","name":"pair","type":"address"},{"internalType":"address","name":"agentToken","type":"address"},{"components":[{"internalType":"address","name":"token","type":"address"},{"internalType":"string","name":"name","type":"string"},{"internalType":"string","name":"_name","type":"string"},{"internalType":"string","name":"ticker","type":"string"},{"internalType":"uint256","name":"supply","type":"uint256"},{"internalType":"uint256","name":"price","type":"uint256"},{"internalType":"uint256","name":"marketCap","type":"uint256"},{"internalType":"uint256","name":"liquidity","type":"uint256"},{"internalType":"uint256","name":"volume","type":"uint256"},{"internalType":"uint256","name":"volume24H","type":"uint256"},{"internalType":"uint256","name":"prevPrice","type":"uint256"},{"internalType":"uint256","name":"lastUpdated","type":"uint256"}],"internalType":"struct Bonding.Data","name":"data","type":"tuple"},{"internalType":"string","name":"description","type":"string"},{"internalType":"string","name":"image","type":"string"},{"internalType":"string","name":"twitter","type":"string"},{"internalType":"string","name":"telegram","type":"string"},{"internalType":"string","name":"youtube","type":"string"},{"internalType":"string","name":"website","type":"string"},{"internalType":"bool","name":"trading","type":"bool"},{"internalType":"bool","name":"tradingOnUniswap","type":"bool"}],"stateMutability":"view","type":"function"},{"inputs":[{"internalType":"uint256","name":"","type":"uint256"}],"name":"tokenInfos","outputs":[{"internalType":"address","name":"","type":"address"}],"stateMutability":"view","type":"function"},{"inputs":[{"internalType":"address","name":"newOwner","type":"address"}],"name":"transferOwnership","outputs":[],"stateMutability":"nonpayable","type":"function"},{"inputs":[{"internalType":"address","name":"srcTokenAddress","type":"address"},{"internalType":"address[]","name":"accounts","type":"address[]"}],"name":"unwrapToken","outputs":[],"stateMutability":"nonpayable","type":"function"}],"evm":{"bytecode":{"linkReferences":{},"object":"6080806040523460d2577ff0c57e16840df040f15088dc2f81fe391c3923bec73e23a9662efc9c229c6a005460ff8160401c1660c1576002600160401b03196001600160401b03821601605c575b6040516158a290816100d88239f35b6001600160401b0319166001600160401b039081177ff0c57e16840df040f15088dc2f81fe391c3923bec73e23a9662efc9c229c6a005581527fc7f505b2f371ae2175ee4913f4499e1f2633a7b5936321eed1cdaeb6115181d290602090a13880604d565b63f92ee8a960e01b60005260046000fd5b600080fdfe6080604052600436101561001257600080fd5b6000803560e01c806309c8962c1461406d578063378dc3dc1461404f5780633c0b93aa146129f85780634189a68e1461269557806343fb4d24146125fa578063519dc8d2146124a957806361402596146124865780636edd12e014612468578063715018a6146123fe5780637437681e146123e05780637c13774b1461237a5780637deb60251461132b5780637df107ea146113025780637f13a90b146108ce5780638da5cb5b146108985780639dd9d0fd14610857578063a932492f14610836578063b4f2e8b8146107f0578063bc337182146107cd578063c36fe3d61461074c578063c45a015514610723578063cc489688146106ca578063ddca3f43146106ac578063e8e6ed691461068e578063ea6eef4914610427578063f2fde38b146103fa578063f5dab7111461017c5763f887ea401461015157600080fd5b346101795780600319360112610179576002546040516001600160a01b039091168152602090f35b80fd5b5034610179576020366003190112610179576001600160a01b0361019e6141b8565b168152600e6020526040902080546001820154600283015460038401546001600160a01b03928316949383169391831692166101dc600483016142b9565b604051806101ed8160108701614236565b036101f89082614114565b604051806102098160128801614236565b036102149082614114565b60405191826102268160138901614236565b036102319084614114565b60405193846102438160148a01614236565b0361024e9086614114565b60405195866102608160158b01614236565b0361026b9088614114565b604051978861027d8160168401614236565b03610288908a614114565b60170154986040519b8c9b8c5260208c015260408b015260608a0152608089016101a09052600160a01b600190038151166101a08a015260208101516101c08a0161018090526103208a016102dc91614397565b60408201518a820361019f19016101e08c01526102f99190614397565b60608201518a820361019f19016102008c01526103169190614397565b9060808101516102208b015260a08101516102408b015260c08101516102608b015260e08101516102808b01526101008101516102a08b01526101208101516102c08b01526101408101516102e08b015261016001516103008a015288810360a08a015261038391614397565b87810360c089015261039491614397565b86810360e08801526103a591614397565b8581036101008701526103b791614397565b8481036101208601526103c991614397565b8381036101408501526103db91614397565b9060ff8116151561016084015260081c60ff1615156101808301520390f35b5034610179576020366003190112610179576104246104176141b8565b61041f6145b8565b614542565b80f35b503461017957610120366003190112610179576104426141b8565b61044a6141a2565b6044356001600160a01b0381169081900361068a5760e4356001600160a01b0381169260643592918490036106865760008051602061584d833981519152549460ff8660401c1615956001600160401b0381168015908161067e575b6001149081610674575b15908161066b575b5061065c5767ffffffffffffffff19811660011760008051602061584d833981519152558661062f575b506104eb614790565b6104f3614790565b6104fc33614542565b610504614790565b61050c614790565b600160008051602061582d8339815191525560018060a01b03166001600160601b0360a01b600154161760015560018060a01b03166001600160601b0360a01b60025416176002556001600160601b0360a01b855416178455670de0b6b3a7640000810290808204670de0b6b3a7640000149015171561061b576103e8900460045560843560035560a43560055560c4356007556001600160601b0360a01b6008541617600855610104356006556105c15780f35b68ff00000000000000001960008051602061584d833981519152541660008051602061584d833981519152557fc7f505b2f371ae2175ee4913f4499e1f2633a7b5936321eed1cdaeb6115181d2602060405160018152a180f35b634e487b7160e01b84526011600452602484fd5b68ffffffffffffffffff1916680100000000000000011760008051602061584d83398151915255386104e2565b63f92ee8a960e01b8852600488fd5b905015386104b8565b303b1591506104b0565b8891506104a6565b8580fd5b8380fd5b50346101795780600319360112610179576020600554604051908152f35b50346101795780600319360112610179576020600454604051908152f35b5034610179576020366003190112610179576004356106e76145b8565b80156106f35760055580f35b60405162461bcd60e51b81526020600482015260086024820152672930ba329032b93960c11b6044820152606490fd5b50346101795780600319360112610179576001546040516001600160a01b039091168152602090f35b50346101795760203660031901126101795760043590600d5482101561017957600d548210156107b957600d81527fd7b6990105719101dabeb77144f2a3385c8033acd3af97e9423a695e81ad1eb59091015460405160039290921b1c6001600160a01b03168152602090f35b634e487b7160e01b81526032600452602490fd5b5034610179576020366003190112610179576107e76145b8565b60043560075580f35b50346101795760403660031901126101795761080a6141a2565b6108126145b8565b60048035905581546001600160a01b0319166001600160a01b039190911617815580f35b503461017957806003193601126101795760206040516502ba7def30008152f35b5034610179576020366003190112610179576020906001600160a01b0361087c6141b8565b168152600c8252604060018060a01b0391205416604051908152f35b503461017957806003193601126101795760008051602061580d833981519152546040516001600160a01b039091168152602090f35b5034610179576040366003190112610179576108e86141b8565b602435906001600160401b0382116112fe57366023830112156112fe5781600401356109138161418b565b926109216040519485614114565b8184526024602085019260051b8201019036821161068657602401915b8183106112da575050506001600160a01b038116808452600e6020526040808520905191929161096d816140dd565b81546001600160a01b03908116825260018301548116602083015260028301548116604083015260038301541660608201908152916109ae600482016142b9565b60808301526040516109ce816109c78160108601614236565b0382614114565b60a08301526040516011820180548083529089526020808a20908301918a915b81601f840110611138579360ff95938193610b0e936017975491818110611125575b81811061110f575b8181106110f9575b8181106110e3575b8181106110ce575b8181106110b8575b8181106110a2575b81811061108c575b818110611076575b818110611060575b81811061104a575b818110611034575b81811061101e575b818110611008575b818110610ff2575b818110610fdc575b818110610fc6575b818110610fb0575b818110610f9a575b818110610f84575b818110610f6e575b818110610f58575b818110610f42575b818110610f2c575b818110610f16575b818110610f00575b818110610eea575b818110610ed4575b818110610ebe575b818110610ea8575b818110610e92575b10610e84575b500382614114565b60c0850152604051610b27816109c78160128601614236565b60e0850152604051610b40816109c78160138601614236565b610100850152604051610b5a816109c78160148601614236565b610120850152604051610b74816109c78160158601614236565b610140850152604051610b8e816109c78160168601614236565b6101608501520154818116151561018084015260081c1615906101a08215910152610e3f5751600154600254604051631083f76160e01b81526001600160a01b039384169493909281169160209184916004918391165afa908115610d6457610c30936020938993610e20575b5060405163e6a4390560e01b81526001600160a01b039182166004820152921660248301529092839190829081906044820190565b03915afa908115610e15578591610de6575b506001600160a01b03811615610dd757845b8451811015610dd35760018060a01b0360208260051b870101511690604051916370a0823160e01b8352806004840152602083602481895afa928315610dc8578893610d93575b5082610cad575b506001915001610c54565b853b15610d845760405163079cc67960e41b81526001600160a01b03821660048201526024810184905288908181604481838c5af18015610d8857610d6f575b50506040516323b872dd60e01b81526001600160a01b03858116600483015291909116602482015260448101929092526020826064818a885af1918215610d645760019215610ca257610d569060203d8111610d5d575b610d4e8183614114565b8101906144dd565b5038610ca2565b503d610d44565b6040513d89823e3d90fd5b81610d7991614114565b610d84578738610ced565b8780fd5b6040513d84823e3d90fd5b90925060203d8111610dc1575b610daa8183614114565b602082600092810103126101795750519138610c9b565b503d610da0565b6040513d8a823e3d90fd5b8580f35b63081ce35d60e01b8552600485fd5b610e08915060203d602011610e0e575b610e008183614114565b8101906143bc565b38610c42565b503d610df6565b6040513d87823e3d90fd5b610e38919350843d8611610e0e57610e008183614114565b9138610bfb565b60405162461bcd60e51b815260206004820152601a60248201527f546f6b656e206973206e6f7420677261647561746564207965740000000000006044820152606490fd5b60f81c815260200138610b06565b9260206001918b8560f01c168152019301610b00565b9260206001918b8560e81c168152019301610af8565b9260206001918b8560e01c168152019301610af0565b9260206001918b8560d81c168152019301610ae8565b9260206001918b8560d01c168152019301610ae0565b9260206001918b8560c81c168152019301610ad8565b9260206001918b8560c01c168152019301610ad0565b9260206001918b8560b81c168152019301610ac8565b9260206001918b8560b01c168152019301610ac0565b9260206001918b8560a81c168152019301610ab8565b9260206001918b8560a01c168152019301610ab0565b9260206001918b8560981c168152019301610aa8565b9260206001918b8560901c168152019301610aa0565b9260206001918b8560881c168152019301610a98565b9260206001918b8560801c168152019301610a90565b9260206001918b8560781c168152019301610a88565b9260206001918b8560701c168152019301610a80565b9260206001918b8560681c168152019301610a78565b9260206001918b8560601c168152019301610a70565b9260206001918b8560581c168152019301610a68565b9260206001918b8560501c168152019301610a60565b9260206001918b8560481c168152019301610a58565b9260206001918b8560401c168152019301610a50565b9260206001918b8560381c168152019301610a48565b9260206001918b8560301c168152019301610a40565b9260206001918b8560281c168152019301610a38565b9260206001918b85831c168152019301610a30565b9260206001918b8560181c168152019301610a28565b9260206001918b8560101c168152019301610a20565b9260206001918b8560081c168152019301610a18565b9260206001918b85168152019301610a10565b926001610400602092865460ff8116825260ff8160081c168583015260ff8160101c16604083015260ff8160181c16606083015260ff81861c16608083015260ff8160281c1660a083015260ff8160301c1660c083015260ff8160381c1660e083015260ff8160401c1661010083015260ff8160481c1661012083015260ff8160501c1661014083015260ff8160581c1661016083015260ff8160601c1661018083015260ff8160681c166101a083015260ff8160701c166101c083015260ff8160781c166101e083015260ff8160801c1661020083015260ff8160881c1661022083015260ff8160901c1661024083015260ff8160981c1661026083015260ff8160a01c1661028083015260ff8160a81c166102a083015260ff8160b01c166102c083015260ff8160b81c166102e083015260ff8160c01c1661030083015260ff8160c81c1661032083015260ff8160d01c1661034083015260ff8160d81c1661036083015260ff8160e01c1661038083015260ff8160e81c166103a083015260ff8160f01c166103c083015260f81c6103e08201520194019201916109ee565b82356001600160a01b03811681036112fa5781526020928301920161093e565b8680fd5b8280fd5b50346101795780600319360112610179576008546040516001600160a01b039091168152602090f35b5034610179576040366003190112610179576113456141a2565b6001600160a01b038116808352600e602052604083206017015490929061136e9060ff166144f5565b600154600254604051631083f76160e01b81526001600160a01b0391821692909116602082600481865afa918215611b6857916020916113e593869261235b575b5060405163e6a4390560e01b81526001600160a01b03808916600483015290921660248301529092839190829081906044820190565b03915afa9081156121f557839161233c575b506001600160a01b0316801561232d5760408051630240bc6b60e21b81529291839060049082905afa9182156121f55783908493612309575b50604080516373a9c2c560e11b815260048035908201526001600160a01b0387166024820152336044820152928390606490829088905af1908115611b6857849285926122cb575b5061148761148d9284926143db565b93614535565b858452600e6020526114a6600f604086200154426143db565b908060011b92818404600214821517156122b75761155890620151806114ef6114e8886114e38760088f8e6040918152600e60205220015461443c565b61444f565b948861444f565b94119485156122985781935b8615612282578a8952600e602052600960408a200154955b8b8a52600e602052600960408b2001558a8952600e602052600a60408a200155898852600e602052600b604089200155888752600e602052600c604088200154614535565b878652600e602052600c604087200155868552600e602052600d604086200155858452600e602052600e60408520015561226c575b600654101580612253575b6115a8575b602060405160018152f35b828152600e602052604081209160178301805460ff811680612245575b156122005761ffff1916610100179055600154600254604051631083f76160e01b81526001600160a01b0391821693909290911690602083600481875afa928315610e15579161164e93916020938793610e20575060405163e6a4390560e01b81526001600160a01b039182166004820152921660248301529092839190829081906044820190565b03915afa9081156121f55783916121d6575b506001600160a01b0381169384156121c75760405163c66f245560e01b815290602082600481895afa918215610e1557859261218f575b506040516316d3df1560e31b8152936020856004818a5afa948515611bac57869561215b575b50803b156106865785809160246040518094819363ff6d8d0560e01b83528d60048401525af18015611bac57612147575b50600254604051631083f76160e01b815290602090829060049082906001600160a01b03165afa908115611bac5761173f9184918891612128575b506008546001600160a01b039081169116614637565b60018060a01b0360085416600682019260405180948890805490611762826141fc565b916001811690811561210157506001146120c0575b5050600a6117dc96826910313c902ca490233ab760b11b6117a694979596975203601519810185520183614114565b876011850160095494600a54600b54966117f16040519a8b986378678abd60e11b8a5261010060048b01526101048a0190614397565b8881036003190160248a015260078b01614236565b8781036003190160448901528454808252948652602080872091019486915b81601f840110611f0c579260209a928a989795928997955491818110611efa575b818110611ee4575b818110611ece575b818110611eb8575b818110611ea4575b818110611e8e575b818110611e78575b818110611e62575b818110611e4c575b818110611e36575b818110611e20575b818110611e0a575b818110611df4575b818110611dde575b818110611dc8575b818110611db2575b818110611d9c575b818110611d86575b818110611d70575b818110611d5a575b818110611d44575b818110611d2e575b818110611d18575b818110611d02575b818110611cec575b818110611cd6575b818110611cc0575b818110611caa575b818110611c94575b818110611c7e575b818110611c68575b10611c55575b5060648601526001600160a01b038116608486015260a01c63ffffffff1660a485015260c484015260e483015203925af1918215610e15578592611c21575b50600880549082015460405163313ce56760e01b81526001600160a01b0390921693916020816004818d5afa908115610dc8576119b592916119af918a91611c08575b50614718565b9061444f565b9060405163313ce56760e01b81526020816004818d5afa908115610dc85791886119f46119ee608494602097968491611bdb5750614718565b8a61444f565b9660405197889586946311e18acb60e11b86526004860152602485015260448401528b60648401525af1918215610e15578592611bb7575b5060030180546001600160a01b0319166001600160a01b039283169081179091556002546040516370a0823160e01b81526004810188905291969216916020826024818a5afa918215611bac578692611b73575b50823b1561068657906084869283604051958694859363559e23ad60e11b855260048501528b602485015230604485015260648401525af18015611b6857908491611b53575b5050843b156112fe5760405163079cc67960e41b81526001600160a01b039190911660048201526024810191909152818160448183885af18015610d8857611b3e575b505060207f381d54fa425631e6266af114239150fae1d5db67bb65b4fa9ecc65013107e07e91604051908152a238808061159d565b611b49828092614114565b6101795780611b09565b81611b5d91614114565b6112fe578238611ac6565b6040513d86823e3d90fd5b9091506020813d602011611ba4575b81611b8f60209383614114565b81010312611b9f57519038611a80565b600080fd5b3d9150611b82565b6040513d88823e3d90fd5b6003919250611bd49060203d602011610e0e57610e008183614114565b9190611a2c565b611bfb9150883d8a11611c01575b611bf38183614114565b8101906146ff565b386119a9565b503d611be9565b611bfb915060203d602011611c0157611bf38183614114565b9091506020813d602011611c4d575b81611c3d60209383614114565b81010312611b9f57519038611966565b3d9150611c30565b60f81c8552938a019363ffffffff611927565b968d60019160ff8560f01c168152019701611921565b968d60019160ff8560e81c168152019701611919565b968d60019160ff8560e01c168152019701611911565b968d60019160ff8560d81c168152019701611909565b968d60019160ff8560d01c168152019701611901565b968d60019160ff8560c81c1681520197016118f9565b968d60019160ff8560c01c1681520197016118f1565b968d60019160ff8560b81c1681520197016118e9565b968d60019160ff8560b01c1681520197016118e1565b968d60019160ff8560a81c1681520197016118d9565b968d60019160ff8560a01c1681520197016118d1565b968d60019160ff8560981c1681520197016118c9565b968d60019160ff8560901c1681520197016118c1565b968d60019160ff8560881c1681520197016118b9565b968d60019160ff8560801c1681520197016118b1565b968d60019160ff8560781c1681520197016118a9565b968d60019160ff8560701c1681520197016118a1565b968d60019160ff8560681c168152019701611899565b968d60019160ff8560601c168152019701611891565b968d60019160ff8560581c168152019701611889565b968d60019160ff8560501c168152019701611881565b968d60019160ff8560481c168152019701611879565b968d60019160ff8560401c168152019701611871565b968d60019160ff8560381c168152019701611869565b968d60019160ff8560301c168152019701611861565b968d60019160ff8560281c168152019701611859565b828e1c60ff168852968d0196600101611851565b968d60019160ff8560181c168152019701611849565b968d60019160ff8560101c168152019701611841565b968d60019160ff8560081c168152019701611839565b60ff83168852968d0196600101611831565b9850919396989550919360016104006020928a5460ff8116825260ff8160081c168583015260ff8160101c16604083015260ff8160181c16606083015260ff81861c16608083015260ff8160281c1660a083015260ff8160301c1660c083015260ff8160381c1660e083015260ff8160401c1661010083015260ff8160481c1661012083015260ff8160501c1661014083015260ff8160581c1661016083015260ff8160601c1661018083015260ff8160681c166101a083015260ff8160701c166101c083015260ff8160781c166101e083015260ff8160801c1661020083015260ff8160881c1661022083015260ff8160901c1661024083015260ff8160981c1661026083015260ff8160a01c1661028083015260ff8160a81c166102a083015260ff8160b01c166102c083015260ff8160b81c166102e083015260ff8160c01c1661030083015260ff8160c81c1661032083015260ff8160d01c1661034083015260ff8160d81c1661036083015260ff8160e01c1661038083015260ff8160e81c166103a083015260ff8160f01c166103c083015260f81c6103e082015201980192018d95989693918b989593611810565b915091508852846020892089905b8382106120e7575090918201602001905081600a611777565b6020919250806001915483858b01015201910186916120ce565b600a9450602092506117a69593915060ff1916828401528015150282010191819350611777565b612141915060203d602011610e0e57610e008183614114565b38611729565b8561215491969296614114565b93386116ee565b9094506020813d602011612187575b8161217760209383614114565b81010312610686575193386116bd565b3d915061216a565b9091506020813d6020116121bf575b816121ab60209383614114565b810103126121bb57519038611697565b8480fd5b3d915061219e565b63081ce35d60e01b8452600484fd5b6121ef915060203d602011610e0e57610e008183614114565b38611660565b6040513d85823e3d90fd5b60405162461bcd60e51b815260206004820152601760248201527f74726164696e6720697320616c7265616479206f70656e0000000000000000006044820152606490fd5b5060ff8160081c16156115c5565b50828152600e60205260ff601760408320015416611598565b838252600e60205242600f60408420015561158d565b8a8952600e602052600e60408a20015495611513565b898852600e6020526122b182600d60408b200154614535565b936114fb565b634e487b7160e01b86526011600452602486fd5b61148791935061148d92506122f79060403d604011612302575b6122ef8183614114565b81019061446f565b909390925090611478565b503d6122e5565b905061232591925060403d604011612302576122ef8183614114565b919038611430565b63081ce35d60e01b8352600483fd5b612355915060203d602011610e0e57610e008183614114565b386113f7565b612373919250833d8511610e0e57610e008183614114565b90386113af565b50346101795760203660031901126101795760043590600f5482101561017957600f548210156107b957600f90527f8d1108e10bcb7c27dddfc02ed9d693a074039d026cf4ea4240b40f7d581ac80201546040516001600160a01b039091168152602090f35b50346101795780600319360112610179576020600754604051908152f35b50346101795780600319360112610179576124176145b8565b60008051602061580d83398151915280546001600160a01b0319811690915581906001600160a01b03167f8be0079c531659141344cd1fd0a4f28419497f9722a3daafe3b4186f6b6457e08280a380f35b50346101795780600319360112610179576020600654604051908152f35b5034610179576020366003190112610179576124a06145b8565b60043560035580f35b5034610179576020366003190112610179576124c36141b8565b6001600160a01b038082166000818152600c6020526040902054909116036125b5576001600160a01b03168152600c6020526040808220905190600190612509836140f9565b818060a01b0381541683520190604051908160208454918281520190819486526020862090865b818110612596578786888160208961254a838b0384614114565b0152604051928392602084019060208552518091526040840192915b818110612574575050500390f35b82516001600160a01b0316845285945060209384019390920191600101612566565b82546001600160a01b0316845260209093019260019283019201612530565b60405162461bcd60e51b815260206004820152601c60248201527f557365722050726f66696c6520646f7365206e6f742065786973742e000000006044820152606490fd5b50346101795760803660031901126101795760405161261881614090565b60043581526126256141a2565b602082019081526044359063ffffffff8216820361068a5760408301918252606083019260643584526126566145b8565b5160095551600a8054925163ffffffff60a01b60a09190911b166001600160a01b039092166001600160c01b03199093169290921717905551600b5580f35b5034610179576040366003190112610179576126af6141a2565b6001600160a01b038116808352600e60205260408320601701549091906126d89060ff166144f5565b600154600254604051631083f76160e01b81526001600160a01b039182169290911690602081600481865afa8015611bac5761274e9260209288926129d9575b5060405163e6a4390560e01b81526001600160a01b03808816600483015290921660248301529092839190829081906044820190565b03915afa908115610e155785916129ba575b506001600160a01b03168015610dd75760049160408692815194858092630240bc6b60e21b82525afa938415610d88578293839561298d575b5060408051636f08e17760e01b815260048035908201526001600160a01b039092166024830152336044830152909290918391829081606481015b03925af1918215610e155785918693612962575b506127f76127fd928492614535565b936143db565b91838552600e602052612817600f604087200154426143db565b918360011b938085046002148115171561294e57906201518061285a83612854866114e36128c397600860408f8f8152600e60205220015461443c565b9561444f565b941194851561292f5781935b861561291957878952600e602052600960408a200154955b888a52600e602052600960408b200155878952600e602052600a60408a200155868852600e602052600b604089200155858752600e602052600c604088200154614535565b848652600e602052600c604087200155838552600e602052600d604086200155828452600e602052600e60408520015561290257602060405160018152f35b8152600e602052600f60404292200155388061159d565b878952600e602052600e60408a2001549561287e565b868852600e60205261294882600d60408b200154614535565b93612866565b634e487b7160e01b87526011600452602487fd5b6127f793506127fd92506129849060403d604011612302576122ef8183614114565b939092506127e8565b6127d491955060409294506129ae90833d8511612302576122ef8183614114565b94909495915091612799565b6129d3915060203d602011610e0e57610e008183614114565b38612760565b6129f1919250833d8511610e0e57610e008183614114565b9038612718565b50346101795760e0366003190112610179576004356001600160401b03811161404b57612a29903690600401614135565b6024356001600160401b0381116112fe57612a48903690600401614135565b906044356001600160401b03811161068a573660238201121561068a578060040135612a738161418b565b91612a816040519384614114565b8183526024602084019260051b820101903682116112fa57602401915b818310614031575050506064356001600160401b0381116121bb57612ac7903690600401614135565b6084356001600160401b03811161068657612ae6903690600401614135565b9060a435926001600160401b0384116112fa57366023850112156112fa5760405193612b1185614090565b608481018536821161402d5782600401905b828210613ffa575050505060c43593600260008051602061582d8339815191525414613feb57600260008051602061582d833981519152556004549384861115613f9557600254604051631083f76160e01b81529690602090889060049082906001600160a01b03165afa968715613f8a578a97613f69575b506040516370a0823160e01b81523360048201526020816024816001600160a01b038c165afa8015613ecf5782918c91613f34575b5010613ef957612be486612bfe926143db565b8a549096906001600160a01b039081169033908a166145ee565b612c138530336001600160a01b038a166145ee565b612c1c876143fe565b6003546007546040519261104e90818501918583106001600160401b03841117613ee55791612c708e612c62606094899897966147bf8a39608085526080850190614397565b908382036020850152614397565b936040820152015203908af0978815613eda576040516318160ddd60e01b8152976020896004816001600160a01b038e165afa918215613ecf578a998c93613e94575b506001546040516364e329cb60e11b81526001600160a01b039c8d1660048201528a8d1660248201529b168b6044818f5a94602095f19a8b15613e89578c9b613e68575b50600254612d149084906001600160a01b03908116908d16614637565b6005548015613e5457666a94d74f4300000469021e19e0c9bab240000081029080820469021e19e0c9bab24000001490151715613e405783612d559161444f565b670de0b6b3a7640000810290808204670de0b6b3a76400001490151715613e40576127109004908c60408c606460018060a01b03600254169183519485938492631746ffa760e31b845260018060a01b031660048401528a60248401528860448401525af18015613e3357613e15575b50612dcf836143fe565b93612dda838261444f565b918360011b9484860460021485151715613e0057938f97938f97938f9b97938c9b97612e06858461444f565b9660206040519e8f90612e18826140c1565b60018060a01b03168152015260408d015260608c015260808b015260a08a015260c089015260e0880152856101008801528561012088015261014087015242610160870152815160208301519160606040850151940151946040519a612e7d8c6140dd565b338c526001600160a01b039a8b166020808e01918252988c166040808f0191825260608f019b8c5260808f019c8d5260a08f019390935260c08e019390935260e08d01939093526101008c01939093526101208b01939093526101408a0193909352610160890193909352600161018089018190526101a089018e90528b88168e52600e8552928d20885181546001600160a01b0319908116918a169190911782559251938101805484169489169490941790935551600283018054831691881691909117905592516003820180548516918716919091179055925180516004850180549094169516949094179091558201518051919291906001600160401b0382116137e5578190612f9360058601546141fc565b601f8111613dcd575b50602090601f8311600114613d64578b92613d59575b50508160011b916000199060031b1c19161760058301555b60408101518051906001600160401b0382116137e5578190612fef60068601546141fc565b601f8111613d26575b50602090601f8311600114613cbd578b92613cb2575b50508160011b916000199060031b1c19161760068301555b60608101518051906001600160401b0382116137e55761304960078501546141fc565b601f8111613c7f575b50602090601f8311600114613c12576101609392918b9183613c07575b50508160011b916000199060031b1c19161760078401555b6080810151600884015560a0810151600984015560c0810151600a84015560e0810151600b840155610100810151600c840155610120810151600d840155610140810151600e8401550151600f82015560a08201518051906001600160401b038211613b4c5781906130fc60108501546141fc565b601f8111613bd4575b50602090601f8311600114613b6b578a92613b60575b50508160011b916000199060031b1c19161760108201555b60c08201518051906001600160401b038211613b4c57600160401b8211613b4c576020906011840154836011860155808410613afd575b5001906011830189526020892090895b8160051c8110613abe5750601f198116810380613a71575b505050506012810160e08301518051906001600160401b0382116137e55781906131bc84546141fc565b601f8111613a41575b50602090601f83116001146139de578b926139d3575b50508160011b916000199060031b1c19161790555b601381016101008301518051906001600160401b0382116137e557819061321784546141fc565b601f81116139a3575b50602090601f8311600114613940578b92613935575b50508160011b916000199060031b1c19161790555b601481016101208301518051906001600160401b0382116137e557819061327284546141fc565b601f8111613905575b50602090601f83116001146138a2578b92613897575b50508160011b916000199060031b1c19161790555b601581016101408301518051906001600160401b0382116137e55781906132cd84546141fc565b601f8111613867575b50602090601f8311600114613804578b926137f9575b50508160011b916000199060031b1c19161790555b601681016101608301518051906001600160401b0382116137e55761332683546141fc565b601f81116137aa575b50602090601f8311600114613740579180601794926101a096948d92613735575b50508160011b916000199060031b1c19161790555b61018084015191018054929093015161ffff1990921660ff911515919091161790151560081b61ff0016179055600f54600160401b8110156136d657906133b5826001889401600f55600f6141ce565b81546001600160a01b0360039290921b82811b1990911687831690911b17909155336000818152600c6020526040902054909116036135e3576134b0604091338452600c60205261341360018060a01b03871660018587200161449c565b600f548351818152909561346f918391906001600160a01b038b811691908b16907f714aa39317ad9a7a7a99db52b44490da5d068a0b2710fffb1a1282ad3cadae1f90602090a36002546001600160a01b039081169116614637565b60025483516373a9c2c560e11b815260048101929092526001600160a01b038781166024840152306044840152919485939190921691839182906064820190565b03925af18015610e15576135c5575b506040516370a0823160e01b81523060048201526020816024816001600160a01b0387165afa908115610e15578591613592575b5060405163a9059cbb60e01b81523360048201526024810191909152602081604481886001600160a01b0388165af18015610e155761357193949550613575575b50600160008051602061582d83398151915255604080516001600160a01b0394851681529490931660208501529183019190915281906060820190565b0390f35b61358d9060203d602011610d5d57610d4e8183614114565b613534565b90506020813d6020116135bd575b816135ad60209383614114565b810103126121bb575160206134f3565b3d91506135a0565b6135dd9060403d604011612302576122ef8183614114565b506134bf565b90506040516135f1816140f9565b3380825260606020808401918252918852600c90915260408720915182546001600160a01b0319166001600160a01b039190911617825551805191600101906001600160401b03831161372157600160401b8311613721576020908254848455808510613707575b500190875260208720875b8381106136ea5750505050600d54600160401b8110156136d6576134b0869261369783600160409501600d55600d6141ce565b81546001600160a01b0360039290921b82811b19909116339182901b17909255908552600c6020528385206136d19188169060010161449c565b613413565b634e487b7160e01b86526041600452602486fd5b82516001600160a01b031681830155602090920191600101613664565b838a52828a2061371b918101908601614485565b38613659565b634e487b7160e01b88526041600452602488fd5b015190503880613350565b838b52818b209190601f1984168c5b81811061379257509260019285926101a098966017989610613779575b505050811b019055613365565b015160001960f88460031b161c1916905538808061376c565b9293602060018192878601518155019501930161374f565b6137d590848c5260208c20601f850160051c810191602086106137db575b601f0160051c0190614485565b3861332f565b90915081906137c8565b634e487b7160e01b8a52604160045260248afd5b0151905038806132ec565b848c52818c209250601f1984168c5b81811061384f5750908460019594939210613836575b505050811b019055613301565b015160001960f88460031b161c19169055388080613829565b92936020600181928786015181550195019301613813565b61389190858d5260208d20601f850160051c810191602086106137db57601f0160051c0190614485565b386132d6565b015190503880613291565b848c52818c209250601f1984168c5b8181106138ed57509084600195949392106138d4575b505050811b0190556132a6565b015160001960f88460031b161c191690553880806138c7565b929360206001819287860151815501950193016138b1565b61392f90858d5260208d20601f850160051c810191602086106137db57601f0160051c0190614485565b3861327b565b015190503880613236565b848c52818c209250601f1984168c5b81811061398b5750908460019594939210613972575b505050811b01905561324b565b015160001960f88460031b161c19169055388080613965565b9293602060018192878601518155019501930161394f565b6139cd90858d5260208d20601f850160051c810191602086106137db57601f0160051c0190614485565b38613220565b0151905038806131db565b848c52818c209250601f1984168c5b818110613a295750908460019594939210613a10575b505050811b0190556131f0565b015160001960f88460031b161c19169055388080613a03565b929360206001819287860151815501950193016139ed565b613a6b90858d5260208d20601f850160051c810191602086106137db57601f0160051c0190614485565b386131c5565b928a938b5b818110613a8e5750505060051c015538808080613192565b9091946020613ab46001928460ff8a5116919060ff809160031b9316831b921b19161790565b9601929101613a76565b8a8b5b60208110613ad657508382015560010161317a565b855190959160019160209160ff60038a901b81811b199092169216901b1792019501613ac1565b613b2a90601186018c52838c20601f80870160051c82019281881680613b30575b500160051c0190614485565b3861316a565b600019850190815490600019908a0360031b1c16905538613b1e565b634e487b7160e01b89526041600452602489fd5b01519050388061311b565b601085018b52818b209250601f1984168b5b818110613bbc5750908460019594939210613ba3575b505050811b016010820155613133565b015160001960f88460031b161c19169055388080613b93565b92936020600181928786015181550195019301613b7d565b613c0190601086018c5260208c20601f850160051c810191602086106137db57601f0160051c0190614485565b38613105565b01519050388061306f565b600785018b52818b209190601f1984168c5b818110613c67575091600193918561016097969410613c4e575b505050811b016007840155613087565b015160001960f88460031b161c19169055388080613c3e565b92936020600181928786015181550195019301613c24565b613cac90600786018c5260208c20601f850160051c810191602086106137db57601f0160051c0190614485565b38613052565b01519050388061300e565b600686018c52818c209250601f1984168c5b818110613d0e5750908460019594939210613cf5575b505050811b016006830155613026565b015160001960f88460031b161c19169055388080613ce5565b92936020600181928786015181550195019301613ccf565b613d5390600687018d5260208d20601f850160051c810191602086106137db57601f0160051c0190614485565b38612ff8565b015190503880612fb2565b600586018c52818c209250601f1984168c5b818110613db55750908460019594939210613d9c575b505050811b016005830155612fca565b015160001960f88460031b161c19169055388080613d8c565b92936020600181928786015181550195019301613d76565b613dfa90600587018d5260208d20601f850160051c810191602086106137db57601f0160051c0190614485565b38612f9c565b50634e487b7160e01b8f52601160045260248ffd5b613e2d9060403d604011612302576122ef8183614114565b50612dc5565b8e604051903d90823e3d90fd5b634e487b7160e01b8d52601160045260248dfd5b634e487b7160e01b8d52601260045260248dfd5b613e82919b5060203d602011610e0e57610e008183614114565b9938612cf7565b6040513d8e823e3d90fd5b995091506020893d602011613ec7575b81613eb160209383614114565b81010312613ec3578998519138612cb3565b8a80fd5b3d9150613ea4565b6040513d8d823e3d90fd5b6040513d8b823e3d90fd5b634e487b7160e01b8f52604160045260248ffd5b60405162461bcd60e51b8152602060048201526013602482015272125b9cdd59999a58da595b9d08185b5bdd5b9d606a1b6044820152606490fd5b9150506020813d602011613f61575b81613f5060209383614114565b81010312613ec35781905138612bd1565b3d9150613f43565b613f8391975060203d602011610e0e57610e008183614114565b9538612b9c565b6040513d8c823e3d90fd5b60405162461bcd60e51b815260206004820152602860248201527f507572636861736520616d6f756e74206d7573742062652067726561746572206044820152677468616e2066656560c01b6064820152608490fd5b633ee5aeb560e01b8852600488fd5b81356001600160401b0381116140295760209161401e839260043691890101614135565b815201910190612b23565b8b80fd5b8980fd5b823560ff81168103610d8457815260209283019201612a9e565b5080fd5b50346101795780600319360112610179576020600354604051908152f35b5034610179576020366003190112610179576140876145b8565b60043560065580f35b608081019081106001600160401b038211176140ab57604052565b634e487b7160e01b600052604160045260246000fd5b61018081019081106001600160401b038211176140ab57604052565b6101c081019081106001600160401b038211176140ab57604052565b604081019081106001600160401b038211176140ab57604052565b90601f801991011681019081106001600160401b038211176140ab57604052565b81601f82011215611b9f578035906001600160401b0382116140ab5760405192614169601f8401601f191660200185614114565b82845260208383010111611b9f57816000926020809301838601378301015290565b6001600160401b0381116140ab5760051b60200190565b602435906001600160a01b0382168203611b9f57565b600435906001600160a01b0382168203611b9f57565b80548210156141e65760005260206000200190600090565b634e487b7160e01b600052603260045260246000fd5b90600182811c9216801561422c575b602083101461421657565b634e487b7160e01b600052602260045260246000fd5b91607f169161420b565b60009291815491614246836141fc565b808352926001811690811561429c575060011461426257505050565b60009081526020812093945091925b838310614282575060209250010190565b600181602092949394548385870101520191019190614271565b915050602093945060ff929192191683830152151560051b010190565b906040516142c6816140c1565b610160600b829460018060a01b0381541684526040516142ed816109c78160018601614236565b6020850152604051614306816109c78160028601614236565b604085015260405161431f816109c78160038601614236565b606085015260048101546080850152600581015460a0850152600681015460c0850152600781015460e085015260088101546101008501526009810154610120850152600a8101546101408501520154910152565b60005b8381106143875750506000910152565b8181015183820152602001614377565b906020916143b081518092818552858086019101614374565b601f01601f1916010190565b90816020910312611b9f57516001600160a01b0381168103611b9f5790565b919082039182116143e857565b634e487b7160e01b600052601160045260246000fd5b9061443a60246040518094630333ab7160e51b60208301526144298151809260208686019101614374565b81010301601f198101845283614114565b565b818102929181159184041417156143e857565b8115614459570490565b634e487b7160e01b600052601260045260246000fd5b9190826040910312611b9f576020825192015190565b818110614490575050565b60008155600101614485565b8054600160401b8110156140ab576144b9916001820181556141ce565b81546001600160a01b0393841660039290921b91821b9390911b1916919091179055565b90816020910312611b9f57518015158103611b9f5790565b156144fc57565b60405162461bcd60e51b8152602060048201526011602482015270546f6b656e206e6f742074726164696e6760781b6044820152606490fd5b919082018092116143e857565b6001600160a01b031680156145a25760008051602061580d83398151915280546001600160a01b0319811683179091556001600160a01b03167f8be0079c531659141344cd1fd0a4f28419497f9722a3daafe3b4186f6b6457e0600080a3565b631e4fbdf760e01b600052600060045260246000fd5b60008051602061580d833981519152546001600160a01b031633036145d957565b63118cdaa760e01b6000523360045260246000fd5b6040516323b872dd60e01b60208201526001600160a01b03928316602482015292909116604483015260648083019390935291815261443a91614632608483614114565b614729565b60405163095ea7b360e01b60208083019182526001600160a01b038516602484015260448084019690965294825292939092600090614677606486614114565b84519082855af16000513d826146da575b50501561469457505050565b60405163095ea7b360e01b60208201526001600160a01b0390931660248401526000604480850191909152835261443a92614632906146d4606482614114565b82614729565b9091506146f757506001600160a01b0381163b15155b3880614688565b6001146146f0565b90816020910312611b9f575160ff81168103611b9f5790565b60ff16604d81116143e857600a0a90565b906000602091828151910182855af115614784576000513d61477b57506001600160a01b0381163b155b61475a5750565b635274afe760e01b60009081526001600160a01b0391909116600452602490fd5b60011415614753565b6040513d6000823e3d90fd5b60ff60008051602061584d8339815191525460401c16156147ad57565b631afcd79f60e31b60005260046000fdfe60806040523461048c5761104e8038038061001981610491565b92833981019060808183031261048c5780516001600160401b03811161048c57826100459183016104b6565b602082015190926001600160401b03821161048c576100659183016104b6565b90606060408201519101519033156104765760008054336001600160a01b0319821681178355916001600160a01b03909116907f8be0079c531659141344cd1fd0a4f28419497f9722a3daafe3b4186f6b6457e09080a383516001600160401b03811161037f57600254600181811c9116801561046c575b602082101461035f57601f8111610407575b50602094601f82116001146103a057948192939495600092610395575b50508160011b916000199060031b1c1916176002555b82516001600160401b03811161037f57600354600181811c91168015610375575b602082101461035f57601f81116102fa575b506020601f82116001146102935781929394600092610288575b50508160011b916000199060031b1c1916176003555b670de0b6b3a7640000810290808204670de0b6b3a7640000149015171561027257806001553360005260066020526040600020553360005260086020526040600020600160ff198254161790553060005260086020526040600020600160ff198254161790558060045560015490818102818104831482151715610272577fff3dd5e80294197918c284bbfc3dadd97d0b40ce92106110946329088f80068a91606460209204600555604051908152a160405190815260007fddf252ad1be2c89b69c2b068fc378daa952ba7f163c4a11628f55a4df523b3ef60203393a3604051610b2c90816105228239f35b634e487b7160e01b600052601160045260246000fd5b01519050388061016f565b601f198216906003600052806000209160005b8181106102e2575095836001959697106102c9575b505050811b01600355610185565b015160001960f88460031b161c191690553880806102bb565b9192602060018192868b0151815501940192016102a6565b60036000527fc2575a0e9e593c00f959f8c92f12db2869c3395a3b0502d05e2516446f71f85b601f830160051c81019160208410610355575b601f0160051c01905b8181106103495750610155565b6000815560010161033c565b9091508190610333565b634e487b7160e01b600052602260045260246000fd5b90607f1690610143565b634e487b7160e01b600052604160045260246000fd5b01519050388061010c565b601f198216956002600052806000209160005b8881106103ef575083600195969798106103d6575b505050811b01600255610122565b015160001960f88460031b161c191690553880806103c8565b919260206001819286850151815501940192016103b3565b60026000527f405787fa12a823e0f2b7631cc41b3ba8828b3321ca811111fa75cd3aa3bb5ace601f830160051c81019160208410610462575b601f0160051c01905b81811061045657506100ef565b60008155600101610449565b9091508190610440565b90607f16906100dd565b631e4fbdf760e01b600052600060045260246000fd5b600080fd5b6040519190601f01601f191682016001600160401b0381118382101761037f57604052565b81601f8201121561048c578051906001600160401b03821161037f576104e5601f8301601f1916602001610491565b928284526020838301011161048c5760005b82811061050c57505060206000918301015290565b806020809284010151828287010152016104f756fe608080604052600436101561001357600080fd5b60003560e01c90816306fdde031461067c57508063095ea7b31461065657806318160ddd1461063857806323b872dd146105d2578063313ce567146105b657806370a082311461057c578063715018a6146105235780637437681e1461050557806379cc67901461044a5780638da5cb5b1461042157806395d89b4114610300578063a9059cbb146102cf578063c2d0ffca14610252578063db4cf1e0146101ae578063dd62ed3e1461015d5763f2fde38b146100cf57600080fd5b34610158576020366003190112610158576100e8610798565b6100f0610acd565b6001600160a01b0316801561014257600080546001600160a01b03198116831782556001600160a01b0316907f8be0079c531659141344cd1fd0a4f28419497f9722a3daafe3b4186f6b6457e09080a3005b631e4fbdf760e01b600052600060045260246000fd5b600080fd5b3461015857604036600319011261015857610176610798565b61017e6107ae565b6001600160a01b039182166000908152600760209081526040808320949093168252928352819020549051908152f35b34610158576020366003190112610158576101c7610798565b6101cf610acd565b6001600160a01b031680156101f9576000908152600860205260409020805460ff19166001179055005b60405162461bcd60e51b815260206004820152602b60248201527f45524332303a204578636c756465204d61782054782066726f6d20746865207a60448201526a65726f206164647265737360a81b6064820152608490fd5b346101585760203660031901126101585760043561026e610acd565b806004556001548082029082820414821517156102b9577fff3dd5e80294197918c284bbfc3dadd97d0b40ce92106110946329088f80068a91606460209204600555604051908152a1005b634e487b7160e01b600052601160045260246000fd5b34610158576040366003190112610158576102f56102eb610798565b60243590336108d9565b602060405160018152f35b346101585760003660031901126101585760405160006003548060011c90600181168015610417575b602083108114610403578285529081156103e75750600114610390575b50819003601f01601f191681019067ffffffffffffffff82118183101761037a576103768291826040528261074f565b0390f35b634e487b7160e01b600052604160045260246000fd5b905060036000527fc2575a0e9e593c00f959f8c92f12db2869c3395a3b0502d05e2516446f71f85b6000905b8282106103d157506020915082010182610346565b60018160209254838588010152019101906103bc565b90506020925060ff191682840152151560051b82010182610346565b634e487b7160e01b84526022600452602484fd5b91607f1691610329565b34610158576000366003190112610158576000546040516001600160a01b039091168152602090f35b3461015857604036600319011261015857610463610798565b6024359061046f610acd565b6001600160a01b031680156104ce577fddf252ad1be2c89b69c2b068fc378daa952ba7f163c4a11628f55a4df523b3ef6020600093838552600682526104b98160408720546107c4565b848652600683526040862055604051908152a3005b60405162461bcd60e51b815260206004820152600f60248201526e496e76616c6964206164647265737360881b6044820152606490fd5b34610158576000366003190112610158576020600454604051908152f35b346101585760003660031901126101585761053c610acd565b600080546001600160a01b0319811682556001600160a01b03167f8be0079c531659141344cd1fd0a4f28419497f9722a3daafe3b4186f6b6457e08280a3005b34610158576020366003190112610158576001600160a01b0361059d610798565b1660005260066020526020604060002054604051908152f35b3461015857600036600319011261015857602060405160128152f35b34610158576060366003190112610158576102f56105ee610798565b6106306105f96107ae565b6106076044358092856108d9565b6001600160a01b03831660009081526007602090815260408083203384529091529020546107c4565b9033906107d1565b34610158576000366003190112610158576020600154604051908152f35b34610158576040366003190112610158576102f5610672610798565b60243590336107d1565b346101585760003660031901126101585760006002548060011c90600181168015610745575b602083108114610403578285529081156103e757506001146106ee5750819003601f01601f191681019067ffffffffffffffff82118183101761037a576103768291826040528261074f565b905060026000527f405787fa12a823e0f2b7631cc41b3ba8828b3321ca811111fa75cd3aa3bb5ace6000905b82821061072f57506020915082010182610346565b600181602092548385880101520191019061071a565b91607f16916106a2565b91909160208152825180602083015260005b818110610782575060409293506000838284010152601f8019910116010190565b8060208092870101516040828601015201610761565b600435906001600160a01b038216820361015857565b602435906001600160a01b038216820361015857565b919082039182116102b957565b6001600160a01b0316908115610888576001600160a01b03169182156108385760207f8c5be1e5ebec7d5bd14f71427d1e84f3dd0314c0f7b2291e5b200ac8c7c3b925918360005260078252604060002085600052825280604060002055604051908152a3565b60405162461bcd60e51b815260206004820152602260248201527f45524332303a20617070726f766520746f20746865207a65726f206164647265604482015261737360f01b6064820152608490fd5b60405162461bcd60e51b8152602060048201526024808201527f45524332303a20617070726f76652066726f6d20746865207a65726f206164646044820152637265737360e01b6064820152608490fd5b6001600160a01b0316908115610a7a576001600160a01b0316918215610a295780156109d25781600052600860205260ff6040600020541615610993575b81600052600660205261092f816040600020546107c4565b8260005260066020526040600020558260005260066020526040600020548181018091116102b9577fddf252ad1be2c89b69c2b068fc378daa952ba7f163c4a11628f55a4df523b3ef916020918560005260068352604060002055604051908152a3565b6005548111156109175760405162461bcd60e51b815260206004820152600d60248201526c08af0c6cacac8e6409ac2f0a8f609b1b6044820152606490fd5b60405162461bcd60e51b815260206004820152602960248201527f5472616e7366657220616d6f756e74206d7573742062652067726561746572206044820152687468616e207a65726f60b81b6064820152608490fd5b60405162461bcd60e51b815260206004820152602360248201527f45524332303a207472616e7366657220746f20746865207a65726f206164647260448201526265737360e81b6064820152608490fd5b60405162461bcd60e51b815260206004820152602560248201527f45524332303a207472616e736665722066726f6d20746865207a65726f206164604482015264647265737360d81b6064820152608490fd5b6000546001600160a01b03163303610ae157565b63118cdaa760e01b6000523360045260246000fdfea264697066735822122053f1292af34723e20a72902575d303dd89f166a1509cf40d85d611b2a6c6fe4e64736f6c634300081c00339016d09d72d40fdae2fd8ceac6b6234c7706214fd39c1cd1e609a0528c1993009b779b17422d0df92223018b32b4d1fa46e071723d6817e2486d003becc55f00f0c57e16840df040f15088dc2f81fe391c3923bec73e23a9662efc9c229c6a00a2646970667358221220bbf66abaefff0d2e8d51d45ec1a531fe76d27451027b1c4ad6e42b1ba2938f1d64736f6c634300081c0033","opcodes":"PUSH1 0x80 DUP1 PUSH1 0x40 MSTORE CALLVALUE PUSH1 0xD2 JUMPI PUSH32 0xF0C57E16840DF040F15088DC2F81FE391C3923BEC73E23A9662EFC9C229C6A00 SLOAD PUSH1 0xFF DUP2 PUSH1 0x40 SHR AND PUSH1 0xC1 JUMPI PUSH1 0x2 PUSH1 0x1 PUSH1 0x40 SHL SUB NOT PUSH1 0x1 PUSH1 0x1 PUSH1 0x40 SHL SUB DUP3 AND ADD PUSH1 0x5C JUMPI JUMPDEST PUSH1 0x40 MLOAD PUSH2 0x58A2 SWAP1 DUP2 PUSH2 0xD8 DUP3 CODECOPY RETURN JUMPDEST PUSH1 0x1 PUSH1 0x1 PUSH1 0x40 SHL SUB NOT AND PUSH1 0x1 PUSH1 0x1 PUSH1 0x40 SHL SUB SWAP1 DUP2 OR PUSH32 0xF0C57E16840DF040F15088DC2F81FE391C3923BEC73E23A9662EFC9C229C6A00 SSTORE DUP2 MSTORE PUSH32 0xC7F505B2F371AE2175EE4913F4499E1F2633A7B5936321EED1CDAEB6115181D2 SWAP1 PUSH1 0x20 SWAP1 LOG1 CODESIZE DUP1 PUSH1 0x4D JUMP JUMPDEST PUSH4 0xF92EE8A9 PUSH1 0xE0 SHL PUSH1 0x0 MSTORE PUSH1 0x4 PUSH1 0x0 REVERT JUMPDEST PUSH1 0x0 DUP1 REVERT INVALID PUSH1 0x80 PUSH1 0x40 MSTORE PUSH1 0x4 CALLDATASIZE LT ISZERO PUSH2 0x12 JUMPI PUSH1 0x0 DUP1 REVERT JUMPDEST PUSH1 0x0 DUP1 CALLDATALOAD PUSH1 0xE0 SHR DUP1 PUSH4 0x9C8962C EQ PUSH2 0x406D JUMPI DUP1 PUSH4 0x378DC3DC EQ PUSH2 0x404F JUMPI DUP1 PUSH4 0x3C0B93AA EQ PUSH2 0x29F8 JUMPI DUP1 PUSH4 0x4189A68E EQ PUSH2 0x2695 JUMPI DUP1 PUSH4 0x43FB4D24 EQ PUSH2 0x25FA JUMPI DUP1 PUSH4 0x519DC8D2 EQ PUSH2 0x24A9 JUMPI DUP1 PUSH4 0x61402596 EQ PUSH2 0x2486 JUMPI DUP1 PUSH4 0x6EDD12E0 EQ PUSH2 0x2468 JUMPI DUP1 PUSH4 0x715018A6 EQ PUSH2 0x23FE JUMPI DUP1 PUSH4 0x7437681E EQ PUSH2 0x23E0 JUMPI DUP1 PUSH4 0x7C13774B EQ PUSH2 0x237A JUMPI DUP1 PUSH4 0x7DEB6025 EQ PUSH2 0x132B JUMPI DUP1 PUSH4 0x7DF107EA EQ PUSH2 0x1302 JUMPI DUP1 PUSH4 0x7F13A90B EQ PUSH2 0x8CE JUMPI DUP1 PUSH4 0x8DA5CB5B EQ PUSH2 0x898 JUMPI DUP1 PUSH4 0x9DD9D0FD EQ PUSH2 0x857 JUMPI DUP1 PUSH4 0xA932492F EQ PUSH2 0x836 JUMPI DUP1 PUSH4 0xB4F2E8B8 EQ PUSH2 0x7F0 JUMPI DUP1 PUSH4 0xBC337182 EQ PUSH2 0x7CD JUMPI DUP1 PUSH4 0xC36FE3D6 EQ PUSH2 0x74C JUMPI DUP1 PUSH4 0xC45A0155 EQ PUSH2 0x723 JUMPI DUP1 PUSH4 0xCC489688 EQ PUSH2 0x6CA JUMPI DUP1 PUSH4 0xDDCA3F43 EQ PUSH2 0x6AC JUMPI DUP1 PUSH4 0xE8E6ED69 EQ PUSH2 0x68E JUMPI DUP1 PUSH4 0xEA6EEF49 EQ PUSH2 0x427 JUMPI DUP1 PUSH4 0xF2FDE38B EQ PUSH2 0x3FA JUMPI DUP1 PUSH4 0xF5DAB711 EQ PUSH2 0x17C JUMPI PUSH4 0xF887EA40 EQ PUSH2 0x151 JUMPI PUSH1 0x0 DUP1 REVERT JUMPDEST CALLVALUE PUSH2 0x179 JUMPI DUP1 PUSH1 0x3 NOT CALLDATASIZE ADD SLT PUSH2 0x179 JUMPI PUSH1 0x2 SLOAD PUSH1 0x40 MLOAD PUSH1 0x1 PUSH1 0x1 PUSH1 0xA0 SHL SUB SWAP1 SWAP2 AND DUP2 MSTORE PUSH1 0x20 SWAP1 RETURN JUMPDEST DUP1 REVERT JUMPDEST POP CALLVALUE PUSH2 0x179 JUMPI PUSH1 0x20 CALLDATASIZE PUSH1 0x3 NOT ADD SLT PUSH2 0x179 JUMPI PUSH1 0x1 PUSH1 0x1 PUSH1 0xA0 SHL SUB PUSH2 0x19E PUSH2 0x41B8 JUMP JUMPDEST AND DUP2 MSTORE PUSH1 0xE PUSH1 0x20 MSTORE PUSH1 0x40 SWAP1 KECCAK256 DUP1 SLOAD PUSH1 0x1 DUP3 ADD SLOAD PUSH1 0x2 DUP4 ADD SLOAD PUSH1 0x3 DUP5 ADD SLOAD PUSH1 0x1 PUSH1 0x1 PUSH1 0xA0 SHL SUB SWAP3 DUP4 AND SWAP5 SWAP4 DUP4 AND SWAP4 SWAP2 DUP4 AND SWAP3 AND PUSH2 0x1DC PUSH1 0x4 DUP4 ADD PUSH2 0x42B9 JUMP JUMPDEST PUSH1 0x40 MLOAD DUP1 PUSH2 0x1ED DUP2 PUSH1 0x10 DUP8 ADD PUSH2 0x4236 JUMP JUMPDEST SUB PUSH2 0x1F8 SWAP1 DUP3 PUSH2 0x4114 JUMP JUMPDEST PUSH1 0x40 MLOAD DUP1 PUSH2 0x209 DUP2 PUSH1 0x12 DUP9 ADD PUSH2 0x4236 JUMP JUMPDEST SUB PUSH2 0x214 SWAP1 DUP3 PUSH2 0x4114 JUMP JUMPDEST PUSH1 0x40 MLOAD SWAP2 DUP3 PUSH2 0x226 DUP2 PUSH1 0x13 DUP10 ADD PUSH2 0x4236 JUMP JUMPDEST SUB PUSH2 0x231 SWAP1 DUP5 PUSH2 0x4114 JUMP JUMPDEST PUSH1 0x40 MLOAD SWAP4 DUP5 PUSH2 0x243 DUP2 PUSH1 0x14 DUP11 ADD PUSH2 0x4236 JUMP JUMPDEST SUB PUSH2 0x24E SWAP1 DUP7 PUSH2 0x4114 JUMP JUMPDEST PUSH1 0x40 MLOAD SWAP6 DUP7 PUSH2 0x260 DUP2 PUSH1 0x15 DUP12 ADD PUSH2 0x4236 JUMP JUMPDEST SUB PUSH2 0x26B SWAP1 DUP9 PUSH2 0x4114 JUMP JUMPDEST PUSH1 0x40 MLOAD SWAP8 DUP9 PUSH2 0x27D DUP2 PUSH1 0x16 DUP5 ADD PUSH2 0x4236 JUMP JUMPDEST SUB PUSH2 0x288 SWAP1 DUP11 PUSH2 0x4114 JUMP JUMPDEST PUSH1 0x17 ADD SLOAD SWAP9 PUSH1 0x40 MLOAD SWAP12 DUP13 SWAP12 DUP13 MSTORE PUSH1 0x20 DUP13 ADD MSTORE PUSH1 0x40 DUP12 ADD MSTORE PUSH1 0x60 DUP11 ADD MSTORE PUSH1 0x80 DUP10 ADD PUSH2 0x1A0 SWAP1 MSTORE PUSH1 0x1 PUSH1 0xA0 SHL PUSH1 0x1 SWAP1 SUB DUP2 MLOAD AND PUSH2 0x1A0 DUP11 ADD MSTORE PUSH1 0x20 DUP2 ADD MLOAD PUSH2 0x1C0 DUP11 ADD PUSH2 0x180 SWAP1 MSTORE PUSH2 0x320 DUP11 ADD PUSH2 0x2DC SWAP2 PUSH2 0x4397 JUMP JUMPDEST PUSH1 0x40 DUP3 ADD MLOAD DUP11 DUP3 SUB PUSH2 0x19F NOT ADD PUSH2 0x1E0 DUP13 ADD MSTORE PUSH2 0x2F9 SWAP2 SWAP1 PUSH2 0x4397 JUMP JUMPDEST PUSH1 0x60 DUP3 ADD MLOAD DUP11 DUP3 SUB PUSH2 0x19F NOT ADD PUSH2 0x200 DUP13 ADD MSTORE PUSH2 0x316 SWAP2 SWAP1 PUSH2 0x4397 JUMP JUMPDEST SWAP1 PUSH1 0x80 DUP2 ADD MLOAD PUSH2 0x220 DUP12 ADD MSTORE PUSH1 0xA0 DUP2 ADD MLOAD PUSH2 0x240 DUP12 ADD MSTORE PUSH1 0xC0 DUP2 ADD MLOAD PUSH2 0x260 DUP12 ADD MSTORE PUSH1 0xE0 DUP2 ADD MLOAD PUSH2 0x280 DUP12 ADD MSTORE PUSH2 0x100 DUP2 ADD MLOAD PUSH2 0x2A0 DUP12 ADD MSTORE PUSH2 0x120 DUP2 ADD MLOAD PUSH2 0x2C0 DUP12 ADD MSTORE PUSH2 0x140 DUP2 ADD MLOAD PUSH2 0x2E0 DUP12 ADD MSTORE PUSH2 0x160 ADD MLOAD PUSH2 0x300 DUP11 ADD MSTORE DUP9 DUP2 SUB PUSH1 0xA0 DUP11 ADD MSTORE PUSH2 0x383 SWAP2 PUSH2 0x4397 JUMP JUMPDEST DUP8 DUP2 SUB PUSH1 0xC0 DUP10 ADD MSTORE PUSH2 0x394 SWAP2 PUSH2 0x4397 JUMP JUMPDEST DUP7 DUP2 SUB PUSH1 0xE0 DUP9 ADD MSTORE PUSH2 0x3A5 SWAP2 PUSH2 0x4397 JUMP JUMPDEST DUP6 DUP2 SUB PUSH2 0x100 DUP8 ADD MSTORE PUSH2 0x3B7 SWAP2 PUSH2 0x4397 JUMP JUMPDEST DUP5 DUP2 SUB PUSH2 0x120 DUP7 ADD MSTORE PUSH2 0x3C9 SWAP2 PUSH2 0x4397 JUMP JUMPDEST DUP4 DUP2 SUB PUSH2 0x140 DUP6 ADD MSTORE PUSH2 0x3DB SWAP2 PUSH2 0x4397 JUMP JUMPDEST SWAP1 PUSH1 0xFF DUP2 AND ISZERO ISZERO PUSH2 0x160 DUP5 ADD MSTORE PUSH1 0x8 SHR PUSH1 0xFF AND ISZERO ISZERO PUSH2 0x180 DUP4 ADD MSTORE SUB SWAP1 RETURN JUMPDEST POP CALLVALUE PUSH2 0x179 JUMPI PUSH1 0x20 CALLDATASIZE PUSH1 0x3 NOT ADD SLT PUSH2 0x179 JUMPI PUSH2 0x424 PUSH2 0x417 PUSH2 0x41B8 JUMP JUMPDEST PUSH2 0x41F PUSH2 0x45B8 JUMP JUMPDEST PUSH2 0x4542 JUMP JUMPDEST DUP1 RETURN JUMPDEST POP CALLVALUE PUSH2 0x179 JUMPI PUSH2 0x120 CALLDATASIZE PUSH1 0x3 NOT ADD SLT PUSH2 0x179 JUMPI PUSH2 0x442 PUSH2 0x41B8 JUMP JUMPDEST PUSH2 0x44A PUSH2 0x41A2 JUMP JUMPDEST PUSH1 0x44 CALLDATALOAD PUSH1 0x1 PUSH1 0x1 PUSH1 0xA0 SHL SUB DUP2 AND SWAP1 DUP2 SWAP1 SUB PUSH2 0x68A JUMPI PUSH1 0xE4 CALLDATALOAD PUSH1 0x1 PUSH1 0x1 PUSH1 0xA0 SHL SUB DUP2 AND SWAP3 PUSH1 0x64 CALLDATALOAD SWAP3 SWAP2 DUP5 SWAP1 SUB PUSH2 0x686 JUMPI PUSH1 0x0 DUP1 MLOAD PUSH1 0x20 PUSH2 0x584D DUP4 CODECOPY DUP2 MLOAD SWAP2 MSTORE SLOAD SWAP5 PUSH1 0xFF DUP7 PUSH1 0x40 SHR AND ISZERO SWAP6 PUSH1 0x1 PUSH1 0x1 PUSH1 0x40 SHL SUB DUP2 AND DUP1 ISZERO SWAP1 DUP2 PUSH2 0x67E JUMPI JUMPDEST PUSH1 0x1 EQ SWAP1 DUP2 PUSH2 0x674 JUMPI JUMPDEST ISZERO SWAP1 DUP2 PUSH2 0x66B JUMPI JUMPDEST POP PUSH2 0x65C JUMPI PUSH8 0xFFFFFFFFFFFFFFFF NOT DUP2 AND PUSH1 0x1 OR PUSH1 0x0 DUP1 MLOAD PUSH1 0x20 PUSH2 0x584D DUP4 CODECOPY DUP2 MLOAD SWAP2 MSTORE SSTORE DUP7 PUSH2 0x62F JUMPI JUMPDEST POP PUSH2 0x4EB PUSH2 0x4790 JUMP JUMPDEST PUSH2 0x4F3 PUSH2 0x4790 JUMP JUMPDEST PUSH2 0x4FC CALLER PUSH2 0x4542 JUMP JUMPDEST PUSH2 0x504 PUSH2 0x4790 JUMP JUMPDEST PUSH2 0x50C PUSH2 0x4790 JUMP JUMPDEST PUSH1 0x1 PUSH1 0x0 DUP1 MLOAD PUSH1 0x20 PUSH2 0x582D DUP4 CODECOPY DUP2 MLOAD SWAP2 MSTORE SSTORE PUSH1 0x1 DUP1 PUSH1 0xA0 SHL SUB AND PUSH1 0x1 PUSH1 0x1 PUSH1 0x60 SHL SUB PUSH1 0xA0 SHL PUSH1 0x1 SLOAD AND OR PUSH1 0x1 SSTORE PUSH1 0x1 DUP1 PUSH1 0xA0 SHL SUB AND PUSH1 0x1 PUSH1 0x1 PUSH1 0x60 SHL SUB PUSH1 0xA0 SHL PUSH1 0x2 SLOAD AND OR PUSH1 0x2 SSTORE PUSH1 0x1 PUSH1 0x1 PUSH1 0x60 SHL SUB PUSH1 0xA0 SHL DUP6 SLOAD AND OR DUP5 SSTORE PUSH8 0xDE0B6B3A7640000 DUP2 MUL SWAP1 DUP1 DUP3 DIV PUSH8 0xDE0B6B3A7640000 EQ SWAP1 ISZERO OR ISZERO PUSH2 0x61B JUMPI PUSH2 0x3E8 SWAP1 DIV PUSH1 0x4 SSTORE PUSH1 0x84 CALLDATALOAD PUSH1 0x3 SSTORE PUSH1 0xA4 CALLDATALOAD PUSH1 0x5 SSTORE PUSH1 0xC4 CALLDATALOAD PUSH1 0x7 SSTORE PUSH1 0x1 PUSH1 0x1 PUSH1 0x60 SHL SUB PUSH1 0xA0 SHL PUSH1 0x8 SLOAD AND OR PUSH1 0x8 SSTORE PUSH2 0x104 CALLDATALOAD PUSH1 0x6 SSTORE PUSH2 0x5C1 JUMPI DUP1 RETURN JUMPDEST PUSH9 0xFF0000000000000000 NOT PUSH1 0x0 DUP1 MLOAD PUSH1 0x20 PUSH2 0x584D DUP4 CODECOPY DUP2 MLOAD SWAP2 MSTORE SLOAD AND PUSH1 0x0 DUP1 MLOAD PUSH1 0x20 PUSH2 0x584D DUP4 CODECOPY DUP2 MLOAD SWAP2 MSTORE SSTORE PUSH32 0xC7F505B2F371AE2175EE4913F4499E1F2633A7B5936321EED1CDAEB6115181D2 PUSH1 0x20 PUSH1 0x40 MLOAD PUSH1 0x1 DUP2 MSTORE LOG1 DUP1 RETURN JUMPDEST PUSH4 0x4E487B71 PUSH1 0xE0 SHL DUP5 MSTORE PUSH1 0x11 PUSH1 0x4 MSTORE PUSH1 0x24 DUP5 REVERT JUMPDEST PUSH9 0xFFFFFFFFFFFFFFFFFF NOT AND PUSH9 0x10000000000000001 OR PUSH1 0x0 DUP1 MLOAD PUSH1 0x20 PUSH2 0x584D DUP4 CODECOPY DUP2 MLOAD SWAP2 MSTORE SSTORE CODESIZE PUSH2 0x4E2 JUMP JUMPDEST PUSH4 0xF92EE8A9 PUSH1 0xE0 SHL DUP9 MSTORE PUSH1 0x4 DUP9 REVERT JUMPDEST SWAP1 POP ISZERO CODESIZE PUSH2 0x4B8 JUMP JUMPDEST ADDRESS EXTCODESIZE ISZERO SWAP2 POP PUSH2 0x4B0 JUMP JUMPDEST DUP9 SWAP2 POP PUSH2 0x4A6 JUMP JUMPDEST DUP6 DUP1 REVERT JUMPDEST DUP4 DUP1 REVERT JUMPDEST POP CALLVALUE PUSH2 0x179 JUMPI DUP1 PUSH1 0x3 NOT CALLDATASIZE ADD SLT PUSH2 0x179 JUMPI PUSH1 0x20 PUSH1 0x5 SLOAD PUSH1 0x40 MLOAD SWAP1 DUP2 MSTORE RETURN JUMPDEST POP CALLVALUE PUSH2 0x179 JUMPI DUP1 PUSH1 0x3 NOT CALLDATASIZE ADD SLT PUSH2 0x179 JUMPI PUSH1 0x20 PUSH1 0x4 SLOAD PUSH1 0x40 MLOAD SWAP1 DUP2 MSTORE RETURN JUMPDEST POP CALLVALUE PUSH2 0x179 JUMPI PUSH1 0x20 CALLDATASIZE PUSH1 0x3 NOT ADD SLT PUSH2 0x179 JUMPI PUSH1 0x4 CALLDATALOAD PUSH2 0x6E7 PUSH2 0x45B8 JUMP JUMPDEST DUP1 ISZERO PUSH2 0x6F3 JUMPI PUSH1 0x5 SSTORE DUP1 RETURN JUMPDEST PUSH1 0x40 MLOAD PUSH3 0x461BCD PUSH1 0xE5 SHL DUP2 MSTORE PUSH1 0x20 PUSH1 0x4 DUP3 ADD MSTORE PUSH1 0x8 PUSH1 0x24 DUP3 ADD MSTORE PUSH8 0x2930BA329032B939 PUSH1 0xC1 SHL PUSH1 0x44 DUP3 ADD MSTORE PUSH1 0x64 SWAP1 REVERT JUMPDEST POP CALLVALUE PUSH2 0x179 JUMPI DUP1 PUSH1 0x3 NOT CALLDATASIZE ADD SLT PUSH2 0x179 JUMPI PUSH1 0x1 SLOAD PUSH1 0x40 MLOAD PUSH1 0x1 PUSH1 0x1 PUSH1 0xA0 SHL SUB SWAP1 SWAP2 AND DUP2 MSTORE PUSH1 0x20 SWAP1 RETURN JUMPDEST POP CALLVALUE PUSH2 0x179 JUMPI PUSH1 0x20 CALLDATASIZE PUSH1 0x3 NOT ADD SLT PUSH2 0x179 JUMPI PUSH1 0x4 CALLDATALOAD SWAP1 PUSH1 0xD SLOAD DUP3 LT ISZERO PUSH2 0x179 JUMPI PUSH1 0xD SLOAD DUP3 LT ISZERO PUSH2 0x7B9 JUMPI PUSH1 0xD DUP2 MSTORE PUSH32 0xD7B6990105719101DABEB77144F2A3385C8033ACD3AF97E9423A695E81AD1EB5 SWAP1 SWAP2 ADD SLOAD PUSH1 0x40 MLOAD PUSH1 0x3 SWAP3 SWAP1 SWAP3 SHL SHR PUSH1 0x1 PUSH1 0x1 PUSH1 0xA0 SHL SUB AND DUP2 MSTORE PUSH1 0x20 SWAP1 RETURN JUMPDEST PUSH4 0x4E487B71 PUSH1 0xE0 SHL DUP2 MSTORE PUSH1 0x32 PUSH1 0x4 MSTORE PUSH1 0x24 SWAP1 REVERT JUMPDEST POP CALLVALUE PUSH2 0x179 JUMPI PUSH1 0x20 CALLDATASIZE PUSH1 0x3 NOT ADD SLT PUSH2 0x179 JUMPI PUSH2 0x7E7 PUSH2 0x45B8 JUMP JUMPDEST PUSH1 0x4 CALLDATALOAD PUSH1 0x7 SSTORE DUP1 RETURN JUMPDEST POP CALLVALUE PUSH2 0x179 JUMPI PUSH1 0x40 CALLDATASIZE PUSH1 0x3 NOT ADD SLT PUSH2 0x179 JUMPI PUSH2 0x80A PUSH2 0x41A2 JUMP JUMPDEST PUSH2 0x812 PUSH2 0x45B8 JUMP JUMPDEST PUSH1 0x4 DUP1 CALLDATALOAD SWAP1 SSTORE DUP2 SLOAD PUSH1 0x1 PUSH1 0x1 PUSH1 0xA0 SHL SUB NOT AND PUSH1 0x1 PUSH1 0x1 PUSH1 0xA0 SHL SUB SWAP2 SWAP1 SWAP2 AND OR DUP2 SSTORE DUP1 RETURN JUMPDEST POP CALLVALUE PUSH2 0x179 JUMPI DUP1 PUSH1 0x3 NOT CALLDATASIZE ADD SLT PUSH2 0x179 JUMPI PUSH1 0x20 PUSH1 0x40 MLOAD PUSH6 0x2BA7DEF3000 DUP2 MSTORE RETURN JUMPDEST POP CALLVALUE PUSH2 0x179 JUMPI PUSH1 0x20 CALLDATASIZE PUSH1 0x3 NOT ADD SLT PUSH2 0x179 JUMPI PUSH1 0x20 SWAP1 PUSH1 0x1 PUSH1 0x1 PUSH1 0xA0 SHL SUB PUSH2 0x87C PUSH2 0x41B8 JUMP JUMPDEST AND DUP2 MSTORE PUSH1 0xC DUP3 MSTORE PUSH1 0x40 PUSH1 0x1 DUP1 PUSH1 0xA0 SHL SUB SWAP2 KECCAK256 SLOAD AND PUSH1 0x40 MLOAD SWAP1 DUP2 MSTORE RETURN JUMPDEST POP CALLVALUE PUSH2 0x179 JUMPI DUP1 PUSH1 0x3 NOT CALLDATASIZE ADD SLT PUSH2 0x179 JUMPI PUSH1 0x0 DUP1 MLOAD PUSH1 0x20 PUSH2 0x580D DUP4 CODECOPY DUP2 MLOAD SWAP2 MSTORE SLOAD PUSH1 0x40 MLOAD PUSH1 0x1 PUSH1 0x1 PUSH1 0xA0 SHL SUB SWAP1 SWAP2 AND DUP2 MSTORE PUSH1 0x20 SWAP1 RETURN JUMPDEST POP CALLVALUE PUSH2 0x179 JUMPI PUSH1 0x40 CALLDATASIZE PUSH1 0x3 NOT ADD SLT PUSH2 0x179 JUMPI PUSH2 0x8E8 PUSH2 0x41B8 JUMP JUMPDEST PUSH1 0x24 CALLDATALOAD SWAP1 PUSH1 0x1 PUSH1 0x1 PUSH1 0x40 SHL SUB DUP3 GT PUSH2 0x12FE JUMPI CALLDATASIZE PUSH1 0x23 DUP4 ADD SLT ISZERO PUSH2 0x12FE JUMPI DUP2 PUSH1 0x4 ADD CALLDATALOAD PUSH2 0x913 DUP2 PUSH2 0x418B JUMP JUMPDEST SWAP3 PUSH2 0x921 PUSH1 0x40 MLOAD SWAP5 DUP6 PUSH2 0x4114 JUMP JUMPDEST DUP2 DUP5 MSTORE PUSH1 0x24 PUSH1 0x20 DUP6 ADD SWAP3 PUSH1 0x5 SHL DUP3 ADD ADD SWAP1 CALLDATASIZE DUP3 GT PUSH2 0x686 JUMPI PUSH1 0x24 ADD SWAP2 JUMPDEST DUP2 DUP4 LT PUSH2 0x12DA JUMPI POP POP POP PUSH1 0x1 PUSH1 0x1 PUSH1 0xA0 SHL SUB DUP2 AND DUP1 DUP5 MSTORE PUSH1 0xE PUSH1 0x20 MSTORE PUSH1 0x40 DUP1 DUP6 KECCAK256 SWAP1 MLOAD SWAP2 SWAP3 SWAP2 PUSH2 0x96D DUP2 PUSH2 0x40DD JUMP JUMPDEST DUP2 SLOAD PUSH1 0x1 PUSH1 0x1 PUSH1 0xA0 SHL SUB SWAP1 DUP2 AND DUP3 MSTORE PUSH1 0x1 DUP4 ADD SLOAD DUP2 AND PUSH1 0x20 DUP4 ADD MSTORE PUSH1 0x2 DUP4 ADD SLOAD DUP2 AND PUSH1 0x40 DUP4 ADD MSTORE PUSH1 0x3 DUP4 ADD SLOAD AND PUSH1 0x60 DUP3 ADD SWAP1 DUP2 MSTORE SWAP2 PUSH2 0x9AE PUSH1 0x4 DUP3 ADD PUSH2 0x42B9 JUMP JUMPDEST PUSH1 0x80 DUP4 ADD MSTORE PUSH1 0x40 MLOAD PUSH2 0x9CE DUP2 PUSH2 0x9C7 DUP2 PUSH1 0x10 DUP7 ADD PUSH2 0x4236 JUMP JUMPDEST SUB DUP3 PUSH2 0x4114 JUMP JUMPDEST PUSH1 0xA0 DUP4 ADD MSTORE PUSH1 0x40 MLOAD PUSH1 0x11 DUP3 ADD DUP1 SLOAD DUP1 DUP4 MSTORE SWAP1 DUP10 MSTORE PUSH1 0x20 DUP1 DUP11 KECCAK256 SWAP1 DUP4 ADD SWAP2 DUP11 SWAP2 JUMPDEST DUP2 PUSH1 0x1F DUP5 ADD LT PUSH2 0x1138 JUMPI SWAP4 PUSH1 0xFF SWAP6 SWAP4 DUP2 SWAP4 PUSH2 0xB0E SWAP4 PUSH1 0x17 SWAP8 SLOAD SWAP2 DUP2 DUP2 LT PUSH2 0x1125 JUMPI JUMPDEST DUP2 DUP2 LT PUSH2 0x110F JUMPI JUMPDEST DUP2 DUP2 LT PUSH2 0x10F9 JUMPI JUMPDEST DUP2 DUP2 LT PUSH2 0x10E3 JUMPI JUMPDEST DUP2 DUP2 LT PUSH2 0x10CE JUMPI JUMPDEST DUP2 DUP2 LT PUSH2 0x10B8 JUMPI JUMPDEST DUP2 DUP2 LT PUSH2 0x10A2 JUMPI JUMPDEST DUP2 DUP2 LT PUSH2 0x108C JUMPI JUMPDEST DUP2 DUP2 LT PUSH2 0x1076 JUMPI JUMPDEST DUP2 DUP2 LT PUSH2 0x1060 JUMPI JUMPDEST DUP2 DUP2 LT PUSH2 0x104A JUMPI JUMPDEST DUP2 DUP2 LT PUSH2 0x1034 JUMPI JUMPDEST DUP2 DUP2 LT PUSH2 0x101E JUMPI JUMPDEST DUP2 DUP2 LT PUSH2 0x1008 JUMPI JUMPDEST DUP2 DUP2 LT PUSH2 0xFF2 JUMPI JUMPDEST DUP2 DUP2 LT PUSH2 0xFDC JUMPI JUMPDEST DUP2 DUP2 LT PUSH2 0xFC6 JUMPI JUMPDEST DUP2 DUP2 LT PUSH2 0xFB0 JUMPI JUMPDEST DUP2 DUP2 LT PUSH2 0xF9A JUMPI JUMPDEST DUP2 DUP2 LT PUSH2 0xF84 JUMPI JUMPDEST DUP2 DUP2 LT PUSH2 0xF6E JUMPI JUMPDEST DUP2 DUP2 LT PUSH2 0xF58 JUMPI JUMPDEST DUP2 DUP2 LT PUSH2 0xF42 JUMPI JUMPDEST DUP2 DUP2 LT PUSH2 0xF2C JUMPI JUMPDEST DUP2 DUP2 LT PUSH2 0xF16 JUMPI JUMPDEST DUP2 DUP2 LT PUSH2 0xF00 JUMPI JUMPDEST DUP2 DUP2 LT PUSH2 0xEEA JUMPI JUMPDEST DUP2 DUP2 LT PUSH2 0xED4 JUMPI JUMPDEST DUP2 DUP2 LT PUSH2 0xEBE JUMPI JUMPDEST DUP2 DUP2 LT PUSH2 0xEA8 JUMPI JUMPDEST DUP2 DUP2 LT PUSH2 0xE92 JUMPI JUMPDEST LT PUSH2 0xE84 JUMPI JUMPDEST POP SUB DUP3 PUSH2 0x4114 JUMP JUMPDEST PUSH1 0xC0 DUP6 ADD MSTORE PUSH1 0x40 MLOAD PUSH2 0xB27 DUP2 PUSH2 0x9C7 DUP2 PUSH1 0x12 DUP7 ADD PUSH2 0x4236 JUMP JUMPDEST PUSH1 0xE0 DUP6 ADD MSTORE PUSH1 0x40 MLOAD PUSH2 0xB40 DUP2 PUSH2 0x9C7 DUP2 PUSH1 0x13 DUP7 ADD PUSH2 0x4236 JUMP JUMPDEST PUSH2 0x100 DUP6 ADD MSTORE PUSH1 0x40 MLOAD PUSH2 0xB5A DUP2 PUSH2 0x9C7 DUP2 PUSH1 0x14 DUP7 ADD PUSH2 0x4236 JUMP JUMPDEST PUSH2 0x120 DUP6 ADD MSTORE PUSH1 0x40 MLOAD PUSH2 0xB74 DUP2 PUSH2 0x9C7 DUP2 PUSH1 0x15 DUP7 ADD PUSH2 0x4236 JUMP JUMPDEST PUSH2 0x140 DUP6 ADD MSTORE PUSH1 0x40 MLOAD PUSH2 0xB8E DUP2 PUSH2 0x9C7 DUP2 PUSH1 0x16 DUP7 ADD PUSH2 0x4236 JUMP JUMPDEST PUSH2 0x160 DUP6 ADD MSTORE ADD SLOAD DUP2 DUP2 AND ISZERO ISZERO PUSH2 0x180 DUP5 ADD MSTORE PUSH1 0x8 SHR AND ISZERO SWAP1 PUSH2 0x1A0 DUP3 ISZERO SWAP2 ADD MSTORE PUSH2 0xE3F JUMPI MLOAD PUSH1 0x1 SLOAD PUSH1 0x2 SLOAD PUSH1 0x40 MLOAD PUSH4 0x1083F761 PUSH1 0xE0 SHL DUP2 MSTORE PUSH1 0x1 PUSH1 0x1 PUSH1 0xA0 SHL SUB SWAP4 DUP5 AND SWAP5 SWAP4 SWAP1 SWAP3 DUP2 AND SWAP2 PUSH1 0x20 SWAP2 DUP5 SWAP2 PUSH1 0x4 SWAP2 DUP4 SWAP2 AND GAS STATICCALL SWAP1 DUP2 ISZERO PUSH2 0xD64 JUMPI PUSH2 0xC30 SWAP4 PUSH1 0x20 SWAP4 DUP10 SWAP4 PUSH2 0xE20 JUMPI JUMPDEST POP PUSH1 0x40 MLOAD PUSH4 0xE6A43905 PUSH1 0xE0 SHL DUP2 MSTORE PUSH1 0x1 PUSH1 0x1 PUSH1 0xA0 SHL SUB SWAP2 DUP3 AND PUSH1 0x4 DUP3 ADD MSTORE SWAP3 AND PUSH1 0x24 DUP4 ADD MSTORE SWAP1 SWAP3 DUP4 SWAP2 SWAP1 DUP3 SWAP1 DUP2 SWAP1 PUSH1 0x44 DUP3 ADD SWAP1 JUMP JUMPDEST SUB SWAP2 GAS STATICCALL SWAP1 DUP2 ISZERO PUSH2 0xE15 JUMPI DUP6 SWAP2 PUSH2 0xDE6 JUMPI JUMPDEST POP PUSH1 0x1 PUSH1 0x1 PUSH1 0xA0 SHL SUB DUP2 AND ISZERO PUSH2 0xDD7 JUMPI DUP5 JUMPDEST DUP5 MLOAD DUP2 LT ISZERO PUSH2 0xDD3 JUMPI PUSH1 0x1 DUP1 PUSH1 0xA0 SHL SUB PUSH1 0x20 DUP3 PUSH1 0x5 SHL DUP8 ADD ADD MLOAD AND SWAP1 PUSH1 0x40 MLOAD SWAP2 PUSH4 0x70A08231 PUSH1 0xE0 SHL DUP4 MSTORE DUP1 PUSH1 0x4 DUP5 ADD MSTORE PUSH1 0x20 DUP4 PUSH1 0x24 DUP2 DUP10 GAS STATICCALL SWAP3 DUP4 ISZERO PUSH2 0xDC8 JUMPI DUP9 SWAP4 PUSH2 0xD93 JUMPI JUMPDEST POP DUP3 PUSH2 0xCAD JUMPI JUMPDEST POP PUSH1 0x1 SWAP2 POP ADD PUSH2 0xC54 JUMP JUMPDEST DUP6 EXTCODESIZE ISZERO PUSH2 0xD84 JUMPI PUSH1 0x40 MLOAD PUSH4 0x79CC679 PUSH1 0xE4 SHL DUP2 MSTORE PUSH1 0x1 PUSH1 0x1 PUSH1 0xA0 SHL SUB DUP3 AND PUSH1 0x4 DUP3 ADD MSTORE PUSH1 0x24 DUP2 ADD DUP5 SWAP1 MSTORE DUP9 SWAP1 DUP2 DUP2 PUSH1 0x44 DUP2 DUP4 DUP13 GAS CALL DUP1 ISZERO PUSH2 0xD88 JUMPI PUSH2 0xD6F JUMPI JUMPDEST POP POP PUSH1 0x40 MLOAD PUSH4 0x23B872DD PUSH1 0xE0 SHL DUP2 MSTORE PUSH1 0x1 PUSH1 0x1 PUSH1 0xA0 SHL SUB DUP6 DUP2 AND PUSH1 0x4 DUP4 ADD MSTORE SWAP2 SWAP1 SWAP2 AND PUSH1 0x24 DUP3 ADD MSTORE PUSH1 0x44 DUP2 ADD SWAP3 SWAP1 SWAP3 MSTORE PUSH1 0x20 DUP3 PUSH1 0x64 DUP2 DUP11 DUP9 GAS CALL SWAP2 DUP3 ISZERO PUSH2 0xD64 JUMPI PUSH1 0x1 SWAP3 ISZERO PUSH2 0xCA2 JUMPI PUSH2 0xD56 SWAP1 PUSH1 0x20 RETURNDATASIZE DUP2 GT PUSH2 0xD5D JUMPI JUMPDEST PUSH2 0xD4E DUP2 DUP4 PUSH2 0x4114 JUMP JUMPDEST DUP2 ADD SWAP1 PUSH2 0x44DD JUMP JUMPDEST POP CODESIZE PUSH2 0xCA2 JUMP JUMPDEST POP RETURNDATASIZE PUSH2 0xD44 JUMP JUMPDEST PUSH1 0x40 MLOAD RETURNDATASIZE DUP10 DUP3 RETURNDATACOPY RETURNDATASIZE SWAP1 REVERT JUMPDEST DUP2 PUSH2 0xD79 SWAP2 PUSH2 0x4114 JUMP JUMPDEST PUSH2 0xD84 JUMPI DUP8 CODESIZE PUSH2 0xCED JUMP JUMPDEST DUP8 DUP1 REVERT JUMPDEST PUSH1 0x40 MLOAD RETURNDATASIZE DUP5 DUP3 RETURNDATACOPY RETURNDATASIZE SWAP1 REVERT JUMPDEST SWAP1 SWAP3 POP PUSH1 0x20 RETURNDATASIZE DUP2 GT PUSH2 0xDC1 JUMPI JUMPDEST PUSH2 0xDAA DUP2 DUP4 PUSH2 0x4114 JUMP JUMPDEST PUSH1 0x20 DUP3 PUSH1 0x0 SWAP3 DUP2 ADD SUB SLT PUSH2 0x179 JUMPI POP MLOAD SWAP2 CODESIZE PUSH2 0xC9B JUMP JUMPDEST POP RETURNDATASIZE PUSH2 0xDA0 JUMP JUMPDEST PUSH1 0x40 MLOAD RETURNDATASIZE DUP11 DUP3 RETURNDATACOPY RETURNDATASIZE SWAP1 REVERT JUMPDEST DUP6 DUP1 RETURN JUMPDEST PUSH4 0x81CE35D PUSH1 0xE0 SHL DUP6 MSTORE PUSH1 0x4 DUP6 REVERT JUMPDEST PUSH2 0xE08 SWAP2 POP PUSH1 0x20 RETURNDATASIZE PUSH1 0x20 GT PUSH2 0xE0E JUMPI JUMPDEST PUSH2 0xE00 DUP2 DUP4 PUSH2 0x4114 JUMP JUMPDEST DUP2 ADD SWAP1 PUSH2 0x43BC JUMP JUMPDEST CODESIZE PUSH2 0xC42 JUMP JUMPDEST POP RETURNDATASIZE PUSH2 0xDF6 JUMP JUMPDEST PUSH1 0x40 MLOAD RETURNDATASIZE DUP8 DUP3 RETURNDATACOPY RETURNDATASIZE SWAP1 REVERT JUMPDEST PUSH2 0xE38 SWAP2 SWAP4 POP DUP5 RETURNDATASIZE DUP7 GT PUSH2 0xE0E JUMPI PUSH2 0xE00 DUP2 DUP4 PUSH2 0x4114 JUMP JUMPDEST SWAP2 CODESIZE PUSH2 0xBFB JUMP JUMPDEST PUSH1 0x40 MLOAD PUSH3 0x461BCD PUSH1 0xE5 SHL DUP2 MSTORE PUSH1 0x20 PUSH1 0x4 DUP3 ADD MSTORE PUSH1 0x1A PUSH1 0x24 DUP3 ADD MSTORE PUSH32 0x546F6B656E206973206E6F742067726164756174656420796574000000000000 PUSH1 0x44 DUP3 ADD MSTORE PUSH1 0x64 SWAP1 REVERT JUMPDEST PUSH1 0xF8 SHR DUP2 MSTORE PUSH1 0x20 ADD CODESIZE PUSH2 0xB06 JUMP JUMPDEST SWAP3 PUSH1 0x20 PUSH1 0x1 SWAP2 DUP12 DUP6 PUSH1 0xF0 SHR AND DUP2 MSTORE ADD SWAP4 ADD PUSH2 0xB00 JUMP JUMPDEST SWAP3 PUSH1 0x20 PUSH1 0x1 SWAP2 DUP12 DUP6 PUSH1 0xE8 SHR AND DUP2 MSTORE ADD SWAP4 ADD PUSH2 0xAF8 JUMP JUMPDEST SWAP3 PUSH1 0x20 PUSH1 0x1 SWAP2 DUP12 DUP6 PUSH1 0xE0 SHR AND DUP2 MSTORE ADD SWAP4 ADD PUSH2 0xAF0 JUMP JUMPDEST SWAP3 PUSH1 0x20 PUSH1 0x1 SWAP2 DUP12 DUP6 PUSH1 0xD8 SHR AND DUP2 MSTORE ADD SWAP4 ADD PUSH2 0xAE8 JUMP JUMPDEST SWAP3 PUSH1 0x20 PUSH1 0x1 SWAP2 DUP12 DUP6 PUSH1 0xD0 SHR AND DUP2 MSTORE ADD SWAP4 ADD PUSH2 0xAE0 JUMP JUMPDEST SWAP3 PUSH1 0x20 PUSH1 0x1 SWAP2 DUP12 DUP6 PUSH1 0xC8 SHR AND DUP2 MSTORE ADD SWAP4 ADD PUSH2 0xAD8 JUMP JUMPDEST SWAP3 PUSH1 0x20 PUSH1 0x1 SWAP2 DUP12 DUP6 PUSH1 0xC0 SHR AND DUP2 MSTORE ADD SWAP4 ADD PUSH2 0xAD0 JUMP JUMPDEST SWAP3 PUSH1 0x20 PUSH1 0x1 SWAP2 DUP12 DUP6 PUSH1 0xB8 SHR AND DUP2 MSTORE ADD SWAP4 ADD PUSH2 0xAC8 JUMP JUMPDEST SWAP3 PUSH1 0x20 PUSH1 0x1 SWAP2 DUP12 DUP6 PUSH1 0xB0 SHR AND DUP2 MSTORE ADD SWAP4 ADD PUSH2 0xAC0 JUMP JUMPDEST SWAP3 PUSH1 0x20 PUSH1 0x1 SWAP2 DUP12 DUP6 PUSH1 0xA8 SHR AND DUP2 MSTORE ADD SWAP4 ADD PUSH2 0xAB8 JUMP JUMPDEST SWAP3 PUSH1 0x20 PUSH1 0x1 SWAP2 DUP12 DUP6 PUSH1 0xA0 SHR AND DUP2 MSTORE ADD SWAP4 ADD PUSH2 0xAB0 JUMP JUMPDEST SWAP3 PUSH1 0x20 PUSH1 0x1 SWAP2 DUP12 DUP6 PUSH1 0x98 SHR AND DUP2 MSTORE ADD SWAP4 ADD PUSH2 0xAA8 JUMP JUMPDEST SWAP3 PUSH1 0x20 PUSH1 0x1 SWAP2 DUP12 DUP6 PUSH1 0x90 SHR AND DUP2 MSTORE ADD SWAP4 ADD PUSH2 0xAA0 JUMP JUMPDEST SWAP3 PUSH1 0x20 PUSH1 0x1 SWAP2 DUP12 DUP6 PUSH1 0x88 SHR AND DUP2 MSTORE ADD SWAP4 ADD PUSH2 0xA98 JUMP JUMPDEST SWAP3 PUSH1 0x20 PUSH1 0x1 SWAP2 DUP12 DUP6 PUSH1 0x80 SHR AND DUP2 MSTORE ADD SWAP4 ADD PUSH2 0xA90 JUMP JUMPDEST SWAP3 PUSH1 0x20 PUSH1 0x1 SWAP2 DUP12 DUP6 PUSH1 0x78 SHR AND DUP2 MSTORE ADD SWAP4 ADD PUSH2 0xA88 JUMP JUMPDEST SWAP3 PUSH1 0x20 PUSH1 0x1 SWAP2 DUP12 DUP6 PUSH1 0x70 SHR AND DUP2 MSTORE ADD SWAP4 ADD PUSH2 0xA80 JUMP JUMPDEST SWAP3 PUSH1 0x20 PUSH1 0x1 SWAP2 DUP12 DUP6 PUSH1 0x68 SHR AND DUP2 MSTORE ADD SWAP4 ADD PUSH2 0xA78 JUMP JUMPDEST SWAP3 PUSH1 0x20 PUSH1 0x1 SWAP2 DUP12 DUP6 PUSH1 0x60 SHR AND DUP2 MSTORE ADD SWAP4 ADD PUSH2 0xA70 JUMP JUMPDEST SWAP3 PUSH1 0x20 PUSH1 0x1 SWAP2 DUP12 DUP6 PUSH1 0x58 SHR AND DUP2 MSTORE ADD SWAP4 ADD PUSH2 0xA68 JUMP JUMPDEST SWAP3 PUSH1 0x20 PUSH1 0x1 SWAP2 DUP12 DUP6 PUSH1 0x50 SHR AND DUP2 MSTORE ADD SWAP4 ADD PUSH2 0xA60 JUMP JUMPDEST SWAP3 PUSH1 0x20 PUSH1 0x1 SWAP2 DUP12 DUP6 PUSH1 0x48 SHR AND DUP2 MSTORE ADD SWAP4 ADD PUSH2 0xA58 JUMP JUMPDEST SWAP3 PUSH1 0x20 PUSH1 0x1 SWAP2 DUP12 DUP6 PUSH1 0x40 SHR AND DUP2 MSTORE ADD SWAP4 ADD PUSH2 0xA50 JUMP JUMPDEST SWAP3 PUSH1 0x20 PUSH1 0x1 SWAP2 DUP12 DUP6 PUSH1 0x38 SHR AND DUP2 MSTORE ADD SWAP4 ADD PUSH2 0xA48 JUMP JUMPDEST SWAP3 PUSH1 0x20 PUSH1 0x1 SWAP2 DUP12 DUP6 PUSH1 0x30 SHR AND DUP2 MSTORE ADD SWAP4 ADD PUSH2 0xA40 JUMP JUMPDEST SWAP3 PUSH1 0x20 PUSH1 0x1 SWAP2 DUP12 DUP6 PUSH1 0x28 SHR AND DUP2 MSTORE ADD SWAP4 ADD PUSH2 0xA38 JUMP JUMPDEST SWAP3 PUSH1 0x20 PUSH1 0x1 SWAP2 DUP12 DUP6 DUP4 SHR AND DUP2 MSTORE ADD SWAP4 ADD PUSH2 0xA30 JUMP JUMPDEST SWAP3 PUSH1 0x20 PUSH1 0x1 SWAP2 DUP12 DUP6 PUSH1 0x18 SHR AND DUP2 MSTORE ADD SWAP4 ADD PUSH2 0xA28 JUMP JUMPDEST SWAP3 PUSH1 0x20 PUSH1 0x1 SWAP2 DUP12 DUP6 PUSH1 0x10 SHR AND DUP2 MSTORE ADD SWAP4 ADD PUSH2 0xA20 JUMP JUMPDEST SWAP3 PUSH1 0x20 PUSH1 0x1 SWAP2 DUP12 DUP6 PUSH1 0x8 SHR AND DUP2 MSTORE ADD SWAP4 ADD PUSH2 0xA18 JUMP JUMPDEST SWAP3 PUSH1 0x20 PUSH1 0x1 SWAP2 DUP12 DUP6 AND DUP2 MSTORE ADD SWAP4 ADD PUSH2 0xA10 JUMP JUMPDEST SWAP3 PUSH1 0x1 PUSH2 0x400 PUSH1 0x20 SWAP3 DUP7 SLOAD PUSH1 0xFF DUP2 AND DUP3 MSTORE PUSH1 0xFF DUP2 PUSH1 0x8 SHR AND DUP6 DUP4 ADD MSTORE PUSH1 0xFF DUP2 PUSH1 0x10 SHR AND PUSH1 0x40 DUP4 ADD MSTORE PUSH1 0xFF DUP2 PUSH1 0x18 SHR AND PUSH1 0x60 DUP4 ADD MSTORE PUSH1 0xFF DUP2 DUP7 SHR AND PUSH1 0x80 DUP4 ADD MSTORE PUSH1 0xFF DUP2 PUSH1 0x28 SHR AND PUSH1 0xA0 DUP4 ADD MSTORE PUSH1 0xFF DUP2 PUSH1 0x30 SHR AND PUSH1 0xC0 DUP4 ADD MSTORE PUSH1 0xFF DUP2 PUSH1 0x38 SHR AND PUSH1 0xE0 DUP4 ADD MSTORE PUSH1 0xFF DUP2 PUSH1 0x40 SHR AND PUSH2 0x100 DUP4 ADD MSTORE PUSH1 0xFF DUP2 PUSH1 0x48 SHR AND PUSH2 0x120 DUP4 ADD MSTORE PUSH1 0xFF DUP2 PUSH1 0x50 SHR AND PUSH2 0x140 DUP4 ADD MSTORE PUSH1 0xFF DUP2 PUSH1 0x58 SHR AND PUSH2 0x160 DUP4 ADD MSTORE PUSH1 0xFF DUP2 PUSH1 0x60 SHR AND PUSH2 0x180 DUP4 ADD MSTORE PUSH1 0xFF DUP2 PUSH1 0x68 SHR AND PUSH2 0x1A0 DUP4 ADD MSTORE PUSH1 0xFF DUP2 PUSH1 0x70 SHR AND PUSH2 0x1C0 DUP4 ADD MSTORE PUSH1 0xFF DUP2 PUSH1 0x78 SHR AND PUSH2 0x1E0 DUP4 ADD MSTORE PUSH1 0xFF DUP2 PUSH1 0x80 SHR AND PUSH2 0x200 DUP4 ADD MSTORE PUSH1 0xFF DUP2 PUSH1 0x88 SHR AND PUSH2 0x220 DUP4 ADD MSTORE PUSH1 0xFF DUP2 PUSH1 0x90 SHR AND PUSH2 0x240 DUP4 ADD MSTORE PUSH1 0xFF DUP2 PUSH1 0x98 SHR AND PUSH2 0x260 DUP4 ADD MSTORE PUSH1 0xFF DUP2 PUSH1 0xA0 SHR AND PUSH2 0x280 DUP4 ADD MSTORE PUSH1 0xFF DUP2 PUSH1 0xA8 SHR AND PUSH2 0x2A0 DUP4 ADD MSTORE PUSH1 0xFF DUP2 PUSH1 0xB0 SHR AND PUSH2 0x2C0 DUP4 ADD MSTORE PUSH1 0xFF DUP2 PUSH1 0xB8 SHR AND PUSH2 0x2E0 DUP4 ADD MSTORE PUSH1 0xFF DUP2 PUSH1 0xC0 SHR AND PUSH2 0x300 DUP4 ADD MSTORE PUSH1 0xFF DUP2 PUSH1 0xC8 SHR AND PUSH2 0x320 DUP4 ADD MSTORE PUSH1 0xFF DUP2 PUSH1 0xD0 SHR AND PUSH2 0x340 DUP4 ADD MSTORE PUSH1 0xFF DUP2 PUSH1 0xD8 SHR AND PUSH2 0x360 DUP4 ADD MSTORE PUSH1 0xFF DUP2 PUSH1 0xE0 SHR AND PUSH2 0x380 DUP4 ADD MSTORE PUSH1 0xFF DUP2 PUSH1 0xE8 SHR AND PUSH2 0x3A0 DUP4 ADD MSTORE PUSH1 0xFF DUP2 PUSH1 0xF0 SHR AND PUSH2 0x3C0 DUP4 ADD MSTORE PUSH1 0xF8 SHR PUSH2 0x3E0 DUP3 ADD MSTORE ADD SWAP5 ADD SWAP3 ADD SWAP2 PUSH2 0x9EE JUMP JUMPDEST DUP3 CALLDATALOAD PUSH1 0x1 PUSH1 0x1 PUSH1 0xA0 SHL SUB DUP2 AND DUP2 SUB PUSH2 0x12FA JUMPI DUP2 MSTORE PUSH1 0x20 SWAP3 DUP4 ADD SWAP3 ADD PUSH2 0x93E JUMP JUMPDEST DUP7 DUP1 REVERT JUMPDEST DUP3 DUP1 REVERT JUMPDEST POP CALLVALUE PUSH2 0x179 JUMPI DUP1 PUSH1 0x3 NOT CALLDATASIZE ADD SLT PUSH2 0x179 JUMPI PUSH1 0x8 SLOAD PUSH1 0x40 MLOAD PUSH1 0x1 PUSH1 0x1 PUSH1 0xA0 SHL SUB SWAP1 SWAP2 AND DUP2 MSTORE PUSH1 0x20 SWAP1 RETURN JUMPDEST POP CALLVALUE PUSH2 0x179 JUMPI PUSH1 0x40 CALLDATASIZE PUSH1 0x3 NOT ADD SLT PUSH2 0x179 JUMPI PUSH2 0x1345 PUSH2 0x41A2 JUMP JUMPDEST PUSH1 0x1 PUSH1 0x1 PUSH1 0xA0 SHL SUB DUP2 AND DUP1 DUP4 MSTORE PUSH1 0xE PUSH1 0x20 MSTORE PUSH1 0x40 DUP4 KECCAK256 PUSH1 0x17 ADD SLOAD SWAP1 SWAP3 SWAP1 PUSH2 0x136E SWAP1 PUSH1 0xFF AND PUSH2 0x44F5 JUMP JUMPDEST PUSH1 0x1 SLOAD PUSH1 0x2 SLOAD PUSH1 0x40 MLOAD PUSH4 0x1083F761 PUSH1 0xE0 SHL DUP2 MSTORE PUSH1 0x1 PUSH1 0x1 PUSH1 0xA0 SHL SUB SWAP2 DUP3 AND SWAP3 SWAP1 SWAP2 AND PUSH1 0x20 DUP3 PUSH1 0x4 DUP2 DUP7 GAS STATICCALL SWAP2 DUP3 ISZERO PUSH2 0x1B68 JUMPI SWAP2 PUSH1 0x20 SWAP2 PUSH2 0x13E5 SWAP4 DUP7 SWAP3 PUSH2 0x235B JUMPI JUMPDEST POP PUSH1 0x40 MLOAD PUSH4 0xE6A43905 PUSH1 0xE0 SHL DUP2 MSTORE PUSH1 0x1 PUSH1 0x1 PUSH1 0xA0 SHL SUB DUP1 DUP10 AND PUSH1 0x4 DUP4 ADD MSTORE SWAP1 SWAP3 AND PUSH1 0x24 DUP4 ADD MSTORE SWAP1 SWAP3 DUP4 SWAP2 SWAP1 DUP3 SWAP1 DUP2 SWAP1 PUSH1 0x44 DUP3 ADD SWAP1 JUMP JUMPDEST SUB SWAP2 GAS STATICCALL SWAP1 DUP2 ISZERO PUSH2 0x21F5 JUMPI DUP4 SWAP2 PUSH2 0x233C JUMPI JUMPDEST POP PUSH1 0x1 PUSH1 0x1 PUSH1 0xA0 SHL SUB AND DUP1 ISZERO PUSH2 0x232D JUMPI PUSH1 0x40 DUP1 MLOAD PUSH4 0x240BC6B PUSH1 0xE2 SHL DUP2 MSTORE SWAP3 SWAP2 DUP4 SWAP1 PUSH1 0x4 SWAP1 DUP3 SWAP1 GAS STATICCALL SWAP2 DUP3 ISZERO PUSH2 0x21F5 JUMPI DUP4 SWAP1 DUP5 SWAP4 PUSH2 0x2309 JUMPI JUMPDEST POP PUSH1 0x40 DUP1 MLOAD PUSH4 0x73A9C2C5 PUSH1 0xE1 SHL DUP2 MSTORE PUSH1 0x4 DUP1 CALLDATALOAD SWAP1 DUP3 ADD MSTORE PUSH1 0x1 PUSH1 0x1 PUSH1 0xA0 SHL SUB DUP8 AND PUSH1 0x24 DUP3 ADD MSTORE CALLER PUSH1 0x44 DUP3 ADD MSTORE SWAP3 DUP4 SWAP1 PUSH1 0x64 SWAP1 DUP3 SWAP1 DUP9 SWAP1 GAS CALL SWAP1 DUP2 ISZERO PUSH2 0x1B68 JUMPI DUP5 SWAP3 DUP6 SWAP3 PUSH2 0x22CB JUMPI JUMPDEST POP PUSH2 0x1487 PUSH2 0x148D SWAP3 DUP5 SWAP3 PUSH2 0x43DB JUMP JUMPDEST SWAP4 PUSH2 0x4535 JUMP JUMPDEST DUP6 DUP5 MSTORE PUSH1 0xE PUSH1 0x20 MSTORE PUSH2 0x14A6 PUSH1 0xF PUSH1 0x40 DUP7 KECCAK256 ADD SLOAD TIMESTAMP PUSH2 0x43DB JUMP JUMPDEST SWAP1 DUP1 PUSH1 0x1 SHL SWAP3 DUP2 DUP5 DIV PUSH1 0x2 EQ DUP3 ISZERO OR ISZERO PUSH2 0x22B7 JUMPI PUSH2 0x1558 SWAP1 PUSH3 0x15180 PUSH2 0x14EF PUSH2 0x14E8 DUP9 PUSH2 0x14E3 DUP8 PUSH1 0x8 DUP16 DUP15 PUSH1 0x40 SWAP2 DUP2 MSTORE PUSH1 0xE PUSH1 0x20 MSTORE KECCAK256 ADD SLOAD PUSH2 0x443C JUMP JUMPDEST PUSH2 0x444F JUMP JUMPDEST SWAP5 DUP9 PUSH2 0x444F JUMP JUMPDEST SWAP5 GT SWAP5 DUP6 ISZERO PUSH2 0x2298 JUMPI DUP2 SWAP4 JUMPDEST DUP7 ISZERO PUSH2 0x2282 JUMPI DUP11 DUP10 MSTORE PUSH1 0xE PUSH1 0x20 MSTORE PUSH1 0x9 PUSH1 0x40 DUP11 KECCAK256 ADD SLOAD SWAP6 JUMPDEST DUP12 DUP11 MSTORE PUSH1 0xE PUSH1 0x20 MSTORE PUSH1 0x9 PUSH1 0x40 DUP12 KECCAK256 ADD SSTORE DUP11 DUP10 MSTORE PUSH1 0xE PUSH1 0x20 MSTORE PUSH1 0xA PUSH1 0x40 DUP11 KECCAK256 ADD SSTORE DUP10 DUP9 MSTORE PUSH1 0xE PUSH1 0x20 MSTORE PUSH1 0xB PUSH1 0x40 DUP10 KECCAK256 ADD SSTORE DUP9 DUP8 MSTORE PUSH1 0xE PUSH1 0x20 MSTORE PUSH1 0xC PUSH1 0x40 DUP9 KECCAK256 ADD SLOAD PUSH2 0x4535 JUMP JUMPDEST DUP8 DUP7 MSTORE PUSH1 0xE PUSH1 0x20 MSTORE PUSH1 0xC PUSH1 0x40 DUP8 KECCAK256 ADD SSTORE DUP7 DUP6 MSTORE PUSH1 0xE PUSH1 0x20 MSTORE PUSH1 0xD PUSH1 0x40 DUP7 KECCAK256 ADD SSTORE DUP6 DUP5 MSTORE PUSH1 0xE PUSH1 0x20 MSTORE PUSH1 0xE PUSH1 0x40 DUP6 KECCAK256 ADD SSTORE PUSH2 0x226C JUMPI JUMPDEST PUSH1 0x6 SLOAD LT ISZERO DUP1 PUSH2 0x2253 JUMPI JUMPDEST PUSH2 0x15A8 JUMPI JUMPDEST PUSH1 0x20 PUSH1 0x40 MLOAD PUSH1 0x1 DUP2 MSTORE RETURN JUMPDEST DUP3 DUP2 MSTORE PUSH1 0xE PUSH1 0x20 MSTORE PUSH1 0x40 DUP2 KECCAK256 SWAP2 PUSH1 0x17 DUP4 ADD DUP1 SLOAD PUSH1 0xFF DUP2 AND DUP1 PUSH2 0x2245 JUMPI JUMPDEST ISZERO PUSH2 0x2200 JUMPI PUSH2 0xFFFF NOT AND PUSH2 0x100 OR SWAP1 SSTORE PUSH1 0x1 SLOAD PUSH1 0x2 SLOAD PUSH1 0x40 MLOAD PUSH4 0x1083F761 PUSH1 0xE0 SHL DUP2 MSTORE PUSH1 0x1 PUSH1 0x1 PUSH1 0xA0 SHL SUB SWAP2 DUP3 AND SWAP4 SWAP1 SWAP3 SWAP1 SWAP2 AND SWAP1 PUSH1 0x20 DUP4 PUSH1 0x4 DUP2 DUP8 GAS STATICCALL SWAP3 DUP4 ISZERO PUSH2 0xE15 JUMPI SWAP2 PUSH2 0x164E SWAP4 SWAP2 PUSH1 0x20 SWAP4 DUP8 SWAP4 PUSH2 0xE20 JUMPI POP PUSH1 0x40 MLOAD PUSH4 0xE6A43905 PUSH1 0xE0 SHL DUP2 MSTORE PUSH1 0x1 PUSH1 0x1 PUSH1 0xA0 SHL SUB SWAP2 DUP3 AND PUSH1 0x4 DUP3 ADD MSTORE SWAP3 AND PUSH1 0x24 DUP4 ADD MSTORE SWAP1 SWAP3 DUP4 SWAP2 SWAP1 DUP3 SWAP1 DUP2 SWAP1 PUSH1 0x44 DUP3 ADD SWAP1 JUMP JUMPDEST SUB SWAP2 GAS STATICCALL SWAP1 DUP2 ISZERO PUSH2 0x21F5 JUMPI DUP4 SWAP2 PUSH2 0x21D6 JUMPI JUMPDEST POP PUSH1 0x1 PUSH1 0x1 PUSH1 0xA0 SHL SUB DUP2 AND SWAP4 DUP5 ISZERO PUSH2 0x21C7 JUMPI PUSH1 0x40 MLOAD PUSH4 0xC66F2455 PUSH1 0xE0 SHL DUP2 MSTORE SWAP1 PUSH1 0x20 DUP3 PUSH1 0x4 DUP2 DUP10 GAS STATICCALL SWAP2 DUP3 ISZERO PUSH2 0xE15 JUMPI DUP6 SWAP3 PUSH2 0x218F JUMPI JUMPDEST POP PUSH1 0x40 MLOAD PUSH4 0x16D3DF15 PUSH1 0xE3 SHL DUP2 MSTORE SWAP4 PUSH1 0x20 DUP6 PUSH1 0x4 DUP2 DUP11 GAS STATICCALL SWAP5 DUP6 ISZERO PUSH2 0x1BAC JUMPI DUP7 SWAP6 PUSH2 0x215B JUMPI JUMPDEST POP DUP1 EXTCODESIZE ISZERO PUSH2 0x686 JUMPI DUP6 DUP1 SWAP2 PUSH1 0x24 PUSH1 0x40 MLOAD DUP1 SWAP5 DUP2 SWAP4 PUSH4 0xFF6D8D05 PUSH1 0xE0 SHL DUP4 MSTORE DUP14 PUSH1 0x4 DUP5 ADD MSTORE GAS CALL DUP1 ISZERO PUSH2 0x1BAC JUMPI PUSH2 0x2147 JUMPI JUMPDEST POP PUSH1 0x2 SLOAD PUSH1 0x40 MLOAD PUSH4 0x1083F761 PUSH1 0xE0 SHL DUP2 MSTORE SWAP1 PUSH1 0x20 SWAP1 DUP3 SWAP1 PUSH1 0x4 SWAP1 DUP3 SWAP1 PUSH1 0x1 PUSH1 0x1 PUSH1 0xA0 SHL SUB AND GAS STATICCALL SWAP1 DUP2 ISZERO PUSH2 0x1BAC JUMPI PUSH2 0x173F SWAP2 DUP5 SWAP2 DUP9 SWAP2 PUSH2 0x2128 JUMPI JUMPDEST POP PUSH1 0x8 SLOAD PUSH1 0x1 PUSH1 0x1 PUSH1 0xA0 SHL SUB SWAP1 DUP2 AND SWAP2 AND PUSH2 0x4637 JUMP JUMPDEST PUSH1 0x1 DUP1 PUSH1 0xA0 SHL SUB PUSH1 0x8 SLOAD AND PUSH1 0x6 DUP3 ADD SWAP3 PUSH1 0x40 MLOAD DUP1 SWAP5 DUP9 SWAP1 DUP1 SLOAD SWAP1 PUSH2 0x1762 DUP3 PUSH2 0x41FC JUMP JUMPDEST SWAP2 PUSH1 0x1 DUP2 AND SWAP1 DUP2 ISZERO PUSH2 0x2101 JUMPI POP PUSH1 0x1 EQ PUSH2 0x20C0 JUMPI JUMPDEST POP POP PUSH1 0xA PUSH2 0x17DC SWAP7 DUP3 PUSH10 0x10313C902CA490233AB7 PUSH1 0xB1 SHL PUSH2 0x17A6 SWAP5 SWAP8 SWAP6 SWAP7 SWAP8 MSTORE SUB PUSH1 0x15 NOT DUP2 ADD DUP6 MSTORE ADD DUP4 PUSH2 0x4114 JUMP JUMPDEST DUP8 PUSH1 0x11 DUP6 ADD PUSH1 0x9 SLOAD SWAP5 PUSH1 0xA SLOAD PUSH1 0xB SLOAD SWAP7 PUSH2 0x17F1 PUSH1 0x40 MLOAD SWAP11 DUP12 SWAP9 PUSH4 0x78678ABD PUSH1 0xE1 SHL DUP11 MSTORE PUSH2 0x100 PUSH1 0x4 DUP12 ADD MSTORE PUSH2 0x104 DUP11 ADD SWAP1 PUSH2 0x4397 JUMP JUMPDEST DUP9 DUP2 SUB PUSH1 0x3 NOT ADD PUSH1 0x24 DUP11 ADD MSTORE PUSH1 0x7 DUP12 ADD PUSH2 0x4236 JUMP JUMPDEST DUP8 DUP2 SUB PUSH1 0x3 NOT ADD PUSH1 0x44 DUP10 ADD MSTORE DUP5 SLOAD DUP1 DUP3 MSTORE SWAP5 DUP7 MSTORE PUSH1 0x20 DUP1 DUP8 KECCAK256 SWAP2 ADD SWAP5 DUP7 SWAP2 JUMPDEST DUP2 PUSH1 0x1F DUP5 ADD LT PUSH2 0x1F0C JUMPI SWAP3 PUSH1 0x20 SWAP11 SWAP3 DUP11 SWAP9 SWAP8 SWAP6 SWAP3 DUP10 SWAP8 SWAP6 SLOAD SWAP2 DUP2 DUP2 LT PUSH2 0x1EFA JUMPI JUMPDEST DUP2 DUP2 LT PUSH2 0x1EE4 JUMPI JUMPDEST DUP2 DUP2 LT PUSH2 0x1ECE JUMPI JUMPDEST DUP2 DUP2 LT PUSH2 0x1EB8 JUMPI JUMPDEST DUP2 DUP2 LT PUSH2 0x1EA4 JUMPI JUMPDEST DUP2 DUP2 LT PUSH2 0x1E8E JUMPI JUMPDEST DUP2 DUP2 LT PUSH2 0x1E78 JUMPI JUMPDEST DUP2 DUP2 LT PUSH2 0x1E62 JUMPI JUMPDEST DUP2 DUP2 LT PUSH2 0x1E4C JUMPI JUMPDEST DUP2 DUP2 LT PUSH2 0x1E36 JUMPI JUMPDEST DUP2 DUP2 LT PUSH2 0x1E20 JUMPI JUMPDEST DUP2 DUP2 LT PUSH2 0x1E0A JUMPI JUMPDEST DUP2 DUP2 LT PUSH2 0x1DF4 JUMPI JUMPDEST DUP2 DUP2 LT PUSH2 0x1DDE JUMPI JUMPDEST DUP2 DUP2 LT PUSH2 0x1DC8 JUMPI JUMPDEST DUP2 DUP2 LT PUSH2 0x1DB2 JUMPI JUMPDEST DUP2 DUP2 LT PUSH2 0x1D9C JUMPI JUMPDEST DUP2 DUP2 LT PUSH2 0x1D86 JUMPI JUMPDEST DUP2 DUP2 LT PUSH2 0x1D70 JUMPI JUMPDEST DUP2 DUP2 LT PUSH2 0x1D5A JUMPI JUMPDEST DUP2 DUP2 LT PUSH2 0x1D44 JUMPI JUMPDEST DUP2 DUP2 LT PUSH2 0x1D2E JUMPI JUMPDEST DUP2 DUP2 LT PUSH2 0x1D18 JUMPI JUMPDEST DUP2 DUP2 LT PUSH2 0x1D02 JUMPI JUMPDEST DUP2 DUP2 LT PUSH2 0x1CEC JUMPI JUMPDEST DUP2 DUP2 LT PUSH2 0x1CD6 JUMPI JUMPDEST DUP2 DUP2 LT PUSH2 0x1CC0 JUMPI JUMPDEST DUP2 DUP2 LT PUSH2 0x1CAA JUMPI JUMPDEST DUP2 DUP2 LT PUSH2 0x1C94 JUMPI JUMPDEST DUP2 DUP2 LT PUSH2 0x1C7E JUMPI JUMPDEST DUP2 DUP2 LT PUSH2 0x1C68 JUMPI JUMPDEST LT PUSH2 0x1C55 JUMPI JUMPDEST POP PUSH1 0x64 DUP7 ADD MSTORE PUSH1 0x1 PUSH1 0x1 PUSH1 0xA0 SHL SUB DUP2 AND PUSH1 0x84 DUP7 ADD MSTORE PUSH1 0xA0 SHR PUSH4 0xFFFFFFFF AND PUSH1 0xA4 DUP6 ADD MSTORE PUSH1 0xC4 DUP5 ADD MSTORE PUSH1 0xE4 DUP4 ADD MSTORE SUB SWAP3 GAS CALL SWAP2 DUP3 ISZERO PUSH2 0xE15 JUMPI DUP6 SWAP3 PUSH2 0x1C21 JUMPI JUMPDEST POP PUSH1 0x8 DUP1 SLOAD SWAP1 DUP3 ADD SLOAD PUSH1 0x40 MLOAD PUSH4 0x313CE567 PUSH1 0xE0 SHL DUP2 MSTORE PUSH1 0x1 PUSH1 0x1 PUSH1 0xA0 SHL SUB SWAP1 SWAP3 AND SWAP4 SWAP2 PUSH1 0x20 DUP2 PUSH1 0x4 DUP2 DUP14 GAS STATICCALL SWAP1 DUP2 ISZERO PUSH2 0xDC8 JUMPI PUSH2 0x19B5 SWAP3 SWAP2 PUSH2 0x19AF SWAP2 DUP11 SWAP2 PUSH2 0x1C08 JUMPI JUMPDEST POP PUSH2 0x4718 JUMP JUMPDEST SWAP1 PUSH2 0x444F JUMP JUMPDEST SWAP1 PUSH1 0x40 MLOAD PUSH4 0x313CE567 PUSH1 0xE0 SHL DUP2 MSTORE PUSH1 0x20 DUP2 PUSH1 0x4 DUP2 DUP14 GAS STATICCALL SWAP1 DUP2 ISZERO PUSH2 0xDC8 JUMPI SWAP2 DUP9 PUSH2 0x19F4 PUSH2 0x19EE PUSH1 0x84 SWAP5 PUSH1 0x20 SWAP8 SWAP7 DUP5 SWAP2 PUSH2 0x1BDB JUMPI POP PUSH2 0x4718 JUMP JUMPDEST DUP11 PUSH2 0x444F JUMP JUMPDEST SWAP7 PUSH1 0x40 MLOAD SWAP8 DUP9 SWAP6 DUP7 SWAP5 PUSH4 0x11E18ACB PUSH1 0xE1 SHL DUP7 MSTORE PUSH1 0x4 DUP7 ADD MSTORE PUSH1 0x24 DUP6 ADD MSTORE PUSH1 0x44 DUP5 ADD MSTORE DUP12 PUSH1 0x64 DUP5 ADD MSTORE GAS CALL SWAP2 DUP3 ISZERO PUSH2 0xE15 JUMPI DUP6 SWAP3 PUSH2 0x1BB7 JUMPI JUMPDEST POP PUSH1 0x3 ADD DUP1 SLOAD PUSH1 0x1 PUSH1 0x1 PUSH1 0xA0 SHL SUB NOT AND PUSH1 0x1 PUSH1 0x1 PUSH1 0xA0 SHL SUB SWAP3 DUP4 AND SWAP1 DUP2 OR SWAP1 SWAP2 SSTORE PUSH1 0x2 SLOAD PUSH1 0x40 MLOAD PUSH4 0x70A08231 PUSH1 0xE0 SHL DUP2 MSTORE PUSH1 0x4 DUP2 ADD DUP9 SWAP1 MSTORE SWAP2 SWAP7 SWAP3 AND SWAP2 PUSH1 0x20 DUP3 PUSH1 0x24 DUP2 DUP11 GAS STATICCALL SWAP2 DUP3 ISZERO PUSH2 0x1BAC JUMPI DUP7 SWAP3 PUSH2 0x1B73 JUMPI JUMPDEST POP DUP3 EXTCODESIZE ISZERO PUSH2 0x686 JUMPI SWAP1 PUSH1 0x84 DUP7 SWAP3 DUP4 PUSH1 0x40 MLOAD SWAP6 DUP7 SWAP5 DUP6 SWAP4 PUSH4 0x559E23AD PUSH1 0xE1 SHL DUP6 MSTORE PUSH1 0x4 DUP6 ADD MSTORE DUP12 PUSH1 0x24 DUP6 ADD MSTORE ADDRESS PUSH1 0x44 DUP6 ADD MSTORE PUSH1 0x64 DUP5 ADD MSTORE GAS CALL DUP1 ISZERO PUSH2 0x1B68 JUMPI SWAP1 DUP5 SWAP2 PUSH2 0x1B53 JUMPI JUMPDEST POP POP DUP5 EXTCODESIZE ISZERO PUSH2 0x12FE JUMPI PUSH1 0x40 MLOAD PUSH4 0x79CC679 PUSH1 0xE4 SHL DUP2 MSTORE PUSH1 0x1 PUSH1 0x1 PUSH1 0xA0 SHL SUB SWAP2 SWAP1 SWAP2 AND PUSH1 0x4 DUP3 ADD MSTORE PUSH1 0x24 DUP2 ADD SWAP2 SWAP1 SWAP2 MSTORE DUP2 DUP2 PUSH1 0x44 DUP2 DUP4 DUP9 GAS CALL DUP1 ISZERO PUSH2 0xD88 JUMPI PUSH2 0x1B3E JUMPI JUMPDEST POP POP PUSH1 0x20 PUSH32 0x381D54FA425631E6266AF114239150FAE1D5DB67BB65B4FA9ECC65013107E07E SWAP2 PUSH1 0x40 MLOAD SWAP1 DUP2 MSTORE LOG2 CODESIZE DUP1 DUP1 PUSH2 0x159D JUMP JUMPDEST PUSH2 0x1B49 DUP3 DUP1 SWAP3 PUSH2 0x4114 JUMP JUMPDEST PUSH2 0x179 JUMPI DUP1 PUSH2 0x1B09 JUMP JUMPDEST DUP2 PUSH2 0x1B5D SWAP2 PUSH2 0x4114 JUMP JUMPDEST PUSH2 0x12FE JUMPI DUP3 CODESIZE PUSH2 0x1AC6 JUMP JUMPDEST PUSH1 0x40 MLOAD RETURNDATASIZE DUP7 DUP3 RETURNDATACOPY RETURNDATASIZE SWAP1 REVERT JUMPDEST SWAP1 SWAP2 POP PUSH1 0x20 DUP2 RETURNDATASIZE PUSH1 0x20 GT PUSH2 0x1BA4 JUMPI JUMPDEST DUP2 PUSH2 0x1B8F PUSH1 0x20 SWAP4 DUP4 PUSH2 0x4114 JUMP JUMPDEST DUP2 ADD SUB SLT PUSH2 0x1B9F JUMPI MLOAD SWAP1 CODESIZE PUSH2 0x1A80 JUMP JUMPDEST PUSH1 0x0 DUP1 REVERT JUMPDEST RETURNDATASIZE SWAP2 POP PUSH2 0x1B82 JUMP JUMPDEST PUSH1 0x40 MLOAD RETURNDATASIZE DUP9 DUP3 RETURNDATACOPY RETURNDATASIZE SWAP1 REVERT JUMPDEST PUSH1 0x3 SWAP2 SWAP3 POP PUSH2 0x1BD4 SWAP1 PUSH1 0x20 RETURNDATASIZE PUSH1 0x20 GT PUSH2 0xE0E JUMPI PUSH2 0xE00 DUP2 DUP4 PUSH2 0x4114 JUMP JUMPDEST SWAP2 SWAP1 PUSH2 0x1A2C JUMP JUMPDEST PUSH2 0x1BFB SWAP2 POP DUP9 RETURNDATASIZE DUP11 GT PUSH2 0x1C01 JUMPI JUMPDEST PUSH2 0x1BF3 DUP2 DUP4 PUSH2 0x4114 JUMP JUMPDEST DUP2 ADD SWAP1 PUSH2 0x46FF JUMP JUMPDEST CODESIZE PUSH2 0x19A9 JUMP JUMPDEST POP RETURNDATASIZE PUSH2 0x1BE9 JUMP JUMPDEST PUSH2 0x1BFB SWAP2 POP PUSH1 0x20 RETURNDATASIZE PUSH1 0x20 GT PUSH2 0x1C01 JUMPI PUSH2 0x1BF3 DUP2 DUP4 PUSH2 0x4114 JUMP JUMPDEST SWAP1 SWAP2 POP PUSH1 0x20 DUP2 RETURNDATASIZE PUSH1 0x20 GT PUSH2 0x1C4D JUMPI JUMPDEST DUP2 PUSH2 0x1C3D PUSH1 0x20 SWAP4 DUP4 PUSH2 0x4114 JUMP JUMPDEST DUP2 ADD SUB SLT PUSH2 0x1B9F JUMPI MLOAD SWAP1 CODESIZE PUSH2 0x1966 JUMP JUMPDEST RETURNDATASIZE SWAP2 POP PUSH2 0x1C30 JUMP JUMPDEST PUSH1 0xF8 SHR DUP6 MSTORE SWAP4 DUP11 ADD SWAP4 PUSH4 0xFFFFFFFF PUSH2 0x1927 JUMP JUMPDEST SWAP7 DUP14 PUSH1 0x1 SWAP2 PUSH1 0xFF DUP6 PUSH1 0xF0 SHR AND DUP2 MSTORE ADD SWAP8 ADD PUSH2 0x1921 JUMP JUMPDEST SWAP7 DUP14 PUSH1 0x1 SWAP2 PUSH1 0xFF DUP6 PUSH1 0xE8 SHR AND DUP2 MSTORE ADD SWAP8 ADD PUSH2 0x1919 JUMP JUMPDEST SWAP7 DUP14 PUSH1 0x1 SWAP2 PUSH1 0xFF DUP6 PUSH1 0xE0 SHR AND DUP2 MSTORE ADD SWAP8 ADD PUSH2 0x1911 JUMP JUMPDEST SWAP7 DUP14 PUSH1 0x1 SWAP2 PUSH1 0xFF DUP6 PUSH1 0xD8 SHR AND DUP2 MSTORE ADD SWAP8 ADD PUSH2 0x1909 JUMP JUMPDEST SWAP7 DUP14 PUSH1 0x1 SWAP2 PUSH1 0xFF DUP6 PUSH1 0xD0 SHR AND DUP2 MSTORE ADD SWAP8 ADD PUSH2 0x1901 JUMP JUMPDEST SWAP7 DUP14 PUSH1 0x1 SWAP2 PUSH1 0xFF DUP6 PUSH1 0xC8 SHR AND DUP2 MSTORE ADD SWAP8 ADD PUSH2 0x18F9 JUMP JUMPDEST SWAP7 DUP14 PUSH1 0x1 SWAP2 PUSH1 0xFF DUP6 PUSH1 0xC0 SHR AND DUP2 MSTORE ADD SWAP8 ADD PUSH2 0x18F1 JUMP JUMPDEST SWAP7 DUP14 PUSH1 0x1 SWAP2 PUSH1 0xFF DUP6 PUSH1 0xB8 SHR AND DUP2 MSTORE ADD SWAP8 ADD PUSH2 0x18E9 JUMP JUMPDEST SWAP7 DUP14 PUSH1 0x1 SWAP2 PUSH1 0xFF DUP6 PUSH1 0xB0 SHR AND DUP2 MSTORE ADD SWAP8 ADD PUSH2 0x18E1 JUMP JUMPDEST SWAP7 DUP14 PUSH1 0x1 SWAP2 PUSH1 0xFF DUP6 PUSH1 0xA8 SHR AND DUP2 MSTORE ADD SWAP8 ADD PUSH2 0x18D9 JUMP JUMPDEST SWAP7 DUP14 PUSH1 0x1 SWAP2 PUSH1 0xFF DUP6 PUSH1 0xA0 SHR AND DUP2 MSTORE ADD SWAP8 ADD PUSH2 0x18D1 JUMP JUMPDEST SWAP7 DUP14 PUSH1 0x1 SWAP2 PUSH1 0xFF DUP6 PUSH1 0x98 SHR AND DUP2 MSTORE ADD SWAP8 ADD PUSH2 0x18C9 JUMP JUMPDEST SWAP7 DUP14 PUSH1 0x1 SWAP2 PUSH1 0xFF DUP6 PUSH1 0x90 SHR AND DUP2 MSTORE ADD SWAP8 ADD PUSH2 0x18C1 JUMP JUMPDEST SWAP7 DUP14 PUSH1 0x1 SWAP2 PUSH1 0xFF DUP6 PUSH1 0x88 SHR AND DUP2 MSTORE ADD SWAP8 ADD PUSH2 0x18B9 JUMP JUMPDEST SWAP7 DUP14 PUSH1 0x1 SWAP2 PUSH1 0xFF DUP6 PUSH1 0x80 SHR AND DUP2 MSTORE ADD SWAP8 ADD PUSH2 0x18B1 JUMP JUMPDEST SWAP7 DUP14 PUSH1 0x1 SWAP2 PUSH1 0xFF DUP6 PUSH1 0x78 SHR AND DUP2 MSTORE ADD SWAP8 ADD PUSH2 0x18A9 JUMP JUMPDEST SWAP7 DUP14 PUSH1 0x1 SWAP2 PUSH1 0xFF DUP6 PUSH1 0x70 SHR AND DUP2 MSTORE ADD SWAP8 ADD PUSH2 0x18A1 JUMP JUMPDEST SWAP7 DUP14 PUSH1 0x1 SWAP2 PUSH1 0xFF DUP6 PUSH1 0x68 SHR AND DUP2 MSTORE ADD SWAP8 ADD PUSH2 0x1899 JUMP JUMPDEST SWAP7 DUP14 PUSH1 0x1 SWAP2 PUSH1 0xFF DUP6 PUSH1 0x60 SHR AND DUP2 MSTORE ADD SWAP8 ADD PUSH2 0x1891 JUMP JUMPDEST SWAP7 DUP14 PUSH1 0x1 SWAP2 PUSH1 0xFF DUP6 PUSH1 0x58 SHR AND DUP2 MSTORE ADD SWAP8 ADD PUSH2 0x1889 JUMP JUMPDEST SWAP7 DUP14 PUSH1 0x1 SWAP2 PUSH1 0xFF DUP6 PUSH1 0x50 SHR AND DUP2 MSTORE ADD SWAP8 ADD PUSH2 0x1881 JUMP JUMPDEST SWAP7 DUP14 PUSH1 0x1 SWAP2 PUSH1 0xFF DUP6 PUSH1 0x48 SHR AND DUP2 MSTORE ADD SWAP8 ADD PUSH2 0x1879 JUMP JUMPDEST SWAP7 DUP14 PUSH1 0x1 SWAP2 PUSH1 0xFF DUP6 PUSH1 0x40 SHR AND DUP2 MSTORE ADD SWAP8 ADD PUSH2 0x1871 JUMP JUMPDEST SWAP7 DUP14 PUSH1 0x1 SWAP2 PUSH1 0xFF DUP6 PUSH1 0x38 SHR AND DUP2 MSTORE ADD SWAP8 ADD PUSH2 0x1869 JUMP JUMPDEST SWAP7 DUP14 PUSH1 0x1 SWAP2 PUSH1 0xFF DUP6 PUSH1 0x30 SHR AND DUP2 MSTORE ADD SWAP8 ADD PUSH2 0x1861 JUMP JUMPDEST SWAP7 DUP14 PUSH1 0x1 SWAP2 PUSH1 0xFF DUP6 PUSH1 0x28 SHR AND DUP2 MSTORE ADD SWAP8 ADD PUSH2 0x1859 JUMP JUMPDEST DUP3 DUP15 SHR PUSH1 0xFF AND DUP9 MSTORE SWAP7 DUP14 ADD SWAP7 PUSH1 0x1 ADD PUSH2 0x1851 JUMP JUMPDEST SWAP7 DUP14 PUSH1 0x1 SWAP2 PUSH1 0xFF DUP6 PUSH1 0x18 SHR AND DUP2 MSTORE ADD SWAP8 ADD PUSH2 0x1849 JUMP JUMPDEST SWAP7 DUP14 PUSH1 0x1 SWAP2 PUSH1 0xFF DUP6 PUSH1 0x10 SHR AND DUP2 MSTORE ADD SWAP8 ADD PUSH2 0x1841 JUMP JUMPDEST SWAP7 DUP14 PUSH1 0x1 SWAP2 PUSH1 0xFF DUP6 PUSH1 0x8 SHR AND DUP2 MSTORE ADD SWAP8 ADD PUSH2 0x1839 JUMP JUMPDEST PUSH1 0xFF DUP4 AND DUP9 MSTORE SWAP7 DUP14 ADD SWAP7 PUSH1 0x1 ADD PUSH2 0x1831 JUMP JUMPDEST SWAP9 POP SWAP2 SWAP4 SWAP7 SWAP9 SWAP6 POP SWAP2 SWAP4 PUSH1 0x1 PUSH2 0x400 PUSH1 0x20 SWAP3 DUP11 SLOAD PUSH1 0xFF DUP2 AND DUP3 MSTORE PUSH1 0xFF DUP2 PUSH1 0x8 SHR AND DUP6 DUP4 ADD MSTORE PUSH1 0xFF DUP2 PUSH1 0x10 SHR AND PUSH1 0x40 DUP4 ADD MSTORE PUSH1 0xFF DUP2 PUSH1 0x18 SHR AND PUSH1 0x60 DUP4 ADD MSTORE PUSH1 0xFF DUP2 DUP7 SHR AND PUSH1 0x80 DUP4 ADD MSTORE PUSH1 0xFF DUP2 PUSH1 0x28 SHR AND PUSH1 0xA0 DUP4 ADD MSTORE PUSH1 0xFF DUP2 PUSH1 0x30 SHR AND PUSH1 0xC0 DUP4 ADD MSTORE PUSH1 0xFF DUP2 PUSH1 0x38 SHR AND PUSH1 0xE0 DUP4 ADD MSTORE PUSH1 0xFF DUP2 PUSH1 0x40 SHR AND PUSH2 0x100 DUP4 ADD MSTORE PUSH1 0xFF DUP2 PUSH1 0x48 SHR AND PUSH2 0x120 DUP4 ADD MSTORE PUSH1 0xFF DUP2 PUSH1 0x50 SHR AND PUSH2 0x140 DUP4 ADD MSTORE PUSH1 0xFF DUP2 PUSH1 0x58 SHR AND PUSH2 0x160 DUP4 ADD MSTORE PUSH1 0xFF DUP2 PUSH1 0x60 SHR AND PUSH2 0x180 DUP4 ADD MSTORE PUSH1 0xFF DUP2 PUSH1 0x68 SHR AND PUSH2 0x1A0 DUP4 ADD MSTORE PUSH1 0xFF DUP2 PUSH1 0x70 SHR AND PUSH2 0x1C0 DUP4 ADD MSTORE PUSH1 0xFF DUP2 PUSH1 0x78 SHR AND PUSH2 0x1E0 DUP4 ADD MSTORE PUSH1 0xFF DUP2 PUSH1 0x80 SHR AND PUSH2 0x200 DUP4 ADD MSTORE PUSH1 0xFF DUP2 PUSH1 0x88 SHR AND PUSH2 0x220 DUP4 ADD MSTORE PUSH1 0xFF DUP2 PUSH1 0x90 SHR AND PUSH2 0x240 DUP4 ADD MSTORE PUSH1 0xFF DUP2 PUSH1 0x98 SHR AND PUSH2 0x260 DUP4 ADD MSTORE PUSH1 0xFF DUP2 PUSH1 0xA0 SHR AND PUSH2 0x280 DUP4 ADD MSTORE PUSH1 0xFF DUP2 PUSH1 0xA8 SHR AND PUSH2 0x2A0 DUP4 ADD MSTORE PUSH1 0xFF DUP2 PUSH1 0xB0 SHR AND PUSH2 0x2C0 DUP4 ADD MSTORE PUSH1 0xFF DUP2 PUSH1 0xB8 SHR AND PUSH2 0x2E0 DUP4 ADD MSTORE PUSH1 0xFF DUP2 PUSH1 0xC0 SHR AND PUSH2 0x300 DUP4 ADD MSTORE PUSH1 0xFF DUP2 PUSH1 0xC8 SHR AND PUSH2 0x320 DUP4 ADD MSTORE PUSH1 0xFF DUP2 PUSH1 0xD0 SHR AND PUSH2 0x340 DUP4 ADD MSTORE PUSH1 0xFF DUP2 PUSH1 0xD8 SHR AND PUSH2 0x360 DUP4 ADD MSTORE PUSH1 0xFF DUP2 PUSH1 0xE0 SHR AND PUSH2 0x380 DUP4 ADD MSTORE PUSH1 0xFF DUP2 PUSH1 0xE8 SHR AND PUSH2 0x3A0 DUP4 ADD MSTORE PUSH1 0xFF DUP2 PUSH1 0xF0 SHR AND PUSH2 0x3C0 DUP4 ADD MSTORE PUSH1 0xF8 SHR PUSH2 0x3E0 DUP3 ADD MSTORE ADD SWAP9 ADD SWAP3 ADD DUP14 SWAP6 SWAP9 SWAP7 SWAP4 SWAP2 DUP12 SWAP9 SWAP6 SWAP4 PUSH2 0x1810 JUMP JUMPDEST SWAP2 POP SWAP2 POP DUP9 MSTORE DUP5 PUSH1 0x20 DUP10 KECCAK256 DUP10 SWAP1 JUMPDEST DUP4 DUP3 LT PUSH2 0x20E7 JUMPI POP SWAP1 SWAP2 DUP3 ADD PUSH1 0x20 ADD SWAP1 POP DUP2 PUSH1 0xA PUSH2 0x1777 JUMP JUMPDEST PUSH1 0x20 SWAP2 SWAP3 POP DUP1 PUSH1 0x1 SWAP2 SLOAD DUP4 DUP6 DUP12 ADD ADD MSTORE ADD SWAP2 ADD DUP7 SWAP2 PUSH2 0x20CE JUMP JUMPDEST PUSH1 0xA SWAP5 POP PUSH1 0x20 SWAP3 POP PUSH2 0x17A6 SWAP6 SWAP4 SWAP2 POP PUSH1 0xFF NOT AND DUP3 DUP5 ADD MSTORE DUP1 ISZERO ISZERO MUL DUP3 ADD ADD SWAP2 DUP2 SWAP4 POP PUSH2 0x1777 JUMP JUMPDEST PUSH2 0x2141 SWAP2 POP PUSH1 0x20 RETURNDATASIZE PUSH1 0x20 GT PUSH2 0xE0E JUMPI PUSH2 0xE00 DUP2 DUP4 PUSH2 0x4114 JUMP JUMPDEST CODESIZE PUSH2 0x1729 JUMP JUMPDEST DUP6 PUSH2 0x2154 SWAP2 SWAP7 SWAP3 SWAP7 PUSH2 0x4114 JUMP JUMPDEST SWAP4 CODESIZE PUSH2 0x16EE JUMP JUMPDEST SWAP1 SWAP5 POP PUSH1 0x20 DUP2 RETURNDATASIZE PUSH1 0x20 GT PUSH2 0x2187 JUMPI JUMPDEST DUP2 PUSH2 0x2177 PUSH1 0x20 SWAP4 DUP4 PUSH2 0x4114 JUMP JUMPDEST DUP2 ADD SUB SLT PUSH2 0x686 JUMPI MLOAD SWAP4 CODESIZE PUSH2 0x16BD JUMP JUMPDEST RETURNDATASIZE SWAP2 POP PUSH2 0x216A JUMP JUMPDEST SWAP1 SWAP2 POP PUSH1 0x20 DUP2 RETURNDATASIZE PUSH1 0x20 GT PUSH2 0x21BF JUMPI JUMPDEST DUP2 PUSH2 0x21AB PUSH1 0x20 SWAP4 DUP4 PUSH2 0x4114 JUMP JUMPDEST DUP2 ADD SUB SLT PUSH2 0x21BB JUMPI MLOAD SWAP1 CODESIZE PUSH2 0x1697 JUMP JUMPDEST DUP5 DUP1 REVERT JUMPDEST RETURNDATASIZE SWAP2 POP PUSH2 0x219E JUMP JUMPDEST PUSH4 0x81CE35D PUSH1 0xE0 SHL DUP5 MSTORE PUSH1 0x4 DUP5 REVERT JUMPDEST PUSH2 0x21EF SWAP2 POP PUSH1 0x20 RETURNDATASIZE PUSH1 0x20 GT PUSH2 0xE0E JUMPI PUSH2 0xE00 DUP2 DUP4 PUSH2 0x4114 JUMP JUMPDEST CODESIZE PUSH2 0x1660 JUMP JUMPDEST PUSH1 0x40 MLOAD RETURNDATASIZE DUP6 DUP3 RETURNDATACOPY RETURNDATASIZE SWAP1 REVERT JUMPDEST PUSH1 0x40 MLOAD PUSH3 0x461BCD PUSH1 0xE5 SHL DUP2 MSTORE PUSH1 0x20 PUSH1 0x4 DUP3 ADD MSTORE PUSH1 0x17 PUSH1 0x24 DUP3 ADD MSTORE PUSH32 0x74726164696E6720697320616C7265616479206F70656E000000000000000000 PUSH1 0x44 DUP3 ADD MSTORE PUSH1 0x64 SWAP1 REVERT JUMPDEST POP PUSH1 0xFF DUP2 PUSH1 0x8 SHR AND ISZERO PUSH2 0x15C5 JUMP JUMPDEST POP DUP3 DUP2 MSTORE PUSH1 0xE PUSH1 0x20 MSTORE PUSH1 0xFF PUSH1 0x17 PUSH1 0x40 DUP4 KECCAK256 ADD SLOAD AND PUSH2 0x1598 JUMP JUMPDEST DUP4 DUP3 MSTORE PUSH1 0xE PUSH1 0x20 MSTORE TIMESTAMP PUSH1 0xF PUSH1 0x40 DUP5 KECCAK256 ADD SSTORE PUSH2 0x158D JUMP JUMPDEST DUP11 DUP10 MSTORE PUSH1 0xE PUSH1 0x20 MSTORE PUSH1 0xE PUSH1 0x40 DUP11 KECCAK256 ADD SLOAD SWAP6 PUSH2 0x1513 JUMP JUMPDEST DUP10 DUP9 MSTORE PUSH1 0xE PUSH1 0x20 MSTORE PUSH2 0x22B1 DUP3 PUSH1 0xD PUSH1 0x40 DUP12 KECCAK256 ADD SLOAD PUSH2 0x4535 JUMP JUMPDEST SWAP4 PUSH2 0x14FB JUMP JUMPDEST PUSH4 0x4E487B71 PUSH1 0xE0 SHL DUP7 MSTORE PUSH1 0x11 PUSH1 0x4 MSTORE PUSH1 0x24 DUP7 REVERT JUMPDEST PUSH2 0x1487 SWAP2 SWAP4 POP PUSH2 0x148D SWAP3 POP PUSH2 0x22F7 SWAP1 PUSH1 0x40 RETURNDATASIZE PUSH1 0x40 GT PUSH2 0x2302 JUMPI JUMPDEST PUSH2 0x22EF DUP2 DUP4 PUSH2 0x4114 JUMP JUMPDEST DUP2 ADD SWAP1 PUSH2 0x446F JUMP JUMPDEST SWAP1 SWAP4 SWAP1 SWAP3 POP SWAP1 PUSH2 0x1478 JUMP JUMPDEST POP RETURNDATASIZE PUSH2 0x22E5 JUMP JUMPDEST SWAP1 POP PUSH2 0x2325 SWAP2 SWAP3 POP PUSH1 0x40 RETURNDATASIZE PUSH1 0x40 GT PUSH2 0x2302 JUMPI PUSH2 0x22EF DUP2 DUP4 PUSH2 0x4114 JUMP JUMPDEST SWAP2 SWAP1 CODESIZE PUSH2 0x1430 JUMP JUMPDEST PUSH4 0x81CE35D PUSH1 0xE0 SHL DUP4 MSTORE PUSH1 0x4 DUP4 REVERT JUMPDEST PUSH2 0x2355 SWAP2 POP PUSH1 0x20 RETURNDATASIZE PUSH1 0x20 GT PUSH2 0xE0E JUMPI PUSH2 0xE00 DUP2 DUP4 PUSH2 0x4114 JUMP JUMPDEST CODESIZE PUSH2 0x13F7 JUMP JUMPDEST PUSH2 0x2373 SWAP2 SWAP3 POP DUP4 RETURNDATASIZE DUP6 GT PUSH2 0xE0E JUMPI PUSH2 0xE00 DUP2 DUP4 PUSH2 0x4114 JUMP JUMPDEST SWAP1 CODESIZE PUSH2 0x13AF JUMP JUMPDEST POP CALLVALUE PUSH2 0x179 JUMPI PUSH1 0x20 CALLDATASIZE PUSH1 0x3 NOT ADD SLT PUSH2 0x179 JUMPI PUSH1 0x4 CALLDATALOAD SWAP1 PUSH1 0xF SLOAD DUP3 LT ISZERO PUSH2 0x179 JUMPI PUSH1 0xF SLOAD DUP3 LT ISZERO PUSH2 0x7B9 JUMPI PUSH1 0xF SWAP1 MSTORE PUSH32 0x8D1108E10BCB7C27DDDFC02ED9D693A074039D026CF4EA4240B40F7D581AC802 ADD SLOAD PUSH1 0x40 MLOAD PUSH1 0x1 PUSH1 0x1 PUSH1 0xA0 SHL SUB SWAP1 SWAP2 AND DUP2 MSTORE PUSH1 0x20 SWAP1 RETURN JUMPDEST POP CALLVALUE PUSH2 0x179 JUMPI DUP1 PUSH1 0x3 NOT CALLDATASIZE ADD SLT PUSH2 0x179 JUMPI PUSH1 0x20 PUSH1 0x7 SLOAD PUSH1 0x40 MLOAD SWAP1 DUP2 MSTORE RETURN JUMPDEST POP CALLVALUE PUSH2 0x179 JUMPI DUP1 PUSH1 0x3 NOT CALLDATASIZE ADD SLT PUSH2 0x179 JUMPI PUSH2 0x2417 PUSH2 0x45B8 JUMP JUMPDEST PUSH1 0x0 DUP1 MLOAD PUSH1 0x20 PUSH2 0x580D DUP4 CODECOPY DUP2 MLOAD SWAP2 MSTORE DUP1 SLOAD PUSH1 0x1 PUSH1 0x1 PUSH1 0xA0 SHL SUB NOT DUP2 AND SWAP1 SWAP2 SSTORE DUP2 SWAP1 PUSH1 0x1 PUSH1 0x1 PUSH1 0xA0 SHL SUB AND PUSH32 0x8BE0079C531659141344CD1FD0A4F28419497F9722A3DAAFE3B4186F6B6457E0 DUP3 DUP1 LOG3 DUP1 RETURN JUMPDEST POP CALLVALUE PUSH2 0x179 JUMPI DUP1 PUSH1 0x3 NOT CALLDATASIZE ADD SLT PUSH2 0x179 JUMPI PUSH1 0x20 PUSH1 0x6 SLOAD PUSH1 0x40 MLOAD SWAP1 DUP2 MSTORE RETURN JUMPDEST POP CALLVALUE PUSH2 0x179 JUMPI PUSH1 0x20 CALLDATASIZE PUSH1 0x3 NOT ADD SLT PUSH2 0x179 JUMPI PUSH2 0x24A0 PUSH2 0x45B8 JUMP JUMPDEST PUSH1 0x4 CALLDATALOAD PUSH1 0x3 SSTORE DUP1 RETURN JUMPDEST POP CALLVALUE PUSH2 0x179 JUMPI PUSH1 0x20 CALLDATASIZE PUSH1 0x3 NOT ADD SLT PUSH2 0x179 JUMPI PUSH2 0x24C3 PUSH2 0x41B8 JUMP JUMPDEST PUSH1 0x1 PUSH1 0x1 PUSH1 0xA0 SHL SUB DUP1 DUP3 AND PUSH1 0x0 DUP2 DUP2 MSTORE PUSH1 0xC PUSH1 0x20 MSTORE PUSH1 0x40 SWAP1 KECCAK256 SLOAD SWAP1 SWAP2 AND SUB PUSH2 0x25B5 JUMPI PUSH1 0x1 PUSH1 0x1 PUSH1 0xA0 SHL SUB AND DUP2 MSTORE PUSH1 0xC PUSH1 0x20 MSTORE PUSH1 0x40 DUP1 DUP3 KECCAK256 SWAP1 MLOAD SWAP1 PUSH1 0x1 SWAP1 PUSH2 0x2509 DUP4 PUSH2 0x40F9 JUMP JUMPDEST DUP2 DUP1 PUSH1 0xA0 SHL SUB DUP2 SLOAD AND DUP4 MSTORE ADD SWAP1 PUSH1 0x40 MLOAD SWAP1 DUP2 PUSH1 0x20 DUP5 SLOAD SWAP2 DUP3 DUP2 MSTORE ADD SWAP1 DUP2 SWAP5 DUP7 MSTORE PUSH1 0x20 DUP7 KECCAK256 SWAP1 DUP7 JUMPDEST DUP2 DUP2 LT PUSH2 0x2596 JUMPI DUP8 DUP7 DUP9 DUP2 PUSH1 0x20 DUP10 PUSH2 0x254A DUP4 DUP12 SUB DUP5 PUSH2 0x4114 JUMP JUMPDEST ADD MSTORE PUSH1 0x40 MLOAD SWAP3 DUP4 SWAP3 PUSH1 0x20 DUP5 ADD SWAP1 PUSH1 0x20 DUP6 MSTORE MLOAD DUP1 SWAP2 MSTORE PUSH1 0x40 DUP5 ADD SWAP3 SWAP2 JUMPDEST DUP2 DUP2 LT PUSH2 0x2574 JUMPI POP POP POP SUB SWAP1 RETURN JUMPDEST DUP3 MLOAD PUSH1 0x1 PUSH1 0x1 PUSH1 0xA0 SHL SUB AND DUP5 MSTORE DUP6 SWAP5 POP PUSH1 0x20 SWAP4 DUP5 ADD SWAP4 SWAP1 SWAP3 ADD SWAP2 PUSH1 0x1 ADD PUSH2 0x2566 JUMP JUMPDEST DUP3 SLOAD PUSH1 0x1 PUSH1 0x1 PUSH1 0xA0 SHL SUB AND DUP5 MSTORE PUSH1 0x20 SWAP1 SWAP4 ADD SWAP3 PUSH1 0x1 SWAP3 DUP4 ADD SWAP3 ADD PUSH2 0x2530 JUMP JUMPDEST PUSH1 0x40 MLOAD PUSH3 0x461BCD PUSH1 0xE5 SHL DUP2 MSTORE PUSH1 0x20 PUSH1 0x4 DUP3 ADD MSTORE PUSH1 0x1C PUSH1 0x24 DUP3 ADD MSTORE PUSH32 0x557365722050726F66696C6520646F7365206E6F742065786973742E00000000 PUSH1 0x44 DUP3 ADD MSTORE PUSH1 0x64 SWAP1 REVERT JUMPDEST POP CALLVALUE PUSH2 0x179 JUMPI PUSH1 0x80 CALLDATASIZE PUSH1 0x3 NOT ADD SLT PUSH2 0x179 JUMPI PUSH1 0x40 MLOAD PUSH2 0x2618 DUP2 PUSH2 0x4090 JUMP JUMPDEST PUSH1 0x4 CALLDATALOAD DUP2 MSTORE PUSH2 0x2625 PUSH2 0x41A2 JUMP JUMPDEST PUSH1 0x20 DUP3 ADD SWAP1 DUP2 MSTORE PUSH1 0x44 CALLDATALOAD SWAP1 PUSH4 0xFFFFFFFF DUP3 AND DUP3 SUB PUSH2 0x68A JUMPI PUSH1 0x40 DUP4 ADD SWAP2 DUP3 MSTORE PUSH1 0x60 DUP4 ADD SWAP3 PUSH1 0x64 CALLDATALOAD DUP5 MSTORE PUSH2 0x2656 PUSH2 0x45B8 JUMP JUMPDEST MLOAD PUSH1 0x9 SSTORE MLOAD PUSH1 0xA DUP1 SLOAD SWAP3 MLOAD PUSH4 0xFFFFFFFF PUSH1 0xA0 SHL PUSH1 0xA0 SWAP2 SWAP1 SWAP2 SHL AND PUSH1 0x1 PUSH1 0x1 PUSH1 0xA0 SHL SUB SWAP1 SWAP3 AND PUSH1 0x1 PUSH1 0x1 PUSH1 0xC0 SHL SUB NOT SWAP1 SWAP4 AND SWAP3 SWAP1 SWAP3 OR OR SWAP1 SSTORE MLOAD PUSH1 0xB SSTORE DUP1 RETURN JUMPDEST POP CALLVALUE PUSH2 0x179 JUMPI PUSH1 0x40 CALLDATASIZE PUSH1 0x3 NOT ADD SLT PUSH2 0x179 JUMPI PUSH2 0x26AF PUSH2 0x41A2 JUMP JUMPDEST PUSH1 0x1 PUSH1 0x1 PUSH1 0xA0 SHL SUB DUP2 AND DUP1 DUP4 MSTORE PUSH1 0xE PUSH1 0x20 MSTORE PUSH1 0x40 DUP4 KECCAK256 PUSH1 0x17 ADD SLOAD SWAP1 SWAP2 SWAP1 PUSH2 0x26D8 SWAP1 PUSH1 0xFF AND PUSH2 0x44F5 JUMP JUMPDEST PUSH1 0x1 SLOAD PUSH1 0x2 SLOAD PUSH1 0x40 MLOAD PUSH4 0x1083F761 PUSH1 0xE0 SHL DUP2 MSTORE PUSH1 0x1 PUSH1 0x1 PUSH1 0xA0 SHL SUB SWAP2 DUP3 AND SWAP3 SWAP1 SWAP2 AND SWAP1 PUSH1 0x20 DUP2 PUSH1 0x4 DUP2 DUP7 GAS STATICCALL DUP1 ISZERO PUSH2 0x1BAC JUMPI PUSH2 0x274E SWAP3 PUSH1 0x20 SWAP3 DUP9 SWAP3 PUSH2 0x29D9 JUMPI JUMPDEST POP PUSH1 0x40 MLOAD PUSH4 0xE6A43905 PUSH1 0xE0 SHL DUP2 MSTORE PUSH1 0x1 PUSH1 0x1 PUSH1 0xA0 SHL SUB DUP1 DUP9 AND PUSH1 0x4 DUP4 ADD MSTORE SWAP1 SWAP3 AND PUSH1 0x24 DUP4 ADD MSTORE SWAP1 SWAP3 DUP4 SWAP2 SWAP1 DUP3 SWAP1 DUP2 SWAP1 PUSH1 0x44 DUP3 ADD SWAP1 JUMP JUMPDEST SUB SWAP2 GAS STATICCALL SWAP1 DUP2 ISZERO PUSH2 0xE15 JUMPI DUP6 SWAP2 PUSH2 0x29BA JUMPI JUMPDEST POP PUSH1 0x1 PUSH1 0x1 PUSH1 0xA0 SHL SUB AND DUP1 ISZERO PUSH2 0xDD7 JUMPI PUSH1 0x4 SWAP2 PUSH1 0x40 DUP7 SWAP3 DUP2 MLOAD SWAP5 DUP6 DUP1 SWAP3 PUSH4 0x240BC6B PUSH1 0xE2 SHL DUP3 MSTORE GAS STATICCALL SWAP4 DUP5 ISZERO PUSH2 0xD88 JUMPI DUP3 SWAP4 DUP4 SWAP6 PUSH2 0x298D JUMPI JUMPDEST POP PUSH1 0x40 DUP1 MLOAD PUSH4 0x6F08E177 PUSH1 0xE0 SHL DUP2 MSTORE PUSH1 0x4 DUP1 CALLDATALOAD SWAP1 DUP3 ADD MSTORE PUSH1 0x1 PUSH1 0x1 PUSH1 0xA0 SHL SUB SWAP1 SWAP3 AND PUSH1 0x24 DUP4 ADD MSTORE CALLER PUSH1 0x44 DUP4 ADD MSTORE SWAP1 SWAP3 SWAP1 SWAP2 DUP4 SWAP2 DUP3 SWAP1 DUP2 PUSH1 0x64 DUP2 ADD JUMPDEST SUB SWAP3 GAS CALL SWAP2 DUP3 ISZERO PUSH2 0xE15 JUMPI DUP6 SWAP2 DUP7 SWAP4 PUSH2 0x2962 JUMPI JUMPDEST POP PUSH2 0x27F7 PUSH2 0x27FD SWAP3 DUP5 SWAP3 PUSH2 0x4535 JUMP JUMPDEST SWAP4 PUSH2 0x43DB JUMP JUMPDEST SWAP2 DUP4 DUP6 MSTORE PUSH1 0xE PUSH1 0x20 MSTORE PUSH2 0x2817 PUSH1 0xF PUSH1 0x40 DUP8 KECCAK256 ADD SLOAD TIMESTAMP PUSH2 0x43DB JUMP JUMPDEST SWAP2 DUP4 PUSH1 0x1 SHL SWAP4 DUP1 DUP6 DIV PUSH1 0x2 EQ DUP2 ISZERO OR ISZERO PUSH2 0x294E JUMPI SWAP1 PUSH3 0x15180 PUSH2 0x285A DUP4 PUSH2 0x2854 DUP7 PUSH2 0x14E3 PUSH2 0x28C3 SWAP8 PUSH1 0x8 PUSH1 0x40 DUP16 DUP16 DUP2 MSTORE PUSH1 0xE PUSH1 0x20 MSTORE KECCAK256 ADD SLOAD PUSH2 0x443C JUMP JUMPDEST SWAP6 PUSH2 0x444F JUMP JUMPDEST SWAP5 GT SWAP5 DUP6 ISZERO PUSH2 0x292F JUMPI DUP2 SWAP4 JUMPDEST DUP7 ISZERO PUSH2 0x2919 JUMPI DUP8 DUP10 MSTORE PUSH1 0xE PUSH1 0x20 MSTORE PUSH1 0x9 PUSH1 0x40 DUP11 KECCAK256 ADD SLOAD SWAP6 JUMPDEST DUP9 DUP11 MSTORE PUSH1 0xE PUSH1 0x20 MSTORE PUSH1 0x9 PUSH1 0x40 DUP12 KECCAK256 ADD SSTORE DUP8 DUP10 MSTORE PUSH1 0xE PUSH1 0x20 MSTORE PUSH1 0xA PUSH1 0x40 DUP11 KECCAK256 ADD SSTORE DUP7 DUP9 MSTORE PUSH1 0xE PUSH1 0x20 MSTORE PUSH1 0xB PUSH1 0x40 DUP10 KECCAK256 ADD SSTORE DUP6 DUP8 MSTORE PUSH1 0xE PUSH1 0x20 MSTORE PUSH1 0xC PUSH1 0x40 DUP9 KECCAK256 ADD SLOAD PUSH2 0x4535 JUMP JUMPDEST DUP5 DUP7 MSTORE PUSH1 0xE PUSH1 0x20 MSTORE PUSH1 0xC PUSH1 0x40 DUP8 KECCAK256 ADD SSTORE DUP4 DUP6 MSTORE PUSH1 0xE PUSH1 0x20 MSTORE PUSH1 0xD PUSH1 0x40 DUP7 KECCAK256 ADD SSTORE DUP3 DUP5 MSTORE PUSH1 0xE PUSH1 0x20 MSTORE PUSH1 0xE PUSH1 0x40 DUP6 KECCAK256 ADD SSTORE PUSH2 0x2902 JUMPI PUSH1 0x20 PUSH1 0x40 MLOAD PUSH1 0x1 DUP2 MSTORE RETURN JUMPDEST DUP2 MSTORE PUSH1 0xE PUSH1 0x20 MSTORE PUSH1 0xF PUSH1 0x40 TIMESTAMP SWAP3 KECCAK256 ADD SSTORE CODESIZE DUP1 PUSH2 0x159D JUMP JUMPDEST DUP8 DUP10 MSTORE PUSH1 0xE PUSH1 0x20 MSTORE PUSH1 0xE PUSH1 0x40 DUP11 KECCAK256 ADD SLOAD SWAP6 PUSH2 0x287E JUMP JUMPDEST DUP7 DUP9 MSTORE PUSH1 0xE PUSH1 0x20 MSTORE PUSH2 0x2948 DUP3 PUSH1 0xD PUSH1 0x40 DUP12 KECCAK256 ADD SLOAD PUSH2 0x4535 JUMP JUMPDEST SWAP4 PUSH2 0x2866 JUMP JUMPDEST PUSH4 0x4E487B71 PUSH1 0xE0 SHL DUP8 MSTORE PUSH1 0x11 PUSH1 0x4 MSTORE PUSH1 0x24 DUP8 REVERT JUMPDEST PUSH2 0x27F7 SWAP4 POP PUSH2 0x27FD SWAP3 POP PUSH2 0x2984 SWAP1 PUSH1 0x40 RETURNDATASIZE PUSH1 0x40 GT PUSH2 0x2302 JUMPI PUSH2 0x22EF DUP2 DUP4 PUSH2 0x4114 JUMP JUMPDEST SWAP4 SWAP1 SWAP3 POP PUSH2 0x27E8 JUMP JUMPDEST PUSH2 0x27D4 SWAP2 SWAP6 POP PUSH1 0x40 SWAP3 SWAP5 POP PUSH2 0x29AE SWAP1 DUP4 RETURNDATASIZE DUP6 GT PUSH2 0x2302 JUMPI PUSH2 0x22EF DUP2 DUP4 PUSH2 0x4114 JUMP JUMPDEST SWAP5 SWAP1 SWAP5 SWAP6 SWAP2 POP SWAP2 PUSH2 0x2799 JUMP JUMPDEST PUSH2 0x29D3 SWAP2 POP PUSH1 0x20 RETURNDATASIZE PUSH1 0x20 GT PUSH2 0xE0E JUMPI PUSH2 0xE00 DUP2 DUP4 PUSH2 0x4114 JUMP JUMPDEST CODESIZE PUSH2 0x2760 JUMP JUMPDEST PUSH2 0x29F1 SWAP2 SWAP3 POP DUP4 RETURNDATASIZE DUP6 GT PUSH2 0xE0E JUMPI PUSH2 0xE00 DUP2 DUP4 PUSH2 0x4114 JUMP JUMPDEST SWAP1 CODESIZE PUSH2 0x2718 JUMP JUMPDEST POP CALLVALUE PUSH2 0x179 JUMPI PUSH1 0xE0 CALLDATASIZE PUSH1 0x3 NOT ADD SLT PUSH2 0x179 JUMPI PUSH1 0x4 CALLDATALOAD PUSH1 0x1 PUSH1 0x1 PUSH1 0x40 SHL SUB DUP2 GT PUSH2 0x404B JUMPI PUSH2 0x2A29 SWAP1 CALLDATASIZE SWAP1 PUSH1 0x4 ADD PUSH2 0x4135 JUMP JUMPDEST PUSH1 0x24 CALLDATALOAD PUSH1 0x1 PUSH1 0x1 PUSH1 0x40 SHL SUB DUP2 GT PUSH2 0x12FE JUMPI PUSH2 0x2A48 SWAP1 CALLDATASIZE SWAP1 PUSH1 0x4 ADD PUSH2 0x4135 JUMP JUMPDEST SWAP1 PUSH1 0x44 CALLDATALOAD PUSH1 0x1 PUSH1 0x1 PUSH1 0x40 SHL SUB DUP2 GT PUSH2 0x68A JUMPI CALLDATASIZE PUSH1 0x23 DUP3 ADD SLT ISZERO PUSH2 0x68A JUMPI DUP1 PUSH1 0x4 ADD CALLDATALOAD PUSH2 0x2A73 DUP2 PUSH2 0x418B JUMP JUMPDEST SWAP2 PUSH2 0x2A81 PUSH1 0x40 MLOAD SWAP4 DUP5 PUSH2 0x4114 JUMP JUMPDEST DUP2 DUP4 MSTORE PUSH1 0x24 PUSH1 0x20 DUP5 ADD SWAP3 PUSH1 0x5 SHL DUP3 ADD ADD SWAP1 CALLDATASIZE DUP3 GT PUSH2 0x12FA JUMPI PUSH1 0x24 ADD SWAP2 JUMPDEST DUP2 DUP4 LT PUSH2 0x4031 JUMPI POP POP POP PUSH1 0x64 CALLDATALOAD PUSH1 0x1 PUSH1 0x1 PUSH1 0x40 SHL SUB DUP2 GT PUSH2 0x21BB JUMPI PUSH2 0x2AC7 SWAP1 CALLDATASIZE SWAP1 PUSH1 0x4 ADD PUSH2 0x4135 JUMP JUMPDEST PUSH1 0x84 CALLDATALOAD PUSH1 0x1 PUSH1 0x1 PUSH1 0x40 SHL SUB DUP2 GT PUSH2 0x686 JUMPI PUSH2 0x2AE6 SWAP1 CALLDATASIZE SWAP1 PUSH1 0x4 ADD PUSH2 0x4135 JUMP JUMPDEST SWAP1 PUSH1 0xA4 CALLDATALOAD SWAP3 PUSH1 0x1 PUSH1 0x1 PUSH1 0x40 SHL SUB DUP5 GT PUSH2 0x12FA JUMPI CALLDATASIZE PUSH1 0x23 DUP6 ADD SLT ISZERO PUSH2 0x12FA JUMPI PUSH1 0x40 MLOAD SWAP4 PUSH2 0x2B11 DUP6 PUSH2 0x4090 JUMP JUMPDEST PUSH1 0x84 DUP2 ADD DUP6 CALLDATASIZE DUP3 GT PUSH2 0x402D JUMPI DUP3 PUSH1 0x4 ADD SWAP1 JUMPDEST DUP3 DUP3 LT PUSH2 0x3FFA JUMPI POP POP POP POP PUSH1 0xC4 CALLDATALOAD SWAP4 PUSH1 0x2 PUSH1 0x0 DUP1 MLOAD PUSH1 0x20 PUSH2 0x582D DUP4 CODECOPY DUP2 MLOAD SWAP2 MSTORE SLOAD EQ PUSH2 0x3FEB JUMPI PUSH1 0x2 PUSH1 0x0 DUP1 MLOAD PUSH1 0x20 PUSH2 0x582D DUP4 CODECOPY DUP2 MLOAD SWAP2 MSTORE SSTORE PUSH1 0x4 SLOAD SWAP4 DUP5 DUP7 GT ISZERO PUSH2 0x3F95 JUMPI PUSH1 0x2 SLOAD PUSH1 0x40 MLOAD PUSH4 0x1083F761 PUSH1 0xE0 SHL DUP2 MSTORE SWAP7 SWAP1 PUSH1 0x20 SWAP1 DUP9 SWAP1 PUSH1 0x4 SWAP1 DUP3 SWAP1 PUSH1 0x1 PUSH1 0x1 PUSH1 0xA0 SHL SUB AND GAS STATICCALL SWAP7 DUP8 ISZERO PUSH2 0x3F8A JUMPI DUP11 SWAP8 PUSH2 0x3F69 JUMPI JUMPDEST POP PUSH1 0x40 MLOAD PUSH4 0x70A08231 PUSH1 0xE0 SHL DUP2 MSTORE CALLER PUSH1 0x4 DUP3 ADD MSTORE PUSH1 0x20 DUP2 PUSH1 0x24 DUP2 PUSH1 0x1 PUSH1 0x1 PUSH1 0xA0 SHL SUB DUP13 AND GAS STATICCALL DUP1 ISZERO PUSH2 0x3ECF JUMPI DUP3 SWAP2 DUP13 SWAP2 PUSH2 0x3F34 JUMPI JUMPDEST POP LT PUSH2 0x3EF9 JUMPI PUSH2 0x2BE4 DUP7 PUSH2 0x2BFE SWAP3 PUSH2 0x43DB JUMP JUMPDEST DUP11 SLOAD SWAP1 SWAP7 SWAP1 PUSH1 0x1 PUSH1 0x1 PUSH1 0xA0 SHL SUB SWAP1 DUP2 AND SWAP1 CALLER SWAP1 DUP11 AND PUSH2 0x45EE JUMP JUMPDEST PUSH2 0x2C13 DUP6 ADDRESS CALLER PUSH1 0x1 PUSH1 0x1 PUSH1 0xA0 SHL SUB DUP11 AND PUSH2 0x45EE JUMP JUMPDEST PUSH2 0x2C1C DUP8 PUSH2 0x43FE JUMP JUMPDEST PUSH1 0x3 SLOAD PUSH1 0x7 SLOAD PUSH1 0x40 MLOAD SWAP3 PUSH2 0x104E SWAP1 DUP2 DUP6 ADD SWAP2 DUP6 DUP4 LT PUSH1 0x1 PUSH1 0x1 PUSH1 0x40 SHL SUB DUP5 GT OR PUSH2 0x3EE5 JUMPI SWAP2 PUSH2 0x2C70 DUP15 PUSH2 0x2C62 PUSH1 0x60 SWAP5 DUP10 SWAP9 SWAP8 SWAP7 PUSH2 0x47BF DUP11 CODECOPY PUSH1 0x80 DUP6 MSTORE PUSH1 0x80 DUP6 ADD SWAP1 PUSH2 0x4397 JUMP JUMPDEST SWAP1 DUP4 DUP3 SUB PUSH1 0x20 DUP6 ADD MSTORE PUSH2 0x4397 JUMP JUMPDEST SWAP4 PUSH1 0x40 DUP3 ADD MSTORE ADD MSTORE SUB SWAP1 DUP11 CREATE SWAP8 DUP9 ISZERO PUSH2 0x3EDA JUMPI PUSH1 0x40 MLOAD PUSH4 0x18160DDD PUSH1 0xE0 SHL DUP2 MSTORE SWAP8 PUSH1 0x20 DUP10 PUSH1 0x4 DUP2 PUSH1 0x1 PUSH1 0x1 PUSH1 0xA0 SHL SUB DUP15 AND GAS STATICCALL SWAP2 DUP3 ISZERO PUSH2 0x3ECF JUMPI DUP11 SWAP10 DUP13 SWAP4 PUSH2 0x3E94 JUMPI JUMPDEST POP PUSH1 0x1 SLOAD PUSH1 0x40 MLOAD PUSH4 0x64E329CB PUSH1 0xE1 SHL DUP2 MSTORE PUSH1 0x1 PUSH1 0x1 PUSH1 0xA0 SHL SUB SWAP13 DUP14 AND PUSH1 0x4 DUP3 ADD MSTORE DUP11 DUP14 AND PUSH1 0x24 DUP3 ADD MSTORE SWAP12 AND DUP12 PUSH1 0x44 DUP2 DUP16 GAS SWAP5 PUSH1 0x20 SWAP6 CALL SWAP11 DUP12 ISZERO PUSH2 0x3E89 JUMPI DUP13 SWAP12 PUSH2 0x3E68 JUMPI JUMPDEST POP PUSH1 0x2 SLOAD PUSH2 0x2D14 SWAP1 DUP5 SWAP1 PUSH1 0x1 PUSH1 0x1 PUSH1 0xA0 SHL SUB SWAP1 DUP2 AND SWAP1 DUP14 AND PUSH2 0x4637 JUMP JUMPDEST PUSH1 0x5 SLOAD DUP1 ISZERO PUSH2 0x3E54 JUMPI PUSH7 0x6A94D74F430000 DIV PUSH10 0x21E19E0C9BAB2400000 DUP2 MUL SWAP1 DUP1 DUP3 DIV PUSH10 0x21E19E0C9BAB2400000 EQ SWAP1 ISZERO OR ISZERO PUSH2 0x3E40 JUMPI DUP4 PUSH2 0x2D55 SWAP2 PUSH2 0x444F JUMP JUMPDEST PUSH8 0xDE0B6B3A7640000 DUP2 MUL SWAP1 DUP1 DUP3 DIV PUSH8 0xDE0B6B3A7640000 EQ SWAP1 ISZERO OR ISZERO PUSH2 0x3E40 JUMPI PUSH2 0x2710 SWAP1 DIV SWAP1 DUP13 PUSH1 0x40 DUP13 PUSH1 0x64 PUSH1 0x1 DUP1 PUSH1 0xA0 SHL SUB PUSH1 0x2 SLOAD AND SWAP2 DUP4 MLOAD SWAP5 DUP6 SWAP4 DUP5 SWAP3 PUSH4 0x1746FFA7 PUSH1 0xE3 SHL DUP5 MSTORE PUSH1 0x1 DUP1 PUSH1 0xA0 SHL SUB AND PUSH1 0x4 DUP5 ADD MSTORE DUP11 PUSH1 0x24 DUP5 ADD MSTORE DUP9 PUSH1 0x44 DUP5 ADD MSTORE GAS CALL DUP1 ISZERO PUSH2 0x3E33 JUMPI PUSH2 0x3E15 JUMPI JUMPDEST POP PUSH2 0x2DCF DUP4 PUSH2 0x43FE JUMP JUMPDEST SWAP4 PUSH2 0x2DDA DUP4 DUP3 PUSH2 0x444F JUMP JUMPDEST SWAP2 DUP4 PUSH1 0x1 SHL SWAP5 DUP5 DUP7 DIV PUSH1 0x2 EQ DUP6 ISZERO OR ISZERO PUSH2 0x3E00 JUMPI SWAP4 DUP16 SWAP8 SWAP4 DUP16 SWAP8 SWAP4 DUP16 SWAP12 SWAP8 SWAP4 DUP13 SWAP12 SWAP8 PUSH2 0x2E06 DUP6 DUP5 PUSH2 0x444F JUMP JUMPDEST SWAP7 PUSH1 0x20 PUSH1 0x40 MLOAD SWAP15 DUP16 SWAP1 PUSH2 0x2E18 DUP3 PUSH2 0x40C1 JUMP JUMPDEST PUSH1 0x1 DUP1 PUSH1 0xA0 SHL SUB AND DUP2 MSTORE ADD MSTORE PUSH1 0x40 DUP14 ADD MSTORE PUSH1 0x60 DUP13 ADD MSTORE PUSH1 0x80 DUP12 ADD MSTORE PUSH1 0xA0 DUP11 ADD MSTORE PUSH1 0xC0 DUP10 ADD MSTORE PUSH1 0xE0 DUP9 ADD MSTORE DUP6 PUSH2 0x100 DUP9 ADD MSTORE DUP6 PUSH2 0x120 DUP9 ADD MSTORE PUSH2 0x140 DUP8 ADD MSTORE TIMESTAMP PUSH2 0x160 DUP8 ADD MSTORE DUP2 MLOAD PUSH1 0x20 DUP4 ADD MLOAD SWAP2 PUSH1 0x60 PUSH1 0x40 DUP6 ADD MLOAD SWAP5 ADD MLOAD SWAP5 PUSH1 0x40 MLOAD SWAP11 PUSH2 0x2E7D DUP13 PUSH2 0x40DD JUMP JUMPDEST CALLER DUP13 MSTORE PUSH1 0x1 PUSH1 0x1 PUSH1 0xA0 SHL SUB SWAP11 DUP12 AND PUSH1 0x20 DUP1 DUP15 ADD SWAP2 DUP3 MSTORE SWAP9 DUP13 AND PUSH1 0x40 DUP1 DUP16 ADD SWAP2 DUP3 MSTORE PUSH1 0x60 DUP16 ADD SWAP12 DUP13 MSTORE PUSH1 0x80 DUP16 ADD SWAP13 DUP14 MSTORE PUSH1 0xA0 DUP16 ADD SWAP4 SWAP1 SWAP4 MSTORE PUSH1 0xC0 DUP15 ADD SWAP4 SWAP1 SWAP4 MSTORE PUSH1 0xE0 DUP14 ADD SWAP4 SWAP1 SWAP4 MSTORE PUSH2 0x100 DUP13 ADD SWAP4 SWAP1 SWAP4 MSTORE PUSH2 0x120 DUP12 ADD SWAP4 SWAP1 SWAP4 MSTORE PUSH2 0x140 DUP11 ADD SWAP4 SWAP1 SWAP4 MSTORE PUSH2 0x160 DUP10 ADD SWAP4 SWAP1 SWAP4 MSTORE PUSH1 0x1 PUSH2 0x180 DUP10 ADD DUP2 SWAP1 MSTORE PUSH2 0x1A0 DUP10 ADD DUP15 SWAP1 MSTORE DUP12 DUP9 AND DUP15 MSTORE PUSH1 0xE DUP6 MSTORE SWAP3 DUP14 KECCAK256 DUP9 MLOAD DUP2 SLOAD PUSH1 0x1 PUSH1 0x1 PUSH1 0xA0 SHL SUB NOT SWAP1 DUP2 AND SWAP2 DUP11 AND SWAP2 SWAP1 SWAP2 OR DUP3 SSTORE SWAP3 MLOAD SWAP4 DUP2 ADD DUP1 SLOAD DUP5 AND SWAP5 DUP10 AND SWAP5 SWAP1 SWAP5 OR SWAP1 SWAP4 SSTORE MLOAD PUSH1 0x2 DUP4 ADD DUP1 SLOAD DUP4 AND SWAP2 DUP9 AND SWAP2 SWAP1 SWAP2 OR SWAP1 SSTORE SWAP3 MLOAD PUSH1 0x3 DUP3 ADD DUP1 SLOAD DUP6 AND SWAP2 DUP8 AND SWAP2 SWAP1 SWAP2 OR SWAP1 SSTORE SWAP3 MLOAD DUP1 MLOAD PUSH1 0x4 DUP6 ADD DUP1 SLOAD SWAP1 SWAP5 AND SWAP6 AND SWAP5 SWAP1 SWAP5 OR SWAP1 SWAP2 SSTORE DUP3 ADD MLOAD DUP1 MLOAD SWAP2 SWAP3 SWAP2 SWAP1 PUSH1 0x1 PUSH1 0x1 PUSH1 0x40 SHL SUB DUP3 GT PUSH2 0x37E5 JUMPI DUP2 SWAP1 PUSH2 0x2F93 PUSH1 0x5 DUP7 ADD SLOAD PUSH2 0x41FC JUMP JUMPDEST PUSH1 0x1F DUP2 GT PUSH2 0x3DCD JUMPI JUMPDEST POP PUSH1 0x20 SWAP1 PUSH1 0x1F DUP4 GT PUSH1 0x1 EQ PUSH2 0x3D64 JUMPI DUP12 SWAP3 PUSH2 0x3D59 JUMPI JUMPDEST POP POP DUP2 PUSH1 0x1 SHL SWAP2 PUSH1 0x0 NOT SWAP1 PUSH1 0x3 SHL SHR NOT AND OR PUSH1 0x5 DUP4 ADD SSTORE JUMPDEST PUSH1 0x40 DUP2 ADD MLOAD DUP1 MLOAD SWAP1 PUSH1 0x1 PUSH1 0x1 PUSH1 0x40 SHL SUB DUP3 GT PUSH2 0x37E5 JUMPI DUP2 SWAP1 PUSH2 0x2FEF PUSH1 0x6 DUP7 ADD SLOAD PUSH2 0x41FC JUMP JUMPDEST PUSH1 0x1F DUP2 GT PUSH2 0x3D26 JUMPI JUMPDEST POP PUSH1 0x20 SWAP1 PUSH1 0x1F DUP4 GT PUSH1 0x1 EQ PUSH2 0x3CBD JUMPI DUP12 SWAP3 PUSH2 0x3CB2 JUMPI JUMPDEST POP POP DUP2 PUSH1 0x1 SHL SWAP2 PUSH1 0x0 NOT SWAP1 PUSH1 0x3 SHL SHR NOT AND OR PUSH1 0x6 DUP4 ADD SSTORE JUMPDEST PUSH1 0x60 DUP2 ADD MLOAD DUP1 MLOAD SWAP1 PUSH1 0x1 PUSH1 0x1 PUSH1 0x40 SHL SUB DUP3 GT PUSH2 0x37E5 JUMPI PUSH2 0x3049 PUSH1 0x7 DUP6 ADD SLOAD PUSH2 0x41FC JUMP JUMPDEST PUSH1 0x1F DUP2 GT PUSH2 0x3C7F JUMPI JUMPDEST POP PUSH1 0x20 SWAP1 PUSH1 0x1F DUP4 GT PUSH1 0x1 EQ PUSH2 0x3C12 JUMPI PUSH2 0x160 SWAP4 SWAP3 SWAP2 DUP12 SWAP2 DUP4 PUSH2 0x3C07 JUMPI JUMPDEST POP POP DUP2 PUSH1 0x1 SHL SWAP2 PUSH1 0x0 NOT SWAP1 PUSH1 0x3 SHL SHR NOT AND OR PUSH1 0x7 DUP5 ADD SSTORE JUMPDEST PUSH1 0x80 DUP2 ADD MLOAD PUSH1 0x8 DUP5 ADD SSTORE PUSH1 0xA0 DUP2 ADD MLOAD PUSH1 0x9 DUP5 ADD SSTORE PUSH1 0xC0 DUP2 ADD MLOAD PUSH1 0xA DUP5 ADD SSTORE PUSH1 0xE0 DUP2 ADD MLOAD PUSH1 0xB DUP5 ADD SSTORE PUSH2 0x100 DUP2 ADD MLOAD PUSH1 0xC DUP5 ADD SSTORE PUSH2 0x120 DUP2 ADD MLOAD PUSH1 0xD DUP5 ADD SSTORE PUSH2 0x140 DUP2 ADD MLOAD PUSH1 0xE DUP5 ADD SSTORE ADD MLOAD PUSH1 0xF DUP3 ADD SSTORE PUSH1 0xA0 DUP3 ADD MLOAD DUP1 MLOAD SWAP1 PUSH1 0x1 PUSH1 0x1 PUSH1 0x40 SHL SUB DUP3 GT PUSH2 0x3B4C JUMPI DUP2 SWAP1 PUSH2 0x30FC PUSH1 0x10 DUP6 ADD SLOAD PUSH2 0x41FC JUMP JUMPDEST PUSH1 0x1F DUP2 GT PUSH2 0x3BD4 JUMPI JUMPDEST POP PUSH1 0x20 SWAP1 PUSH1 0x1F DUP4 GT PUSH1 0x1 EQ PUSH2 0x3B6B JUMPI DUP11 SWAP3 PUSH2 0x3B60 JUMPI JUMPDEST POP POP DUP2 PUSH1 0x1 SHL SWAP2 PUSH1 0x0 NOT SWAP1 PUSH1 0x3 SHL SHR NOT AND OR PUSH1 0x10 DUP3 ADD SSTORE JUMPDEST PUSH1 0xC0 DUP3 ADD MLOAD DUP1 MLOAD SWAP1 PUSH1 0x1 PUSH1 0x1 PUSH1 0x40 SHL SUB DUP3 GT PUSH2 0x3B4C JUMPI PUSH1 0x1 PUSH1 0x40 SHL DUP3 GT PUSH2 0x3B4C JUMPI PUSH1 0x20 SWAP1 PUSH1 0x11 DUP5 ADD SLOAD DUP4 PUSH1 0x11 DUP7 ADD SSTORE DUP1 DUP5 LT PUSH2 0x3AFD JUMPI JUMPDEST POP ADD SWAP1 PUSH1 0x11 DUP4 ADD DUP10 MSTORE PUSH1 0x20 DUP10 KECCAK256 SWAP1 DUP10 JUMPDEST DUP2 PUSH1 0x5 SHR DUP2 LT PUSH2 0x3ABE JUMPI POP PUSH1 0x1F NOT DUP2 AND DUP2 SUB DUP1 PUSH2 0x3A71 JUMPI JUMPDEST POP POP POP POP PUSH1 0x12 DUP2 ADD PUSH1 0xE0 DUP4 ADD MLOAD DUP1 MLOAD SWAP1 PUSH1 0x1 PUSH1 0x1 PUSH1 0x40 SHL SUB DUP3 GT PUSH2 0x37E5 JUMPI DUP2 SWAP1 PUSH2 0x31BC DUP5 SLOAD PUSH2 0x41FC JUMP JUMPDEST PUSH1 0x1F DUP2 GT PUSH2 0x3A41 JUMPI JUMPDEST POP PUSH1 0x20 SWAP1 PUSH1 0x1F DUP4 GT PUSH1 0x1 EQ PUSH2 0x39DE JUMPI DUP12 SWAP3 PUSH2 0x39D3 JUMPI JUMPDEST POP POP DUP2 PUSH1 0x1 SHL SWAP2 PUSH1 0x0 NOT SWAP1 PUSH1 0x3 SHL SHR NOT AND OR SWAP1 SSTORE JUMPDEST PUSH1 0x13 DUP2 ADD PUSH2 0x100 DUP4 ADD MLOAD DUP1 MLOAD SWAP1 PUSH1 0x1 PUSH1 0x1 PUSH1 0x40 SHL SUB DUP3 GT PUSH2 0x37E5 JUMPI DUP2 SWAP1 PUSH2 0x3217 DUP5 SLOAD PUSH2 0x41FC JUMP JUMPDEST PUSH1 0x1F DUP2 GT PUSH2 0x39A3 JUMPI JUMPDEST POP PUSH1 0x20 SWAP1 PUSH1 0x1F DUP4 GT PUSH1 0x1 EQ PUSH2 0x3940 JUMPI DUP12 SWAP3 PUSH2 0x3935 JUMPI JUMPDEST POP POP DUP2 PUSH1 0x1 SHL SWAP2 PUSH1 0x0 NOT SWAP1 PUSH1 0x3 SHL SHR NOT AND OR SWAP1 SSTORE JUMPDEST PUSH1 0x14 DUP2 ADD PUSH2 0x120 DUP4 ADD MLOAD DUP1 MLOAD SWAP1 PUSH1 0x1 PUSH1 0x1 PUSH1 0x40 SHL SUB DUP3 GT PUSH2 0x37E5 JUMPI DUP2 SWAP1 PUSH2 0x3272 DUP5 SLOAD PUSH2 0x41FC JUMP JUMPDEST PUSH1 0x1F DUP2 GT PUSH2 0x3905 JUMPI JUMPDEST POP PUSH1 0x20 SWAP1 PUSH1 0x1F DUP4 GT PUSH1 0x1 EQ PUSH2 0x38A2 JUMPI DUP12 SWAP3 PUSH2 0x3897 JUMPI JUMPDEST POP POP DUP2 PUSH1 0x1 SHL SWAP2 PUSH1 0x0 NOT SWAP1 PUSH1 0x3 SHL SHR NOT AND OR SWAP1 SSTORE JUMPDEST PUSH1 0x15 DUP2 ADD PUSH2 0x140 DUP4 ADD MLOAD DUP1 MLOAD SWAP1 PUSH1 0x1 PUSH1 0x1 PUSH1 0x40 SHL SUB DUP3 GT PUSH2 0x37E5 JUMPI DUP2 SWAP1 PUSH2 0x32CD DUP5 SLOAD PUSH2 0x41FC JUMP JUMPDEST PUSH1 0x1F DUP2 GT PUSH2 0x3867 JUMPI JUMPDEST POP PUSH1 0x20 SWAP1 PUSH1 0x1F DUP4 GT PUSH1 0x1 EQ PUSH2 0x3804 JUMPI DUP12 SWAP3 PUSH2 0x37F9 JUMPI JUMPDEST POP POP DUP2 PUSH1 0x1 SHL SWAP2 PUSH1 0x0 NOT SWAP1 PUSH1 0x3 SHL SHR NOT AND OR SWAP1 SSTORE JUMPDEST PUSH1 0x16 DUP2 ADD PUSH2 0x160 DUP4 ADD MLOAD DUP1 MLOAD SWAP1 PUSH1 0x1 PUSH1 0x1 PUSH1 0x40 SHL SUB DUP3 GT PUSH2 0x37E5 JUMPI PUSH2 0x3326 DUP4 SLOAD PUSH2 0x41FC JUMP JUMPDEST PUSH1 0x1F DUP2 GT PUSH2 0x37AA JUMPI JUMPDEST POP PUSH1 0x20 SWAP1 PUSH1 0x1F DUP4 GT PUSH1 0x1 EQ PUSH2 0x3740 JUMPI SWAP2 DUP1 PUSH1 0x17 SWAP5 SWAP3 PUSH2 0x1A0 SWAP7 SWAP5 DUP14 SWAP3 PUSH2 0x3735 JUMPI JUMPDEST POP POP DUP2 PUSH1 0x1 SHL SWAP2 PUSH1 0x0 NOT SWAP1 PUSH1 0x3 SHL SHR NOT AND OR SWAP1 SSTORE JUMPDEST PUSH2 0x180 DUP5 ADD MLOAD SWAP2 ADD DUP1 SLOAD SWAP3 SWAP1 SWAP4 ADD MLOAD PUSH2 0xFFFF NOT SWAP1 SWAP3 AND PUSH1 0xFF SWAP2 ISZERO ISZERO SWAP2 SWAP1 SWAP2 AND OR SWAP1 ISZERO ISZERO PUSH1 0x8 SHL PUSH2 0xFF00 AND OR SWAP1 SSTORE PUSH1 0xF SLOAD PUSH1 0x1 PUSH1 0x40 SHL DUP2 LT ISZERO PUSH2 0x36D6 JUMPI SWAP1 PUSH2 0x33B5 DUP3 PUSH1 0x1 DUP9 SWAP5 ADD PUSH1 0xF SSTORE PUSH1 0xF PUSH2 0x41CE JUMP JUMPDEST DUP2 SLOAD PUSH1 0x1 PUSH1 0x1 PUSH1 0xA0 SHL SUB PUSH1 0x3 SWAP3 SWAP1 SWAP3 SHL DUP3 DUP2 SHL NOT SWAP1 SWAP2 AND DUP8 DUP4 AND SWAP1 SWAP2 SHL OR SWAP1 SWAP2 SSTORE CALLER PUSH1 0x0 DUP2 DUP2 MSTORE PUSH1 0xC PUSH1 0x20 MSTORE PUSH1 0x40 SWAP1 KECCAK256 SLOAD SWAP1 SWAP2 AND SUB PUSH2 0x35E3 JUMPI PUSH2 0x34B0 PUSH1 0x40 SWAP2 CALLER DUP5 MSTORE PUSH1 0xC PUSH1 0x20 MSTORE PUSH2 0x3413 PUSH1 0x1 DUP1 PUSH1 0xA0 SHL SUB DUP8 AND PUSH1 0x1 DUP6 DUP8 KECCAK256 ADD PUSH2 0x449C JUMP JUMPDEST PUSH1 0xF SLOAD DUP4 MLOAD DUP2 DUP2 MSTORE SWAP1 SWAP6 PUSH2 0x346F SWAP2 DUP4 SWAP2 SWAP1 PUSH1 0x1 PUSH1 0x1 PUSH1 0xA0 SHL SUB DUP12 DUP2 AND SWAP2 SWAP1 DUP12 AND SWAP1 PUSH32 0x714AA39317AD9A7A7A99DB52B44490DA5D068A0B2710FFFB1A1282AD3CADAE1F SWAP1 PUSH1 0x20 SWAP1 LOG3 PUSH1 0x2 SLOAD PUSH1 0x1 PUSH1 0x1 PUSH1 0xA0 SHL SUB SWAP1 DUP2 AND SWAP2 AND PUSH2 0x4637 JUMP JUMPDEST PUSH1 0x2 SLOAD DUP4 MLOAD PUSH4 0x73A9C2C5 PUSH1 0xE1 SHL DUP2 MSTORE PUSH1 0x4 DUP2 ADD SWAP3 SWAP1 SWAP3 MSTORE PUSH1 0x1 PUSH1 0x1 PUSH1 0xA0 SHL SUB DUP8 DUP2 AND PUSH1 0x24 DUP5 ADD MSTORE ADDRESS PUSH1 0x44 DUP5 ADD MSTORE SWAP2 SWAP5 DUP6 SWAP4 SWAP2 SWAP1 SWAP3 AND SWAP2 DUP4 SWAP2 DUP3 SWAP1 PUSH1 0x64 DUP3 ADD SWAP1 JUMP JUMPDEST SUB SWAP3 GAS CALL DUP1 ISZERO PUSH2 0xE15 JUMPI PUSH2 0x35C5 JUMPI JUMPDEST POP PUSH1 0x40 MLOAD PUSH4 0x70A08231 PUSH1 0xE0 SHL DUP2 MSTORE ADDRESS PUSH1 0x4 DUP3 ADD MSTORE PUSH1 0x20 DUP2 PUSH1 0x24 DUP2 PUSH1 0x1 PUSH1 0x1 PUSH1 0xA0 SHL SUB DUP8 AND GAS STATICCALL SWAP1 DUP2 ISZERO PUSH2 0xE15 JUMPI DUP6 SWAP2 PUSH2 0x3592 JUMPI JUMPDEST POP PUSH1 0x40 MLOAD PUSH4 0xA9059CBB PUSH1 0xE0 SHL DUP2 MSTORE CALLER PUSH1 0x4 DUP3 ADD MSTORE PUSH1 0x24 DUP2 ADD SWAP2 SWAP1 SWAP2 MSTORE PUSH1 0x20 DUP2 PUSH1 0x44 DUP2 DUP9 PUSH1 0x1 PUSH1 0x1 PUSH1 0xA0 SHL SUB DUP9 AND GAS CALL DUP1 ISZERO PUSH2 0xE15 JUMPI PUSH2 0x3571 SWAP4 SWAP5 SWAP6 POP PUSH2 0x3575 JUMPI JUMPDEST POP PUSH1 0x1 PUSH1 0x0 DUP1 MLOAD PUSH1 0x20 PUSH2 0x582D DUP4 CODECOPY DUP2 MLOAD SWAP2 MSTORE SSTORE PUSH1 0x40 DUP1 MLOAD PUSH1 0x1 PUSH1 0x1 PUSH1 0xA0 SHL SUB SWAP5 DUP6 AND DUP2 MSTORE SWAP5 SWAP1 SWAP4 AND PUSH1 0x20 DUP6 ADD MSTORE SWAP2 DUP4 ADD SWAP2 SWAP1 SWAP2 MSTORE DUP2 SWAP1 PUSH1 0x60 DUP3 ADD SWAP1 JUMP JUMPDEST SUB SWAP1 RETURN JUMPDEST PUSH2 0x358D SWAP1 PUSH1 0x20 RETURNDATASIZE PUSH1 0x20 GT PUSH2 0xD5D JUMPI PUSH2 0xD4E DUP2 DUP4 PUSH2 0x4114 JUMP JUMPDEST PUSH2 0x3534 JUMP JUMPDEST SWAP1 POP PUSH1 0x20 DUP2 RETURNDATASIZE PUSH1 0x20 GT PUSH2 0x35BD JUMPI JUMPDEST DUP2 PUSH2 0x35AD PUSH1 0x20 SWAP4 DUP4 PUSH2 0x4114 JUMP JUMPDEST DUP2 ADD SUB SLT PUSH2 0x21BB JUMPI MLOAD PUSH1 0x20 PUSH2 0x34F3 JUMP JUMPDEST RETURNDATASIZE SWAP2 POP PUSH2 0x35A0 JUMP JUMPDEST PUSH2 0x35DD SWAP1 PUSH1 0x40 RETURNDATASIZE PUSH1 0x40 GT PUSH2 0x2302 JUMPI PUSH2 0x22EF DUP2 DUP4 PUSH2 0x4114 JUMP JUMPDEST POP PUSH2 0x34BF JUMP JUMPDEST SWAP1 POP PUSH1 0x40 MLOAD PUSH2 0x35F1 DUP2 PUSH2 0x40F9 JUMP JUMPDEST CALLER DUP1 DUP3 MSTORE PUSH1 0x60 PUSH1 0x20 DUP1 DUP5 ADD SWAP2 DUP3 MSTORE SWAP2 DUP9 MSTORE PUSH1 0xC SWAP1 SWAP2 MSTORE PUSH1 0x40 DUP8 KECCAK256 SWAP2 MLOAD DUP3 SLOAD PUSH1 0x1 PUSH1 0x1 PUSH1 0xA0 SHL SUB NOT AND PUSH1 0x1 PUSH1 0x1 PUSH1 0xA0 SHL SUB SWAP2 SWAP1 SWAP2 AND OR DUP3 SSTORE MLOAD DUP1 MLOAD SWAP2 PUSH1 0x1 ADD SWAP1 PUSH1 0x1 PUSH1 0x1 PUSH1 0x40 SHL SUB DUP4 GT PUSH2 0x3721 JUMPI PUSH1 0x1 PUSH1 0x40 SHL DUP4 GT PUSH2 0x3721 JUMPI PUSH1 0x20 SWAP1 DUP3 SLOAD DUP5 DUP5 SSTORE DUP1 DUP6 LT PUSH2 0x3707 JUMPI JUMPDEST POP ADD SWAP1 DUP8 MSTORE PUSH1 0x20 DUP8 KECCAK256 DUP8 JUMPDEST DUP4 DUP2 LT PUSH2 0x36EA JUMPI POP POP POP POP PUSH1 0xD SLOAD PUSH1 0x1 PUSH1 0x40 SHL DUP2 LT ISZERO PUSH2 0x36D6 JUMPI PUSH2 0x34B0 DUP7 SWAP3 PUSH2 0x3697 DUP4 PUSH1 0x1 PUSH1 0x40 SWAP6 ADD PUSH1 0xD SSTORE PUSH1 0xD PUSH2 0x41CE JUMP JUMPDEST DUP2 SLOAD PUSH1 0x1 PUSH1 0x1 PUSH1 0xA0 SHL SUB PUSH1 0x3 SWAP3 SWAP1 SWAP3 SHL DUP3 DUP2 SHL NOT SWAP1 SWAP2 AND CALLER SWAP2 DUP3 SWAP1 SHL OR SWAP1 SWAP3 SSTORE SWAP1 DUP6 MSTORE PUSH1 0xC PUSH1 0x20 MSTORE DUP4 DUP6 KECCAK256 PUSH2 0x36D1 SWAP2 DUP9 AND SWAP1 PUSH1 0x1 ADD PUSH2 0x449C JUMP JUMPDEST PUSH2 0x3413 JUMP JUMPDEST PUSH4 0x4E487B71 PUSH1 0xE0 SHL DUP7 MSTORE PUSH1 0x41 PUSH1 0x4 MSTORE PUSH1 0x24 DUP7 REVERT JUMPDEST DUP3 MLOAD PUSH1 0x1 PUSH1 0x1 PUSH1 0xA0 SHL SUB AND DUP2 DUP4 ADD SSTORE PUSH1 0x20 SWAP1 SWAP3 ADD SWAP2 PUSH1 0x1 ADD PUSH2 0x3664 JUMP JUMPDEST DUP4 DUP11 MSTORE DUP3 DUP11 KECCAK256 PUSH2 0x371B SWAP2 DUP2 ADD SWAP1 DUP7 ADD PUSH2 0x4485 JUMP JUMPDEST CODESIZE PUSH2 0x3659 JUMP JUMPDEST PUSH4 0x4E487B71 PUSH1 0xE0 SHL DUP9 MSTORE PUSH1 0x41 PUSH1 0x4 MSTORE PUSH1 0x24 DUP9 REVERT JUMPDEST ADD MLOAD SWAP1 POP CODESIZE DUP1 PUSH2 0x3350 JUMP JUMPDEST DUP4 DUP12 MSTORE DUP2 DUP12 KECCAK256 SWAP2 SWAP1 PUSH1 0x1F NOT DUP5 AND DUP13 JUMPDEST DUP2 DUP2 LT PUSH2 0x3792 JUMPI POP SWAP3 PUSH1 0x1 SWAP3 DUP6 SWAP3 PUSH2 0x1A0 SWAP9 SWAP7 PUSH1 0x17 SWAP9 SWAP7 LT PUSH2 0x3779 JUMPI JUMPDEST POP POP POP DUP2 SHL ADD SWAP1 SSTORE PUSH2 0x3365 JUMP JUMPDEST ADD MLOAD PUSH1 0x0 NOT PUSH1 0xF8 DUP5 PUSH1 0x3 SHL AND SHR NOT AND SWAP1 SSTORE CODESIZE DUP1 DUP1 PUSH2 0x376C JUMP JUMPDEST SWAP3 SWAP4 PUSH1 0x20 PUSH1 0x1 DUP2 SWAP3 DUP8 DUP7 ADD MLOAD DUP2 SSTORE ADD SWAP6 ADD SWAP4 ADD PUSH2 0x374F JUMP JUMPDEST PUSH2 0x37D5 SWAP1 DUP5 DUP13 MSTORE PUSH1 0x20 DUP13 KECCAK256 PUSH1 0x1F DUP6 ADD PUSH1 0x5 SHR DUP2 ADD SWAP2 PUSH1 0x20 DUP7 LT PUSH2 0x37DB JUMPI JUMPDEST PUSH1 0x1F ADD PUSH1 0x5 SHR ADD SWAP1 PUSH2 0x4485 JUMP JUMPDEST CODESIZE PUSH2 0x332F JUMP JUMPDEST SWAP1 SWAP2 POP DUP2 SWAP1 PUSH2 0x37C8 JUMP JUMPDEST PUSH4 0x4E487B71 PUSH1 0xE0 SHL DUP11 MSTORE PUSH1 0x41 PUSH1 0x4 MSTORE PUSH1 0x24 DUP11 REVERT JUMPDEST ADD MLOAD SWAP1 POP CODESIZE DUP1 PUSH2 0x32EC JUMP JUMPDEST DUP5 DUP13 MSTORE DUP2 DUP13 KECCAK256 SWAP3 POP PUSH1 0x1F NOT DUP5 AND DUP13 JUMPDEST DUP2 DUP2 LT PUSH2 0x384F JUMPI POP SWAP1 DUP5 PUSH1 0x1 SWAP6 SWAP5 SWAP4 SWAP3 LT PUSH2 0x3836 JUMPI JUMPDEST POP POP POP DUP2 SHL ADD SWAP1 SSTORE PUSH2 0x3301 JUMP JUMPDEST ADD MLOAD PUSH1 0x0 NOT PUSH1 0xF8 DUP5 PUSH1 0x3 SHL AND SHR NOT AND SWAP1 SSTORE CODESIZE DUP1 DUP1 PUSH2 0x3829 JUMP JUMPDEST SWAP3 SWAP4 PUSH1 0x20 PUSH1 0x1 DUP2 SWAP3 DUP8 DUP7 ADD MLOAD DUP2 SSTORE ADD SWAP6 ADD SWAP4 ADD PUSH2 0x3813 JUMP JUMPDEST PUSH2 0x3891 SWAP1 DUP6 DUP14 MSTORE PUSH1 0x20 DUP14 KECCAK256 PUSH1 0x1F DUP6 ADD PUSH1 0x5 SHR DUP2 ADD SWAP2 PUSH1 0x20 DUP7 LT PUSH2 0x37DB JUMPI PUSH1 0x1F ADD PUSH1 0x5 SHR ADD SWAP1 PUSH2 0x4485 JUMP JUMPDEST CODESIZE PUSH2 0x32D6 JUMP JUMPDEST ADD MLOAD SWAP1 POP CODESIZE DUP1 PUSH2 0x3291 JUMP JUMPDEST DUP5 DUP13 MSTORE DUP2 DUP13 KECCAK256 SWAP3 POP PUSH1 0x1F NOT DUP5 AND DUP13 JUMPDEST DUP2 DUP2 LT PUSH2 0x38ED JUMPI POP SWAP1 DUP5 PUSH1 0x1 SWAP6 SWAP5 SWAP4 SWAP3 LT PUSH2 0x38D4 JUMPI JUMPDEST POP POP POP DUP2 SHL ADD SWAP1 SSTORE PUSH2 0x32A6 JUMP JUMPDEST ADD MLOAD PUSH1 0x0 NOT PUSH1 0xF8 DUP5 PUSH1 0x3 SHL AND SHR NOT AND SWAP1 SSTORE CODESIZE DUP1 DUP1 PUSH2 0x38C7 JUMP JUMPDEST SWAP3 SWAP4 PUSH1 0x20 PUSH1 0x1 DUP2 SWAP3 DUP8 DUP7 ADD MLOAD DUP2 SSTORE ADD SWAP6 ADD SWAP4 ADD PUSH2 0x38B1 JUMP JUMPDEST PUSH2 0x392F SWAP1 DUP6 DUP14 MSTORE PUSH1 0x20 DUP14 KECCAK256 PUSH1 0x1F DUP6 ADD PUSH1 0x5 SHR DUP2 ADD SWAP2 PUSH1 0x20 DUP7 LT PUSH2 0x37DB JUMPI PUSH1 0x1F ADD PUSH1 0x5 SHR ADD SWAP1 PUSH2 0x4485 JUMP JUMPDEST CODESIZE PUSH2 0x327B JUMP JUMPDEST ADD MLOAD SWAP1 POP CODESIZE DUP1 PUSH2 0x3236 JUMP JUMPDEST DUP5 DUP13 MSTORE DUP2 DUP13 KECCAK256 SWAP3 POP PUSH1 0x1F NOT DUP5 AND DUP13 JUMPDEST DUP2 DUP2 LT PUSH2 0x398B JUMPI POP SWAP1 DUP5 PUSH1 0x1 SWAP6 SWAP5 SWAP4 SWAP3 LT PUSH2 0x3972 JUMPI JUMPDEST POP POP POP DUP2 SHL ADD SWAP1 SSTORE PUSH2 0x324B JUMP JUMPDEST ADD MLOAD PUSH1 0x0 NOT PUSH1 0xF8 DUP5 PUSH1 0x3 SHL AND SHR NOT AND SWAP1 SSTORE CODESIZE DUP1 DUP1 PUSH2 0x3965 JUMP JUMPDEST SWAP3 SWAP4 PUSH1 0x20 PUSH1 0x1 DUP2 SWAP3 DUP8 DUP7 ADD MLOAD DUP2 SSTORE ADD SWAP6 ADD SWAP4 ADD PUSH2 0x394F JUMP JUMPDEST PUSH2 0x39CD SWAP1 DUP6 DUP14 MSTORE PUSH1 0x20 DUP14 KECCAK256 PUSH1 0x1F DUP6 ADD PUSH1 0x5 SHR DUP2 ADD SWAP2 PUSH1 0x20 DUP7 LT PUSH2 0x37DB JUMPI PUSH1 0x1F ADD PUSH1 0x5 SHR ADD SWAP1 PUSH2 0x4485 JUMP JUMPDEST CODESIZE PUSH2 0x3220 JUMP JUMPDEST ADD MLOAD SWAP1 POP CODESIZE DUP1 PUSH2 0x31DB JUMP JUMPDEST DUP5 DUP13 MSTORE DUP2 DUP13 KECCAK256 SWAP3 POP PUSH1 0x1F NOT DUP5 AND DUP13 JUMPDEST DUP2 DUP2 LT PUSH2 0x3A29 JUMPI POP SWAP1 DUP5 PUSH1 0x1 SWAP6 SWAP5 SWAP4 SWAP3 LT PUSH2 0x3A10 JUMPI JUMPDEST POP POP POP DUP2 SHL ADD SWAP1 SSTORE PUSH2 0x31F0 JUMP JUMPDEST ADD MLOAD PUSH1 0x0 NOT PUSH1 0xF8 DUP5 PUSH1 0x3 SHL AND SHR NOT AND SWAP1 SSTORE CODESIZE DUP1 DUP1 PUSH2 0x3A03 JUMP JUMPDEST SWAP3 SWAP4 PUSH1 0x20 PUSH1 0x1 DUP2 SWAP3 DUP8 DUP7 ADD MLOAD DUP2 SSTORE ADD SWAP6 ADD SWAP4 ADD PUSH2 0x39ED JUMP JUMPDEST PUSH2 0x3A6B SWAP1 DUP6 DUP14 MSTORE PUSH1 0x20 DUP14 KECCAK256 PUSH1 0x1F DUP6 ADD PUSH1 0x5 SHR DUP2 ADD SWAP2 PUSH1 0x20 DUP7 LT PUSH2 0x37DB JUMPI PUSH1 0x1F ADD PUSH1 0x5 SHR ADD SWAP1 PUSH2 0x4485 JUMP JUMPDEST CODESIZE PUSH2 0x31C5 JUMP JUMPDEST SWAP3 DUP11 SWAP4 DUP12 JUMPDEST DUP2 DUP2 LT PUSH2 0x3A8E JUMPI POP POP POP PUSH1 0x5 SHR ADD SSTORE CODESIZE DUP1 DUP1 DUP1 PUSH2 0x3192 JUMP JUMPDEST SWAP1 SWAP2 SWAP5 PUSH1 0x20 PUSH2 0x3AB4 PUSH1 0x1 SWAP3 DUP5 PUSH1 0xFF DUP11 MLOAD AND SWAP2 SWAP1 PUSH1 0xFF DUP1 SWAP2 PUSH1 0x3 SHL SWAP4 AND DUP4 SHL SWAP3 SHL NOT AND OR SWAP1 JUMP JUMPDEST SWAP7 ADD SWAP3 SWAP2 ADD PUSH2 0x3A76 JUMP JUMPDEST DUP11 DUP12 JUMPDEST PUSH1 0x20 DUP2 LT PUSH2 0x3AD6 JUMPI POP DUP4 DUP3 ADD SSTORE PUSH1 0x1 ADD PUSH2 0x317A JUMP JUMPDEST DUP6 MLOAD SWAP1 SWAP6 SWAP2 PUSH1 0x1 SWAP2 PUSH1 0x20 SWAP2 PUSH1 0xFF PUSH1 0x3 DUP11 SWAP1 SHL DUP2 DUP2 SHL NOT SWAP1 SWAP3 AND SWAP3 AND SWAP1 SHL OR SWAP3 ADD SWAP6 ADD PUSH2 0x3AC1 JUMP JUMPDEST PUSH2 0x3B2A SWAP1 PUSH1 0x11 DUP7 ADD DUP13 MSTORE DUP4 DUP13 KECCAK256 PUSH1 0x1F DUP1 DUP8 ADD PUSH1 0x5 SHR DUP3 ADD SWAP3 DUP2 DUP9 AND DUP1 PUSH2 0x3B30 JUMPI JUMPDEST POP ADD PUSH1 0x5 SHR ADD SWAP1 PUSH2 0x4485 JUMP JUMPDEST CODESIZE PUSH2 0x316A JUMP JUMPDEST PUSH1 0x0 NOT DUP6 ADD SWAP1 DUP2 SLOAD SWAP1 PUSH1 0x0 NOT SWAP1 DUP11 SUB PUSH1 0x3 SHL SHR AND SWAP1 SSTORE CODESIZE PUSH2 0x3B1E JUMP JUMPDEST PUSH4 0x4E487B71 PUSH1 0xE0 SHL DUP10 MSTORE PUSH1 0x41 PUSH1 0x4 MSTORE PUSH1 0x24 DUP10 REVERT JUMPDEST ADD MLOAD SWAP1 POP CODESIZE DUP1 PUSH2 0x311B JUMP JUMPDEST PUSH1 0x10 DUP6 ADD DUP12 MSTORE DUP2 DUP12 KECCAK256 SWAP3 POP PUSH1 0x1F NOT DUP5 AND DUP12 JUMPDEST DUP2 DUP2 LT PUSH2 0x3BBC JUMPI POP SWAP1 DUP5 PUSH1 0x1 SWAP6 SWAP5 SWAP4 SWAP3 LT PUSH2 0x3BA3 JUMPI JUMPDEST POP POP POP DUP2 SHL ADD PUSH1 0x10 DUP3 ADD SSTORE PUSH2 0x3133 JUMP JUMPDEST ADD MLOAD PUSH1 0x0 NOT PUSH1 0xF8 DUP5 PUSH1 0x3 SHL AND SHR NOT AND SWAP1 SSTORE CODESIZE DUP1 DUP1 PUSH2 0x3B93 JUMP JUMPDEST SWAP3 SWAP4 PUSH1 0x20 PUSH1 0x1 DUP2 SWAP3 DUP8 DUP7 ADD MLOAD DUP2 SSTORE ADD SWAP6 ADD SWAP4 ADD PUSH2 0x3B7D JUMP JUMPDEST PUSH2 0x3C01 SWAP1 PUSH1 0x10 DUP7 ADD DUP13 MSTORE PUSH1 0x20 DUP13 KECCAK256 PUSH1 0x1F DUP6 ADD PUSH1 0x5 SHR DUP2 ADD SWAP2 PUSH1 0x20 DUP7 LT PUSH2 0x37DB JUMPI PUSH1 0x1F ADD PUSH1 0x5 SHR ADD SWAP1 PUSH2 0x4485 JUMP JUMPDEST CODESIZE PUSH2 0x3105 JUMP JUMPDEST ADD MLOAD SWAP1 POP CODESIZE DUP1 PUSH2 0x306F JUMP JUMPDEST PUSH1 0x7 DUP6 ADD DUP12 MSTORE DUP2 DUP12 KECCAK256 SWAP2 SWAP1 PUSH1 0x1F NOT DUP5 AND DUP13 JUMPDEST DUP2 DUP2 LT PUSH2 0x3C67 JUMPI POP SWAP2 PUSH1 0x1 SWAP4 SWAP2 DUP6 PUSH2 0x160 SWAP8 SWAP7 SWAP5 LT PUSH2 0x3C4E JUMPI JUMPDEST POP POP POP DUP2 SHL ADD PUSH1 0x7 DUP5 ADD SSTORE PUSH2 0x3087 JUMP JUMPDEST ADD MLOAD PUSH1 0x0 NOT PUSH1 0xF8 DUP5 PUSH1 0x3 SHL AND SHR NOT AND SWAP1 SSTORE CODESIZE DUP1 DUP1 PUSH2 0x3C3E JUMP JUMPDEST SWAP3 SWAP4 PUSH1 0x20 PUSH1 0x1 DUP2 SWAP3 DUP8 DUP7 ADD MLOAD DUP2 SSTORE ADD SWAP6 ADD SWAP4 ADD PUSH2 0x3C24 JUMP JUMPDEST PUSH2 0x3CAC SWAP1 PUSH1 0x7 DUP7 ADD DUP13 MSTORE PUSH1 0x20 DUP13 KECCAK256 PUSH1 0x1F DUP6 ADD PUSH1 0x5 SHR DUP2 ADD SWAP2 PUSH1 0x20 DUP7 LT PUSH2 0x37DB JUMPI PUSH1 0x1F ADD PUSH1 0x5 SHR ADD SWAP1 PUSH2 0x4485 JUMP JUMPDEST CODESIZE PUSH2 0x3052 JUMP JUMPDEST ADD MLOAD SWAP1 POP CODESIZE DUP1 PUSH2 0x300E JUMP JUMPDEST PUSH1 0x6 DUP7 ADD DUP13 MSTORE DUP2 DUP13 KECCAK256 SWAP3 POP PUSH1 0x1F NOT DUP5 AND DUP13 JUMPDEST DUP2 DUP2 LT PUSH2 0x3D0E JUMPI POP SWAP1 DUP5 PUSH1 0x1 SWAP6 SWAP5 SWAP4 SWAP3 LT PUSH2 0x3CF5 JUMPI JUMPDEST POP POP POP DUP2 SHL ADD PUSH1 0x6 DUP4 ADD SSTORE PUSH2 0x3026 JUMP JUMPDEST ADD MLOAD PUSH1 0x0 NOT PUSH1 0xF8 DUP5 PUSH1 0x3 SHL AND SHR NOT AND SWAP1 SSTORE CODESIZE DUP1 DUP1 PUSH2 0x3CE5 JUMP JUMPDEST SWAP3 SWAP4 PUSH1 0x20 PUSH1 0x1 DUP2 SWAP3 DUP8 DUP7 ADD MLOAD DUP2 SSTORE ADD SWAP6 ADD SWAP4 ADD PUSH2 0x3CCF JUMP JUMPDEST PUSH2 0x3D53 SWAP1 PUSH1 0x6 DUP8 ADD DUP14 MSTORE PUSH1 0x20 DUP14 KECCAK256 PUSH1 0x1F DUP6 ADD PUSH1 0x5 SHR DUP2 ADD SWAP2 PUSH1 0x20 DUP7 LT PUSH2 0x37DB JUMPI PUSH1 0x1F ADD PUSH1 0x5 SHR ADD SWAP1 PUSH2 0x4485 JUMP JUMPDEST CODESIZE PUSH2 0x2FF8 JUMP JUMPDEST ADD MLOAD SWAP1 POP CODESIZE DUP1 PUSH2 0x2FB2 JUMP JUMPDEST PUSH1 0x5 DUP7 ADD DUP13 MSTORE DUP2 DUP13 KECCAK256 SWAP3 POP PUSH1 0x1F NOT DUP5 AND DUP13 JUMPDEST DUP2 DUP2 LT PUSH2 0x3DB5 JUMPI POP SWAP1 DUP5 PUSH1 0x1 SWAP6 SWAP5 SWAP4 SWAP3 LT PUSH2 0x3D9C JUMPI JUMPDEST POP POP POP DUP2 SHL ADD PUSH1 0x5 DUP4 ADD SSTORE PUSH2 0x2FCA JUMP JUMPDEST ADD MLOAD PUSH1 0x0 NOT PUSH1 0xF8 DUP5 PUSH1 0x3 SHL AND SHR NOT AND SWAP1 SSTORE CODESIZE DUP1 DUP1 PUSH2 0x3D8C JUMP JUMPDEST SWAP3 SWAP4 PUSH1 0x20 PUSH1 0x1 DUP2 SWAP3 DUP8 DUP7 ADD MLOAD DUP2 SSTORE ADD SWAP6 ADD SWAP4 ADD PUSH2 0x3D76 JUMP JUMPDEST PUSH2 0x3DFA SWAP1 PUSH1 0x5 DUP8 ADD DUP14 MSTORE PUSH1 0x20 DUP14 KECCAK256 PUSH1 0x1F DUP6 ADD PUSH1 0x5 SHR DUP2 ADD SWAP2 PUSH1 0x20 DUP7 LT PUSH2 0x37DB JUMPI PUSH1 0x1F ADD PUSH1 0x5 SHR ADD SWAP1 PUSH2 0x4485 JUMP JUMPDEST CODESIZE PUSH2 0x2F9C JUMP JUMPDEST POP PUSH4 0x4E487B71 PUSH1 0xE0 SHL DUP16 MSTORE PUSH1 0x11 PUSH1 0x4 MSTORE PUSH1 0x24 DUP16 REVERT JUMPDEST PUSH2 0x3E2D SWAP1 PUSH1 0x40 RETURNDATASIZE PUSH1 0x40 GT PUSH2 0x2302 JUMPI PUSH2 0x22EF DUP2 DUP4 PUSH2 0x4114 JUMP JUMPDEST POP PUSH2 0x2DC5 JUMP JUMPDEST DUP15 PUSH1 0x40 MLOAD SWAP1 RETURNDATASIZE SWAP1 DUP3 RETURNDATACOPY RETURNDATASIZE SWAP1 REVERT JUMPDEST PUSH4 0x4E487B71 PUSH1 0xE0 SHL DUP14 MSTORE PUSH1 0x11 PUSH1 0x4 MSTORE PUSH1 0x24 DUP14 REVERT JUMPDEST PUSH4 0x4E487B71 PUSH1 0xE0 SHL DUP14 MSTORE PUSH1 0x12 PUSH1 0x4 MSTORE PUSH1 0x24 DUP14 REVERT JUMPDEST PUSH2 0x3E82 SWAP2 SWAP12 POP PUSH1 0x20 RETURNDATASIZE PUSH1 0x20 GT PUSH2 0xE0E JUMPI PUSH2 0xE00 DUP2 DUP4 PUSH2 0x4114 JUMP JUMPDEST SWAP10 CODESIZE PUSH2 0x2CF7 JUMP JUMPDEST PUSH1 0x40 MLOAD RETURNDATASIZE DUP15 DUP3 RETURNDATACOPY RETURNDATASIZE SWAP1 REVERT JUMPDEST SWAP10 POP SWAP2 POP PUSH1 0x20 DUP10 RETURNDATASIZE PUSH1 0x20 GT PUSH2 0x3EC7 JUMPI JUMPDEST DUP2 PUSH2 0x3EB1 PUSH1 0x20 SWAP4 DUP4 PUSH2 0x4114 JUMP JUMPDEST DUP2 ADD SUB SLT PUSH2 0x3EC3 JUMPI DUP10 SWAP9 MLOAD SWAP2 CODESIZE PUSH2 0x2CB3 JUMP JUMPDEST DUP11 DUP1 REVERT JUMPDEST RETURNDATASIZE SWAP2 POP PUSH2 0x3EA4 JUMP JUMPDEST PUSH1 0x40 MLOAD RETURNDATASIZE DUP14 DUP3 RETURNDATACOPY RETURNDATASIZE SWAP1 REVERT JUMPDEST PUSH1 0x40 MLOAD RETURNDATASIZE DUP12 DUP3 RETURNDATACOPY RETURNDATASIZE SWAP1 REVERT JUMPDEST PUSH4 0x4E487B71 PUSH1 0xE0 SHL DUP16 MSTORE PUSH1 0x41 PUSH1 0x4 MSTORE PUSH1 0x24 DUP16 REVERT JUMPDEST PUSH1 0x40 MLOAD PUSH3 0x461BCD PUSH1 0xE5 SHL DUP2 MSTORE PUSH1 0x20 PUSH1 0x4 DUP3 ADD MSTORE PUSH1 0x13 PUSH1 0x24 DUP3 ADD MSTORE PUSH19 0x125B9CDD59999A58DA595B9D08185B5BDD5B9D PUSH1 0x6A SHL PUSH1 0x44 DUP3 ADD MSTORE PUSH1 0x64 SWAP1 REVERT JUMPDEST SWAP2 POP POP PUSH1 0x20 DUP2 RETURNDATASIZE PUSH1 0x20 GT PUSH2 0x3F61 JUMPI JUMPDEST DUP2 PUSH2 0x3F50 PUSH1 0x20 SWAP4 DUP4 PUSH2 0x4114 JUMP JUMPDEST DUP2 ADD SUB SLT PUSH2 0x3EC3 JUMPI DUP2 SWAP1 MLOAD CODESIZE PUSH2 0x2BD1 JUMP JUMPDEST RETURNDATASIZE SWAP2 POP PUSH2 0x3F43 JUMP JUMPDEST PUSH2 0x3F83 SWAP2 SWAP8 POP PUSH1 0x20 RETURNDATASIZE PUSH1 0x20 GT PUSH2 0xE0E JUMPI PUSH2 0xE00 DUP2 DUP4 PUSH2 0x4114 JUMP JUMPDEST SWAP6 CODESIZE PUSH2 0x2B9C JUMP JUMPDEST PUSH1 0x40 MLOAD RETURNDATASIZE DUP13 DUP3 RETURNDATACOPY RETURNDATASIZE SWAP1 REVERT JUMPDEST PUSH1 0x40 MLOAD PUSH3 0x461BCD PUSH1 0xE5 SHL DUP2 MSTORE PUSH1 0x20 PUSH1 0x4 DUP3 ADD MSTORE PUSH1 0x28 PUSH1 0x24 DUP3 ADD MSTORE PUSH32 0x507572636861736520616D6F756E74206D757374206265206772656174657220 PUSH1 0x44 DUP3 ADD MSTORE PUSH8 0x7468616E20666565 PUSH1 0xC0 SHL PUSH1 0x64 DUP3 ADD MSTORE PUSH1 0x84 SWAP1 REVERT JUMPDEST PUSH4 0x3EE5AEB5 PUSH1 0xE0 SHL DUP9 MSTORE PUSH1 0x4 DUP9 REVERT JUMPDEST DUP2 CALLDATALOAD PUSH1 0x1 PUSH1 0x1 PUSH1 0x40 SHL SUB DUP2 GT PUSH2 0x4029 JUMPI PUSH1 0x20 SWAP2 PUSH2 0x401E DUP4 SWAP3 PUSH1 0x4 CALLDATASIZE SWAP2 DUP10 ADD ADD PUSH2 0x4135 JUMP JUMPDEST DUP2 MSTORE ADD SWAP2 ADD SWAP1 PUSH2 0x2B23 JUMP JUMPDEST DUP12 DUP1 REVERT JUMPDEST DUP10 DUP1 REVERT JUMPDEST DUP3 CALLDATALOAD PUSH1 0xFF DUP2 AND DUP2 SUB PUSH2 0xD84 JUMPI DUP2 MSTORE PUSH1 0x20 SWAP3 DUP4 ADD SWAP3 ADD PUSH2 0x2A9E JUMP JUMPDEST POP DUP1 REVERT JUMPDEST POP CALLVALUE PUSH2 0x179 JUMPI DUP1 PUSH1 0x3 NOT CALLDATASIZE ADD SLT PUSH2 0x179 JUMPI PUSH1 0x20 PUSH1 0x3 SLOAD PUSH1 0x40 MLOAD SWAP1 DUP2 MSTORE RETURN JUMPDEST POP CALLVALUE PUSH2 0x179 JUMPI PUSH1 0x20 CALLDATASIZE PUSH1 0x3 NOT ADD SLT PUSH2 0x179 JUMPI PUSH2 0x4087 PUSH2 0x45B8 JUMP JUMPDEST PUSH1 0x4 CALLDATALOAD PUSH1 0x6 SSTORE DUP1 RETURN JUMPDEST PUSH1 0x80 DUP2 ADD SWAP1 DUP2 LT PUSH1 0x1 PUSH1 0x1 PUSH1 0x40 SHL SUB DUP3 GT OR PUSH2 0x40AB JUMPI PUSH1 0x40 MSTORE JUMP JUMPDEST PUSH4 0x4E487B71 PUSH1 0xE0 SHL PUSH1 0x0 MSTORE PUSH1 0x41 PUSH1 0x4 MSTORE PUSH1 0x24 PUSH1 0x0 REVERT JUMPDEST PUSH2 0x180 DUP2 ADD SWAP1 DUP2 LT PUSH1 0x1 PUSH1 0x1 PUSH1 0x40 SHL SUB DUP3 GT OR PUSH2 0x40AB JUMPI PUSH1 0x40 MSTORE JUMP JUMPDEST PUSH2 0x1C0 DUP2 ADD SWAP1 DUP2 LT PUSH1 0x1 PUSH1 0x1 PUSH1 0x40 SHL SUB DUP3 GT OR PUSH2 0x40AB JUMPI PUSH1 0x40 MSTORE JUMP JUMPDEST PUSH1 0x40 DUP2 ADD SWAP1 DUP2 LT PUSH1 0x1 PUSH1 0x1 PUSH1 0x40 SHL SUB DUP3 GT OR PUSH2 0x40AB JUMPI PUSH1 0x40 MSTORE JUMP JUMPDEST SWAP1 PUSH1 0x1F DUP1 NOT SWAP2 ADD AND DUP2 ADD SWAP1 DUP2 LT PUSH1 0x1 PUSH1 0x1 PUSH1 0x40 SHL SUB DUP3 GT OR PUSH2 0x40AB JUMPI PUSH1 0x40 MSTORE JUMP JUMPDEST DUP2 PUSH1 0x1F DUP3 ADD SLT ISZERO PUSH2 0x1B9F JUMPI DUP1 CALLDATALOAD SWAP1 PUSH1 0x1 PUSH1 0x1 PUSH1 0x40 SHL SUB DUP3 GT PUSH2 0x40AB JUMPI PUSH1 0x40 MLOAD SWAP3 PUSH2 0x4169 PUSH1 0x1F DUP5 ADD PUSH1 0x1F NOT AND PUSH1 0x20 ADD DUP6 PUSH2 0x4114 JUMP JUMPDEST DUP3 DUP5 MSTORE PUSH1 0x20 DUP4 DUP4 ADD ADD GT PUSH2 0x1B9F JUMPI DUP2 PUSH1 0x0 SWAP3 PUSH1 0x20 DUP1 SWAP4 ADD DUP4 DUP7 ADD CALLDATACOPY DUP4 ADD ADD MSTORE SWAP1 JUMP JUMPDEST PUSH1 0x1 PUSH1 0x1 PUSH1 0x40 SHL SUB DUP2 GT PUSH2 0x40AB JUMPI PUSH1 0x5 SHL PUSH1 0x20 ADD SWAP1 JUMP JUMPDEST PUSH1 0x24 CALLDATALOAD SWAP1 PUSH1 0x1 PUSH1 0x1 PUSH1 0xA0 SHL SUB DUP3 AND DUP3 SUB PUSH2 0x1B9F JUMPI JUMP JUMPDEST PUSH1 0x4 CALLDATALOAD SWAP1 PUSH1 0x1 PUSH1 0x1 PUSH1 0xA0 SHL SUB DUP3 AND DUP3 SUB PUSH2 0x1B9F JUMPI JUMP JUMPDEST DUP1 SLOAD DUP3 LT ISZERO PUSH2 0x41E6 JUMPI PUSH1 0x0 MSTORE PUSH1 0x20 PUSH1 0x0 KECCAK256 ADD SWAP1 PUSH1 0x0 SWAP1 JUMP JUMPDEST PUSH4 0x4E487B71 PUSH1 0xE0 SHL PUSH1 0x0 MSTORE PUSH1 0x32 PUSH1 0x4 MSTORE PUSH1 0x24 PUSH1 0x0 REVERT JUMPDEST SWAP1 PUSH1 0x1 DUP3 DUP2 SHR SWAP3 AND DUP1 ISZERO PUSH2 0x422C JUMPI JUMPDEST PUSH1 0x20 DUP4 LT EQ PUSH2 0x4216 JUMPI JUMP JUMPDEST PUSH4 0x4E487B71 PUSH1 0xE0 SHL PUSH1 0x0 MSTORE PUSH1 0x22 PUSH1 0x4 MSTORE PUSH1 0x24 PUSH1 0x0 REVERT JUMPDEST SWAP2 PUSH1 0x7F AND SWAP2 PUSH2 0x420B JUMP JUMPDEST PUSH1 0x0 SWAP3 SWAP2 DUP2 SLOAD SWAP2 PUSH2 0x4246 DUP4 PUSH2 0x41FC JUMP JUMPDEST DUP1 DUP4 MSTORE SWAP3 PUSH1 0x1 DUP2 AND SWAP1 DUP2 ISZERO PUSH2 0x429C JUMPI POP PUSH1 0x1 EQ PUSH2 0x4262 JUMPI POP POP POP JUMP JUMPDEST PUSH1 0x0 SWAP1 DUP2 MSTORE PUSH1 0x20 DUP2 KECCAK256 SWAP4 SWAP5 POP SWAP2 SWAP3 JUMPDEST DUP4 DUP4 LT PUSH2 0x4282 JUMPI POP PUSH1 0x20 SWAP3 POP ADD ADD SWAP1 JUMP JUMPDEST PUSH1 0x1 DUP2 PUSH1 0x20 SWAP3 SWAP5 SWAP4 SWAP5 SLOAD DUP4 DUP6 DUP8 ADD ADD MSTORE ADD SWAP2 ADD SWAP2 SWAP1 PUSH2 0x4271 JUMP JUMPDEST SWAP2 POP POP PUSH1 0x20 SWAP4 SWAP5 POP PUSH1 0xFF SWAP3 SWAP2 SWAP3 NOT AND DUP4 DUP4 ADD MSTORE ISZERO ISZERO PUSH1 0x5 SHL ADD ADD SWAP1 JUMP JUMPDEST SWAP1 PUSH1 0x40 MLOAD PUSH2 0x42C6 DUP2 PUSH2 0x40C1 JUMP JUMPDEST PUSH2 0x160 PUSH1 0xB DUP3 SWAP5 PUSH1 0x1 DUP1 PUSH1 0xA0 SHL SUB DUP2 SLOAD AND DUP5 MSTORE PUSH1 0x40 MLOAD PUSH2 0x42ED DUP2 PUSH2 0x9C7 DUP2 PUSH1 0x1 DUP7 ADD PUSH2 0x4236 JUMP JUMPDEST PUSH1 0x20 DUP6 ADD MSTORE PUSH1 0x40 MLOAD PUSH2 0x4306 DUP2 PUSH2 0x9C7 DUP2 PUSH1 0x2 DUP7 ADD PUSH2 0x4236 JUMP JUMPDEST PUSH1 0x40 DUP6 ADD MSTORE PUSH1 0x40 MLOAD PUSH2 0x431F DUP2 PUSH2 0x9C7 DUP2 PUSH1 0x3 DUP7 ADD PUSH2 0x4236 JUMP JUMPDEST PUSH1 0x60 DUP6 ADD MSTORE PUSH1 0x4 DUP2 ADD SLOAD PUSH1 0x80 DUP6 ADD MSTORE PUSH1 0x5 DUP2 ADD SLOAD PUSH1 0xA0 DUP6 ADD MSTORE PUSH1 0x6 DUP2 ADD SLOAD PUSH1 0xC0 DUP6 ADD MSTORE PUSH1 0x7 DUP2 ADD SLOAD PUSH1 0xE0 DUP6 ADD MSTORE PUSH1 0x8 DUP2 ADD SLOAD PUSH2 0x100 DUP6 ADD MSTORE PUSH1 0x9 DUP2 ADD SLOAD PUSH2 0x120 DUP6 ADD MSTORE PUSH1 0xA DUP2 ADD SLOAD PUSH2 0x140 DUP6 ADD MSTORE ADD SLOAD SWAP2 ADD MSTORE JUMP JUMPDEST PUSH1 0x0 JUMPDEST DUP4 DUP2 LT PUSH2 0x4387 JUMPI POP POP PUSH1 0x0 SWAP2 ADD MSTORE JUMP JUMPDEST DUP2 DUP2 ADD MLOAD DUP4 DUP3 ADD MSTORE PUSH1 0x20 ADD PUSH2 0x4377 JUMP JUMPDEST SWAP1 PUSH1 0x20 SWAP2 PUSH2 0x43B0 DUP2 MLOAD DUP1 SWAP3 DUP2 DUP6 MSTORE DUP6 DUP1 DUP7 ADD SWAP2 ADD PUSH2 0x4374 JUMP JUMPDEST PUSH1 0x1F ADD PUSH1 0x1F NOT AND ADD ADD SWAP1 JUMP JUMPDEST SWAP1 DUP2 PUSH1 0x20 SWAP2 SUB SLT PUSH2 0x1B9F JUMPI MLOAD PUSH1 0x1 PUSH1 0x1 PUSH1 0xA0 SHL SUB DUP2 AND DUP2 SUB PUSH2 0x1B9F JUMPI SWAP1 JUMP JUMPDEST SWAP2 SWAP1 DUP3 SUB SWAP2 DUP3 GT PUSH2 0x43E8 JUMPI JUMP JUMPDEST PUSH4 0x4E487B71 PUSH1 0xE0 SHL PUSH1 0x0 MSTORE PUSH1 0x11 PUSH1 0x4 MSTORE PUSH1 0x24 PUSH1 0x0 REVERT JUMPDEST SWAP1 PUSH2 0x443A PUSH1 0x24 PUSH1 0x40 MLOAD DUP1 SWAP5 PUSH4 0x333AB71 PUSH1 0xE5 SHL PUSH1 0x20 DUP4 ADD MSTORE PUSH2 0x4429 DUP2 MLOAD DUP1 SWAP3 PUSH1 0x20 DUP7 DUP7 ADD SWAP2 ADD PUSH2 0x4374 JUMP JUMPDEST DUP2 ADD SUB ADD PUSH1 0x1F NOT DUP2 ADD DUP5 MSTORE DUP4 PUSH2 0x4114 JUMP JUMPDEST JUMP JUMPDEST DUP2 DUP2 MUL SWAP3 SWAP2 DUP2 ISZERO SWAP2 DUP5 DIV EQ OR ISZERO PUSH2 0x43E8 JUMPI JUMP JUMPDEST DUP2 ISZERO PUSH2 0x4459 JUMPI DIV SWAP1 JUMP JUMPDEST PUSH4 0x4E487B71 PUSH1 0xE0 SHL PUSH1 0x0 MSTORE PUSH1 0x12 PUSH1 0x4 MSTORE PUSH1 0x24 PUSH1 0x0 REVERT JUMPDEST SWAP2 SWAP1 DUP3 PUSH1 0x40 SWAP2 SUB SLT PUSH2 0x1B9F JUMPI PUSH1 0x20 DUP3 MLOAD SWAP3 ADD MLOAD SWAP1 JUMP JUMPDEST DUP2 DUP2 LT PUSH2 0x4490 JUMPI POP POP JUMP JUMPDEST PUSH1 0x0 DUP2 SSTORE PUSH1 0x1 ADD PUSH2 0x4485 JUMP JUMPDEST DUP1 SLOAD PUSH1 0x1 PUSH1 0x40 SHL DUP2 LT ISZERO PUSH2 0x40AB JUMPI PUSH2 0x44B9 SWAP2 PUSH1 0x1 DUP3 ADD DUP2 SSTORE PUSH2 0x41CE JUMP JUMPDEST DUP2 SLOAD PUSH1 0x1 PUSH1 0x1 PUSH1 0xA0 SHL SUB SWAP4 DUP5 AND PUSH1 0x3 SWAP3 SWAP1 SWAP3 SHL SWAP2 DUP3 SHL SWAP4 SWAP1 SWAP2 SHL NOT AND SWAP2 SWAP1 SWAP2 OR SWAP1 SSTORE JUMP JUMPDEST SWAP1 DUP2 PUSH1 0x20 SWAP2 SUB SLT PUSH2 0x1B9F JUMPI MLOAD DUP1 ISZERO ISZERO DUP2 SUB PUSH2 0x1B9F JUMPI SWAP1 JUMP JUMPDEST ISZERO PUSH2 0x44FC JUMPI JUMP JUMPDEST PUSH1 0x40 MLOAD PUSH3 0x461BCD PUSH1 0xE5 SHL DUP2 MSTORE PUSH1 0x20 PUSH1 0x4 DUP3 ADD MSTORE PUSH1 0x11 PUSH1 0x24 DUP3 ADD MSTORE PUSH17 0x546F6B656E206E6F742074726164696E67 PUSH1 0x78 SHL PUSH1 0x44 DUP3 ADD MSTORE PUSH1 0x64 SWAP1 REVERT JUMPDEST SWAP2 SWAP1 DUP3 ADD DUP1 SWAP3 GT PUSH2 0x43E8 JUMPI JUMP JUMPDEST PUSH1 0x1 PUSH1 0x1 PUSH1 0xA0 SHL SUB AND DUP1 ISZERO PUSH2 0x45A2 JUMPI PUSH1 0x0 DUP1 MLOAD PUSH1 0x20 PUSH2 0x580D DUP4 CODECOPY DUP2 MLOAD SWAP2 MSTORE DUP1 SLOAD PUSH1 0x1 PUSH1 0x1 PUSH1 0xA0 SHL SUB NOT DUP2 AND DUP4 OR SWAP1 SWAP2 SSTORE PUSH1 0x1 PUSH1 0x1 PUSH1 0xA0 SHL SUB AND PUSH32 0x8BE0079C531659141344CD1FD0A4F28419497F9722A3DAAFE3B4186F6B6457E0 PUSH1 0x0 DUP1 LOG3 JUMP JUMPDEST PUSH4 0x1E4FBDF7 PUSH1 0xE0 SHL PUSH1 0x0 MSTORE PUSH1 0x0 PUSH1 0x4 MSTORE PUSH1 0x24 PUSH1 0x0 REVERT JUMPDEST PUSH1 0x0 DUP1 MLOAD PUSH1 0x20 PUSH2 0x580D DUP4 CODECOPY DUP2 MLOAD SWAP2 MSTORE SLOAD PUSH1 0x1 PUSH1 0x1 PUSH1 0xA0 SHL SUB AND CALLER SUB PUSH2 0x45D9 JUMPI JUMP JUMPDEST PUSH4 0x118CDAA7 PUSH1 0xE0 SHL PUSH1 0x0 MSTORE CALLER PUSH1 0x4 MSTORE PUSH1 0x24 PUSH1 0x0 REVERT JUMPDEST PUSH1 0x40 MLOAD PUSH4 0x23B872DD PUSH1 0xE0 SHL PUSH1 0x20 DUP3 ADD MSTORE PUSH1 0x1 PUSH1 0x1 PUSH1 0xA0 SHL SUB SWAP3 DUP4 AND PUSH1 0x24 DUP3 ADD MSTORE SWAP3 SWAP1 SWAP2 AND PUSH1 0x44 DUP4 ADD MSTORE PUSH1 0x64 DUP1 DUP4 ADD SWAP4 SWAP1 SWAP4 MSTORE SWAP2 DUP2 MSTORE PUSH2 0x443A SWAP2 PUSH2 0x4632 PUSH1 0x84 DUP4 PUSH2 0x4114 JUMP JUMPDEST PUSH2 0x4729 JUMP JUMPDEST PUSH1 0x40 MLOAD PUSH4 0x95EA7B3 PUSH1 0xE0 SHL PUSH1 0x20 DUP1 DUP4 ADD SWAP2 DUP3 MSTORE PUSH1 0x1 PUSH1 0x1 PUSH1 0xA0 SHL SUB DUP6 AND PUSH1 0x24 DUP5 ADD MSTORE PUSH1 0x44 DUP1 DUP5 ADD SWAP7 SWAP1 SWAP7 MSTORE SWAP5 DUP3 MSTORE SWAP3 SWAP4 SWAP1 SWAP3 PUSH1 0x0 SWAP1 PUSH2 0x4677 PUSH1 0x64 DUP7 PUSH2 0x4114 JUMP JUMPDEST DUP5 MLOAD SWAP1 DUP3 DUP6 GAS CALL PUSH1 0x0 MLOAD RETURNDATASIZE DUP3 PUSH2 0x46DA JUMPI JUMPDEST POP POP ISZERO PUSH2 0x4694 JUMPI POP POP POP JUMP JUMPDEST PUSH1 0x40 MLOAD PUSH4 0x95EA7B3 PUSH1 0xE0 SHL PUSH1 0x20 DUP3 ADD MSTORE PUSH1 0x1 PUSH1 0x1 PUSH1 0xA0 SHL SUB SWAP1 SWAP4 AND PUSH1 0x24 DUP5 ADD MSTORE PUSH1 0x0 PUSH1 0x44 DUP1 DUP6 ADD SWAP2 SWAP1 SWAP2 MSTORE DUP4 MSTORE PUSH2 0x443A SWAP3 PUSH2 0x4632 SWAP1 PUSH2 0x46D4 PUSH1 0x64 DUP3 PUSH2 0x4114 JUMP JUMPDEST DUP3 PUSH2 0x4729 JUMP JUMPDEST SWAP1 SWAP2 POP PUSH2 0x46F7 JUMPI POP PUSH1 0x1 PUSH1 0x1 PUSH1 0xA0 SHL SUB DUP2 AND EXTCODESIZE ISZERO ISZERO JUMPDEST CODESIZE DUP1 PUSH2 0x4688 JUMP JUMPDEST PUSH1 0x1 EQ PUSH2 0x46F0 JUMP JUMPDEST SWAP1 DUP2 PUSH1 0x20 SWAP2 SUB SLT PUSH2 0x1B9F JUMPI MLOAD PUSH1 0xFF DUP2 AND DUP2 SUB PUSH2 0x1B9F JUMPI SWAP1 JUMP JUMPDEST PUSH1 0xFF AND PUSH1 0x4D DUP2 GT PUSH2 0x43E8 JUMPI PUSH1 0xA EXP SWAP1 JUMP JUMPDEST SWAP1 PUSH1 0x0 PUSH1 0x20 SWAP2 DUP3 DUP2 MLOAD SWAP2 ADD DUP3 DUP6 GAS CALL ISZERO PUSH2 0x4784 JUMPI PUSH1 0x0 MLOAD RETURNDATASIZE PUSH2 0x477B JUMPI POP PUSH1 0x1 PUSH1 0x1 PUSH1 0xA0 SHL SUB DUP2 AND EXTCODESIZE ISZERO JUMPDEST PUSH2 0x475A JUMPI POP JUMP JUMPDEST PUSH4 0x5274AFE7 PUSH1 0xE0 SHL PUSH1 0x0 SWAP1 DUP2 MSTORE PUSH1 0x1 PUSH1 0x1 PUSH1 0xA0 SHL SUB SWAP2 SWAP1 SWAP2 AND PUSH1 0x4 MSTORE PUSH1 0x24 SWAP1 REVERT JUMPDEST PUSH1 0x1 EQ ISZERO PUSH2 0x4753 JUMP JUMPDEST PUSH1 0x40 MLOAD RETURNDATASIZE PUSH1 0x0 DUP3 RETURNDATACOPY RETURNDATASIZE SWAP1 REVERT JUMPDEST PUSH1 0xFF PUSH1 0x0 DUP1 MLOAD PUSH1 0x20 PUSH2 0x584D DUP4 CODECOPY DUP2 MLOAD SWAP2 MSTORE SLOAD PUSH1 0x40 SHR AND ISZERO PUSH2 0x47AD JUMPI JUMP JUMPDEST PUSH4 0x1AFCD79F PUSH1 0xE3 SHL PUSH1 0x0 MSTORE PUSH1 0x4 PUSH1 0x0 REVERT INVALID PUSH1 0x80 PUSH1 0x40 MSTORE CALLVALUE PUSH2 0x48C JUMPI PUSH2 0x104E DUP1 CODESIZE SUB DUP1 PUSH2 0x19 DUP2 PUSH2 0x491 JUMP JUMPDEST SWAP3 DUP4 CODECOPY DUP2 ADD SWAP1 PUSH1 0x80 DUP2 DUP4 SUB SLT PUSH2 0x48C JUMPI DUP1 MLOAD PUSH1 0x1 PUSH1 0x1 PUSH1 0x40 SHL SUB DUP2 GT PUSH2 0x48C JUMPI DUP3 PUSH2 0x45 SWAP2 DUP4 ADD PUSH2 0x4B6 JUMP JUMPDEST PUSH1 0x20 DUP3 ADD MLOAD SWAP1 SWAP3 PUSH1 0x1 PUSH1 0x1 PUSH1 0x40 SHL SUB DUP3 GT PUSH2 0x48C JUMPI PUSH2 0x65 SWAP2 DUP4 ADD PUSH2 0x4B6 JUMP JUMPDEST SWAP1 PUSH1 0x60 PUSH1 0x40 DUP3 ADD MLOAD SWAP2 ADD MLOAD SWAP1 CALLER ISZERO PUSH2 0x476 JUMPI PUSH1 0x0 DUP1 SLOAD CALLER PUSH1 0x1 PUSH1 0x1 PUSH1 0xA0 SHL SUB NOT DUP3 AND DUP2 OR DUP4 SSTORE SWAP2 PUSH1 0x1 PUSH1 0x1 PUSH1 0xA0 SHL SUB SWAP1 SWAP2 AND SWAP1 PUSH32 0x8BE0079C531659141344CD1FD0A4F28419497F9722A3DAAFE3B4186F6B6457E0 SWAP1 DUP1 LOG3 DUP4 MLOAD PUSH1 0x1 PUSH1 0x1 PUSH1 0x40 SHL SUB DUP2 GT PUSH2 0x37F JUMPI PUSH1 0x2 SLOAD PUSH1 0x1 DUP2 DUP2 SHR SWAP2 AND DUP1 ISZERO PUSH2 0x46C JUMPI JUMPDEST PUSH1 0x20 DUP3 LT EQ PUSH2 0x35F JUMPI PUSH1 0x1F DUP2 GT PUSH2 0x407 JUMPI JUMPDEST POP PUSH1 0x20 SWAP5 PUSH1 0x1F DUP3 GT PUSH1 0x1 EQ PUSH2 0x3A0 JUMPI SWAP5 DUP2 SWAP3 SWAP4 SWAP5 SWAP6 PUSH1 0x0 SWAP3 PUSH2 0x395 JUMPI JUMPDEST POP POP DUP2 PUSH1 0x1 SHL SWAP2 PUSH1 0x0 NOT SWAP1 PUSH1 0x3 SHL SHR NOT AND OR PUSH1 0x2 SSTORE JUMPDEST DUP3 MLOAD PUSH1 0x1 PUSH1 0x1 PUSH1 0x40 SHL SUB DUP2 GT PUSH2 0x37F JUMPI PUSH1 0x3 SLOAD PUSH1 0x1 DUP2 DUP2 SHR SWAP2 AND DUP1 ISZERO PUSH2 0x375 JUMPI JUMPDEST PUSH1 0x20 DUP3 LT EQ PUSH2 0x35F JUMPI PUSH1 0x1F DUP2 GT PUSH2 0x2FA JUMPI JUMPDEST POP PUSH1 0x20 PUSH1 0x1F DUP3 GT PUSH1 0x1 EQ PUSH2 0x293 JUMPI DUP2 SWAP3 SWAP4 SWAP5 PUSH1 0x0 SWAP3 PUSH2 0x288 JUMPI JUMPDEST POP POP DUP2 PUSH1 0x1 SHL SWAP2 PUSH1 0x0 NOT SWAP1 PUSH1 0x3 SHL SHR NOT AND OR PUSH1 0x3 SSTORE JUMPDEST PUSH8 0xDE0B6B3A7640000 DUP2 MUL SWAP1 DUP1 DUP3 DIV PUSH8 0xDE0B6B3A7640000 EQ SWAP1 ISZERO OR ISZERO PUSH2 0x272 JUMPI DUP1 PUSH1 0x1 SSTORE CALLER PUSH1 0x0 MSTORE PUSH1 0x6 PUSH1 0x20 MSTORE PUSH1 0x40 PUSH1 0x0 KECCAK256 SSTORE CALLER PUSH1 0x0 MSTORE PUSH1 0x8 PUSH1 0x20 MSTORE PUSH1 0x40 PUSH1 0x0 KECCAK256 PUSH1 0x1 PUSH1 0xFF NOT DUP3 SLOAD AND OR SWAP1 SSTORE ADDRESS PUSH1 0x0 MSTORE PUSH1 0x8 PUSH1 0x20 MSTORE PUSH1 0x40 PUSH1 0x0 KECCAK256 PUSH1 0x1 PUSH1 0xFF NOT DUP3 SLOAD AND OR SWAP1 SSTORE DUP1 PUSH1 0x4 SSTORE PUSH1 0x1 SLOAD SWAP1 DUP2 DUP2 MUL DUP2 DUP2 DIV DUP4 EQ DUP3 ISZERO OR ISZERO PUSH2 0x272 JUMPI PUSH32 0xFF3DD5E80294197918C284BBFC3DADD97D0B40CE92106110946329088F80068A SWAP2 PUSH1 0x64 PUSH1 0x20 SWAP3 DIV PUSH1 0x5 SSTORE PUSH1 0x40 MLOAD SWAP1 DUP2 MSTORE LOG1 PUSH1 0x40 MLOAD SWAP1 DUP2 MSTORE PUSH1 0x0 PUSH32 0xDDF252AD1BE2C89B69C2B068FC378DAA952BA7F163C4A11628F55A4DF523B3EF PUSH1 0x20 CALLER SWAP4 LOG3 PUSH1 0x40 MLOAD PUSH2 0xB2C SWAP1 DUP2 PUSH2 0x522 DUP3 CODECOPY RETURN JUMPDEST PUSH4 0x4E487B71 PUSH1 0xE0 SHL PUSH1 0x0 MSTORE PUSH1 0x11 PUSH1 0x4 MSTORE PUSH1 0x24 PUSH1 0x0 REVERT JUMPDEST ADD MLOAD SWAP1 POP CODESIZE DUP1 PUSH2 0x16F JUMP JUMPDEST PUSH1 0x1F NOT DUP3 AND SWAP1 PUSH1 0x3 PUSH1 0x0 MSTORE DUP1 PUSH1 0x0 KECCAK256 SWAP2 PUSH1 0x0 JUMPDEST DUP2 DUP2 LT PUSH2 0x2E2 JUMPI POP SWAP6 DUP4 PUSH1 0x1 SWAP6 SWAP7 SWAP8 LT PUSH2 0x2C9 JUMPI JUMPDEST POP POP POP DUP2 SHL ADD PUSH1 0x3 SSTORE PUSH2 0x185 JUMP JUMPDEST ADD MLOAD PUSH1 0x0 NOT PUSH1 0xF8 DUP5 PUSH1 0x3 SHL AND SHR NOT AND SWAP1 SSTORE CODESIZE DUP1 DUP1 PUSH2 0x2BB JUMP JUMPDEST SWAP2 SWAP3 PUSH1 0x20 PUSH1 0x1 DUP2 SWAP3 DUP7 DUP12 ADD MLOAD DUP2 SSTORE ADD SWAP5 ADD SWAP3 ADD PUSH2 0x2A6 JUMP JUMPDEST PUSH1 0x3 PUSH1 0x0 MSTORE PUSH32 0xC2575A0E9E593C00F959F8C92F12DB2869C3395A3B0502D05E2516446F71F85B PUSH1 0x1F DUP4 ADD PUSH1 0x5 SHR DUP2 ADD SWAP2 PUSH1 0x20 DUP5 LT PUSH2 0x355 JUMPI JUMPDEST PUSH1 0x1F ADD PUSH1 0x5 SHR ADD SWAP1 JUMPDEST DUP2 DUP2 LT PUSH2 0x349 JUMPI POP PUSH2 0x155 JUMP JUMPDEST PUSH1 0x0 DUP2 SSTORE PUSH1 0x1 ADD PUSH2 0x33C JUMP JUMPDEST SWAP1 SWAP2 POP DUP2 SWAP1 PUSH2 0x333 JUMP JUMPDEST PUSH4 0x4E487B71 PUSH1 0xE0 SHL PUSH1 0x0 MSTORE PUSH1 0x22 PUSH1 0x4 MSTORE PUSH1 0x24 PUSH1 0x0 REVERT JUMPDEST SWAP1 PUSH1 0x7F AND SWAP1 PUSH2 0x143 JUMP JUMPDEST PUSH4 0x4E487B71 PUSH1 0xE0 SHL PUSH1 0x0 MSTORE PUSH1 0x41 PUSH1 0x4 MSTORE PUSH1 0x24 PUSH1 0x0 REVERT JUMPDEST ADD MLOAD SWAP1 POP CODESIZE DUP1 PUSH2 0x10C JUMP JUMPDEST PUSH1 0x1F NOT DUP3 AND SWAP6 PUSH1 0x2 PUSH1 0x0 MSTORE DUP1 PUSH1 0x0 KECCAK256 SWAP2 PUSH1 0x0 JUMPDEST DUP9 DUP2 LT PUSH2 0x3EF JUMPI POP DUP4 PUSH1 0x1 SWAP6 SWAP7 SWAP8 SWAP9 LT PUSH2 0x3D6 JUMPI JUMPDEST POP POP POP DUP2 SHL ADD PUSH1 0x2 SSTORE PUSH2 0x122 JUMP JUMPDEST ADD MLOAD PUSH1 0x0 NOT PUSH1 0xF8 DUP5 PUSH1 0x3 SHL AND SHR NOT AND SWAP1 SSTORE CODESIZE DUP1 DUP1 PUSH2 0x3C8 JUMP JUMPDEST SWAP2 SWAP3 PUSH1 0x20 PUSH1 0x1 DUP2 SWAP3 DUP7 DUP6 ADD MLOAD DUP2 SSTORE ADD SWAP5 ADD SWAP3 ADD PUSH2 0x3B3 JUMP JUMPDEST PUSH1 0x2 PUSH1 0x0 MSTORE PUSH32 0x405787FA12A823E0F2B7631CC41B3BA8828B3321CA811111FA75CD3AA3BB5ACE PUSH1 0x1F DUP4 ADD PUSH1 0x5 SHR DUP2 ADD SWAP2 PUSH1 0x20 DUP5 LT PUSH2 0x462 JUMPI JUMPDEST PUSH1 0x1F ADD PUSH1 0x5 SHR ADD SWAP1 JUMPDEST DUP2 DUP2 LT PUSH2 0x456 JUMPI POP PUSH2 0xEF JUMP JUMPDEST PUSH1 0x0 DUP2 SSTORE PUSH1 0x1 ADD PUSH2 0x449 JUMP JUMPDEST SWAP1 SWAP2 POP DUP2 SWAP1 PUSH2 0x440 JUMP JUMPDEST SWAP1 PUSH1 0x7F AND SWAP1 PUSH2 0xDD JUMP JUMPDEST PUSH4 0x1E4FBDF7 PUSH1 0xE0 SHL PUSH1 0x0 MSTORE PUSH1 0x0 PUSH1 0x4 MSTORE PUSH1 0x24 PUSH1 0x0 REVERT JUMPDEST PUSH1 0x0 DUP1 REVERT JUMPDEST PUSH1 0x40 MLOAD SWAP2 SWAP1 PUSH1 0x1F ADD PUSH1 0x1F NOT AND DUP3 ADD PUSH1 0x1 PUSH1 0x1 PUSH1 0x40 SHL SUB DUP2 GT DUP4 DUP3 LT OR PUSH2 0x37F JUMPI PUSH1 0x40 MSTORE JUMP JUMPDEST DUP2 PUSH1 0x1F DUP3 ADD SLT ISZERO PUSH2 0x48C JUMPI DUP1 MLOAD SWAP1 PUSH1 0x1 PUSH1 0x1 PUSH1 0x40 SHL SUB DUP3 GT PUSH2 0x37F JUMPI PUSH2 0x4E5 PUSH1 0x1F DUP4 ADD PUSH1 0x1F NOT AND PUSH1 0x20 ADD PUSH2 0x491 JUMP JUMPDEST SWAP3 DUP3 DUP5 MSTORE PUSH1 0x20 DUP4 DUP4 ADD ADD GT PUSH2 0x48C JUMPI PUSH1 0x0 JUMPDEST DUP3 DUP2 LT PUSH2 0x50C JUMPI POP POP PUSH1 0x20 PUSH1 0x0 SWAP2 DUP4 ADD ADD MSTORE SWAP1 JUMP JUMPDEST DUP1 PUSH1 0x20 DUP1 SWAP3 DUP5 ADD ADD MLOAD DUP3 DUP3 DUP8 ADD ADD MSTORE ADD PUSH2 0x4F7 JUMP INVALID PUSH1 0x80 DUP1 PUSH1 0x40 MSTORE PUSH1 0x4 CALLDATASIZE LT ISZERO PUSH2 0x13 JUMPI PUSH1 0x0 DUP1 REVERT JUMPDEST PUSH1 0x0 CALLDATALOAD PUSH1 0xE0 SHR SWAP1 DUP2 PUSH4 0x6FDDE03 EQ PUSH2 0x67C JUMPI POP DUP1 PUSH4 0x95EA7B3 EQ PUSH2 0x656 JUMPI DUP1 PUSH4 0x18160DDD EQ PUSH2 0x638 JUMPI DUP1 PUSH4 0x23B872DD EQ PUSH2 0x5D2 JUMPI DUP1 PUSH4 0x313CE567 EQ PUSH2 0x5B6 JUMPI DUP1 PUSH4 0x70A08231 EQ PUSH2 0x57C JUMPI DUP1 PUSH4 0x715018A6 EQ PUSH2 0x523 JUMPI DUP1 PUSH4 0x7437681E EQ PUSH2 0x505 JUMPI DUP1 PUSH4 0x79CC6790 EQ PUSH2 0x44A JUMPI DUP1 PUSH4 0x8DA5CB5B EQ PUSH2 0x421 JUMPI DUP1 PUSH4 0x95D89B41 EQ PUSH2 0x300 JUMPI DUP1 PUSH4 0xA9059CBB EQ PUSH2 0x2CF JUMPI DUP1 PUSH4 0xC2D0FFCA EQ PUSH2 0x252 JUMPI DUP1 PUSH4 0xDB4CF1E0 EQ PUSH2 0x1AE JUMPI DUP1 PUSH4 0xDD62ED3E EQ PUSH2 0x15D JUMPI PUSH4 0xF2FDE38B EQ PUSH2 0xCF JUMPI PUSH1 0x0 DUP1 REVERT JUMPDEST CALLVALUE PUSH2 0x158 JUMPI PUSH1 0x20 CALLDATASIZE PUSH1 0x3 NOT ADD SLT PUSH2 0x158 JUMPI PUSH2 0xE8 PUSH2 0x798 JUMP JUMPDEST PUSH2 0xF0 PUSH2 0xACD JUMP JUMPDEST PUSH1 0x1 PUSH1 0x1 PUSH1 0xA0 SHL SUB AND DUP1 ISZERO PUSH2 0x142 JUMPI PUSH1 0x0 DUP1 SLOAD PUSH1 0x1 PUSH1 0x1 PUSH1 0xA0 SHL SUB NOT DUP2 AND DUP4 OR DUP3 SSTORE PUSH1 0x1 PUSH1 0x1 PUSH1 0xA0 SHL SUB AND SWAP1 PUSH32 0x8BE0079C531659141344CD1FD0A4F28419497F9722A3DAAFE3B4186F6B6457E0 SWAP1 DUP1 LOG3 STOP JUMPDEST PUSH4 0x1E4FBDF7 PUSH1 0xE0 SHL PUSH1 0x0 MSTORE PUSH1 0x0 PUSH1 0x4 MSTORE PUSH1 0x24 PUSH1 0x0 REVERT JUMPDEST PUSH1 0x0 DUP1 REVERT JUMPDEST CALLVALUE PUSH2 0x158 JUMPI PUSH1 0x40 CALLDATASIZE PUSH1 0x3 NOT ADD SLT PUSH2 0x158 JUMPI PUSH2 0x176 PUSH2 0x798 JUMP JUMPDEST PUSH2 0x17E PUSH2 0x7AE JUMP JUMPDEST PUSH1 0x1 PUSH1 0x1 PUSH1 0xA0 SHL SUB SWAP2 DUP3 AND PUSH1 0x0 SWAP1 DUP2 MSTORE PUSH1 0x7 PUSH1 0x20 SWAP1 DUP2 MSTORE PUSH1 0x40 DUP1 DUP4 KECCAK256 SWAP5 SWAP1 SWAP4 AND DUP3 MSTORE SWAP3 DUP4 MSTORE DUP2 SWAP1 KECCAK256 SLOAD SWAP1 MLOAD SWAP1 DUP2 MSTORE RETURN JUMPDEST CALLVALUE PUSH2 0x158 JUMPI PUSH1 0x20 CALLDATASIZE PUSH1 0x3 NOT ADD SLT PUSH2 0x158 JUMPI PUSH2 0x1C7 PUSH2 0x798 JUMP JUMPDEST PUSH2 0x1CF PUSH2 0xACD JUMP JUMPDEST PUSH1 0x1 PUSH1 0x1 PUSH1 0xA0 SHL SUB AND DUP1 ISZERO PUSH2 0x1F9 JUMPI PUSH1 0x0 SWAP1 DUP2 MSTORE PUSH1 0x8 PUSH1 0x20 MSTORE PUSH1 0x40 SWAP1 KECCAK256 DUP1 SLOAD PUSH1 0xFF NOT AND PUSH1 0x1 OR SWAP1 SSTORE STOP JUMPDEST PUSH1 0x40 MLOAD PUSH3 0x461BCD PUSH1 0xE5 SHL DUP2 MSTORE PUSH1 0x20 PUSH1 0x4 DUP3 ADD MSTORE PUSH1 0x2B PUSH1 0x24 DUP3 ADD MSTORE PUSH32 0x45524332303A204578636C756465204D61782054782066726F6D20746865207A PUSH1 0x44 DUP3 ADD MSTORE PUSH11 0x65726F2061646472657373 PUSH1 0xA8 SHL PUSH1 0x64 DUP3 ADD MSTORE PUSH1 0x84 SWAP1 REVERT JUMPDEST CALLVALUE PUSH2 0x158 JUMPI PUSH1 0x20 CALLDATASIZE PUSH1 0x3 NOT ADD SLT PUSH2 0x158 JUMPI PUSH1 0x4 CALLDATALOAD PUSH2 0x26E PUSH2 0xACD JUMP JUMPDEST DUP1 PUSH1 0x4 SSTORE PUSH1 0x1 SLOAD DUP1 DUP3 MUL SWAP1 DUP3 DUP3 DIV EQ DUP3 ISZERO OR ISZERO PUSH2 0x2B9 JUMPI PUSH32 0xFF3DD5E80294197918C284BBFC3DADD97D0B40CE92106110946329088F80068A SWAP2 PUSH1 0x64 PUSH1 0x20 SWAP3 DIV PUSH1 0x5 SSTORE PUSH1 0x40 MLOAD SWAP1 DUP2 MSTORE LOG1 STOP JUMPDEST PUSH4 0x4E487B71 PUSH1 0xE0 SHL PUSH1 0x0 MSTORE PUSH1 0x11 PUSH1 0x4 MSTORE PUSH1 0x24 PUSH1 0x0 REVERT JUMPDEST CALLVALUE PUSH2 0x158 JUMPI PUSH1 0x40 CALLDATASIZE PUSH1 0x3 NOT ADD SLT PUSH2 0x158 JUMPI PUSH2 0x2F5 PUSH2 0x2EB PUSH2 0x798 JUMP JUMPDEST PUSH1 0x24 CALLDATALOAD SWAP1 CALLER PUSH2 0x8D9 JUMP JUMPDEST PUSH1 0x20 PUSH1 0x40 MLOAD PUSH1 0x1 DUP2 MSTORE RETURN JUMPDEST CALLVALUE PUSH2 0x158 JUMPI PUSH1 0x0 CALLDATASIZE PUSH1 0x3 NOT ADD SLT PUSH2 0x158 JUMPI PUSH1 0x40 MLOAD PUSH1 0x0 PUSH1 0x3 SLOAD DUP1 PUSH1 0x1 SHR SWAP1 PUSH1 0x1 DUP2 AND DUP1 ISZERO PUSH2 0x417 JUMPI JUMPDEST PUSH1 0x20 DUP4 LT DUP2 EQ PUSH2 0x403 JUMPI DUP3 DUP6 MSTORE SWAP1 DUP2 ISZERO PUSH2 0x3E7 JUMPI POP PUSH1 0x1 EQ PUSH2 0x390 JUMPI JUMPDEST POP DUP2 SWAP1 SUB PUSH1 0x1F ADD PUSH1 0x1F NOT AND DUP2 ADD SWAP1 PUSH8 0xFFFFFFFFFFFFFFFF DUP3 GT DUP2 DUP4 LT OR PUSH2 0x37A JUMPI PUSH2 0x376 DUP3 SWAP2 DUP3 PUSH1 0x40 MSTORE DUP3 PUSH2 0x74F JUMP JUMPDEST SUB SWAP1 RETURN JUMPDEST PUSH4 0x4E487B71 PUSH1 0xE0 SHL PUSH1 0x0 MSTORE PUSH1 0x41 PUSH1 0x4 MSTORE PUSH1 0x24 PUSH1 0x0 REVERT JUMPDEST SWAP1 POP PUSH1 0x3 PUSH1 0x0 MSTORE PUSH32 0xC2575A0E9E593C00F959F8C92F12DB2869C3395A3B0502D05E2516446F71F85B PUSH1 0x0 SWAP1 JUMPDEST DUP3 DUP3 LT PUSH2 0x3D1 JUMPI POP PUSH1 0x20 SWAP2 POP DUP3 ADD ADD DUP3 PUSH2 0x346 JUMP JUMPDEST PUSH1 0x1 DUP2 PUSH1 0x20 SWAP3 SLOAD DUP4 DUP6 DUP9 ADD ADD MSTORE ADD SWAP2 ADD SWAP1 PUSH2 0x3BC JUMP JUMPDEST SWAP1 POP PUSH1 0x20 SWAP3 POP PUSH1 0xFF NOT AND DUP3 DUP5 ADD MSTORE ISZERO ISZERO PUSH1 0x5 SHL DUP3 ADD ADD DUP3 PUSH2 0x346 JUMP JUMPDEST PUSH4 0x4E487B71 PUSH1 0xE0 SHL DUP5 MSTORE PUSH1 0x22 PUSH1 0x4 MSTORE PUSH1 0x24 DUP5 REVERT JUMPDEST SWAP2 PUSH1 0x7F AND SWAP2 PUSH2 0x329 JUMP JUMPDEST CALLVALUE PUSH2 0x158 JUMPI PUSH1 0x0 CALLDATASIZE PUSH1 0x3 NOT ADD SLT PUSH2 0x158 JUMPI PUSH1 0x0 SLOAD PUSH1 0x40 MLOAD PUSH1 0x1 PUSH1 0x1 PUSH1 0xA0 SHL SUB SWAP1 SWAP2 AND DUP2 MSTORE PUSH1 0x20 SWAP1 RETURN JUMPDEST CALLVALUE PUSH2 0x158 JUMPI PUSH1 0x40 CALLDATASIZE PUSH1 0x3 NOT ADD SLT PUSH2 0x158 JUMPI PUSH2 0x463 PUSH2 0x798 JUMP JUMPDEST PUSH1 0x24 CALLDATALOAD SWAP1 PUSH2 0x46F PUSH2 0xACD JUMP JUMPDEST PUSH1 0x1 PUSH1 0x1 PUSH1 0xA0 SHL SUB AND DUP1 ISZERO PUSH2 0x4CE JUMPI PUSH32 0xDDF252AD1BE2C89B69C2B068FC378DAA952BA7F163C4A11628F55A4DF523B3EF PUSH1 0x20 PUSH1 0x0 SWAP4 DUP4 DUP6 MSTORE PUSH1 0x6 DUP3 MSTORE PUSH2 0x4B9 DUP2 PUSH1 0x40 DUP8 KECCAK256 SLOAD PUSH2 0x7C4 JUMP JUMPDEST DUP5 DUP7 MSTORE PUSH1 0x6 DUP4 MSTORE PUSH1 0x40 DUP7 KECCAK256 SSTORE PUSH1 0x40 MLOAD SWAP1 DUP2 MSTORE LOG3 STOP JUMPDEST PUSH1 0x40 MLOAD PUSH3 0x461BCD PUSH1 0xE5 SHL DUP2 MSTORE PUSH1 0x20 PUSH1 0x4 DUP3 ADD MSTORE PUSH1 0xF PUSH1 0x24 DUP3 ADD MSTORE PUSH15 0x496E76616C69642061646472657373 PUSH1 0x88 SHL PUSH1 0x44 DUP3 ADD MSTORE PUSH1 0x64 SWAP1 REVERT JUMPDEST CALLVALUE PUSH2 0x158 JUMPI PUSH1 0x0 CALLDATASIZE PUSH1 0x3 NOT ADD SLT PUSH2 0x158 JUMPI PUSH1 0x20 PUSH1 0x4 SLOAD PUSH1 0x40 MLOAD SWAP1 DUP2 MSTORE RETURN JUMPDEST CALLVALUE PUSH2 0x158 JUMPI PUSH1 0x0 CALLDATASIZE PUSH1 0x3 NOT ADD SLT PUSH2 0x158 JUMPI PUSH2 0x53C PUSH2 0xACD JUMP JUMPDEST PUSH1 0x0 DUP1 SLOAD PUSH1 0x1 PUSH1 0x1 PUSH1 0xA0 SHL SUB NOT DUP2 AND DUP3 SSTORE PUSH1 0x1 PUSH1 0x1 PUSH1 0xA0 SHL SUB AND PUSH32 0x8BE0079C531659141344CD1FD0A4F28419497F9722A3DAAFE3B4186F6B6457E0 DUP3 DUP1 LOG3 STOP JUMPDEST CALLVALUE PUSH2 0x158 JUMPI PUSH1 0x20 CALLDATASIZE PUSH1 0x3 NOT ADD SLT PUSH2 0x158 JUMPI PUSH1 0x1 PUSH1 0x1 PUSH1 0xA0 SHL SUB PUSH2 0x59D PUSH2 0x798 JUMP JUMPDEST AND PUSH1 0x0 MSTORE PUSH1 0x6 PUSH1 0x20 MSTORE PUSH1 0x20 PUSH1 0x40 PUSH1 0x0 KECCAK256 SLOAD PUSH1 0x40 MLOAD SWAP1 DUP2 MSTORE RETURN JUMPDEST CALLVALUE PUSH2 0x158 JUMPI PUSH1 0x0 CALLDATASIZE PUSH1 0x3 NOT ADD SLT PUSH2 0x158 JUMPI PUSH1 0x20 PUSH1 0x40 MLOAD PUSH1 0x12 DUP2 MSTORE RETURN JUMPDEST CALLVALUE PUSH2 0x158 JUMPI PUSH1 0x60 CALLDATASIZE PUSH1 0x3 NOT ADD SLT PUSH2 0x158 JUMPI PUSH2 0x2F5 PUSH2 0x5EE PUSH2 0x798 JUMP JUMPDEST PUSH2 0x630 PUSH2 0x5F9 PUSH2 0x7AE JUMP JUMPDEST PUSH2 0x607 PUSH1 0x44 CALLDATALOAD DUP1 SWAP3 DUP6 PUSH2 0x8D9 JUMP JUMPDEST PUSH1 0x1 PUSH1 0x1 PUSH1 0xA0 SHL SUB DUP4 AND PUSH1 0x0 SWAP1 DUP2 MSTORE PUSH1 0x7 PUSH1 0x20 SWAP1 DUP2 MSTORE PUSH1 0x40 DUP1 DUP4 KECCAK256 CALLER DUP5 MSTORE SWAP1 SWAP2 MSTORE SWAP1 KECCAK256 SLOAD PUSH2 0x7C4 JUMP JUMPDEST SWAP1 CALLER SWAP1 PUSH2 0x7D1 JUMP JUMPDEST CALLVALUE PUSH2 0x158 JUMPI PUSH1 0x0 CALLDATASIZE PUSH1 0x3 NOT ADD SLT PUSH2 0x158 JUMPI PUSH1 0x20 PUSH1 0x1 SLOAD PUSH1 0x40 MLOAD SWAP1 DUP2 MSTORE RETURN JUMPDEST CALLVALUE PUSH2 0x158 JUMPI PUSH1 0x40 CALLDATASIZE PUSH1 0x3 NOT ADD SLT PUSH2 0x158 JUMPI PUSH2 0x2F5 PUSH2 0x672 PUSH2 0x798 JUMP JUMPDEST PUSH1 0x24 CALLDATALOAD SWAP1 CALLER PUSH2 0x7D1 JUMP JUMPDEST CALLVALUE PUSH2 0x158 JUMPI PUSH1 0x0 CALLDATASIZE PUSH1 0x3 NOT ADD SLT PUSH2 0x158 JUMPI PUSH1 0x0 PUSH1 0x2 SLOAD DUP1 PUSH1 0x1 SHR SWAP1 PUSH1 0x1 DUP2 AND DUP1 ISZERO PUSH2 0x745 JUMPI JUMPDEST PUSH1 0x20 DUP4 LT DUP2 EQ PUSH2 0x403 JUMPI DUP3 DUP6 MSTORE SWAP1 DUP2 ISZERO PUSH2 0x3E7 JUMPI POP PUSH1 0x1 EQ PUSH2 0x6EE JUMPI POP DUP2 SWAP1 SUB PUSH1 0x1F ADD PUSH1 0x1F NOT AND DUP2 ADD SWAP1 PUSH8 0xFFFFFFFFFFFFFFFF DUP3 GT DUP2 DUP4 LT OR PUSH2 0x37A JUMPI PUSH2 0x376 DUP3 SWAP2 DUP3 PUSH1 0x40 MSTORE DUP3 PUSH2 0x74F JUMP JUMPDEST SWAP1 POP PUSH1 0x2 PUSH1 0x0 MSTORE PUSH32 0x405787FA12A823E0F2B7631CC41B3BA8828B3321CA811111FA75CD3AA3BB5ACE PUSH1 0x0 SWAP1 JUMPDEST DUP3 DUP3 LT PUSH2 0x72F JUMPI POP PUSH1 0x20 SWAP2 POP DUP3 ADD ADD DUP3 PUSH2 0x346 JUMP JUMPDEST PUSH1 0x1 DUP2 PUSH1 0x20 SWAP3 SLOAD DUP4 DUP6 DUP9 ADD ADD MSTORE ADD SWAP2 ADD SWAP1 PUSH2 0x71A JUMP JUMPDEST SWAP2 PUSH1 0x7F AND SWAP2 PUSH2 0x6A2 JUMP JUMPDEST SWAP2 SWAP1 SWAP2 PUSH1 0x20 DUP2 MSTORE DUP3 MLOAD DUP1 PUSH1 0x20 DUP4 ADD MSTORE PUSH1 0x0 JUMPDEST DUP2 DUP2 LT PUSH2 0x782 JUMPI POP PUSH1 0x40 SWAP3 SWAP4 POP PUSH1 0x0 DUP4 DUP3 DUP5 ADD ADD MSTORE PUSH1 0x1F DUP1 NOT SWAP2 ADD AND ADD ADD SWAP1 JUMP JUMPDEST DUP1 PUSH1 0x20 DUP1 SWAP3 DUP8 ADD ADD MLOAD PUSH1 0x40 DUP3 DUP7 ADD ADD MSTORE ADD PUSH2 0x761 JUMP JUMPDEST PUSH1 0x4 CALLDATALOAD SWAP1 PUSH1 0x1 PUSH1 0x1 PUSH1 0xA0 SHL SUB DUP3 AND DUP3 SUB PUSH2 0x158 JUMPI JUMP JUMPDEST PUSH1 0x24 CALLDATALOAD SWAP1 PUSH1 0x1 PUSH1 0x1 PUSH1 0xA0 SHL SUB DUP3 AND DUP3 SUB PUSH2 0x158 JUMPI JUMP JUMPDEST SWAP2 SWAP1 DUP3 SUB SWAP2 DUP3 GT PUSH2 0x2B9 JUMPI JUMP JUMPDEST PUSH1 0x1 PUSH1 0x1 PUSH1 0xA0 SHL SUB AND SWAP1 DUP2 ISZERO PUSH2 0x888 JUMPI PUSH1 0x1 PUSH1 0x1 PUSH1 0xA0 SHL SUB AND SWAP2 DUP3 ISZERO PUSH2 0x838 JUMPI PUSH1 0x20 PUSH32 0x8C5BE1E5EBEC7D5BD14F71427D1E84F3DD0314C0F7B2291E5B200AC8C7C3B925 SWAP2 DUP4 PUSH1 0x0 MSTORE PUSH1 0x7 DUP3 MSTORE PUSH1 0x40 PUSH1 0x0 KECCAK256 DUP6 PUSH1 0x0 MSTORE DUP3 MSTORE DUP1 PUSH1 0x40 PUSH1 0x0 KECCAK256 SSTORE PUSH1 0x40 MLOAD SWAP1 DUP2 MSTORE LOG3 JUMP JUMPDEST PUSH1 0x40 MLOAD PUSH3 0x461BCD PUSH1 0xE5 SHL DUP2 MSTORE PUSH1 0x20 PUSH1 0x4 DUP3 ADD MSTORE PUSH1 0x22 PUSH1 0x24 DUP3 ADD MSTORE PUSH32 0x45524332303A20617070726F766520746F20746865207A65726F206164647265 PUSH1 0x44 DUP3 ADD MSTORE PUSH2 0x7373 PUSH1 0xF0 SHL PUSH1 0x64 DUP3 ADD MSTORE PUSH1 0x84 SWAP1 REVERT JUMPDEST PUSH1 0x40 MLOAD PUSH3 0x461BCD PUSH1 0xE5 SHL DUP2 MSTORE PUSH1 0x20 PUSH1 0x4 DUP3 ADD MSTORE PUSH1 0x24 DUP1 DUP3 ADD MSTORE PUSH32 0x45524332303A20617070726F76652066726F6D20746865207A65726F20616464 PUSH1 0x44 DUP3 ADD MSTORE PUSH4 0x72657373 PUSH1 0xE0 SHL PUSH1 0x64 DUP3 ADD MSTORE PUSH1 0x84 SWAP1 REVERT JUMPDEST PUSH1 0x1 PUSH1 0x1 PUSH1 0xA0 SHL SUB AND SWAP1 DUP2 ISZERO PUSH2 0xA7A JUMPI PUSH1 0x1 PUSH1 0x1 PUSH1 0xA0 SHL SUB AND SWAP2 DUP3 ISZERO PUSH2 0xA29 JUMPI DUP1 ISZERO PUSH2 0x9D2 JUMPI DUP2 PUSH1 0x0 MSTORE PUSH1 0x8 PUSH1 0x20 MSTORE PUSH1 0xFF PUSH1 0x40 PUSH1 0x0 KECCAK256 SLOAD AND ISZERO PUSH2 0x993 JUMPI JUMPDEST DUP2 PUSH1 0x0 MSTORE PUSH1 0x6 PUSH1 0x20 MSTORE PUSH2 0x92F DUP2 PUSH1 0x40 PUSH1 0x0 KECCAK256 SLOAD PUSH2 0x7C4 JUMP JUMPDEST DUP3 PUSH1 0x0 MSTORE PUSH1 0x6 PUSH1 0x20 MSTORE PUSH1 0x40 PUSH1 0x0 KECCAK256 SSTORE DUP3 PUSH1 0x0 MSTORE PUSH1 0x6 PUSH1 0x20 MSTORE PUSH1 0x40 PUSH1 0x0 KECCAK256 SLOAD DUP2 DUP2 ADD DUP1 SWAP2 GT PUSH2 0x2B9 JUMPI PUSH32 0xDDF252AD1BE2C89B69C2B068FC378DAA952BA7F163C4A11628F55A4DF523B3EF SWAP2 PUSH1 0x20 SWAP2 DUP6 PUSH1 0x0 MSTORE PUSH1 0x6 DUP4 MSTORE PUSH1 0x40 PUSH1 0x0 KECCAK256 SSTORE PUSH1 0x40 MLOAD SWAP1 DUP2 MSTORE LOG3 JUMP JUMPDEST PUSH1 0x5 SLOAD DUP2 GT ISZERO PUSH2 0x917 JUMPI PUSH1 0x40 MLOAD PUSH3 0x461BCD PUSH1 0xE5 SHL DUP2 MSTORE PUSH1 0x20 PUSH1 0x4 DUP3 ADD MSTORE PUSH1 0xD PUSH1 0x24 DUP3 ADD MSTORE PUSH13 0x8AF0C6CACAC8E6409AC2F0A8F PUSH1 0x9B SHL PUSH1 0x44 DUP3 ADD MSTORE PUSH1 0x64 SWAP1 REVERT JUMPDEST PUSH1 0x40 MLOAD PUSH3 0x461BCD PUSH1 0xE5 SHL DUP2 MSTORE PUSH1 0x20 PUSH1 0x4 DUP3 ADD MSTORE PUSH1 0x29 PUSH1 0x24 DUP3 ADD MSTORE PUSH32 0x5472616E7366657220616D6F756E74206D757374206265206772656174657220 PUSH1 0x44 DUP3 ADD MSTORE PUSH9 0x7468616E207A65726F PUSH1 0xB8 SHL PUSH1 0x64 DUP3 ADD MSTORE PUSH1 0x84 SWAP1 REVERT JUMPDEST PUSH1 0x40 MLOAD PUSH3 0x461BCD PUSH1 0xE5 SHL DUP2 MSTORE PUSH1 0x20 PUSH1 0x4 DUP3 ADD MSTORE PUSH1 0x23 PUSH1 0x24 DUP3 ADD MSTORE PUSH32 0x45524332303A207472616E7366657220746F20746865207A65726F2061646472 PUSH1 0x44 DUP3 ADD MSTORE PUSH3 0x657373 PUSH1 0xE8 SHL PUSH1 0x64 DUP3 ADD MSTORE PUSH1 0x84 SWAP1 REVERT JUMPDEST PUSH1 0x40 MLOAD PUSH3 0x461BCD PUSH1 0xE5 SHL DUP2 MSTORE PUSH1 0x20 PUSH1 0x4 DUP3 ADD MSTORE PUSH1 0x25 PUSH1 0x24 DUP3 ADD MSTORE PUSH32 0x45524332303A207472616E736665722066726F6D20746865207A65726F206164 PUSH1 0x44 DUP3 ADD MSTORE PUSH5 0x6472657373 PUSH1 0xD8 SHL PUSH1 0x64 DUP3 ADD MSTORE PUSH1 0x84 SWAP1 REVERT JUMPDEST PUSH1 0x0 SLOAD PUSH1 0x1 PUSH1 0x1 PUSH1 0xA0 SHL SUB AND CALLER SUB PUSH2 0xAE1 JUMPI JUMP JUMPDEST PUSH4 0x118CDAA7 PUSH1 0xE0 SHL PUSH1 0x0 MSTORE CALLER PUSH1 0x4 MSTORE PUSH1 0x24 PUSH1 0x0 REVERT INVALID LOG2 PUSH5 0x6970667358 0x22 SLT KECCAK256 MSTORE8 CALL 0x29 0x2A RETURN SELFBALANCE 0x23 0xE2 EXP PUSH19 0x902575D303DD89F166A1509CF40D85D611B2A6 0xC6 INVALID 0x4E PUSH5 0x736F6C6343 STOP ADDMOD SHR STOP CALLER SWAP1 AND 0xD0 SWAP14 PUSH19 0xD40FDAE2FD8CEAC6B6234C7706214FD39C1CD1 0xE6 MULMOD LOG0 MSTORE DUP13 NOT SWAP4 STOP SWAP12 PUSH24 0x9B17422D0DF92223018B32B4D1FA46E071723D6817E2486D STOP EXTCODESIZE 0xEC 0xC5 PUSH0 STOP CREATE 0xC5 PUSH31 0x16840DF040F15088DC2F81FE391C3923BEC73E23A9662EFC9C229C6A00A264 PUSH10 0x70667358221220BBF66A 0xBA 0xEF SELFDESTRUCT 0xD 0x2E DUP14 MLOAD 0xD4 MCOPY 0xC1 0xA5 BALANCE INVALID PUSH23 0xD27451027B1C4AD6E42B1BA2938F1D64736F6C63430008 SHR STOP CALLER "},"methodIdentifiers":{"K()":"a932492f","agentFactory()":"7df107ea","assetRate()":"e8e6ed69","buy(uint256,address)":"7deb6025","factory()":"c45a0155","fee()":"ddca3f43","getUserTokens(address)":"519dc8d2","gradThreshold()":"6edd12e0","initialSupply()":"378dc3dc","initialize(address,address,address,uint256,uint256,uint256,uint256,address,uint256)":"ea6eef49","launch(string,string,uint8[],string,string,string[4],uint256)":"3c0b93aa","maxTx()":"7437681e","owner()":"8da5cb5b","profile(address)":"9dd9d0fd","profiles(uint256)":"c36fe3d6","renounceOwnership()":"715018a6","router()":"f887ea40","sell(uint256,address)":"4189a68e","setAssetRate(uint256)":"cc489688","setDeployParams((bytes32,address,uint32,uint256))":"43fb4d24","setFee(uint256,address)":"b4f2e8b8","setGradThreshold(uint256)":"09c8962c","setInitialSupply(uint256)":"61402596","setMaxTx(uint256)":"bc337182","tokenInfo(address)":"f5dab711","tokenInfos(uint256)":"7c13774b","transferOwnership(address)":"f2fde38b","unwrapToken(address,address[])":"7f13a90b"}},"storageLayout":{"storage":[{"astId":2722,"contract":"contracts/fun/Bonding.sol:Bonding","label":"_feeTo","offset":0,"slot":"0","type":"t_address"},{"astId":2725,"contract":"contracts/fun/Bonding.sol:Bonding","label":"factory","offset":0,"slot":"1","type":"t_contract(FFactory)5067"},{"astId":2728,"contract":"contracts/fun/Bonding.sol:Bonding","label":"router","offset":0,"slot":"2","type":"t_contract(FRouter)6146"},{"astId":2730,"contract":"contracts/fun/Bonding.sol:Bonding","label":"initialSupply","offset":0,"slot":"3","type":"t_uint256"},{"astId":2732,"contract":"contracts/fun/Bonding.sol:Bonding","label":"fee","offset":0,"slot":"4","type":"t_uint256"},{"astId":2737,"contract":"contracts/fun/Bonding.sol:Bonding","label":"assetRate","offset":0,"slot":"5","type":"t_uint256"},{"astId":2739,"contract":"contracts/fun/Bonding.sol:Bonding","label":"gradThreshold","offset":0,"slot":"6","type":"t_uint256"},{"astId":2741,"contract":"contracts/fun/Bonding.sol:Bonding","label":"maxTx","offset":0,"slot":"7","type":"t_uint256"},{"astId":2743,"contract":"contracts/fun/Bonding.sol:Bonding","label":"agentFactory","offset":0,"slot":"8","type":"t_address"},{"astId":2817,"contract":"contracts/fun/Bonding.sol:Bonding","label":"_deployParams","offset":0,"slot":"9","type":"t_struct(DeployParams)2814_storage"},{"astId":2822,"contract":"contracts/fun/Bonding.sol:Bonding","label":"profile","offset":0,"slot":"12","type":"t_mapping(t_address,t_struct(Profile)2749_storage)"},{"astId":2825,"contract":"contracts/fun/Bonding.sol:Bonding","label":"profiles","offset":0,"slot":"13","type":"t_array(t_address)dyn_storage"},{"astId":2830,"contract":"contracts/fun/Bonding.sol:Bonding","label":"tokenInfo","offset":0,"slot":"14","type":"t_mapping(t_address,t_struct(Token)2780_storage)"},{"astId":2833,"contract":"contracts/fun/Bonding.sol:Bonding","label":"tokenInfos","offset":0,"slot":"15","type":"t_array(t_address)dyn_storage"}],"types":{"t_address":{"encoding":"inplace","label":"address","numberOfBytes":"20"},"t_array(t_address)dyn_storage":{"base":"t_address","encoding":"dynamic_array","label":"address[]","numberOfBytes":"32"},"t_array(t_uint8)dyn_storage":{"base":"t_uint8","encoding":"dynamic_array","label":"uint8[]","numberOfBytes":"32"},"t_bool":{"encoding":"inplace","label":"bool","numberOfBytes":"1"},"t_bytes32":{"encoding":"inplace","label":"bytes32","numberOfBytes":"32"},"t_contract(FFactory)5067":{"encoding":"inplace","label":"contract FFactory","numberOfBytes":"20"},"t_contract(FRouter)6146":{"encoding":"inplace","label":"contract FRouter","numberOfBytes":"20"},"t_mapping(t_address,t_struct(Profile)2749_storage)":{"encoding":"mapping","key":"t_address","label":"mapping(address => struct Bonding.Profile)","numberOfBytes":"32","value":"t_struct(Profile)2749_storage"},"t_mapping(t_address,t_struct(Token)2780_storage)":{"encoding":"mapping","key":"t_address","label":"mapping(address => struct Bonding.Token)","numberOfBytes":"32","value":"t_struct(Token)2780_storage"},"t_string_storage":{"encoding":"bytes","label":"string","numberOfBytes":"32"},"t_struct(Data)2805_storage":{"encoding":"inplace","label":"struct Bonding.Data","members":[{"astId":2782,"contract":"contracts/fun/Bonding.sol:Bonding","label":"token","offset":0,"slot":"0","type":"t_address"},{"astId":2784,"contract":"contracts/fun/Bonding.sol:Bonding","label":"name","offset":0,"slot":"1","type":"t_string_storage"},{"astId":2786,"contract":"contracts/fun/Bonding.sol:Bonding","label":"_name","offset":0,"slot":"2","type":"t_string_storage"},{"astId":2788,"contract":"contracts/fun/Bonding.sol:Bonding","label":"ticker","offset":0,"slot":"3","type":"t_string_storage"},{"astId":2790,"contract":"contracts/fun/Bonding.sol:Bonding","label":"supply","offset":0,"slot":"4","type":"t_uint256"},{"astId":2792,"contract":"contracts/fun/Bonding.sol:Bonding","label":"price","offset":0,"slot":"5","type":"t_uint256"},{"astId":2794,"contract":"contracts/fun/Bonding.sol:Bonding","label":"marketCap","offset":0,"slot":"6","type":"t_uint256"},{"astId":2796,"contract":"contracts/fun/Bonding.sol:Bonding","label":"liquidity","offset":0,"slot":"7","type":"t_uint256"},{"astId":2798,"contract":"contracts/fun/Bonding.sol:Bonding","label":"volume","offset":0,"slot":"8","type":"t_uint256"},{"astId":2800,"contract":"contracts/fun/Bonding.sol:Bonding","label":"volume24H","offset":0,"slot":"9","type":"t_uint256"},{"astId":2802,"contract":"contracts/fun/Bonding.sol:Bonding","label":"prevPrice","offset":0,"slot":"10","type":"t_uint256"},{"astId":2804,"contract":"contracts/fun/Bonding.sol:Bonding","label":"lastUpdated","offset":0,"slot":"11","type":"t_uint256"}],"numberOfBytes":"384"},"t_struct(DeployParams)2814_storage":{"encoding":"inplace","label":"struct Bonding.DeployParams","members":[{"astId":2807,"contract":"contracts/fun/Bonding.sol:Bonding","label":"tbaSalt","offset":0,"slot":"0","type":"t_bytes32"},{"astId":2809,"contract":"contracts/fun/Bonding.sol:Bonding","label":"tbaImplementation","offset":0,"slot":"1","type":"t_address"},{"astId":2811,"contract":"contracts/fun/Bonding.sol:Bonding","label":"daoVotingPeriod","offset":20,"slot":"1","type":"t_uint32"},{"astId":2813,"contract":"contracts/fun/Bonding.sol:Bonding","label":"daoThreshold","offset":0,"slot":"2","type":"t_uint256"}],"numberOfBytes":"96"},"t_struct(Profile)2749_storage":{"encoding":"inplace","label":"struct Bonding.Profile","members":[{"astId":2745,"contract":"contracts/fun/Bonding.sol:Bonding","label":"user","offset":0,"slot":"0","type":"t_address"},{"astId":2748,"contract":"contracts/fun/Bonding.sol:Bonding","label":"tokens","offset":0,"slot":"1","type":"t_array(t_address)dyn_storage"}],"numberOfBytes":"64"},"t_struct(Token)2780_storage":{"encoding":"inplace","label":"struct Bonding.Token","members":[{"astId":2751,"contract":"contracts/fun/Bonding.sol:Bonding","label":"creator","offset":0,"slot":"0","type":"t_address"},{"astId":2753,"contract":"contracts/fun/Bonding.sol:Bonding","label":"token","offset":0,"slot":"1","type":"t_address"},{"astId":2755,"contract":"contracts/fun/Bonding.sol:Bonding","label":"pair","offset":0,"slot":"2","type":"t_address"},{"astId":2757,"contract":"contracts/fun/Bonding.sol:Bonding","label":"agentToken","offset":0,"slot":"3","type":"t_address"},{"astId":2760,"contract":"contracts/fun/Bonding.sol:Bonding","label":"data","offset":0,"slot":"4","type":"t_struct(Data)2805_storage"},{"astId":2762,"contract":"contracts/fun/Bonding.sol:Bonding","label":"description","offset":0,"slot":"16","type":"t_string_storage"},{"astId":2765,"contract":"contracts/fun/Bonding.sol:Bonding","label":"cores","offset":0,"slot":"17","type":"t_array(t_uint8)dyn_storage"},{"astId":2767,"contract":"contracts/fun/Bonding.sol:Bonding","label":"image","offset":0,"slot":"18","type":"t_string_storage"},{"astId":2769,"contract":"contracts/fun/Bonding.sol:Bonding","label":"twitter","offset":0,"slot":"19","type":"t_string_storage"},{"astId":2771,"contract":"contracts/fun/Bonding.sol:Bonding","label":"telegram","offset":0,"slot":"20","type":"t_string_storage"},{"astId":2773,"contract":"contracts/fun/Bonding.sol:Bonding","label":"youtube","offset":0,"slot":"21","type":"t_string_storage"},{"astId":2775,"contract":"contracts/fun/Bonding.sol:Bonding","label":"website","offset":0,"slot":"22","type":"t_string_storage"},{"astId":2777,"contract":"contracts/fun/Bonding.sol:Bonding","label":"trading","offset":0,"slot":"23","type":"t_bool"},{"astId":2779,"contract":"contracts/fun/Bonding.sol:Bonding","label":"tradingOnUniswap","offset":1,"slot":"23","type":"t_bool"}],"numberOfBytes":"768"},"t_uint256":{"encoding":"inplace","label":"uint256","numberOfBytes":"32"},"t_uint32":{"encoding":"inplace","label":"uint32","numberOfBytes":"4"},"t_uint8":{"encoding":"inplace","label":"uint8","numberOfBytes":"1"}}}}}}