{"contracts/fun/FPair.sol":{"FPair":{"abi":[{"inputs":[{"internalType":"address","name":"router_","type":"address"},{"internalType":"address","name":"token0","type":"address"},{"internalType":"address","name":"token1","type":"address"}],"stateMutability":"nonpayable","type":"constructor"},{"inputs":[],"name":"ReentrancyGuardReentrantCall","type":"error"},{"inputs":[{"internalType":"address","name":"token","type":"address"}],"name":"SafeERC20FailedOperation","type":"error"},{"anonymous":false,"inputs":[{"indexed":false,"internalType":"uint256","name":"reserve0","type":"uint256"},{"indexed":false,"internalType":"uint256","name":"reserve1","type":"uint256"}],"name":"Mint","type":"event"},{"anonymous":false,"inputs":[{"indexed":false,"internalType":"uint256","name":"amount0In","type":"uint256"},{"indexed":false,"internalType":"uint256","name":"amount0Out","type":"uint256"},{"indexed":false,"internalType":"uint256","name":"amount1In","type":"uint256"},{"indexed":false,"internalType":"uint256","name":"amount1Out","type":"uint256"}],"name":"Swap","type":"event"},{"inputs":[{"internalType":"address","name":"_user","type":"address"},{"internalType":"address","name":"_token","type":"address"},{"internalType":"uint256","name":"amount","type":"uint256"}],"name":"approval","outputs":[{"internalType":"bool","name":"","type":"bool"}],"stateMutability":"nonpayable","type":"function"},{"inputs":[],"name":"assetBalance","outputs":[{"internalType":"uint256","name":"","type":"uint256"}],"stateMutability":"view","type":"function"},{"inputs":[],"name":"balance","outputs":[{"internalType":"uint256","name":"","type":"uint256"}],"stateMutability":"view","type":"function"},{"inputs":[],"name":"getReserves","outputs":[{"internalType":"uint256","name":"","type":"uint256"},{"internalType":"uint256","name":"","type":"uint256"}],"stateMutability":"view","type":"function"},{"inputs":[],"name":"kLast","outputs":[{"internalType":"uint256","name":"","type":"uint256"}],"stateMutability":"view","type":"function"},{"inputs":[{"internalType":"uint256","name":"reserve0","type":"uint256"},{"internalType":"uint256","name":"reserve1","type":"uint256"}],"name":"mint","outputs":[{"internalType":"bool","name":"","type":"bool"}],"stateMutability":"nonpayable","type":"function"},{"inputs":[],"name":"priceALast","outputs":[{"internalType":"uint256","name":"","type":"uint256"}],"stateMutability":"view","type":"function"},{"inputs":[],"name":"priceBLast","outputs":[{"internalType":"uint256","name":"","type":"uint256"}],"stateMutability":"view","type":"function"},{"inputs":[],"name":"router","outputs":[{"internalType":"address","name":"","type":"address"}],"stateMutability":"view","type":"function"},{"inputs":[{"internalType":"uint256","name":"amount0In","type":"uint256"},{"internalType":"uint256","name":"amount0Out","type":"uint256"},{"internalType":"uint256","name":"amount1In","type":"uint256"},{"internalType":"uint256","name":"amount1Out","type":"uint256"}],"name":"swap","outputs":[{"internalType":"bool","name":"","type":"bool"}],"stateMutability":"nonpayable","type":"function"},{"inputs":[],"name":"tokenA","outputs":[{"internalType":"address","name":"","type":"address"}],"stateMutability":"view","type":"function"},{"inputs":[],"name":"tokenB","outputs":[{"internalType":"address","name":"","type":"address"}],"stateMutability":"view","type":"function"},{"inputs":[{"internalType":"address","name":"recipient","type":"address"},{"internalType":"uint256","name":"amount","type":"uint256"}],"name":"transferAsset","outputs":[],"stateMutability":"nonpayable","type":"function"},{"inputs":[{"internalType":"address","name":"recipient","type":"address"},{"internalType":"uint256","name":"amount","type":"uint256"}],"name":"transferTo","outputs":[],"stateMutability":"nonpayable","type":"function"}],"evm":{"bytecode":{"linkReferences":{},"object":"6080346100e457601f6109d138819003918201601f19168301916001600160401b038311848410176100e9578084926060946040528339810103126100e457610047816100ff565b61005f6040610058602085016100ff565b93016100ff565b60016000556001600160a01b039091169161007b831515610113565b6001600160a01b031690610090821515610113565b6001600160a01b0316916100a5831515610113565b60018060a01b0319600154161760015560018060a01b0319600254161760025560018060a01b0319600354161760035560405161087190816101608239f35b600080fd5b634e487b7160e01b600052604160045260246000fd5b51906001600160a01b03821682036100e457565b1561011a57565b60405162461bcd60e51b815260206004820152601f60248201527f5a65726f2061646472657373657320617265206e6f7420616c6c6f7765642e006044820152606490fdfe608080604052600436101561001357600080fd5b60003560e01c9081630902f1ac14610637575080630e06dfc9146106155780630fc63d10146105ec5780631b2ef1ca146104f25780632ccb1b30146104975780635673b02d146103c95780635c52a5f21461029f5780635c921eb9146102425780635c9d6938146102185780635f64b55b146101ef5780637464fc3d146101d1578063b69ef8a81461017c578063c66f2455146100e75763f887ea40146100b957600080fd5b346100e25760003660031901126100e2576001546040516001600160a01b039091168152602090f35b600080fd5b346100e25760003660031901126100e2576003546040516370a0823160e01b815230600482015290602090829060249082906001600160a01b03165afa80156101705760009061013d575b602090604051908152f35b506020813d602011610168575b816101576020938361071a565b810103126100e25760209051610132565b3d915061014a565b6040513d6000823e3d90fd5b346100e25760003660031901126100e2576002546040516370a0823160e01b815230600482015290602090829060249082906001600160a01b03165afa80156101705760009061013d57602090604051908152f35b346100e25760003660031901126100e2576020600654604051908152f35b346100e25760003660031901126100e2576003546040516001600160a01b039091168152602090f35b346100e25760003660031901126100e257602061023a60055460045490610671565b604051908152f35b346100e25760403660031901126100e25761029d61025e61065b565b61027360018060a01b03600154163314610691565b6102876001600160a01b038216151561073c565b60035460243591906001600160a01b03166107a2565b005b346100e25760603660031901126100e2576102b861065b565b6024356001600160a01b03811691908290036100e2576102e360018060a01b03600154163314610691565b6001600160a01b038116916102f983151561073c565b61030481151561073c565b60405163095ea7b360e01b60208083019182526001600160a01b039490941660248301526044803581840152825290929060009061034360648661071a565b84519082855af16000513d826103ad575b505015610367575b602060405160018152f35b6103a06103a5936040519063095ea7b360e01b60208301526024820152600060448201526044815261039a60648261071a565b826107e0565b6107e0565b80808061035c565b9091506103c15750803b15155b8480610354565b6001146103ba565b346100e25760803660031901126100e2577f298c349c742327269dc8de6ad66687767310c948ea309df826f5bd103e19d20760806004356024356044356064359161041f60018060a01b03600154163314610691565b6104348161042f86600454610788565b610795565b6104448461042f85600554610788565b60065491604051610454816106e8565b81815282602082015283604082015260604291015260045560055560065542600755604051938452602084015260408301526060820152a1602060405160018152f35b346100e25760403660031901126100e25761029d6104b361065b565b6104c860018060a01b03600154163314610691565b6104dc6001600160a01b038216151561073c565b60025460243591906001600160a01b03166107a2565b346100e25760403660031901126100e2576004356024359061051f60018060a01b03600154163314610691565b6007546105b657818102908082048314811517156105a0577fcc9c58b575eabd3f6a1ee653e91fcea3ff546867ffc3782a3bbca1f9b6dbb8df926040928351610567816106e8565b838152826020820152818582015260604291015282600455816005556006554260075582519182526020820152a1602060405160018152f35b634e487b7160e01b600052601160045260246000fd5b60405162461bcd60e51b815260206004820152600e60248201526d105b1c9958591e481b5a5b9d195960921b6044820152606490fd5b346100e25760003660031901126100e2576002546040516001600160a01b039091168152602090f35b346100e25760003660031901126100e257602061023a60045460055490610671565b346100e25760003660031901126100e2576040906004546005549082526020820152f35b600435906001600160a01b03821682036100e257565b811561067b570490565b634e487b7160e01b600052601260045260246000fd5b1561069857565b60405162461bcd60e51b815260206004820152602260248201527f4f6e6c7920726f757465722063616e2063616c6c20746869732066756e63746960448201526137b760f11b6064820152608490fd5b6080810190811067ffffffffffffffff82111761070457604052565b634e487b7160e01b600052604160045260246000fd5b90601f8019910116810190811067ffffffffffffffff82111761070457604052565b1561074357565b60405162461bcd60e51b815260206004820152601f60248201527f5a65726f2061646472657373657320617265206e6f7420616c6c6f7765642e006044820152606490fd5b919082018092116105a057565b919082039182116105a057565b60405163a9059cbb60e01b60208201526001600160a01b039290921660248301526044808301939093529181526107de916103a060648361071a565b565b906000602091828151910182855af115610170576000513d61083257506001600160a01b0381163b155b6108115750565b635274afe760e01b60009081526001600160a01b0391909116600452602490fd5b6001141561080a56fea26469706673582212207313929b0f93abb825421d3d8e5920d7060aaaafb2eb86d21b8574b0b0dc14f564736f6c634300081c0033","opcodes":"PUSH1 0x80 CALLVALUE PUSH2 0xE4 JUMPI PUSH1 0x1F PUSH2 0x9D1 CODESIZE DUP2 SWAP1 SUB SWAP2 DUP3 ADD PUSH1 0x1F NOT AND DUP4 ADD SWAP2 PUSH1 0x1 PUSH1 0x1 PUSH1 0x40 SHL SUB DUP4 GT DUP5 DUP5 LT OR PUSH2 0xE9 JUMPI DUP1 DUP5 SWAP3 PUSH1 0x60 SWAP5 PUSH1 0x40 MSTORE DUP4 CODECOPY DUP2 ADD SUB SLT PUSH2 0xE4 JUMPI PUSH2 0x47 DUP2 PUSH2 0xFF JUMP JUMPDEST PUSH2 0x5F PUSH1 0x40 PUSH2 0x58 PUSH1 0x20 DUP6 ADD PUSH2 0xFF JUMP JUMPDEST SWAP4 ADD PUSH2 0xFF JUMP JUMPDEST PUSH1 0x1 PUSH1 0x0 SSTORE PUSH1 0x1 PUSH1 0x1 PUSH1 0xA0 SHL SUB SWAP1 SWAP2 AND SWAP2 PUSH2 0x7B DUP4 ISZERO ISZERO PUSH2 0x113 JUMP JUMPDEST PUSH1 0x1 PUSH1 0x1 PUSH1 0xA0 SHL SUB AND SWAP1 PUSH2 0x90 DUP3 ISZERO ISZERO PUSH2 0x113 JUMP JUMPDEST PUSH1 0x1 PUSH1 0x1 PUSH1 0xA0 SHL SUB AND SWAP2 PUSH2 0xA5 DUP4 ISZERO ISZERO PUSH2 0x113 JUMP JUMPDEST PUSH1 0x1 DUP1 PUSH1 0xA0 SHL SUB NOT PUSH1 0x1 SLOAD AND OR PUSH1 0x1 SSTORE PUSH1 0x1 DUP1 PUSH1 0xA0 SHL SUB NOT PUSH1 0x2 SLOAD AND OR PUSH1 0x2 SSTORE PUSH1 0x1 DUP1 PUSH1 0xA0 SHL SUB NOT PUSH1 0x3 SLOAD AND OR PUSH1 0x3 SSTORE PUSH1 0x40 MLOAD PUSH2 0x871 SWAP1 DUP2 PUSH2 0x160 DUP3 CODECOPY RETURN JUMPDEST PUSH1 0x0 DUP1 REVERT JUMPDEST PUSH4 0x4E487B71 PUSH1 0xE0 SHL PUSH1 0x0 MSTORE PUSH1 0x41 PUSH1 0x4 MSTORE PUSH1 0x24 PUSH1 0x0 REVERT JUMPDEST MLOAD SWAP1 PUSH1 0x1 PUSH1 0x1 PUSH1 0xA0 SHL SUB DUP3 AND DUP3 SUB PUSH2 0xE4 JUMPI JUMP JUMPDEST ISZERO PUSH2 0x11A JUMPI JUMP JUMPDEST PUSH1 0x40 MLOAD PUSH3 0x461BCD PUSH1 0xE5 SHL DUP2 MSTORE PUSH1 0x20 PUSH1 0x4 DUP3 ADD MSTORE PUSH1 0x1F PUSH1 0x24 DUP3 ADD MSTORE PUSH32 0x5A65726F2061646472657373657320617265206E6F7420616C6C6F7765642E00 PUSH1 0x44 DUP3 ADD MSTORE PUSH1 0x64 SWAP1 REVERT INVALID PUSH1 0x80 DUP1 PUSH1 0x40 MSTORE PUSH1 0x4 CALLDATASIZE LT ISZERO PUSH2 0x13 JUMPI PUSH1 0x0 DUP1 REVERT JUMPDEST PUSH1 0x0 CALLDATALOAD PUSH1 0xE0 SHR SWAP1 DUP2 PUSH4 0x902F1AC EQ PUSH2 0x637 JUMPI POP DUP1 PUSH4 0xE06DFC9 EQ PUSH2 0x615 JUMPI DUP1 PUSH4 0xFC63D10 EQ PUSH2 0x5EC JUMPI DUP1 PUSH4 0x1B2EF1CA EQ PUSH2 0x4F2 JUMPI DUP1 PUSH4 0x2CCB1B30 EQ PUSH2 0x497 JUMPI DUP1 PUSH4 0x5673B02D EQ PUSH2 0x3C9 JUMPI DUP1 PUSH4 0x5C52A5F2 EQ PUSH2 0x29F JUMPI DUP1 PUSH4 0x5C921EB9 EQ PUSH2 0x242 JUMPI DUP1 PUSH4 0x5C9D6938 EQ PUSH2 0x218 JUMPI DUP1 PUSH4 0x5F64B55B EQ PUSH2 0x1EF JUMPI DUP1 PUSH4 0x7464FC3D EQ PUSH2 0x1D1 JUMPI DUP1 PUSH4 0xB69EF8A8 EQ PUSH2 0x17C JUMPI DUP1 PUSH4 0xC66F2455 EQ PUSH2 0xE7 JUMPI PUSH4 0xF887EA40 EQ PUSH2 0xB9 JUMPI PUSH1 0x0 DUP1 REVERT JUMPDEST CALLVALUE PUSH2 0xE2 JUMPI PUSH1 0x0 CALLDATASIZE PUSH1 0x3 NOT ADD SLT PUSH2 0xE2 JUMPI PUSH1 0x1 SLOAD PUSH1 0x40 MLOAD PUSH1 0x1 PUSH1 0x1 PUSH1 0xA0 SHL SUB SWAP1 SWAP2 AND DUP2 MSTORE PUSH1 0x20 SWAP1 RETURN JUMPDEST PUSH1 0x0 DUP1 REVERT JUMPDEST CALLVALUE PUSH2 0xE2 JUMPI PUSH1 0x0 CALLDATASIZE PUSH1 0x3 NOT ADD SLT PUSH2 0xE2 JUMPI PUSH1 0x3 SLOAD PUSH1 0x40 MLOAD PUSH4 0x70A08231 PUSH1 0xE0 SHL DUP2 MSTORE ADDRESS PUSH1 0x4 DUP3 ADD MSTORE SWAP1 PUSH1 0x20 SWAP1 DUP3 SWAP1 PUSH1 0x24 SWAP1 DUP3 SWAP1 PUSH1 0x1 PUSH1 0x1 PUSH1 0xA0 SHL SUB AND GAS STATICCALL DUP1 ISZERO PUSH2 0x170 JUMPI PUSH1 0x0 SWAP1 PUSH2 0x13D JUMPI JUMPDEST PUSH1 0x20 SWAP1 PUSH1 0x40 MLOAD SWAP1 DUP2 MSTORE RETURN JUMPDEST POP PUSH1 0x20 DUP2 RETURNDATASIZE PUSH1 0x20 GT PUSH2 0x168 JUMPI JUMPDEST DUP2 PUSH2 0x157 PUSH1 0x20 SWAP4 DUP4 PUSH2 0x71A JUMP JUMPDEST DUP2 ADD SUB SLT PUSH2 0xE2 JUMPI PUSH1 0x20 SWAP1 MLOAD PUSH2 0x132 JUMP JUMPDEST RETURNDATASIZE SWAP2 POP PUSH2 0x14A JUMP JUMPDEST PUSH1 0x40 MLOAD RETURNDATASIZE PUSH1 0x0 DUP3 RETURNDATACOPY RETURNDATASIZE SWAP1 REVERT JUMPDEST CALLVALUE PUSH2 0xE2 JUMPI PUSH1 0x0 CALLDATASIZE PUSH1 0x3 NOT ADD SLT PUSH2 0xE2 JUMPI PUSH1 0x2 SLOAD PUSH1 0x40 MLOAD PUSH4 0x70A08231 PUSH1 0xE0 SHL DUP2 MSTORE ADDRESS PUSH1 0x4 DUP3 ADD MSTORE SWAP1 PUSH1 0x20 SWAP1 DUP3 SWAP1 PUSH1 0x24 SWAP1 DUP3 SWAP1 PUSH1 0x1 PUSH1 0x1 PUSH1 0xA0 SHL SUB AND GAS STATICCALL DUP1 ISZERO PUSH2 0x170 JUMPI PUSH1 0x0 SWAP1 PUSH2 0x13D JUMPI PUSH1 0x20 SWAP1 PUSH1 0x40 MLOAD SWAP1 DUP2 MSTORE RETURN JUMPDEST CALLVALUE PUSH2 0xE2 JUMPI PUSH1 0x0 CALLDATASIZE PUSH1 0x3 NOT ADD SLT PUSH2 0xE2 JUMPI PUSH1 0x20 PUSH1 0x6 SLOAD PUSH1 0x40 MLOAD SWAP1 DUP2 MSTORE RETURN JUMPDEST CALLVALUE PUSH2 0xE2 JUMPI PUSH1 0x0 CALLDATASIZE PUSH1 0x3 NOT ADD SLT PUSH2 0xE2 JUMPI PUSH1 0x3 SLOAD PUSH1 0x40 MLOAD PUSH1 0x1 PUSH1 0x1 PUSH1 0xA0 SHL SUB SWAP1 SWAP2 AND DUP2 MSTORE PUSH1 0x20 SWAP1 RETURN JUMPDEST CALLVALUE PUSH2 0xE2 JUMPI PUSH1 0x0 CALLDATASIZE PUSH1 0x3 NOT ADD SLT PUSH2 0xE2 JUMPI PUSH1 0x20 PUSH2 0x23A PUSH1 0x5 SLOAD PUSH1 0x4 SLOAD SWAP1 PUSH2 0x671 JUMP JUMPDEST PUSH1 0x40 MLOAD SWAP1 DUP2 MSTORE RETURN JUMPDEST CALLVALUE PUSH2 0xE2 JUMPI PUSH1 0x40 CALLDATASIZE PUSH1 0x3 NOT ADD SLT PUSH2 0xE2 JUMPI PUSH2 0x29D PUSH2 0x25E PUSH2 0x65B JUMP JUMPDEST PUSH2 0x273 PUSH1 0x1 DUP1 PUSH1 0xA0 SHL SUB PUSH1 0x1 SLOAD AND CALLER EQ PUSH2 0x691 JUMP JUMPDEST PUSH2 0x287 PUSH1 0x1 PUSH1 0x1 PUSH1 0xA0 SHL SUB DUP3 AND ISZERO ISZERO PUSH2 0x73C JUMP JUMPDEST PUSH1 0x3 SLOAD PUSH1 0x24 CALLDATALOAD SWAP2 SWAP1 PUSH1 0x1 PUSH1 0x1 PUSH1 0xA0 SHL SUB AND PUSH2 0x7A2 JUMP JUMPDEST STOP JUMPDEST CALLVALUE PUSH2 0xE2 JUMPI PUSH1 0x60 CALLDATASIZE PUSH1 0x3 NOT ADD SLT PUSH2 0xE2 JUMPI PUSH2 0x2B8 PUSH2 0x65B JUMP JUMPDEST PUSH1 0x24 CALLDATALOAD PUSH1 0x1 PUSH1 0x1 PUSH1 0xA0 SHL SUB DUP2 AND SWAP2 SWAP1 DUP3 SWAP1 SUB PUSH2 0xE2 JUMPI PUSH2 0x2E3 PUSH1 0x1 DUP1 PUSH1 0xA0 SHL SUB PUSH1 0x1 SLOAD AND CALLER EQ PUSH2 0x691 JUMP JUMPDEST PUSH1 0x1 PUSH1 0x1 PUSH1 0xA0 SHL SUB DUP2 AND SWAP2 PUSH2 0x2F9 DUP4 ISZERO ISZERO PUSH2 0x73C JUMP JUMPDEST PUSH2 0x304 DUP2 ISZERO ISZERO PUSH2 0x73C JUMP JUMPDEST PUSH1 0x40 MLOAD PUSH4 0x95EA7B3 PUSH1 0xE0 SHL PUSH1 0x20 DUP1 DUP4 ADD SWAP2 DUP3 MSTORE PUSH1 0x1 PUSH1 0x1 PUSH1 0xA0 SHL SUB SWAP5 SWAP1 SWAP5 AND PUSH1 0x24 DUP4 ADD MSTORE PUSH1 0x44 DUP1 CALLDATALOAD DUP2 DUP5 ADD MSTORE DUP3 MSTORE SWAP1 SWAP3 SWAP1 PUSH1 0x0 SWAP1 PUSH2 0x343 PUSH1 0x64 DUP7 PUSH2 0x71A JUMP JUMPDEST DUP5 MLOAD SWAP1 DUP3 DUP6 GAS CALL PUSH1 0x0 MLOAD RETURNDATASIZE DUP3 PUSH2 0x3AD JUMPI JUMPDEST POP POP ISZERO PUSH2 0x367 JUMPI JUMPDEST PUSH1 0x20 PUSH1 0x40 MLOAD PUSH1 0x1 DUP2 MSTORE RETURN JUMPDEST PUSH2 0x3A0 PUSH2 0x3A5 SWAP4 PUSH1 0x40 MLOAD SWAP1 PUSH4 0x95EA7B3 PUSH1 0xE0 SHL PUSH1 0x20 DUP4 ADD MSTORE PUSH1 0x24 DUP3 ADD MSTORE PUSH1 0x0 PUSH1 0x44 DUP3 ADD MSTORE PUSH1 0x44 DUP2 MSTORE PUSH2 0x39A PUSH1 0x64 DUP3 PUSH2 0x71A JUMP JUMPDEST DUP3 PUSH2 0x7E0 JUMP JUMPDEST PUSH2 0x7E0 JUMP JUMPDEST DUP1 DUP1 DUP1 PUSH2 0x35C JUMP JUMPDEST SWAP1 SWAP2 POP PUSH2 0x3C1 JUMPI POP DUP1 EXTCODESIZE ISZERO ISZERO JUMPDEST DUP5 DUP1 PUSH2 0x354 JUMP JUMPDEST PUSH1 0x1 EQ PUSH2 0x3BA JUMP JUMPDEST CALLVALUE PUSH2 0xE2 JUMPI PUSH1 0x80 CALLDATASIZE PUSH1 0x3 NOT ADD SLT PUSH2 0xE2 JUMPI PUSH32 0x298C349C742327269DC8DE6AD66687767310C948EA309DF826F5BD103E19D207 PUSH1 0x80 PUSH1 0x4 CALLDATALOAD PUSH1 0x24 CALLDATALOAD PUSH1 0x44 CALLDATALOAD PUSH1 0x64 CALLDATALOAD SWAP2 PUSH2 0x41F PUSH1 0x1 DUP1 PUSH1 0xA0 SHL SUB PUSH1 0x1 SLOAD AND CALLER EQ PUSH2 0x691 JUMP JUMPDEST PUSH2 0x434 DUP2 PUSH2 0x42F DUP7 PUSH1 0x4 SLOAD PUSH2 0x788 JUMP JUMPDEST PUSH2 0x795 JUMP JUMPDEST PUSH2 0x444 DUP5 PUSH2 0x42F DUP6 PUSH1 0x5 SLOAD PUSH2 0x788 JUMP JUMPDEST PUSH1 0x6 SLOAD SWAP2 PUSH1 0x40 MLOAD PUSH2 0x454 DUP2 PUSH2 0x6E8 JUMP JUMPDEST DUP2 DUP2 MSTORE DUP3 PUSH1 0x20 DUP3 ADD MSTORE DUP4 PUSH1 0x40 DUP3 ADD MSTORE PUSH1 0x60 TIMESTAMP SWAP2 ADD MSTORE PUSH1 0x4 SSTORE PUSH1 0x5 SSTORE PUSH1 0x6 SSTORE TIMESTAMP PUSH1 0x7 SSTORE PUSH1 0x40 MLOAD SWAP4 DUP5 MSTORE PUSH1 0x20 DUP5 ADD MSTORE PUSH1 0x40 DUP4 ADD MSTORE PUSH1 0x60 DUP3 ADD MSTORE LOG1 PUSH1 0x20 PUSH1 0x40 MLOAD PUSH1 0x1 DUP2 MSTORE RETURN JUMPDEST CALLVALUE PUSH2 0xE2 JUMPI PUSH1 0x40 CALLDATASIZE PUSH1 0x3 NOT ADD SLT PUSH2 0xE2 JUMPI PUSH2 0x29D PUSH2 0x4B3 PUSH2 0x65B JUMP JUMPDEST PUSH2 0x4C8 PUSH1 0x1 DUP1 PUSH1 0xA0 SHL SUB PUSH1 0x1 SLOAD AND CALLER EQ PUSH2 0x691 JUMP JUMPDEST PUSH2 0x4DC PUSH1 0x1 PUSH1 0x1 PUSH1 0xA0 SHL SUB DUP3 AND ISZERO ISZERO PUSH2 0x73C JUMP JUMPDEST PUSH1 0x2 SLOAD PUSH1 0x24 CALLDATALOAD SWAP2 SWAP1 PUSH1 0x1 PUSH1 0x1 PUSH1 0xA0 SHL SUB AND PUSH2 0x7A2 JUMP JUMPDEST CALLVALUE PUSH2 0xE2 JUMPI PUSH1 0x40 CALLDATASIZE PUSH1 0x3 NOT ADD SLT PUSH2 0xE2 JUMPI PUSH1 0x4 CALLDATALOAD PUSH1 0x24 CALLDATALOAD SWAP1 PUSH2 0x51F PUSH1 0x1 DUP1 PUSH1 0xA0 SHL SUB PUSH1 0x1 SLOAD AND CALLER EQ PUSH2 0x691 JUMP JUMPDEST PUSH1 0x7 SLOAD PUSH2 0x5B6 JUMPI DUP2 DUP2 MUL SWAP1 DUP1 DUP3 DIV DUP4 EQ DUP2 ISZERO OR ISZERO PUSH2 0x5A0 JUMPI PUSH32 0xCC9C58B575EABD3F6A1EE653E91FCEA3FF546867FFC3782A3BBCA1F9B6DBB8DF SWAP3 PUSH1 0x40 SWAP3 DUP4 MLOAD PUSH2 0x567 DUP2 PUSH2 0x6E8 JUMP JUMPDEST DUP4 DUP2 MSTORE DUP3 PUSH1 0x20 DUP3 ADD MSTORE DUP2 DUP6 DUP3 ADD MSTORE PUSH1 0x60 TIMESTAMP SWAP2 ADD MSTORE DUP3 PUSH1 0x4 SSTORE DUP2 PUSH1 0x5 SSTORE PUSH1 0x6 SSTORE TIMESTAMP PUSH1 0x7 SSTORE DUP3 MLOAD SWAP2 DUP3 MSTORE PUSH1 0x20 DUP3 ADD MSTORE LOG1 PUSH1 0x20 PUSH1 0x40 MLOAD PUSH1 0x1 DUP2 MSTORE RETURN JUMPDEST PUSH4 0x4E487B71 PUSH1 0xE0 SHL PUSH1 0x0 MSTORE PUSH1 0x11 PUSH1 0x4 MSTORE PUSH1 0x24 PUSH1 0x0 REVERT JUMPDEST PUSH1 0x40 MLOAD PUSH3 0x461BCD PUSH1 0xE5 SHL DUP2 MSTORE PUSH1 0x20 PUSH1 0x4 DUP3 ADD MSTORE PUSH1 0xE PUSH1 0x24 DUP3 ADD MSTORE PUSH14 0x105B1C9958591E481B5A5B9D1959 PUSH1 0x92 SHL PUSH1 0x44 DUP3 ADD MSTORE PUSH1 0x64 SWAP1 REVERT JUMPDEST CALLVALUE PUSH2 0xE2 JUMPI PUSH1 0x0 CALLDATASIZE PUSH1 0x3 NOT ADD SLT PUSH2 0xE2 JUMPI PUSH1 0x2 SLOAD PUSH1 0x40 MLOAD PUSH1 0x1 PUSH1 0x1 PUSH1 0xA0 SHL SUB SWAP1 SWAP2 AND DUP2 MSTORE PUSH1 0x20 SWAP1 RETURN JUMPDEST CALLVALUE PUSH2 0xE2 JUMPI PUSH1 0x0 CALLDATASIZE PUSH1 0x3 NOT ADD SLT PUSH2 0xE2 JUMPI PUSH1 0x20 PUSH2 0x23A PUSH1 0x4 SLOAD PUSH1 0x5 SLOAD SWAP1 PUSH2 0x671 JUMP JUMPDEST CALLVALUE PUSH2 0xE2 JUMPI PUSH1 0x0 CALLDATASIZE PUSH1 0x3 NOT ADD SLT PUSH2 0xE2 JUMPI PUSH1 0x40 SWAP1 PUSH1 0x4 SLOAD PUSH1 0x5 SLOAD SWAP1 DUP3 MSTORE PUSH1 0x20 DUP3 ADD MSTORE RETURN JUMPDEST PUSH1 0x4 CALLDATALOAD SWAP1 PUSH1 0x1 PUSH1 0x1 PUSH1 0xA0 SHL SUB DUP3 AND DUP3 SUB PUSH2 0xE2 JUMPI JUMP JUMPDEST DUP2 ISZERO PUSH2 0x67B JUMPI DIV SWAP1 JUMP JUMPDEST PUSH4 0x4E487B71 PUSH1 0xE0 SHL PUSH1 0x0 MSTORE PUSH1 0x12 PUSH1 0x4 MSTORE PUSH1 0x24 PUSH1 0x0 REVERT JUMPDEST ISZERO PUSH2 0x698 JUMPI JUMP JUMPDEST PUSH1 0x40 MLOAD PUSH3 0x461BCD PUSH1 0xE5 SHL DUP2 MSTORE PUSH1 0x20 PUSH1 0x4 DUP3 ADD MSTORE PUSH1 0x22 PUSH1 0x24 DUP3 ADD MSTORE PUSH32 0x4F6E6C7920726F757465722063616E2063616C6C20746869732066756E637469 PUSH1 0x44 DUP3 ADD MSTORE PUSH2 0x37B7 PUSH1 0xF1 SHL PUSH1 0x64 DUP3 ADD MSTORE PUSH1 0x84 SWAP1 REVERT JUMPDEST PUSH1 0x80 DUP2 ADD SWAP1 DUP2 LT PUSH8 0xFFFFFFFFFFFFFFFF DUP3 GT OR PUSH2 0x704 JUMPI PUSH1 0x40 MSTORE JUMP JUMPDEST PUSH4 0x4E487B71 PUSH1 0xE0 SHL PUSH1 0x0 MSTORE PUSH1 0x41 PUSH1 0x4 MSTORE PUSH1 0x24 PUSH1 0x0 REVERT JUMPDEST SWAP1 PUSH1 0x1F DUP1 NOT SWAP2 ADD AND DUP2 ADD SWAP1 DUP2 LT PUSH8 0xFFFFFFFFFFFFFFFF DUP3 GT OR PUSH2 0x704 JUMPI PUSH1 0x40 MSTORE JUMP JUMPDEST ISZERO PUSH2 0x743 JUMPI JUMP JUMPDEST PUSH1 0x40 MLOAD PUSH3 0x461BCD PUSH1 0xE5 SHL DUP2 MSTORE PUSH1 0x20 PUSH1 0x4 DUP3 ADD MSTORE PUSH1 0x1F PUSH1 0x24 DUP3 ADD MSTORE PUSH32 0x5A65726F2061646472657373657320617265206E6F7420616C6C6F7765642E00 PUSH1 0x44 DUP3 ADD MSTORE PUSH1 0x64 SWAP1 REVERT JUMPDEST SWAP2 SWAP1 DUP3 ADD DUP1 SWAP3 GT PUSH2 0x5A0 JUMPI JUMP JUMPDEST SWAP2 SWAP1 DUP3 SUB SWAP2 DUP3 GT PUSH2 0x5A0 JUMPI JUMP JUMPDEST PUSH1 0x40 MLOAD PUSH4 0xA9059CBB PUSH1 0xE0 SHL PUSH1 0x20 DUP3 ADD MSTORE PUSH1 0x1 PUSH1 0x1 PUSH1 0xA0 SHL SUB SWAP3 SWAP1 SWAP3 AND PUSH1 0x24 DUP4 ADD MSTORE PUSH1 0x44 DUP1 DUP4 ADD SWAP4 SWAP1 SWAP4 MSTORE SWAP2 DUP2 MSTORE PUSH2 0x7DE SWAP2 PUSH2 0x3A0 PUSH1 0x64 DUP4 PUSH2 0x71A JUMP JUMPDEST JUMP JUMPDEST SWAP1 PUSH1 0x0 PUSH1 0x20 SWAP2 DUP3 DUP2 MLOAD SWAP2 ADD DUP3 DUP6 GAS CALL ISZERO PUSH2 0x170 JUMPI PUSH1 0x0 MLOAD RETURNDATASIZE PUSH2 0x832 JUMPI POP PUSH1 0x1 PUSH1 0x1 PUSH1 0xA0 SHL SUB DUP2 AND EXTCODESIZE ISZERO JUMPDEST PUSH2 0x811 JUMPI POP JUMP JUMPDEST PUSH4 0x5274AFE7 PUSH1 0xE0 SHL PUSH1 0x0 SWAP1 DUP2 MSTORE PUSH1 0x1 PUSH1 0x1 PUSH1 0xA0 SHL SUB SWAP2 SWAP1 SWAP2 AND PUSH1 0x4 MSTORE PUSH1 0x24 SWAP1 REVERT JUMPDEST PUSH1 0x1 EQ ISZERO PUSH2 0x80A JUMP INVALID LOG2 PUSH5 0x6970667358 0x22 SLT KECCAK256 PUSH20 0x13929B0F93ABB825421D3D8E5920D7060AAAAFB2 0xEB DUP7 0xD2 SHL DUP6 PUSH21 0xB0B0DC14F564736F6C634300081C00330000000000 "},"methodIdentifiers":{"approval(address,address,uint256)":"5c52a5f2","assetBalance()":"c66f2455","balance()":"b69ef8a8","getReserves()":"0902f1ac","kLast()":"7464fc3d","mint(uint256,uint256)":"1b2ef1ca","priceALast()":"5c9d6938","priceBLast()":"0e06dfc9","router()":"f887ea40","swap(uint256,uint256,uint256,uint256)":"5673b02d","tokenA()":"0fc63d10","tokenB()":"5f64b55b","transferAsset(address,uint256)":"5c921eb9","transferTo(address,uint256)":"2ccb1b30"}},"storageLayout":{"storage":[{"astId":2627,"contract":"contracts/fun/FPair.sol:FPair","label":"_status","offset":0,"slot":"0","type":"t_uint256"},{"astId":5083,"contract":"contracts/fun/FPair.sol:FPair","label":"router","offset":0,"slot":"1","type":"t_address"},{"astId":5085,"contract":"contracts/fun/FPair.sol:FPair","label":"tokenA","offset":0,"slot":"2","type":"t_address"},{"astId":5087,"contract":"contracts/fun/FPair.sol:FPair","label":"tokenB","offset":0,"slot":"3","type":"t_address"},{"astId":5099,"contract":"contracts/fun/FPair.sol:FPair","label":"_pool","offset":0,"slot":"4","type":"t_struct(Pool)5096_storage"}],"types":{"t_address":{"encoding":"inplace","label":"address","numberOfBytes":"20"},"t_struct(Pool)5096_storage":{"encoding":"inplace","label":"struct FPair.Pool","members":[{"astId":5089,"contract":"contracts/fun/FPair.sol:FPair","label":"reserve0","offset":0,"slot":"0","type":"t_uint256"},{"astId":5091,"contract":"contracts/fun/FPair.sol:FPair","label":"reserve1","offset":0,"slot":"1","type":"t_uint256"},{"astId":5093,"contract":"contracts/fun/FPair.sol:FPair","label":"k","offset":0,"slot":"2","type":"t_uint256"},{"astId":5095,"contract":"contracts/fun/FPair.sol:FPair","label":"lastUpdated","offset":0,"slot":"3","type":"t_uint256"}],"numberOfBytes":"128"},"t_uint256":{"encoding":"inplace","label":"uint256","numberOfBytes":"32"}}}}}}