{"contracts/testingKuru/TestKuru.sol":{"TestKuru":{"abi":[{"inputs":[{"internalType":"address","name":"kuruRouterAddress_","type":"address"},{"internalType":"address","name":"pairToken_","type":"address"},{"internalType":"address","name":"lpOwner_","type":"address"}],"stateMutability":"nonpayable","type":"constructor"},{"inputs":[{"internalType":"address","name":"spender","type":"address"},{"internalType":"uint256","name":"allowance","type":"uint256"},{"internalType":"uint256","name":"needed","type":"uint256"}],"name":"ERC20InsufficientAllowance","type":"error"},{"inputs":[{"internalType":"address","name":"sender","type":"address"},{"internalType":"uint256","name":"balance","type":"uint256"},{"internalType":"uint256","name":"needed","type":"uint256"}],"name":"ERC20InsufficientBalance","type":"error"},{"inputs":[{"internalType":"address","name":"approver","type":"address"}],"name":"ERC20InvalidApprover","type":"error"},{"inputs":[{"internalType":"address","name":"receiver","type":"address"}],"name":"ERC20InvalidReceiver","type":"error"},{"inputs":[{"internalType":"address","name":"sender","type":"address"}],"name":"ERC20InvalidSender","type":"error"},{"inputs":[{"internalType":"address","name":"spender","type":"address"}],"name":"ERC20InvalidSpender","type":"error"},{"anonymous":false,"inputs":[{"indexed":true,"internalType":"address","name":"owner","type":"address"},{"indexed":true,"internalType":"address","name":"spender","type":"address"},{"indexed":false,"internalType":"uint256","name":"value","type":"uint256"}],"name":"Approval","type":"event"},{"anonymous":false,"inputs":[{"indexed":true,"internalType":"address","name":"from","type":"address"},{"indexed":true,"internalType":"address","name":"to","type":"address"},{"indexed":false,"internalType":"uint256","name":"value","type":"uint256"}],"name":"Transfer","type":"event"},{"inputs":[],"name":"addLiquidity","outputs":[],"stateMutability":"nonpayable","type":"function"},{"inputs":[{"internalType":"address","name":"owner","type":"address"},{"internalType":"address","name":"spender","type":"address"}],"name":"allowance","outputs":[{"internalType":"uint256","name":"","type":"uint256"}],"stateMutability":"view","type":"function"},{"inputs":[{"internalType":"address","name":"spender","type":"address"},{"internalType":"uint256","name":"value","type":"uint256"}],"name":"approve","outputs":[{"internalType":"bool","name":"","type":"bool"}],"stateMutability":"nonpayable","type":"function"},{"inputs":[{"internalType":"address","name":"account","type":"address"}],"name":"balanceOf","outputs":[{"internalType":"uint256","name":"","type":"uint256"}],"stateMutability":"view","type":"function"},{"inputs":[],"name":"createMarket","outputs":[],"stateMutability":"nonpayable","type":"function"},{"inputs":[],"name":"decimals","outputs":[{"internalType":"uint8","name":"","type":"uint8"}],"stateMutability":"view","type":"function"},{"inputs":[],"name":"kuruMarketProxyAddress","outputs":[{"internalType":"address","name":"","type":"address"}],"stateMutability":"view","type":"function"},{"inputs":[],"name":"kuruRouterAddress","outputs":[{"internalType":"address","name":"","type":"address"}],"stateMutability":"view","type":"function"},{"inputs":[],"name":"kuruVaultAddress","outputs":[{"internalType":"address","name":"","type":"address"}],"stateMutability":"view","type":"function"},{"inputs":[],"name":"lpOwner","outputs":[{"internalType":"address","name":"","type":"address"}],"stateMutability":"view","type":"function"},{"inputs":[],"name":"memeToken","outputs":[{"internalType":"address","name":"","type":"address"}],"stateMutability":"view","type":"function"},{"inputs":[],"name":"mintTokenToThisContract","outputs":[],"stateMutability":"nonpayable","type":"function"},{"inputs":[],"name":"name","outputs":[{"internalType":"string","name":"","type":"string"}],"stateMutability":"view","type":"function"},{"inputs":[],"name":"pairToken","outputs":[{"internalType":"address","name":"","type":"address"}],"stateMutability":"view","type":"function"},{"inputs":[],"name":"symbol","outputs":[{"internalType":"string","name":"","type":"string"}],"stateMutability":"view","type":"function"},{"inputs":[],"name":"totalSupply","outputs":[{"internalType":"uint256","name":"","type":"uint256"}],"stateMutability":"view","type":"function"},{"inputs":[{"internalType":"address","name":"to","type":"address"},{"internalType":"uint256","name":"value","type":"uint256"}],"name":"transfer","outputs":[{"internalType":"bool","name":"","type":"bool"}],"stateMutability":"nonpayable","type":"function"},{"inputs":[{"internalType":"address","name":"from","type":"address"},{"internalType":"address","name":"to","type":"address"},{"internalType":"uint256","name":"value","type":"uint256"}],"name":"transferFrom","outputs":[{"internalType":"bool","name":"","type":"bool"}],"stateMutability":"nonpayable","type":"function"}],"evm":{"bytecode":{"linkReferences":{},"object":"6080604052346103a2576112696060813803918261001c816103a7565b9384928339810103126103a257610032816103cc565b9061004b6040610044602084016103cc565b92016103cc565b9061005660406103a7565b92600984526854455354204b55525560b81b602085015261007760406103a7565b6002815261544b60f01b6020820152845190946001600160401b03821161029f5760035490600182811c92168015610398575b602083101461027f5781601f849311610328575b50602090601f83116001146102c0576000926102b5575b50508160011b916000199060031b1c1916176003555b83516001600160401b03811161029f57600454600181811c91168015610295575b602082101461027f57601f811161021a575b50602094601f82116001146101b3579481929394956000926101a8575b50508160011b916000199060031b1c1916176004555b600580546001600160a01b03199081166001600160a01b03938416179091556006805482163017905560078054821693831693909317909255600a80549092169216919091179055604051610e8890816103e18239f35b01519050388061013b565b601f198216956004600052806000209160005b888110610202575083600195969798106101e9575b505050811b01600455610151565b015160001960f88460031b161c191690553880806101db565b919260206001819286850151815501940192016101c6565b60046000527f8a35acfbc15ff81a39ae7d344fd709f28e8600b4aa8c65c6b64bfe7fe36bd19b601f830160051c81019160208410610275575b601f0160051c01905b818110610269575061011e565b6000815560010161025c565b9091508190610253565b634e487b7160e01b600052602260045260246000fd5b90607f169061010c565b634e487b7160e01b600052604160045260246000fd5b0151905038806100d5565b600360009081528281209350601f198516905b81811061031057509084600195949392106102f7575b505050811b016003556100eb565b015160001960f88460031b161c191690553880806102e9565b929360206001819287860151815501950193016102d3565b60036000529091507fc2575a0e9e593c00f959f8c92f12db2869c3395a3b0502d05e2516446f71f85b601f840160051c8101916020851061038e575b90601f859493920160051c01905b81811061037f57506100be565b60008155849350600101610372565b9091508190610364565b91607f16916100aa565b600080fd5b6040519190601f01601f191682016001600160401b0381118382101761029f57604052565b51906001600160a01b03821682036103a25756fe608080604052600436101561001357600080fd5b60003560e01c90816306fdde0314610be657508063095ea7b314610b6057806309ea7ccb14610b3757806318160ddd14610b1957806323b872dd14610a58578063313ce56714610a3c5780633de35b7914610a1357806344905e62146109ea57806370a08231146109b057806395d89b41146108a8578063972598e71461087f578063a9059cbb1461084e578063ae8e437614610825578063aea0e35f1461060f578063ba65d8cd14610433578063dd62ed3e146103e2578063e8078d94146101135763f444324b146100e557600080fd5b3461010e57600036600319011261010e57600a546040516001600160a01b039091168152602090f35b600080fd5b3461010e57600036600319011261010e57600854604051630445da7b60e51b81529061010090829060049082906001600160a01b03165afa9081156102cc57600091610366575b50600980546001600160a01b0319166001600160a01b03929092169182179055301561035057801561033a57306000526001602052604060002081600052602052604060002060001990558060405160001981527f8c5be1e5ebec7d5bd14f71427d1e84f3dd0314c0f7b2291e5b200ac8c7c3b92560203092a360075460405163095ea7b360e01b815260048101839052600019602482015290602090829060449082906000906001600160a01b03165af180156102cc5761030d575b503060005260006020526024604060002054602060018060a01b0360075416604051938480926370a0823160e01b82523060048301525afa9182156102cc576000926102d8575b50906064602092600060018060a01b03600a5416956040519687958694638dbdbe6d60e01b86526004860152602485015260448401525af180156102cc576102a257005b6102c39060203d6020116102c5575b6102bb8183610d17565b810190610d4f565b005b503d6102b1565b6040513d6000823e3d90fd5b91506020823d602011610305575b816102f360209383610d17565b8101031261010e57905190606461025e565b3d91506102e6565b61032e9060203d602011610333575b6103268183610d17565b810190610d72565b610217565b503d61031c565b634a1406b160e11b600052600060045260246000fd5b63e602df0560e01b600052600060045260246000fd5b9050610100813d82116103da575b816103826101009383610d17565b8101031261010e576103d360e061039883610d5e565b926103a560408201610d8a565b506103b260808201610d8a565b506103bf60a08201610d8a565b506103cc60c08201610d8a565b5001610d8a565b508161015a565b3d9150610374565b3461010e57604036600319011261010e576103fb610ceb565b610403610d01565b6001600160a01b039182166000908152600160209081526040808320949093168252928352819020549051908152f35b3461010e57600036600319011261010e576007546040516370a0823160e01b81523360048201526001600160a01b0390911690602081602481855afa80156102cc576000906105d4575b683635c9adc5dea0000091501061058f5760206000916064604051809481936323b872dd60e01b8352336004840152306024840152683635c9adc5dea0000060448401525af180156102cc57610572575b50301561055c5760025469d3c21bcecceda10000008101809111610546576002556000308152806020526040812069d3c21bcecceda1000000815401905560405169d3c21bcecceda10000008152817fddf252ad1be2c89b69c2b068fc378daa952ba7f163c4a11628f55a4df523b3ef60203093a380f35b634e487b7160e01b600052601160045260246000fd5b63ec442f0560e01b600052600060045260246000fd5b61058a9060203d602011610333576103268183610d17565b6104ce565b60405162461bcd60e51b815260206004820152601f60248201527f496e73756666696369656e74207061697220746f6b656e2062616c616e6365006044820152606490fd5b506020813d602011610607575b816105ee60209383610d17565b8101031261010e57683635c9adc5dea00000905161047d565b3d91506105e1565b3461010e57600036600319011261010e576008546001600160a01b03166107e7576007546040516370a0823160e01b81523060048201526001600160a01b0390911690602081602481855afa80156102cc576000906107ac575b683635c9adc5dea0000091501061076757602060009161016460018060a01b036005541691604051948593849263ce186ec360e01b845282600485015230602485015260448401526402540be40060648401526305f5e1006084840152606460a48401526298968060c484015266038d7ea4c6800060e4840152816101048401528161012484015260646101448401525af19081156102cc5760009161072d575b50600880546001600160a01b0319166001600160a01b0392909216919091179055005b90506020813d60201161075f575b8161074860209383610d17565b8101031261010e5761075990610d5e565b8161070a565b3d915061073b565b60405162461bcd60e51b815260206004820152601960248201527f5061697220746f6b656e2062616c616e6365203c2031303030000000000000006044820152606490fd5b506020813d6020116107df575b816107c660209383610d17565b8101031261010e57683635c9adc5dea000009051610669565b3d91506107b9565b60405162461bcd60e51b815260206004820152601660248201527513585c9ad95d08185b1c9958591e4818dc99585d195960521b6044820152606490fd5b3461010e57600036600319011261010e576009546040516001600160a01b039091168152602090f35b3461010e57604036600319011261010e5761087461086a610ceb565b6024359033610da3565b602060405160018152f35b3461010e57600036600319011261010e576006546040516001600160a01b039091168152602090f35b3461010e57600036600319011261010e5760405160006004548060011c906001811680156109a6575b6020831081146109925782855290811561096e575060011461090e575b61090a836108fe81850382610d17565b60405191829182610ca2565b0390f35b91905060046000527f8a35acfbc15ff81a39ae7d344fd709f28e8600b4aa8c65c6b64bfe7fe36bd19b916000905b808210610954575090915081016020016108fe6108ee565b91926001816020925483858801015201910190929161093c565b60ff191660208086019190915291151560051b840190910191506108fe90506108ee565b634e487b7160e01b84526022600452602484fd5b91607f16916108d1565b3461010e57602036600319011261010e576001600160a01b036109d1610ceb565b1660005260006020526020604060002054604051908152f35b3461010e57600036600319011261010e576008546040516001600160a01b039091168152602090f35b3461010e57600036600319011261010e576007546040516001600160a01b039091168152602090f35b3461010e57600036600319011261010e57602060405160128152f35b3461010e57606036600319011261010e57610a71610ceb565b610a79610d01565b6001600160a01b0382166000818152600160208181526040808420338552909152909120549193604435939290918101610ab9575b506108749350610da3565b838110610afc57841561035057331561033a57610874946000526001602052604060002060018060a01b0333166000526020528360406000209103905584610aae565b8390637dc7a0d960e11b6000523360045260245260445260646000fd5b3461010e57600036600319011261010e576020600254604051908152f35b3461010e57600036600319011261010e576005546040516001600160a01b039091168152602090f35b3461010e57604036600319011261010e57610b79610ceb565b602435903315610350576001600160a01b031690811561033a57336000526001602052604060002082600052602052806040600020556040519081527f8c5be1e5ebec7d5bd14f71427d1e84f3dd0314c0f7b2291e5b200ac8c7c3b92560203392a3602060405160018152f35b3461010e57600036600319011261010e5760006003548060011c90600181168015610c98575b6020831081146109925782855290811561096e5750600114610c385761090a836108fe81850382610d17565b91905060036000527fc2575a0e9e593c00f959f8c92f12db2869c3395a3b0502d05e2516446f71f85b916000905b808210610c7e575090915081016020016108fe6108ee565b919260018160209254838588010152019101909291610c66565b91607f1691610c0c565b91909160208152825180602083015260005b818110610cd5575060409293506000838284010152601f8019910116010190565b8060208092870101516040828601015201610cb4565b600435906001600160a01b038216820361010e57565b602435906001600160a01b038216820361010e57565b90601f8019910116810190811067ffffffffffffffff821117610d3957604052565b634e487b7160e01b600052604160045260246000fd5b9081602091031261010e575190565b51906001600160a01b038216820361010e57565b9081602091031261010e5751801515810361010e5790565b51906bffffffffffffffffffffffff8216820361010e57565b6001600160a01b0316908115610e3c576001600160a01b031691821561055c576000828152806020526040812054828110610e225791604082827fddf252ad1be2c89b69c2b068fc378daa952ba7f163c4a11628f55a4df523b3ef958760209652828652038282205586815280845220818154019055604051908152a3565b916064928463391434e360e21b8452600452602452604452fd5b634b637e8f60e11b600052600060045260246000fdfea264697066735822122099dd0e7de45b0d2c2a74993fcb49a039405d07a8c55e7f1cda3231104cf9614f64736f6c634300081c0033","opcodes":"PUSH1 0x80 PUSH1 0x40 MSTORE CALLVALUE PUSH2 0x3A2 JUMPI PUSH2 0x1269 PUSH1 0x60 DUP2 CODESIZE SUB SWAP2 DUP3 PUSH2 0x1C DUP2 PUSH2 0x3A7 JUMP JUMPDEST SWAP4 DUP5 SWAP3 DUP4 CODECOPY DUP2 ADD SUB SLT PUSH2 0x3A2 JUMPI PUSH2 0x32 DUP2 PUSH2 0x3CC JUMP JUMPDEST SWAP1 PUSH2 0x4B PUSH1 0x40 PUSH2 0x44 PUSH1 0x20 DUP5 ADD PUSH2 0x3CC JUMP JUMPDEST SWAP3 ADD PUSH2 0x3CC JUMP JUMPDEST SWAP1 PUSH2 0x56 PUSH1 0x40 PUSH2 0x3A7 JUMP JUMPDEST SWAP3 PUSH1 0x9 DUP5 MSTORE PUSH9 0x54455354204B555255 PUSH1 0xB8 SHL PUSH1 0x20 DUP6 ADD MSTORE PUSH2 0x77 PUSH1 0x40 PUSH2 0x3A7 JUMP JUMPDEST PUSH1 0x2 DUP2 MSTORE PUSH2 0x544B PUSH1 0xF0 SHL PUSH1 0x20 DUP3 ADD MSTORE DUP5 MLOAD SWAP1 SWAP5 PUSH1 0x1 PUSH1 0x1 PUSH1 0x40 SHL SUB DUP3 GT PUSH2 0x29F JUMPI PUSH1 0x3 SLOAD SWAP1 PUSH1 0x1 DUP3 DUP2 SHR SWAP3 AND DUP1 ISZERO PUSH2 0x398 JUMPI JUMPDEST PUSH1 0x20 DUP4 LT EQ PUSH2 0x27F JUMPI DUP2 PUSH1 0x1F DUP5 SWAP4 GT PUSH2 0x328 JUMPI JUMPDEST POP PUSH1 0x20 SWAP1 PUSH1 0x1F DUP4 GT PUSH1 0x1 EQ PUSH2 0x2C0 JUMPI PUSH1 0x0 SWAP3 PUSH2 0x2B5 JUMPI JUMPDEST POP POP DUP2 PUSH1 0x1 SHL SWAP2 PUSH1 0x0 NOT SWAP1 PUSH1 0x3 SHL SHR NOT AND OR PUSH1 0x3 SSTORE JUMPDEST DUP4 MLOAD PUSH1 0x1 PUSH1 0x1 PUSH1 0x40 SHL SUB DUP2 GT PUSH2 0x29F JUMPI PUSH1 0x4 SLOAD PUSH1 0x1 DUP2 DUP2 SHR SWAP2 AND DUP1 ISZERO PUSH2 0x295 JUMPI JUMPDEST PUSH1 0x20 DUP3 LT EQ PUSH2 0x27F JUMPI PUSH1 0x1F DUP2 GT PUSH2 0x21A JUMPI JUMPDEST POP PUSH1 0x20 SWAP5 PUSH1 0x1F DUP3 GT PUSH1 0x1 EQ PUSH2 0x1B3 JUMPI SWAP5 DUP2 SWAP3 SWAP4 SWAP5 SWAP6 PUSH1 0x0 SWAP3 PUSH2 0x1A8 JUMPI JUMPDEST POP POP DUP2 PUSH1 0x1 SHL SWAP2 PUSH1 0x0 NOT SWAP1 PUSH1 0x3 SHL SHR NOT AND OR PUSH1 0x4 SSTORE JUMPDEST PUSH1 0x5 DUP1 SLOAD PUSH1 0x1 PUSH1 0x1 PUSH1 0xA0 SHL SUB NOT SWAP1 DUP2 AND PUSH1 0x1 PUSH1 0x1 PUSH1 0xA0 SHL SUB SWAP4 DUP5 AND OR SWAP1 SWAP2 SSTORE PUSH1 0x6 DUP1 SLOAD DUP3 AND ADDRESS OR SWAP1 SSTORE PUSH1 0x7 DUP1 SLOAD DUP3 AND SWAP4 DUP4 AND SWAP4 SWAP1 SWAP4 OR SWAP1 SWAP3 SSTORE PUSH1 0xA DUP1 SLOAD SWAP1 SWAP3 AND SWAP3 AND SWAP2 SWAP1 SWAP2 OR SWAP1 SSTORE PUSH1 0x40 MLOAD PUSH2 0xE88 SWAP1 DUP2 PUSH2 0x3E1 DUP3 CODECOPY RETURN JUMPDEST ADD MLOAD SWAP1 POP CODESIZE DUP1 PUSH2 0x13B JUMP JUMPDEST PUSH1 0x1F NOT DUP3 AND SWAP6 PUSH1 0x4 PUSH1 0x0 MSTORE DUP1 PUSH1 0x0 KECCAK256 SWAP2 PUSH1 0x0 JUMPDEST DUP9 DUP2 LT PUSH2 0x202 JUMPI POP DUP4 PUSH1 0x1 SWAP6 SWAP7 SWAP8 SWAP9 LT PUSH2 0x1E9 JUMPI JUMPDEST POP POP POP DUP2 SHL ADD PUSH1 0x4 SSTORE PUSH2 0x151 JUMP JUMPDEST ADD MLOAD PUSH1 0x0 NOT PUSH1 0xF8 DUP5 PUSH1 0x3 SHL AND SHR NOT AND SWAP1 SSTORE CODESIZE DUP1 DUP1 PUSH2 0x1DB JUMP JUMPDEST SWAP2 SWAP3 PUSH1 0x20 PUSH1 0x1 DUP2 SWAP3 DUP7 DUP6 ADD MLOAD DUP2 SSTORE ADD SWAP5 ADD SWAP3 ADD PUSH2 0x1C6 JUMP JUMPDEST PUSH1 0x4 PUSH1 0x0 MSTORE PUSH32 0x8A35ACFBC15FF81A39AE7D344FD709F28E8600B4AA8C65C6B64BFE7FE36BD19B PUSH1 0x1F DUP4 ADD PUSH1 0x5 SHR DUP2 ADD SWAP2 PUSH1 0x20 DUP5 LT PUSH2 0x275 JUMPI JUMPDEST PUSH1 0x1F ADD PUSH1 0x5 SHR ADD SWAP1 JUMPDEST DUP2 DUP2 LT PUSH2 0x269 JUMPI POP PUSH2 0x11E JUMP JUMPDEST PUSH1 0x0 DUP2 SSTORE PUSH1 0x1 ADD PUSH2 0x25C JUMP JUMPDEST SWAP1 SWAP2 POP DUP2 SWAP1 PUSH2 0x253 JUMP JUMPDEST PUSH4 0x4E487B71 PUSH1 0xE0 SHL PUSH1 0x0 MSTORE PUSH1 0x22 PUSH1 0x4 MSTORE PUSH1 0x24 PUSH1 0x0 REVERT JUMPDEST SWAP1 PUSH1 0x7F AND SWAP1 PUSH2 0x10C JUMP JUMPDEST PUSH4 0x4E487B71 PUSH1 0xE0 SHL PUSH1 0x0 MSTORE PUSH1 0x41 PUSH1 0x4 MSTORE PUSH1 0x24 PUSH1 0x0 REVERT JUMPDEST ADD MLOAD SWAP1 POP CODESIZE DUP1 PUSH2 0xD5 JUMP JUMPDEST PUSH1 0x3 PUSH1 0x0 SWAP1 DUP2 MSTORE DUP3 DUP2 KECCAK256 SWAP4 POP PUSH1 0x1F NOT DUP6 AND SWAP1 JUMPDEST DUP2 DUP2 LT PUSH2 0x310 JUMPI POP SWAP1 DUP5 PUSH1 0x1 SWAP6 SWAP5 SWAP4 SWAP3 LT PUSH2 0x2F7 JUMPI JUMPDEST POP POP POP DUP2 SHL ADD PUSH1 0x3 SSTORE PUSH2 0xEB JUMP JUMPDEST ADD MLOAD PUSH1 0x0 NOT PUSH1 0xF8 DUP5 PUSH1 0x3 SHL AND SHR NOT AND SWAP1 SSTORE CODESIZE DUP1 DUP1 PUSH2 0x2E9 JUMP JUMPDEST SWAP3 SWAP4 PUSH1 0x20 PUSH1 0x1 DUP2 SWAP3 DUP8 DUP7 ADD MLOAD DUP2 SSTORE ADD SWAP6 ADD SWAP4 ADD PUSH2 0x2D3 JUMP JUMPDEST PUSH1 0x3 PUSH1 0x0 MSTORE SWAP1 SWAP2 POP PUSH32 0xC2575A0E9E593C00F959F8C92F12DB2869C3395A3B0502D05E2516446F71F85B PUSH1 0x1F DUP5 ADD PUSH1 0x5 SHR DUP2 ADD SWAP2 PUSH1 0x20 DUP6 LT PUSH2 0x38E JUMPI JUMPDEST SWAP1 PUSH1 0x1F DUP6 SWAP5 SWAP4 SWAP3 ADD PUSH1 0x5 SHR ADD SWAP1 JUMPDEST DUP2 DUP2 LT PUSH2 0x37F JUMPI POP PUSH2 0xBE JUMP JUMPDEST PUSH1 0x0 DUP2 SSTORE DUP5 SWAP4 POP PUSH1 0x1 ADD PUSH2 0x372 JUMP JUMPDEST SWAP1 SWAP2 POP DUP2 SWAP1 PUSH2 0x364 JUMP JUMPDEST SWAP2 PUSH1 0x7F AND SWAP2 PUSH2 0xAA JUMP JUMPDEST PUSH1 0x0 DUP1 REVERT JUMPDEST PUSH1 0x40 MLOAD SWAP2 SWAP1 PUSH1 0x1F ADD PUSH1 0x1F NOT AND DUP3 ADD PUSH1 0x1 PUSH1 0x1 PUSH1 0x40 SHL SUB DUP2 GT DUP4 DUP3 LT OR PUSH2 0x29F JUMPI PUSH1 0x40 MSTORE JUMP JUMPDEST MLOAD SWAP1 PUSH1 0x1 PUSH1 0x1 PUSH1 0xA0 SHL SUB DUP3 AND DUP3 SUB PUSH2 0x3A2 JUMPI JUMP INVALID PUSH1 0x80 DUP1 PUSH1 0x40 MSTORE PUSH1 0x4 CALLDATASIZE LT ISZERO PUSH2 0x13 JUMPI PUSH1 0x0 DUP1 REVERT JUMPDEST PUSH1 0x0 CALLDATALOAD PUSH1 0xE0 SHR SWAP1 DUP2 PUSH4 0x6FDDE03 EQ PUSH2 0xBE6 JUMPI POP DUP1 PUSH4 0x95EA7B3 EQ PUSH2 0xB60 JUMPI DUP1 PUSH4 0x9EA7CCB EQ PUSH2 0xB37 JUMPI DUP1 PUSH4 0x18160DDD EQ PUSH2 0xB19 JUMPI DUP1 PUSH4 0x23B872DD EQ PUSH2 0xA58 JUMPI DUP1 PUSH4 0x313CE567 EQ PUSH2 0xA3C JUMPI DUP1 PUSH4 0x3DE35B79 EQ PUSH2 0xA13 JUMPI DUP1 PUSH4 0x44905E62 EQ PUSH2 0x9EA JUMPI DUP1 PUSH4 0x70A08231 EQ PUSH2 0x9B0 JUMPI DUP1 PUSH4 0x95D89B41 EQ PUSH2 0x8A8 JUMPI DUP1 PUSH4 0x972598E7 EQ PUSH2 0x87F JUMPI DUP1 PUSH4 0xA9059CBB EQ PUSH2 0x84E JUMPI DUP1 PUSH4 0xAE8E4376 EQ PUSH2 0x825 JUMPI DUP1 PUSH4 0xAEA0E35F EQ PUSH2 0x60F JUMPI DUP1 PUSH4 0xBA65D8CD EQ PUSH2 0x433 JUMPI DUP1 PUSH4 0xDD62ED3E EQ PUSH2 0x3E2 JUMPI DUP1 PUSH4 0xE8078D94 EQ PUSH2 0x113 JUMPI PUSH4 0xF444324B EQ PUSH2 0xE5 JUMPI PUSH1 0x0 DUP1 REVERT JUMPDEST CALLVALUE PUSH2 0x10E JUMPI PUSH1 0x0 CALLDATASIZE PUSH1 0x3 NOT ADD SLT PUSH2 0x10E JUMPI PUSH1 0xA SLOAD PUSH1 0x40 MLOAD PUSH1 0x1 PUSH1 0x1 PUSH1 0xA0 SHL SUB SWAP1 SWAP2 AND DUP2 MSTORE PUSH1 0x20 SWAP1 RETURN JUMPDEST PUSH1 0x0 DUP1 REVERT JUMPDEST CALLVALUE PUSH2 0x10E JUMPI PUSH1 0x0 CALLDATASIZE PUSH1 0x3 NOT ADD SLT PUSH2 0x10E JUMPI PUSH1 0x8 SLOAD PUSH1 0x40 MLOAD PUSH4 0x445DA7B PUSH1 0xE5 SHL DUP2 MSTORE SWAP1 PUSH2 0x100 SWAP1 DUP3 SWAP1 PUSH1 0x4 SWAP1 DUP3 SWAP1 PUSH1 0x1 PUSH1 0x1 PUSH1 0xA0 SHL SUB AND GAS STATICCALL SWAP1 DUP2 ISZERO PUSH2 0x2CC JUMPI PUSH1 0x0 SWAP2 PUSH2 0x366 JUMPI JUMPDEST POP PUSH1 0x9 DUP1 SLOAD PUSH1 0x1 PUSH1 0x1 PUSH1 0xA0 SHL SUB NOT AND PUSH1 0x1 PUSH1 0x1 PUSH1 0xA0 SHL SUB SWAP3 SWAP1 SWAP3 AND SWAP2 DUP3 OR SWAP1 SSTORE ADDRESS ISZERO PUSH2 0x350 JUMPI DUP1 ISZERO PUSH2 0x33A JUMPI ADDRESS PUSH1 0x0 MSTORE PUSH1 0x1 PUSH1 0x20 MSTORE PUSH1 0x40 PUSH1 0x0 KECCAK256 DUP2 PUSH1 0x0 MSTORE PUSH1 0x20 MSTORE PUSH1 0x40 PUSH1 0x0 KECCAK256 PUSH1 0x0 NOT SWAP1 SSTORE DUP1 PUSH1 0x40 MLOAD PUSH1 0x0 NOT DUP2 MSTORE PUSH32 0x8C5BE1E5EBEC7D5BD14F71427D1E84F3DD0314C0F7B2291E5B200AC8C7C3B925 PUSH1 0x20 ADDRESS SWAP3 LOG3 PUSH1 0x7 SLOAD PUSH1 0x40 MLOAD PUSH4 0x95EA7B3 PUSH1 0xE0 SHL DUP2 MSTORE PUSH1 0x4 DUP2 ADD DUP4 SWAP1 MSTORE PUSH1 0x0 NOT PUSH1 0x24 DUP3 ADD MSTORE SWAP1 PUSH1 0x20 SWAP1 DUP3 SWAP1 PUSH1 0x44 SWAP1 DUP3 SWAP1 PUSH1 0x0 SWAP1 PUSH1 0x1 PUSH1 0x1 PUSH1 0xA0 SHL SUB AND GAS CALL DUP1 ISZERO PUSH2 0x2CC JUMPI PUSH2 0x30D JUMPI JUMPDEST POP ADDRESS PUSH1 0x0 MSTORE PUSH1 0x0 PUSH1 0x20 MSTORE PUSH1 0x24 PUSH1 0x40 PUSH1 0x0 KECCAK256 SLOAD PUSH1 0x20 PUSH1 0x1 DUP1 PUSH1 0xA0 SHL SUB PUSH1 0x7 SLOAD AND PUSH1 0x40 MLOAD SWAP4 DUP5 DUP1 SWAP3 PUSH4 0x70A08231 PUSH1 0xE0 SHL DUP3 MSTORE ADDRESS PUSH1 0x4 DUP4 ADD MSTORE GAS STATICCALL SWAP2 DUP3 ISZERO PUSH2 0x2CC JUMPI PUSH1 0x0 SWAP3 PUSH2 0x2D8 JUMPI JUMPDEST POP SWAP1 PUSH1 0x64 PUSH1 0x20 SWAP3 PUSH1 0x0 PUSH1 0x1 DUP1 PUSH1 0xA0 SHL SUB PUSH1 0xA SLOAD AND SWAP6 PUSH1 0x40 MLOAD SWAP7 DUP8 SWAP6 DUP7 SWAP5 PUSH4 0x8DBDBE6D PUSH1 0xE0 SHL DUP7 MSTORE PUSH1 0x4 DUP7 ADD MSTORE PUSH1 0x24 DUP6 ADD MSTORE PUSH1 0x44 DUP5 ADD MSTORE GAS CALL DUP1 ISZERO PUSH2 0x2CC JUMPI PUSH2 0x2A2 JUMPI STOP JUMPDEST PUSH2 0x2C3 SWAP1 PUSH1 0x20 RETURNDATASIZE PUSH1 0x20 GT PUSH2 0x2C5 JUMPI JUMPDEST PUSH2 0x2BB DUP2 DUP4 PUSH2 0xD17 JUMP JUMPDEST DUP2 ADD SWAP1 PUSH2 0xD4F JUMP JUMPDEST STOP JUMPDEST POP RETURNDATASIZE PUSH2 0x2B1 JUMP JUMPDEST PUSH1 0x40 MLOAD RETURNDATASIZE PUSH1 0x0 DUP3 RETURNDATACOPY RETURNDATASIZE SWAP1 REVERT JUMPDEST SWAP2 POP PUSH1 0x20 DUP3 RETURNDATASIZE PUSH1 0x20 GT PUSH2 0x305 JUMPI JUMPDEST DUP2 PUSH2 0x2F3 PUSH1 0x20 SWAP4 DUP4 PUSH2 0xD17 JUMP JUMPDEST DUP2 ADD SUB SLT PUSH2 0x10E JUMPI SWAP1 MLOAD SWAP1 PUSH1 0x64 PUSH2 0x25E JUMP JUMPDEST RETURNDATASIZE SWAP2 POP PUSH2 0x2E6 JUMP JUMPDEST PUSH2 0x32E SWAP1 PUSH1 0x20 RETURNDATASIZE PUSH1 0x20 GT PUSH2 0x333 JUMPI JUMPDEST PUSH2 0x326 DUP2 DUP4 PUSH2 0xD17 JUMP JUMPDEST DUP2 ADD SWAP1 PUSH2 0xD72 JUMP JUMPDEST PUSH2 0x217 JUMP JUMPDEST POP RETURNDATASIZE PUSH2 0x31C JUMP JUMPDEST PUSH4 0x4A1406B1 PUSH1 0xE1 SHL PUSH1 0x0 MSTORE PUSH1 0x0 PUSH1 0x4 MSTORE PUSH1 0x24 PUSH1 0x0 REVERT JUMPDEST PUSH4 0xE602DF05 PUSH1 0xE0 SHL PUSH1 0x0 MSTORE PUSH1 0x0 PUSH1 0x4 MSTORE PUSH1 0x24 PUSH1 0x0 REVERT JUMPDEST SWAP1 POP PUSH2 0x100 DUP2 RETURNDATASIZE DUP3 GT PUSH2 0x3DA JUMPI JUMPDEST DUP2 PUSH2 0x382 PUSH2 0x100 SWAP4 DUP4 PUSH2 0xD17 JUMP JUMPDEST DUP2 ADD SUB SLT PUSH2 0x10E JUMPI PUSH2 0x3D3 PUSH1 0xE0 PUSH2 0x398 DUP4 PUSH2 0xD5E JUMP JUMPDEST SWAP3 PUSH2 0x3A5 PUSH1 0x40 DUP3 ADD PUSH2 0xD8A JUMP JUMPDEST POP PUSH2 0x3B2 PUSH1 0x80 DUP3 ADD PUSH2 0xD8A JUMP JUMPDEST POP PUSH2 0x3BF PUSH1 0xA0 DUP3 ADD PUSH2 0xD8A JUMP JUMPDEST POP PUSH2 0x3CC PUSH1 0xC0 DUP3 ADD PUSH2 0xD8A JUMP JUMPDEST POP ADD PUSH2 0xD8A JUMP JUMPDEST POP DUP2 PUSH2 0x15A JUMP JUMPDEST RETURNDATASIZE SWAP2 POP PUSH2 0x374 JUMP JUMPDEST CALLVALUE PUSH2 0x10E JUMPI PUSH1 0x40 CALLDATASIZE PUSH1 0x3 NOT ADD SLT PUSH2 0x10E JUMPI PUSH2 0x3FB PUSH2 0xCEB JUMP JUMPDEST PUSH2 0x403 PUSH2 0xD01 JUMP JUMPDEST PUSH1 0x1 PUSH1 0x1 PUSH1 0xA0 SHL SUB SWAP2 DUP3 AND PUSH1 0x0 SWAP1 DUP2 MSTORE PUSH1 0x1 PUSH1 0x20 SWAP1 DUP2 MSTORE PUSH1 0x40 DUP1 DUP4 KECCAK256 SWAP5 SWAP1 SWAP4 AND DUP3 MSTORE SWAP3 DUP4 MSTORE DUP2 SWAP1 KECCAK256 SLOAD SWAP1 MLOAD SWAP1 DUP2 MSTORE RETURN JUMPDEST CALLVALUE PUSH2 0x10E JUMPI PUSH1 0x0 CALLDATASIZE PUSH1 0x3 NOT ADD SLT PUSH2 0x10E JUMPI PUSH1 0x7 SLOAD PUSH1 0x40 MLOAD PUSH4 0x70A08231 PUSH1 0xE0 SHL DUP2 MSTORE CALLER PUSH1 0x4 DUP3 ADD MSTORE PUSH1 0x1 PUSH1 0x1 PUSH1 0xA0 SHL SUB SWAP1 SWAP2 AND SWAP1 PUSH1 0x20 DUP2 PUSH1 0x24 DUP2 DUP6 GAS STATICCALL DUP1 ISZERO PUSH2 0x2CC JUMPI PUSH1 0x0 SWAP1 PUSH2 0x5D4 JUMPI JUMPDEST PUSH9 0x3635C9ADC5DEA00000 SWAP2 POP LT PUSH2 0x58F JUMPI PUSH1 0x20 PUSH1 0x0 SWAP2 PUSH1 0x64 PUSH1 0x40 MLOAD DUP1 SWAP5 DUP2 SWAP4 PUSH4 0x23B872DD PUSH1 0xE0 SHL DUP4 MSTORE CALLER PUSH1 0x4 DUP5 ADD MSTORE ADDRESS PUSH1 0x24 DUP5 ADD MSTORE PUSH9 0x3635C9ADC5DEA00000 PUSH1 0x44 DUP5 ADD MSTORE GAS CALL DUP1 ISZERO PUSH2 0x2CC JUMPI PUSH2 0x572 JUMPI JUMPDEST POP ADDRESS ISZERO PUSH2 0x55C JUMPI PUSH1 0x2 SLOAD PUSH10 0xD3C21BCECCEDA1000000 DUP2 ADD DUP1 SWAP2 GT PUSH2 0x546 JUMPI PUSH1 0x2 SSTORE PUSH1 0x0 ADDRESS DUP2 MSTORE DUP1 PUSH1 0x20 MSTORE PUSH1 0x40 DUP2 KECCAK256 PUSH10 0xD3C21BCECCEDA1000000 DUP2 SLOAD ADD SWAP1 SSTORE PUSH1 0x40 MLOAD PUSH10 0xD3C21BCECCEDA1000000 DUP2 MSTORE DUP2 PUSH32 0xDDF252AD1BE2C89B69C2B068FC378DAA952BA7F163C4A11628F55A4DF523B3EF PUSH1 0x20 ADDRESS SWAP4 LOG3 DUP1 RETURN JUMPDEST PUSH4 0x4E487B71 PUSH1 0xE0 SHL PUSH1 0x0 MSTORE PUSH1 0x11 PUSH1 0x4 MSTORE PUSH1 0x24 PUSH1 0x0 REVERT JUMPDEST PUSH4 0xEC442F05 PUSH1 0xE0 SHL PUSH1 0x0 MSTORE PUSH1 0x0 PUSH1 0x4 MSTORE PUSH1 0x24 PUSH1 0x0 REVERT JUMPDEST PUSH2 0x58A SWAP1 PUSH1 0x20 RETURNDATASIZE PUSH1 0x20 GT PUSH2 0x333 JUMPI PUSH2 0x326 DUP2 DUP4 PUSH2 0xD17 JUMP JUMPDEST PUSH2 0x4CE JUMP JUMPDEST PUSH1 0x40 MLOAD PUSH3 0x461BCD PUSH1 0xE5 SHL DUP2 MSTORE PUSH1 0x20 PUSH1 0x4 DUP3 ADD MSTORE PUSH1 0x1F PUSH1 0x24 DUP3 ADD MSTORE PUSH32 0x496E73756666696369656E74207061697220746F6B656E2062616C616E636500 PUSH1 0x44 DUP3 ADD MSTORE PUSH1 0x64 SWAP1 REVERT JUMPDEST POP PUSH1 0x20 DUP2 RETURNDATASIZE PUSH1 0x20 GT PUSH2 0x607 JUMPI JUMPDEST DUP2 PUSH2 0x5EE PUSH1 0x20 SWAP4 DUP4 PUSH2 0xD17 JUMP JUMPDEST DUP2 ADD SUB SLT PUSH2 0x10E JUMPI PUSH9 0x3635C9ADC5DEA00000 SWAP1 MLOAD PUSH2 0x47D JUMP JUMPDEST RETURNDATASIZE SWAP2 POP PUSH2 0x5E1 JUMP JUMPDEST CALLVALUE PUSH2 0x10E JUMPI PUSH1 0x0 CALLDATASIZE PUSH1 0x3 NOT ADD SLT PUSH2 0x10E JUMPI PUSH1 0x8 SLOAD PUSH1 0x1 PUSH1 0x1 PUSH1 0xA0 SHL SUB AND PUSH2 0x7E7 JUMPI PUSH1 0x7 SLOAD PUSH1 0x40 MLOAD PUSH4 0x70A08231 PUSH1 0xE0 SHL DUP2 MSTORE ADDRESS PUSH1 0x4 DUP3 ADD MSTORE PUSH1 0x1 PUSH1 0x1 PUSH1 0xA0 SHL SUB SWAP1 SWAP2 AND SWAP1 PUSH1 0x20 DUP2 PUSH1 0x24 DUP2 DUP6 GAS STATICCALL DUP1 ISZERO PUSH2 0x2CC JUMPI PUSH1 0x0 SWAP1 PUSH2 0x7AC JUMPI JUMPDEST PUSH9 0x3635C9ADC5DEA00000 SWAP2 POP LT PUSH2 0x767 JUMPI PUSH1 0x20 PUSH1 0x0 SWAP2 PUSH2 0x164 PUSH1 0x1 DUP1 PUSH1 0xA0 SHL SUB PUSH1 0x5 SLOAD AND SWAP2 PUSH1 0x40 MLOAD SWAP5 DUP6 SWAP4 DUP5 SWAP3 PUSH4 0xCE186EC3 PUSH1 0xE0 SHL DUP5 MSTORE DUP3 PUSH1 0x4 DUP6 ADD MSTORE ADDRESS PUSH1 0x24 DUP6 ADD MSTORE PUSH1 0x44 DUP5 ADD MSTORE PUSH5 0x2540BE400 PUSH1 0x64 DUP5 ADD MSTORE PUSH4 0x5F5E100 PUSH1 0x84 DUP5 ADD MSTORE PUSH1 0x64 PUSH1 0xA4 DUP5 ADD MSTORE PUSH3 0x989680 PUSH1 0xC4 DUP5 ADD MSTORE PUSH7 0x38D7EA4C68000 PUSH1 0xE4 DUP5 ADD MSTORE DUP2 PUSH2 0x104 DUP5 ADD MSTORE DUP2 PUSH2 0x124 DUP5 ADD MSTORE PUSH1 0x64 PUSH2 0x144 DUP5 ADD MSTORE GAS CALL SWAP1 DUP2 ISZERO PUSH2 0x2CC JUMPI PUSH1 0x0 SWAP2 PUSH2 0x72D JUMPI JUMPDEST POP PUSH1 0x8 DUP1 SLOAD PUSH1 0x1 PUSH1 0x1 PUSH1 0xA0 SHL SUB NOT AND PUSH1 0x1 PUSH1 0x1 PUSH1 0xA0 SHL SUB SWAP3 SWAP1 SWAP3 AND SWAP2 SWAP1 SWAP2 OR SWAP1 SSTORE STOP JUMPDEST SWAP1 POP PUSH1 0x20 DUP2 RETURNDATASIZE PUSH1 0x20 GT PUSH2 0x75F JUMPI JUMPDEST DUP2 PUSH2 0x748 PUSH1 0x20 SWAP4 DUP4 PUSH2 0xD17 JUMP JUMPDEST DUP2 ADD SUB SLT PUSH2 0x10E JUMPI PUSH2 0x759 SWAP1 PUSH2 0xD5E JUMP JUMPDEST DUP2 PUSH2 0x70A JUMP JUMPDEST RETURNDATASIZE SWAP2 POP PUSH2 0x73B JUMP JUMPDEST PUSH1 0x40 MLOAD PUSH3 0x461BCD PUSH1 0xE5 SHL DUP2 MSTORE PUSH1 0x20 PUSH1 0x4 DUP3 ADD MSTORE PUSH1 0x19 PUSH1 0x24 DUP3 ADD MSTORE PUSH32 0x5061697220746F6B656E2062616C616E6365203C203130303000000000000000 PUSH1 0x44 DUP3 ADD MSTORE PUSH1 0x64 SWAP1 REVERT JUMPDEST POP PUSH1 0x20 DUP2 RETURNDATASIZE PUSH1 0x20 GT PUSH2 0x7DF JUMPI JUMPDEST DUP2 PUSH2 0x7C6 PUSH1 0x20 SWAP4 DUP4 PUSH2 0xD17 JUMP JUMPDEST DUP2 ADD SUB SLT PUSH2 0x10E JUMPI PUSH9 0x3635C9ADC5DEA00000 SWAP1 MLOAD PUSH2 0x669 JUMP JUMPDEST RETURNDATASIZE SWAP2 POP PUSH2 0x7B9 JUMP JUMPDEST PUSH1 0x40 MLOAD PUSH3 0x461BCD PUSH1 0xE5 SHL DUP2 MSTORE PUSH1 0x20 PUSH1 0x4 DUP3 ADD MSTORE PUSH1 0x16 PUSH1 0x24 DUP3 ADD MSTORE PUSH22 0x13585C9AD95D08185B1C9958591E4818DC99585D1959 PUSH1 0x52 SHL PUSH1 0x44 DUP3 ADD MSTORE PUSH1 0x64 SWAP1 REVERT JUMPDEST CALLVALUE PUSH2 0x10E JUMPI PUSH1 0x0 CALLDATASIZE PUSH1 0x3 NOT ADD SLT PUSH2 0x10E JUMPI PUSH1 0x9 SLOAD PUSH1 0x40 MLOAD PUSH1 0x1 PUSH1 0x1 PUSH1 0xA0 SHL SUB SWAP1 SWAP2 AND DUP2 MSTORE PUSH1 0x20 SWAP1 RETURN JUMPDEST CALLVALUE PUSH2 0x10E JUMPI PUSH1 0x40 CALLDATASIZE PUSH1 0x3 NOT ADD SLT PUSH2 0x10E JUMPI PUSH2 0x874 PUSH2 0x86A PUSH2 0xCEB JUMP JUMPDEST PUSH1 0x24 CALLDATALOAD SWAP1 CALLER PUSH2 0xDA3 JUMP JUMPDEST PUSH1 0x20 PUSH1 0x40 MLOAD PUSH1 0x1 DUP2 MSTORE RETURN JUMPDEST CALLVALUE PUSH2 0x10E JUMPI PUSH1 0x0 CALLDATASIZE PUSH1 0x3 NOT ADD SLT PUSH2 0x10E JUMPI PUSH1 0x6 SLOAD PUSH1 0x40 MLOAD PUSH1 0x1 PUSH1 0x1 PUSH1 0xA0 SHL SUB SWAP1 SWAP2 AND DUP2 MSTORE PUSH1 0x20 SWAP1 RETURN JUMPDEST CALLVALUE PUSH2 0x10E JUMPI PUSH1 0x0 CALLDATASIZE PUSH1 0x3 NOT ADD SLT PUSH2 0x10E JUMPI PUSH1 0x40 MLOAD PUSH1 0x0 PUSH1 0x4 SLOAD DUP1 PUSH1 0x1 SHR SWAP1 PUSH1 0x1 DUP2 AND DUP1 ISZERO PUSH2 0x9A6 JUMPI JUMPDEST PUSH1 0x20 DUP4 LT DUP2 EQ PUSH2 0x992 JUMPI DUP3 DUP6 MSTORE SWAP1 DUP2 ISZERO PUSH2 0x96E JUMPI POP PUSH1 0x1 EQ PUSH2 0x90E JUMPI JUMPDEST PUSH2 0x90A DUP4 PUSH2 0x8FE DUP2 DUP6 SUB DUP3 PUSH2 0xD17 JUMP JUMPDEST PUSH1 0x40 MLOAD SWAP2 DUP3 SWAP2 DUP3 PUSH2 0xCA2 JUMP JUMPDEST SUB SWAP1 RETURN JUMPDEST SWAP2 SWAP1 POP PUSH1 0x4 PUSH1 0x0 MSTORE PUSH32 0x8A35ACFBC15FF81A39AE7D344FD709F28E8600B4AA8C65C6B64BFE7FE36BD19B SWAP2 PUSH1 0x0 SWAP1 JUMPDEST DUP1 DUP3 LT PUSH2 0x954 JUMPI POP SWAP1 SWAP2 POP DUP2 ADD PUSH1 0x20 ADD PUSH2 0x8FE PUSH2 0x8EE JUMP JUMPDEST SWAP2 SWAP3 PUSH1 0x1 DUP2 PUSH1 0x20 SWAP3 SLOAD DUP4 DUP6 DUP9 ADD ADD MSTORE ADD SWAP2 ADD SWAP1 SWAP3 SWAP2 PUSH2 0x93C JUMP JUMPDEST PUSH1 0xFF NOT AND PUSH1 0x20 DUP1 DUP7 ADD SWAP2 SWAP1 SWAP2 MSTORE SWAP2 ISZERO ISZERO PUSH1 0x5 SHL DUP5 ADD SWAP1 SWAP2 ADD SWAP2 POP PUSH2 0x8FE SWAP1 POP PUSH2 0x8EE JUMP JUMPDEST PUSH4 0x4E487B71 PUSH1 0xE0 SHL DUP5 MSTORE PUSH1 0x22 PUSH1 0x4 MSTORE PUSH1 0x24 DUP5 REVERT JUMPDEST SWAP2 PUSH1 0x7F AND SWAP2 PUSH2 0x8D1 JUMP JUMPDEST CALLVALUE PUSH2 0x10E JUMPI PUSH1 0x20 CALLDATASIZE PUSH1 0x3 NOT ADD SLT PUSH2 0x10E JUMPI PUSH1 0x1 PUSH1 0x1 PUSH1 0xA0 SHL SUB PUSH2 0x9D1 PUSH2 0xCEB JUMP JUMPDEST AND PUSH1 0x0 MSTORE PUSH1 0x0 PUSH1 0x20 MSTORE PUSH1 0x20 PUSH1 0x40 PUSH1 0x0 KECCAK256 SLOAD PUSH1 0x40 MLOAD SWAP1 DUP2 MSTORE RETURN JUMPDEST CALLVALUE PUSH2 0x10E JUMPI PUSH1 0x0 CALLDATASIZE PUSH1 0x3 NOT ADD SLT PUSH2 0x10E JUMPI PUSH1 0x8 SLOAD PUSH1 0x40 MLOAD PUSH1 0x1 PUSH1 0x1 PUSH1 0xA0 SHL SUB SWAP1 SWAP2 AND DUP2 MSTORE PUSH1 0x20 SWAP1 RETURN JUMPDEST CALLVALUE PUSH2 0x10E JUMPI PUSH1 0x0 CALLDATASIZE PUSH1 0x3 NOT ADD SLT PUSH2 0x10E JUMPI PUSH1 0x7 SLOAD PUSH1 0x40 MLOAD PUSH1 0x1 PUSH1 0x1 PUSH1 0xA0 SHL SUB SWAP1 SWAP2 AND DUP2 MSTORE PUSH1 0x20 SWAP1 RETURN JUMPDEST CALLVALUE PUSH2 0x10E JUMPI PUSH1 0x0 CALLDATASIZE PUSH1 0x3 NOT ADD SLT PUSH2 0x10E JUMPI PUSH1 0x20 PUSH1 0x40 MLOAD PUSH1 0x12 DUP2 MSTORE RETURN JUMPDEST CALLVALUE PUSH2 0x10E JUMPI PUSH1 0x60 CALLDATASIZE PUSH1 0x3 NOT ADD SLT PUSH2 0x10E JUMPI PUSH2 0xA71 PUSH2 0xCEB JUMP JUMPDEST PUSH2 0xA79 PUSH2 0xD01 JUMP JUMPDEST PUSH1 0x1 PUSH1 0x1 PUSH1 0xA0 SHL SUB DUP3 AND PUSH1 0x0 DUP2 DUP2 MSTORE PUSH1 0x1 PUSH1 0x20 DUP2 DUP2 MSTORE PUSH1 0x40 DUP1 DUP5 KECCAK256 CALLER DUP6 MSTORE SWAP1 SWAP2 MSTORE SWAP1 SWAP2 KECCAK256 SLOAD SWAP2 SWAP4 PUSH1 0x44 CALLDATALOAD SWAP4 SWAP3 SWAP1 SWAP2 DUP2 ADD PUSH2 0xAB9 JUMPI JUMPDEST POP PUSH2 0x874 SWAP4 POP PUSH2 0xDA3 JUMP JUMPDEST DUP4 DUP2 LT PUSH2 0xAFC JUMPI DUP5 ISZERO PUSH2 0x350 JUMPI CALLER ISZERO PUSH2 0x33A JUMPI PUSH2 0x874 SWAP5 PUSH1 0x0 MSTORE PUSH1 0x1 PUSH1 0x20 MSTORE PUSH1 0x40 PUSH1 0x0 KECCAK256 PUSH1 0x1 DUP1 PUSH1 0xA0 SHL SUB CALLER AND PUSH1 0x0 MSTORE PUSH1 0x20 MSTORE DUP4 PUSH1 0x40 PUSH1 0x0 KECCAK256 SWAP2 SUB SWAP1 SSTORE DUP5 PUSH2 0xAAE JUMP JUMPDEST DUP4 SWAP1 PUSH4 0x7DC7A0D9 PUSH1 0xE1 SHL PUSH1 0x0 MSTORE CALLER PUSH1 0x4 MSTORE PUSH1 0x24 MSTORE PUSH1 0x44 MSTORE PUSH1 0x64 PUSH1 0x0 REVERT JUMPDEST CALLVALUE PUSH2 0x10E JUMPI PUSH1 0x0 CALLDATASIZE PUSH1 0x3 NOT ADD SLT PUSH2 0x10E JUMPI PUSH1 0x20 PUSH1 0x2 SLOAD PUSH1 0x40 MLOAD SWAP1 DUP2 MSTORE RETURN JUMPDEST CALLVALUE PUSH2 0x10E JUMPI PUSH1 0x0 CALLDATASIZE PUSH1 0x3 NOT ADD SLT PUSH2 0x10E JUMPI PUSH1 0x5 SLOAD PUSH1 0x40 MLOAD PUSH1 0x1 PUSH1 0x1 PUSH1 0xA0 SHL SUB SWAP1 SWAP2 AND DUP2 MSTORE PUSH1 0x20 SWAP1 RETURN JUMPDEST CALLVALUE PUSH2 0x10E JUMPI PUSH1 0x40 CALLDATASIZE PUSH1 0x3 NOT ADD SLT PUSH2 0x10E JUMPI PUSH2 0xB79 PUSH2 0xCEB JUMP JUMPDEST PUSH1 0x24 CALLDATALOAD SWAP1 CALLER ISZERO PUSH2 0x350 JUMPI PUSH1 0x1 PUSH1 0x1 PUSH1 0xA0 SHL SUB AND SWAP1 DUP2 ISZERO PUSH2 0x33A JUMPI CALLER PUSH1 0x0 MSTORE PUSH1 0x1 PUSH1 0x20 MSTORE PUSH1 0x40 PUSH1 0x0 KECCAK256 DUP3 PUSH1 0x0 MSTORE PUSH1 0x20 MSTORE DUP1 PUSH1 0x40 PUSH1 0x0 KECCAK256 SSTORE PUSH1 0x40 MLOAD SWAP1 DUP2 MSTORE PUSH32 0x8C5BE1E5EBEC7D5BD14F71427D1E84F3DD0314C0F7B2291E5B200AC8C7C3B925 PUSH1 0x20 CALLER SWAP3 LOG3 PUSH1 0x20 PUSH1 0x40 MLOAD PUSH1 0x1 DUP2 MSTORE RETURN JUMPDEST CALLVALUE PUSH2 0x10E JUMPI PUSH1 0x0 CALLDATASIZE PUSH1 0x3 NOT ADD SLT PUSH2 0x10E JUMPI PUSH1 0x0 PUSH1 0x3 SLOAD DUP1 PUSH1 0x1 SHR SWAP1 PUSH1 0x1 DUP2 AND DUP1 ISZERO PUSH2 0xC98 JUMPI JUMPDEST PUSH1 0x20 DUP4 LT DUP2 EQ PUSH2 0x992 JUMPI DUP3 DUP6 MSTORE SWAP1 DUP2 ISZERO PUSH2 0x96E JUMPI POP PUSH1 0x1 EQ PUSH2 0xC38 JUMPI PUSH2 0x90A DUP4 PUSH2 0x8FE DUP2 DUP6 SUB DUP3 PUSH2 0xD17 JUMP JUMPDEST SWAP2 SWAP1 POP PUSH1 0x3 PUSH1 0x0 MSTORE PUSH32 0xC2575A0E9E593C00F959F8C92F12DB2869C3395A3B0502D05E2516446F71F85B SWAP2 PUSH1 0x0 SWAP1 JUMPDEST DUP1 DUP3 LT PUSH2 0xC7E JUMPI POP SWAP1 SWAP2 POP DUP2 ADD PUSH1 0x20 ADD PUSH2 0x8FE PUSH2 0x8EE JUMP JUMPDEST SWAP2 SWAP3 PUSH1 0x1 DUP2 PUSH1 0x20 SWAP3 SLOAD DUP4 DUP6 DUP9 ADD ADD MSTORE ADD SWAP2 ADD SWAP1 SWAP3 SWAP2 PUSH2 0xC66 JUMP JUMPDEST SWAP2 PUSH1 0x7F AND SWAP2 PUSH2 0xC0C JUMP JUMPDEST SWAP2 SWAP1 SWAP2 PUSH1 0x20 DUP2 MSTORE DUP3 MLOAD DUP1 PUSH1 0x20 DUP4 ADD MSTORE PUSH1 0x0 JUMPDEST DUP2 DUP2 LT PUSH2 0xCD5 JUMPI POP PUSH1 0x40 SWAP3 SWAP4 POP PUSH1 0x0 DUP4 DUP3 DUP5 ADD ADD MSTORE PUSH1 0x1F DUP1 NOT SWAP2 ADD AND ADD ADD SWAP1 JUMP JUMPDEST DUP1 PUSH1 0x20 DUP1 SWAP3 DUP8 ADD ADD MLOAD PUSH1 0x40 DUP3 DUP7 ADD ADD MSTORE ADD PUSH2 0xCB4 JUMP JUMPDEST PUSH1 0x4 CALLDATALOAD SWAP1 PUSH1 0x1 PUSH1 0x1 PUSH1 0xA0 SHL SUB DUP3 AND DUP3 SUB PUSH2 0x10E JUMPI JUMP JUMPDEST PUSH1 0x24 CALLDATALOAD SWAP1 PUSH1 0x1 PUSH1 0x1 PUSH1 0xA0 SHL SUB DUP3 AND DUP3 SUB PUSH2 0x10E JUMPI JUMP JUMPDEST SWAP1 PUSH1 0x1F DUP1 NOT SWAP2 ADD AND DUP2 ADD SWAP1 DUP2 LT PUSH8 0xFFFFFFFFFFFFFFFF DUP3 GT OR PUSH2 0xD39 JUMPI PUSH1 0x40 MSTORE JUMP JUMPDEST PUSH4 0x4E487B71 PUSH1 0xE0 SHL PUSH1 0x0 MSTORE PUSH1 0x41 PUSH1 0x4 MSTORE PUSH1 0x24 PUSH1 0x0 REVERT JUMPDEST SWAP1 DUP2 PUSH1 0x20 SWAP2 SUB SLT PUSH2 0x10E JUMPI MLOAD SWAP1 JUMP JUMPDEST MLOAD SWAP1 PUSH1 0x1 PUSH1 0x1 PUSH1 0xA0 SHL SUB DUP3 AND DUP3 SUB PUSH2 0x10E JUMPI JUMP JUMPDEST SWAP1 DUP2 PUSH1 0x20 SWAP2 SUB SLT PUSH2 0x10E JUMPI MLOAD DUP1 ISZERO ISZERO DUP2 SUB PUSH2 0x10E JUMPI SWAP1 JUMP JUMPDEST MLOAD SWAP1 PUSH12 0xFFFFFFFFFFFFFFFFFFFFFFFF DUP3 AND DUP3 SUB PUSH2 0x10E JUMPI JUMP JUMPDEST PUSH1 0x1 PUSH1 0x1 PUSH1 0xA0 SHL SUB AND SWAP1 DUP2 ISZERO PUSH2 0xE3C JUMPI PUSH1 0x1 PUSH1 0x1 PUSH1 0xA0 SHL SUB AND SWAP2 DUP3 ISZERO PUSH2 0x55C JUMPI PUSH1 0x0 DUP3 DUP2 MSTORE DUP1 PUSH1 0x20 MSTORE PUSH1 0x40 DUP2 KECCAK256 SLOAD DUP3 DUP2 LT PUSH2 0xE22 JUMPI SWAP2 PUSH1 0x40 DUP3 DUP3 PUSH32 0xDDF252AD1BE2C89B69C2B068FC378DAA952BA7F163C4A11628F55A4DF523B3EF SWAP6 DUP8 PUSH1 0x20 SWAP7 MSTORE DUP3 DUP7 MSTORE SUB DUP3 DUP3 KECCAK256 SSTORE DUP7 DUP2 MSTORE DUP1 DUP5 MSTORE KECCAK256 DUP2 DUP2 SLOAD ADD SWAP1 SSTORE PUSH1 0x40 MLOAD SWAP1 DUP2 MSTORE LOG3 JUMP JUMPDEST SWAP2 PUSH1 0x64 SWAP3 DUP5 PUSH4 0x391434E3 PUSH1 0xE2 SHL DUP5 MSTORE PUSH1 0x4 MSTORE PUSH1 0x24 MSTORE PUSH1 0x44 MSTORE REVERT JUMPDEST PUSH4 0x4B637E8F PUSH1 0xE1 SHL PUSH1 0x0 MSTORE PUSH1 0x0 PUSH1 0x4 MSTORE PUSH1 0x24 PUSH1 0x0 REVERT INVALID LOG2 PUSH5 0x6970667358 0x22 SLT KECCAK256 SWAP10 0xDD 0xE PUSH30 0xE45B0D2C2A74993FCB49A039405D07A8C55E7F1CDA3231104CF9614F6473 PUSH16 0x6C634300081C00330000000000000000 "},"methodIdentifiers":{"addLiquidity()":"e8078d94","allowance(address,address)":"dd62ed3e","approve(address,uint256)":"095ea7b3","balanceOf(address)":"70a08231","createMarket()":"aea0e35f","decimals()":"313ce567","kuruMarketProxyAddress()":"44905e62","kuruRouterAddress()":"09ea7ccb","kuruVaultAddress()":"ae8e4376","lpOwner()":"f444324b","memeToken()":"972598e7","mintTokenToThisContract()":"ba65d8cd","name()":"06fdde03","pairToken()":"3de35b79","symbol()":"95d89b41","totalSupply()":"18160ddd","transfer(address,uint256)":"a9059cbb","transferFrom(address,address,uint256)":"23b872dd"}},"storageLayout":{"storage":[{"astId":249,"contract":"contracts/testingKuru/TestKuru.sol:TestKuru","label":"_balances","offset":0,"slot":"0","type":"t_mapping(t_address,t_uint256)"},{"astId":255,"contract":"contracts/testingKuru/TestKuru.sol:TestKuru","label":"_allowances","offset":0,"slot":"1","type":"t_mapping(t_address,t_mapping(t_address,t_uint256))"},{"astId":257,"contract":"contracts/testingKuru/TestKuru.sol:TestKuru","label":"_totalSupply","offset":0,"slot":"2","type":"t_uint256"},{"astId":259,"contract":"contracts/testingKuru/TestKuru.sol:TestKuru","label":"_name","offset":0,"slot":"3","type":"t_string_storage"},{"astId":261,"contract":"contracts/testingKuru/TestKuru.sol:TestKuru","label":"_symbol","offset":0,"slot":"4","type":"t_string_storage"},{"astId":1593,"contract":"contracts/testingKuru/TestKuru.sol:TestKuru","label":"kuruRouterAddress","offset":0,"slot":"5","type":"t_address"},{"astId":1595,"contract":"contracts/testingKuru/TestKuru.sol:TestKuru","label":"memeToken","offset":0,"slot":"6","type":"t_address"},{"astId":1597,"contract":"contracts/testingKuru/TestKuru.sol:TestKuru","label":"pairToken","offset":0,"slot":"7","type":"t_address"},{"astId":1599,"contract":"contracts/testingKuru/TestKuru.sol:TestKuru","label":"kuruMarketProxyAddress","offset":0,"slot":"8","type":"t_address"},{"astId":1601,"contract":"contracts/testingKuru/TestKuru.sol:TestKuru","label":"kuruVaultAddress","offset":0,"slot":"9","type":"t_address"},{"astId":1603,"contract":"contracts/testingKuru/TestKuru.sol:TestKuru","label":"lpOwner","offset":0,"slot":"10","type":"t_address"}],"types":{"t_address":{"encoding":"inplace","label":"address","numberOfBytes":"20"},"t_mapping(t_address,t_mapping(t_address,t_uint256))":{"encoding":"mapping","key":"t_address","label":"mapping(address => mapping(address => uint256))","numberOfBytes":"32","value":"t_mapping(t_address,t_uint256)"},"t_mapping(t_address,t_uint256)":{"encoding":"mapping","key":"t_address","label":"mapping(address => uint256)","numberOfBytes":"32","value":"t_uint256"},"t_string_storage":{"encoding":"bytes","label":"string","numberOfBytes":"32"},"t_uint256":{"encoding":"inplace","label":"uint256","numberOfBytes":"32"}}}}}}