{
  "_format": "hh-sol-artifact-1",
  "contractName": "BalancerPoolToken",
  "sourceName": "contracts/dexPool/balancer-v2/@balancer-labs/v2-pool-utils/contracts/BalancerPoolToken.sol",
  "abi": [
    {
      "inputs": [
        {
          "internalType": "string",
          "name": "tokenName",
          "type": "string"
        },
        {
          "internalType": "string",
          "name": "tokenSymbol",
          "type": "string"
        },
        {
          "internalType": "contract IVault",
          "name": "vault",
          "type": "address"
        }
      ],
      "stateMutability": "nonpayable",
      "type": "constructor"
    },
    {
      "anonymous": false,
      "inputs": [
        {
          "indexed": true,
          "internalType": "address",
          "name": "owner",
          "type": "address"
        },
        {
          "indexed": true,
          "internalType": "address",
          "name": "spender",
          "type": "address"
        },
        {
          "indexed": false,
          "internalType": "uint256",
          "name": "value",
          "type": "uint256"
        }
      ],
      "name": "Approval",
      "type": "event"
    },
    {
      "anonymous": false,
      "inputs": [
        {
          "indexed": true,
          "internalType": "address",
          "name": "from",
          "type": "address"
        },
        {
          "indexed": true,
          "internalType": "address",
          "name": "to",
          "type": "address"
        },
        {
          "indexed": false,
          "internalType": "uint256",
          "name": "value",
          "type": "uint256"
        }
      ],
      "name": "Transfer",
      "type": "event"
    },
    {
      "inputs": [],
      "name": "DOMAIN_SEPARATOR",
      "outputs": [
        {
          "internalType": "bytes32",
          "name": "",
          "type": "bytes32"
        }
      ],
      "stateMutability": "view",
      "type": "function"
    },
    {
      "inputs": [
        {
          "internalType": "address",
          "name": "owner",
          "type": "address"
        },
        {
          "internalType": "address",
          "name": "spender",
          "type": "address"
        }
      ],
      "name": "allowance",
      "outputs": [
        {
          "internalType": "uint256",
          "name": "",
          "type": "uint256"
        }
      ],
      "stateMutability": "view",
      "type": "function"
    },
    {
      "inputs": [
        {
          "internalType": "address",
          "name": "spender",
          "type": "address"
        },
        {
          "internalType": "uint256",
          "name": "amount",
          "type": "uint256"
        }
      ],
      "name": "approve",
      "outputs": [
        {
          "internalType": "bool",
          "name": "",
          "type": "bool"
        }
      ],
      "stateMutability": "nonpayable",
      "type": "function"
    },
    {
      "inputs": [
        {
          "internalType": "address",
          "name": "account",
          "type": "address"
        }
      ],
      "name": "balanceOf",
      "outputs": [
        {
          "internalType": "uint256",
          "name": "",
          "type": "uint256"
        }
      ],
      "stateMutability": "view",
      "type": "function"
    },
    {
      "inputs": [],
      "name": "decimals",
      "outputs": [
        {
          "internalType": "uint8",
          "name": "",
          "type": "uint8"
        }
      ],
      "stateMutability": "view",
      "type": "function"
    },
    {
      "inputs": [
        {
          "internalType": "address",
          "name": "spender",
          "type": "address"
        },
        {
          "internalType": "uint256",
          "name": "amount",
          "type": "uint256"
        }
      ],
      "name": "decreaseAllowance",
      "outputs": [
        {
          "internalType": "bool",
          "name": "",
          "type": "bool"
        }
      ],
      "stateMutability": "nonpayable",
      "type": "function"
    },
    {
      "inputs": [],
      "name": "getDomainSeparator",
      "outputs": [
        {
          "internalType": "bytes32",
          "name": "",
          "type": "bytes32"
        }
      ],
      "stateMutability": "view",
      "type": "function"
    },
    {
      "inputs": [
        {
          "internalType": "address",
          "name": "account",
          "type": "address"
        }
      ],
      "name": "getNextNonce",
      "outputs": [
        {
          "internalType": "uint256",
          "name": "",
          "type": "uint256"
        }
      ],
      "stateMutability": "view",
      "type": "function"
    },
    {
      "inputs": [],
      "name": "getVault",
      "outputs": [
        {
          "internalType": "contract IVault",
          "name": "",
          "type": "address"
        }
      ],
      "stateMutability": "view",
      "type": "function"
    },
    {
      "inputs": [
        {
          "internalType": "address",
          "name": "spender",
          "type": "address"
        },
        {
          "internalType": "uint256",
          "name": "addedValue",
          "type": "uint256"
        }
      ],
      "name": "increaseAllowance",
      "outputs": [
        {
          "internalType": "bool",
          "name": "",
          "type": "bool"
        }
      ],
      "stateMutability": "nonpayable",
      "type": "function"
    },
    {
      "inputs": [],
      "name": "name",
      "outputs": [
        {
          "internalType": "string",
          "name": "",
          "type": "string"
        }
      ],
      "stateMutability": "view",
      "type": "function"
    },
    {
      "inputs": [
        {
          "internalType": "address",
          "name": "owner",
          "type": "address"
        }
      ],
      "name": "nonces",
      "outputs": [
        {
          "internalType": "uint256",
          "name": "",
          "type": "uint256"
        }
      ],
      "stateMutability": "view",
      "type": "function"
    },
    {
      "inputs": [
        {
          "internalType": "address",
          "name": "owner",
          "type": "address"
        },
        {
          "internalType": "address",
          "name": "spender",
          "type": "address"
        },
        {
          "internalType": "uint256",
          "name": "value",
          "type": "uint256"
        },
        {
          "internalType": "uint256",
          "name": "deadline",
          "type": "uint256"
        },
        {
          "internalType": "uint8",
          "name": "v",
          "type": "uint8"
        },
        {
          "internalType": "bytes32",
          "name": "r",
          "type": "bytes32"
        },
        {
          "internalType": "bytes32",
          "name": "s",
          "type": "bytes32"
        }
      ],
      "name": "permit",
      "outputs": [],
      "stateMutability": "nonpayable",
      "type": "function"
    },
    {
      "inputs": [],
      "name": "symbol",
      "outputs": [
        {
          "internalType": "string",
          "name": "",
          "type": "string"
        }
      ],
      "stateMutability": "view",
      "type": "function"
    },
    {
      "inputs": [],
      "name": "totalSupply",
      "outputs": [
        {
          "internalType": "uint256",
          "name": "",
          "type": "uint256"
        }
      ],
      "stateMutability": "view",
      "type": "function"
    },
    {
      "inputs": [
        {
          "internalType": "address",
          "name": "recipient",
          "type": "address"
        },
        {
          "internalType": "uint256",
          "name": "amount",
          "type": "uint256"
        }
      ],
      "name": "transfer",
      "outputs": [
        {
          "internalType": "bool",
          "name": "",
          "type": "bool"
        }
      ],
      "stateMutability": "nonpayable",
      "type": "function"
    },
    {
      "inputs": [
        {
          "internalType": "address",
          "name": "sender",
          "type": "address"
        },
        {
          "internalType": "address",
          "name": "recipient",
          "type": "address"
        },
        {
          "internalType": "uint256",
          "name": "amount",
          "type": "uint256"
        }
      ],
      "name": "transferFrom",
      "outputs": [
        {
          "internalType": "bool",
          "name": "",
          "type": "bool"
        }
      ],
      "stateMutability": "nonpayable",
      "type": "function"
    }
  ],
  "bytecode": "0x610100604052346103d25761116d8038038061001a816103d7565b9283398101906060818303126103d25780516001600160401b0381116103d257826100469183016103fc565b60208201519092906001600160401b0381116103d25760409161006a9184016103fc565b910151916001600160a01b03831683036103d25761008860406103d7565b90600182526020820192603160f81b8452815160018060401b0381116102dc57600354600181811c911680156103c8575b60208210146102bc57601f8111610363575b50806020601f82116001146102fd576000916102f2575b508160011b916000199060031b1c1916176003555b8051906001600160401b0382116102dc5760045490600182811c921680156102d2575b60208310146102bc5781601f84931161024c575b50602090601f83116001146101e4576000926101d9575b50508160011b916000199060031b1c1916176004555b601260ff1960055416176005556020815191012060805251902060a0527f8b73c3c69bb8fe3d512ecc4cf759cc79239f7b179b0ffacaa9a75d522b39400f60c05260e052604051610d059081610468823960805181610c58015260a05181610c7e015260c05181610c35015260e0518181816104ae01526107bd0152f35b015190503880610145565b600460009081528281209350601f198516905b818110610234575090846001959493921061021b575b505050811b0160045561015b565b015160001960f88460031b161c1916905538808061020d565b929360206001819287860151815501950193016101f7565b60046000529091507f8a35acfbc15ff81a39ae7d344fd709f28e8600b4aa8c65c6b64bfe7fe36bd19b601f840160051c810191602085106102b2575b90601f859493920160051c01905b8181106102a3575061012e565b60008155849350600101610296565b9091508190610288565b634e487b7160e01b600052602260045260246000fd5b91607f169161011a565b634e487b7160e01b600052604160045260246000fd5b9050830151386100e2565b600360009081528181209250601f198416905b81811061034b57509083600194939210610332575b5050811b016003556100f7565b85015160001960f88460031b161c191690553880610325565b9192602060018192868a015181550194019201610310565b60036000527fc2575a0e9e593c00f959f8c92f12db2869c3395a3b0502d05e2516446f71f85b601f830160051c810191602084106103be575b601f0160051c01905b8181106103b257506100cb565b600081556001016103a5565b909150819061039c565b90607f16906100b9565b600080fd5b6040519190601f01601f191682016001600160401b038111838210176102dc57604052565b81601f820112156103d2578051906001600160401b0382116102dc5761042b601f8301601f19166020016103d7565b92828452602083830101116103d25760005b82811061045257505060206000918301015290565b8060208092840101518282870101520161043d56fe6080604052600436101561001257600080fd5b60003560e01c806306fdde031461011d578063095ea7b31461011857806318160ddd1461011357806323b872dd1461010e578063313ce567146101095780633644e515146100d7578063395093511461010457806370a08231146100ff5780637ecebe00146100f55780638d928af8146100fa57806390193b7c146100f557806395d89b41146100f0578063a457c2d7146100eb578063a9059cbb146100e6578063d505accf146100e1578063dd62ed3e146100dc5763ed24911d146100d757600080fd5b6103aa565b610735565b61065f565b610639565b610595565b6104dd565b61045f565b610498565b610425565b6103cd565b610389565b6102e1565b6102c3565b610292565b61016b565b91909160208152825180602083015260005b818110610155575060409293506000838284010152601f8019910116010190565b8060208092870101516040828601015201610134565b346102615760003660031901126102615760405160006003548060011c9060018116908115610257575b60208310821461024357828552602085019190811561022a57506001146101d7575b6101d3846101c781860382610761565b60405191829182610122565b0390f35b600360009081529250907fc2575a0e9e593c00f959f8c92f12db2869c3395a3b0502d05e2516446f71f85b5b818410610216575050016101c7826101b7565b805484840152602090930192600101610203565b60ff191682525090151560051b0190506101c7826101b7565b634e487b7160e01b84526022600452602484fd5b91607f1691610195565b600080fd5b600435906001600160a01b038216820361026157565b602435906001600160a01b038216820361026157565b34610261576040366003190112610261576102b86102ae610266565b6024359033610817565b602060405160018152f35b34610261576000366003190112610261576020600254604051908152f35b34610261576060366003190112610261576102fa610266565b61030261027c565b60443561030f33846107af565b91336001600160a01b0385161480159161033b918491908461037f575b61033590610879565b866109b9565b80610373575b610352575b60405160018152602090f35b810390811161036e57610366913390610817565b388080610346565b610799565b50600019821415610341565b508186101561032c565b3461026157600036600319011261026157602060ff60055416604051908152f35b346102615760003660031901126102615760206103c5610c2b565b604051908152f35b34610261576040366003190112610261576102b86103e9610266565b61041e6024353360005260016020526104188360406000209060018060a01b0316600052602052604060002090565b54610ad2565b9033610817565b34610261576020366003190112610261576001600160a01b03610446610266565b1660005260006020526020604060002054604051908152f35b346102615760203660031901126102615760206103c561047d610266565b6001600160a01b031660009081526006602052604090205490565b34610261576000366003190112610261576040517f00000000000000000000000000000000000000000000000000000000000000006001600160a01b03168152602090f35b346102615760003660031901126102615760405160006004548060011c906001811690811561058b575b60208310821461024357828552602085019190811561022a5750600114610538576101d3846101c781860382610761565b600460009081529250907f8a35acfbc15ff81a39ae7d344fd709f28e8600b4aa8c65c6b64bfe7fe36bd19b5b818410610577575050016101c7826101b7565b805484840152602090930192600101610564565b91607f1691610507565b34610261576040366003190112610261576105ae610266565b6024356105bb82336107af565b908181106106215750503360008181526001602090815260408083206001600160a01b0395909516808452948252808320839055519182527f8c5be1e5ebec7d5bd14f71427d1e84f3dd0314c0f7b2291e5b200ac8c7c3b92591a3602060405160018152f35b810390811161036e576106349133610817565b6102b8565b34610261576040366003190112610261576102b8610655610266565b60243590336109b9565b346102615760e036600319011261026157610678610266565b61068061027c565b604435906064359260843560ff81168103610261576107339461072e9161072760a43560c4359060018060a01b0387168060005260066020526040600020546040519060208201927f6e71edae12b1b97f4d1f60370fef10105fa2faae0126114a169c64845d6126c98452604083015260018060a01b038b1660608301528b608083015260a08201528660c082015260c0815261071e60e082610761565b51902093610b0f565b9084610b3b565b610817565b005b346102615760403660031901126102615760206103c5610753610266565b61075b61027c565b906107af565b90601f8019910116810190811067ffffffffffffffff82111761078357604052565b634e487b7160e01b600052604160045260246000fd5b634e487b7160e01b600052601160045260246000fd5b906001600160a01b038082167f0000000000000000000000000000000000000000000000000000000000000000909116036107ec57505060001990565b6001600160a01b03918216600090815260016020908152604080832093909416825291909152205490565b6001600160a01b039081166000818152600160209081526040808320948616835293815292902090927f8c5be1e5ebec7d5bd14f71427d1e84f3dd0314c0f7b2291e5b200ac8c7c3b92592918590556040519485526001600160a01b031693a3565b1561088057565b62461bcd60e51b6000908152602060045260076024526610905308cd0c4d60ca1b604452606490fd5b156108b057565b62461bcd60e51b6000908152602060045260076024526642414c2334303960c81b604452606490fd5b156108e057565b62461bcd60e51b600090815260206004526007602452662120a6119a189b60c91b604452606490fd5b1561091057565b62461bcd60e51b6000908152602060045260076024526642414c2334343160c81b604452606490fd5b1561094057565b62461bcd60e51b60009081526020600452600760245266042414c233434360cc1b604452606490fd5b156109715750565b80600a6642414c2300003092049062461bcd60e51b60005260206004526007602452600a6030818181808704060160101b94060160081b910601010160c81b60445260646000fd5b6001600160a01b03811691908215610a9b576001600160a01b038216936109e18515156108a9565b836000526000602052604060002054926109fd848311156108d9565b81840393841161036e577fddf252ad1be2c89b69c2b068fc378daa952ba7f163c4a11628f55a4df523b3ef93610a48610a969460018060a01b03166000526000602052604060002090565b55610a85610a6c836104188460018060a01b03166000526000602052604060002090565b9160018060a01b03166000526000602052604060002090565b556040519081529081906020820190565b0390a3565b62461bcd60e51b600090815260206004526007602452660848298466860760cb1b604452606490fd5b906001820180921161036e57565b9081019081811161036e578110610ae65790565b62461bcd60e51b60009081526020600452600760245266042414c233030360cc1b604452606490fd5b909160405192610b20608085610761565b60418452602084016060368237526040830152606082015390565b916080600091602093610b4c610c2b565b90604051908682019261190160f01b84526022830152604282015260428152610b76606282610761565b51902090610b876041825114610909565b8481015160606040830151920151851a604051938452868401526040830152606082015282805260015afa15610c2657600051610c0592610beb91610be3906101f8906001600160a01b03168015159081610c13575b50610969565b421115610939565b6001600160a01b0316600090815260066020526040902090565b610c0f8154610ac4565b9055565b6001600160a01b03871614905038610bdd565b610cc3565b60405160208101907f000000000000000000000000000000000000000000000000000000000000000082527f000000000000000000000000000000000000000000000000000000000000000060408201527f000000000000000000000000000000000000000000000000000000000000000060608201524660808201523060a082015260a08152610cbd60c082610761565b51902090565b6040513d6000823e3d90fdfea26469706673582212201a4029ae959c56230ff807bf04290dda5297682085ab0fd67d90dae9d3ceb09c64736f6c634300081c0033",
  "linkReferences": {},
  "deployedLinkReferences": {}
}