{
  "_format": "hh-sol-artifact-1",
  "contractName": "WeightedPool",
  "sourceName": "contracts/dexPool/balancer-v2/contracts/WeightedPool.sol",
  "abi": [
    {
      "inputs": [
        {
          "components": [
            {
              "internalType": "string",
              "name": "name",
              "type": "string"
            },
            {
              "internalType": "string",
              "name": "symbol",
              "type": "string"
            },
            {
              "internalType": "contract IERC20[]",
              "name": "tokens",
              "type": "address[]"
            },
            {
              "internalType": "uint256[]",
              "name": "normalizedWeights",
              "type": "uint256[]"
            },
            {
              "internalType": "contract IRateProvider[]",
              "name": "rateProviders",
              "type": "address[]"
            },
            {
              "internalType": "address[]",
              "name": "assetManagers",
              "type": "address[]"
            },
            {
              "internalType": "uint256",
              "name": "swapFeePercentage",
              "type": "uint256"
            }
          ],
          "internalType": "struct WeightedPool.NewPoolParams",
          "name": "params",
          "type": "tuple"
        },
        {
          "internalType": "contract IVault",
          "name": "vault",
          "type": "address"
        },
        {
          "internalType": "contract IProtocolFeePercentagesProvider",
          "name": "protocolFeeProvider",
          "type": "address"
        },
        {
          "internalType": "uint256",
          "name": "pauseWindowDuration",
          "type": "uint256"
        },
        {
          "internalType": "uint256",
          "name": "bufferPeriodDuration",
          "type": "uint256"
        },
        {
          "internalType": "address",
          "name": "owner",
          "type": "address"
        },
        {
          "internalType": "string",
          "name": "version",
          "type": "string"
        }
      ],
      "stateMutability": "nonpayable",
      "type": "constructor"
    },
    {
      "anonymous": false,
      "inputs": [
        {
          "indexed": true,
          "internalType": "address",
          "name": "owner",
          "type": "address"
        },
        {
          "indexed": true,
          "internalType": "address",
          "name": "spender",
          "type": "address"
        },
        {
          "indexed": false,
          "internalType": "uint256",
          "name": "value",
          "type": "uint256"
        }
      ],
      "name": "Approval",
      "type": "event"
    },
    {
      "anonymous": false,
      "inputs": [
        {
          "indexed": false,
          "internalType": "bool",
          "name": "paused",
          "type": "bool"
        }
      ],
      "name": "PausedStateChanged",
      "type": "event"
    },
    {
      "anonymous": false,
      "inputs": [
        {
          "indexed": true,
          "internalType": "uint256",
          "name": "feeType",
          "type": "uint256"
        },
        {
          "indexed": false,
          "internalType": "uint256",
          "name": "protocolFeePercentage",
          "type": "uint256"
        }
      ],
      "name": "ProtocolFeePercentageCacheUpdated",
      "type": "event"
    },
    {
      "anonymous": false,
      "inputs": [
        {
          "indexed": false,
          "internalType": "bool",
          "name": "enabled",
          "type": "bool"
        }
      ],
      "name": "RecoveryModeStateChanged",
      "type": "event"
    },
    {
      "anonymous": false,
      "inputs": [
        {
          "indexed": false,
          "internalType": "uint256",
          "name": "swapFeePercentage",
          "type": "uint256"
        }
      ],
      "name": "SwapFeePercentageChanged",
      "type": "event"
    },
    {
      "anonymous": false,
      "inputs": [
        {
          "indexed": true,
          "internalType": "address",
          "name": "from",
          "type": "address"
        },
        {
          "indexed": true,
          "internalType": "address",
          "name": "to",
          "type": "address"
        },
        {
          "indexed": false,
          "internalType": "uint256",
          "name": "value",
          "type": "uint256"
        }
      ],
      "name": "Transfer",
      "type": "event"
    },
    {
      "inputs": [],
      "name": "DELEGATE_PROTOCOL_SWAP_FEES_SENTINEL",
      "outputs": [
        {
          "internalType": "uint256",
          "name": "",
          "type": "uint256"
        }
      ],
      "stateMutability": "view",
      "type": "function"
    },
    {
      "inputs": [],
      "name": "DOMAIN_SEPARATOR",
      "outputs": [
        {
          "internalType": "bytes32",
          "name": "",
          "type": "bytes32"
        }
      ],
      "stateMutability": "view",
      "type": "function"
    },
    {
      "inputs": [
        {
          "internalType": "address",
          "name": "owner",
          "type": "address"
        },
        {
          "internalType": "address",
          "name": "spender",
          "type": "address"
        }
      ],
      "name": "allowance",
      "outputs": [
        {
          "internalType": "uint256",
          "name": "",
          "type": "uint256"
        }
      ],
      "stateMutability": "view",
      "type": "function"
    },
    {
      "inputs": [
        {
          "internalType": "address",
          "name": "spender",
          "type": "address"
        },
        {
          "internalType": "uint256",
          "name": "amount",
          "type": "uint256"
        }
      ],
      "name": "approve",
      "outputs": [
        {
          "internalType": "bool",
          "name": "",
          "type": "bool"
        }
      ],
      "stateMutability": "nonpayable",
      "type": "function"
    },
    {
      "inputs": [
        {
          "internalType": "address",
          "name": "account",
          "type": "address"
        }
      ],
      "name": "balanceOf",
      "outputs": [
        {
          "internalType": "uint256",
          "name": "",
          "type": "uint256"
        }
      ],
      "stateMutability": "view",
      "type": "function"
    },
    {
      "inputs": [],
      "name": "decimals",
      "outputs": [
        {
          "internalType": "uint8",
          "name": "",
          "type": "uint8"
        }
      ],
      "stateMutability": "view",
      "type": "function"
    },
    {
      "inputs": [
        {
          "internalType": "address",
          "name": "spender",
          "type": "address"
        },
        {
          "internalType": "uint256",
          "name": "amount",
          "type": "uint256"
        }
      ],
      "name": "decreaseAllowance",
      "outputs": [
        {
          "internalType": "bool",
          "name": "",
          "type": "bool"
        }
      ],
      "stateMutability": "nonpayable",
      "type": "function"
    },
    {
      "inputs": [],
      "name": "disableRecoveryMode",
      "outputs": [],
      "stateMutability": "nonpayable",
      "type": "function"
    },
    {
      "inputs": [],
      "name": "enableRecoveryMode",
      "outputs": [],
      "stateMutability": "nonpayable",
      "type": "function"
    },
    {
      "inputs": [],
      "name": "getATHRateProduct",
      "outputs": [
        {
          "internalType": "uint256",
          "name": "",
          "type": "uint256"
        }
      ],
      "stateMutability": "view",
      "type": "function"
    },
    {
      "inputs": [
        {
          "internalType": "bytes4",
          "name": "selector",
          "type": "bytes4"
        }
      ],
      "name": "getActionId",
      "outputs": [
        {
          "internalType": "bytes32",
          "name": "",
          "type": "bytes32"
        }
      ],
      "stateMutability": "view",
      "type": "function"
    },
    {
      "inputs": [],
      "name": "getActualSupply",
      "outputs": [
        {
          "internalType": "uint256",
          "name": "",
          "type": "uint256"
        }
      ],
      "stateMutability": "view",
      "type": "function"
    },
    {
      "inputs": [],
      "name": "getAuthorizer",
      "outputs": [
        {
          "internalType": "contract IAuthorizer",
          "name": "",
          "type": "address"
        }
      ],
      "stateMutability": "view",
      "type": "function"
    },
    {
      "inputs": [],
      "name": "getDomainSeparator",
      "outputs": [
        {
          "internalType": "bytes32",
          "name": "",
          "type": "bytes32"
        }
      ],
      "stateMutability": "view",
      "type": "function"
    },
    {
      "inputs": [],
      "name": "getInvariant",
      "outputs": [
        {
          "internalType": "uint256",
          "name": "",
          "type": "uint256"
        }
      ],
      "stateMutability": "view",
      "type": "function"
    },
    {
      "inputs": [],
      "name": "getLastPostJoinExitInvariant",
      "outputs": [
        {
          "internalType": "uint256",
          "name": "",
          "type": "uint256"
        }
      ],
      "stateMutability": "view",
      "type": "function"
    },
    {
      "inputs": [
        {
          "internalType": "address",
          "name": "account",
          "type": "address"
        }
      ],
      "name": "getNextNonce",
      "outputs": [
        {
          "internalType": "uint256",
          "name": "",
          "type": "uint256"
        }
      ],
      "stateMutability": "view",
      "type": "function"
    },
    {
      "inputs": [],
      "name": "getNormalizedWeights",
      "outputs": [
        {
          "internalType": "uint256[]",
          "name": "",
          "type": "uint256[]"
        }
      ],
      "stateMutability": "view",
      "type": "function"
    },
    {
      "inputs": [],
      "name": "getOwner",
      "outputs": [
        {
          "internalType": "address",
          "name": "",
          "type": "address"
        }
      ],
      "stateMutability": "view",
      "type": "function"
    },
    {
      "inputs": [],
      "name": "getPausedState",
      "outputs": [
        {
          "internalType": "bool",
          "name": "paused",
          "type": "bool"
        },
        {
          "internalType": "uint256",
          "name": "pauseWindowEndTime",
          "type": "uint256"
        },
        {
          "internalType": "uint256",
          "name": "bufferPeriodEndTime",
          "type": "uint256"
        }
      ],
      "stateMutability": "view",
      "type": "function"
    },
    {
      "inputs": [],
      "name": "getPoolId",
      "outputs": [
        {
          "internalType": "bytes32",
          "name": "",
          "type": "bytes32"
        }
      ],
      "stateMutability": "view",
      "type": "function"
    },
    {
      "inputs": [
        {
          "internalType": "uint256",
          "name": "feeType",
          "type": "uint256"
        }
      ],
      "name": "getProtocolFeePercentageCache",
      "outputs": [
        {
          "internalType": "uint256",
          "name": "",
          "type": "uint256"
        }
      ],
      "stateMutability": "view",
      "type": "function"
    },
    {
      "inputs": [],
      "name": "getProtocolFeesCollector",
      "outputs": [
        {
          "internalType": "contract IProtocolFeesCollector",
          "name": "",
          "type": "address"
        }
      ],
      "stateMutability": "view",
      "type": "function"
    },
    {
      "inputs": [],
      "name": "getProtocolSwapFeeDelegation",
      "outputs": [
        {
          "internalType": "bool",
          "name": "",
          "type": "bool"
        }
      ],
      "stateMutability": "view",
      "type": "function"
    },
    {
      "inputs": [],
      "name": "getRateProviders",
      "outputs": [
        {
          "internalType": "contract IRateProvider[]",
          "name": "",
          "type": "address[]"
        }
      ],
      "stateMutability": "view",
      "type": "function"
    },
    {
      "inputs": [],
      "name": "getScalingFactors",
      "outputs": [
        {
          "internalType": "uint256[]",
          "name": "",
          "type": "uint256[]"
        }
      ],
      "stateMutability": "view",
      "type": "function"
    },
    {
      "inputs": [],
      "name": "getSwapFeePercentage",
      "outputs": [
        {
          "internalType": "uint256",
          "name": "",
          "type": "uint256"
        }
      ],
      "stateMutability": "view",
      "type": "function"
    },
    {
      "inputs": [],
      "name": "getVault",
      "outputs": [
        {
          "internalType": "contract IVault",
          "name": "",
          "type": "address"
        }
      ],
      "stateMutability": "view",
      "type": "function"
    },
    {
      "inputs": [],
      "name": "inRecoveryMode",
      "outputs": [
        {
          "internalType": "bool",
          "name": "",
          "type": "bool"
        }
      ],
      "stateMutability": "view",
      "type": "function"
    },
    {
      "inputs": [
        {
          "internalType": "address",
          "name": "spender",
          "type": "address"
        },
        {
          "internalType": "uint256",
          "name": "addedValue",
          "type": "uint256"
        }
      ],
      "name": "increaseAllowance",
      "outputs": [
        {
          "internalType": "bool",
          "name": "",
          "type": "bool"
        }
      ],
      "stateMutability": "nonpayable",
      "type": "function"
    },
    {
      "inputs": [],
      "name": "name",
      "outputs": [
        {
          "internalType": "string",
          "name": "",
          "type": "string"
        }
      ],
      "stateMutability": "view",
      "type": "function"
    },
    {
      "inputs": [
        {
          "internalType": "address",
          "name": "owner",
          "type": "address"
        }
      ],
      "name": "nonces",
      "outputs": [
        {
          "internalType": "uint256",
          "name": "",
          "type": "uint256"
        }
      ],
      "stateMutability": "view",
      "type": "function"
    },
    {
      "inputs": [
        {
          "internalType": "bytes32",
          "name": "poolId",
          "type": "bytes32"
        },
        {
          "internalType": "address",
          "name": "sender",
          "type": "address"
        },
        {
          "internalType": "address",
          "name": "recipient",
          "type": "address"
        },
        {
          "internalType": "uint256[]",
          "name": "balances",
          "type": "uint256[]"
        },
        {
          "internalType": "uint256",
          "name": "lastChangeBlock",
          "type": "uint256"
        },
        {
          "internalType": "uint256",
          "name": "protocolSwapFeePercentage",
          "type": "uint256"
        },
        {
          "internalType": "bytes",
          "name": "userData",
          "type": "bytes"
        }
      ],
      "name": "onExitPool",
      "outputs": [
        {
          "internalType": "uint256[]",
          "name": "",
          "type": "uint256[]"
        },
        {
          "internalType": "uint256[]",
          "name": "",
          "type": "uint256[]"
        }
      ],
      "stateMutability": "nonpayable",
      "type": "function"
    },
    {
      "inputs": [
        {
          "internalType": "bytes32",
          "name": "poolId",
          "type": "bytes32"
        },
        {
          "internalType": "address",
          "name": "sender",
          "type": "address"
        },
        {
          "internalType": "address",
          "name": "recipient",
          "type": "address"
        },
        {
          "internalType": "uint256[]",
          "name": "balances",
          "type": "uint256[]"
        },
        {
          "internalType": "uint256",
          "name": "lastChangeBlock",
          "type": "uint256"
        },
        {
          "internalType": "uint256",
          "name": "protocolSwapFeePercentage",
          "type": "uint256"
        },
        {
          "internalType": "bytes",
          "name": "userData",
          "type": "bytes"
        }
      ],
      "name": "onJoinPool",
      "outputs": [
        {
          "internalType": "uint256[]",
          "name": "",
          "type": "uint256[]"
        },
        {
          "internalType": "uint256[]",
          "name": "",
          "type": "uint256[]"
        }
      ],
      "stateMutability": "nonpayable",
      "type": "function"
    },
    {
      "inputs": [
        {
          "components": [
            {
              "internalType": "enum IVault.SwapKind",
              "name": "kind",
              "type": "uint8"
            },
            {
              "internalType": "contract IERC20",
              "name": "tokenIn",
              "type": "address"
            },
            {
              "internalType": "contract IERC20",
              "name": "tokenOut",
              "type": "address"
            },
            {
              "internalType": "uint256",
              "name": "amount",
              "type": "uint256"
            },
            {
              "internalType": "bytes32",
              "name": "poolId",
              "type": "bytes32"
            },
            {
              "internalType": "uint256",
              "name": "lastChangeBlock",
              "type": "uint256"
            },
            {
              "internalType": "address",
              "name": "from",
              "type": "address"
            },
            {
              "internalType": "address",
              "name": "to",
              "type": "address"
            },
            {
              "internalType": "bytes",
              "name": "userData",
              "type": "bytes"
            }
          ],
          "internalType": "struct IPoolSwapStructs.SwapRequest",
          "name": "request",
          "type": "tuple"
        },
        {
          "internalType": "uint256",
          "name": "balanceTokenIn",
          "type": "uint256"
        },
        {
          "internalType": "uint256",
          "name": "balanceTokenOut",
          "type": "uint256"
        }
      ],
      "name": "onSwap",
      "outputs": [
        {
          "internalType": "uint256",
          "name": "",
          "type": "uint256"
        }
      ],
      "stateMutability": "nonpayable",
      "type": "function"
    },
    {
      "inputs": [],
      "name": "pause",
      "outputs": [],
      "stateMutability": "nonpayable",
      "type": "function"
    },
    {
      "inputs": [
        {
          "internalType": "address",
          "name": "owner",
          "type": "address"
        },
        {
          "internalType": "address",
          "name": "spender",
          "type": "address"
        },
        {
          "internalType": "uint256",
          "name": "value",
          "type": "uint256"
        },
        {
          "internalType": "uint256",
          "name": "deadline",
          "type": "uint256"
        },
        {
          "internalType": "uint8",
          "name": "v",
          "type": "uint8"
        },
        {
          "internalType": "bytes32",
          "name": "r",
          "type": "bytes32"
        },
        {
          "internalType": "bytes32",
          "name": "s",
          "type": "bytes32"
        }
      ],
      "name": "permit",
      "outputs": [],
      "stateMutability": "nonpayable",
      "type": "function"
    },
    {
      "inputs": [
        {
          "internalType": "bytes32",
          "name": "poolId",
          "type": "bytes32"
        },
        {
          "internalType": "address",
          "name": "sender",
          "type": "address"
        },
        {
          "internalType": "address",
          "name": "recipient",
          "type": "address"
        },
        {
          "internalType": "uint256[]",
          "name": "balances",
          "type": "uint256[]"
        },
        {
          "internalType": "uint256",
          "name": "lastChangeBlock",
          "type": "uint256"
        },
        {
          "internalType": "uint256",
          "name": "protocolSwapFeePercentage",
          "type": "uint256"
        },
        {
          "internalType": "bytes",
          "name": "userData",
          "type": "bytes"
        }
      ],
      "name": "queryExit",
      "outputs": [
        {
          "internalType": "uint256",
          "name": "bptIn",
          "type": "uint256"
        },
        {
          "internalType": "uint256[]",
          "name": "amountsOut",
          "type": "uint256[]"
        }
      ],
      "stateMutability": "nonpayable",
      "type": "function"
    },
    {
      "inputs": [
        {
          "internalType": "bytes32",
          "name": "poolId",
          "type": "bytes32"
        },
        {
          "internalType": "address",
          "name": "sender",
          "type": "address"
        },
        {
          "internalType": "address",
          "name": "recipient",
          "type": "address"
        },
        {
          "internalType": "uint256[]",
          "name": "balances",
          "type": "uint256[]"
        },
        {
          "internalType": "uint256",
          "name": "lastChangeBlock",
          "type": "uint256"
        },
        {
          "internalType": "uint256",
          "name": "protocolSwapFeePercentage",
          "type": "uint256"
        },
        {
          "internalType": "bytes",
          "name": "userData",
          "type": "bytes"
        }
      ],
      "name": "queryJoin",
      "outputs": [
        {
          "internalType": "uint256",
          "name": "bptOut",
          "type": "uint256"
        },
        {
          "internalType": "uint256[]",
          "name": "amountsIn",
          "type": "uint256[]"
        }
      ],
      "stateMutability": "nonpayable",
      "type": "function"
    },
    {
      "inputs": [
        {
          "internalType": "contract IERC20",
          "name": "token",
          "type": "address"
        },
        {
          "internalType": "bytes",
          "name": "poolConfig",
          "type": "bytes"
        }
      ],
      "name": "setAssetManagerPoolConfig",
      "outputs": [],
      "stateMutability": "nonpayable",
      "type": "function"
    },
    {
      "inputs": [
        {
          "internalType": "uint256",
          "name": "swapFeePercentage",
          "type": "uint256"
        }
      ],
      "name": "setSwapFeePercentage",
      "outputs": [],
      "stateMutability": "nonpayable",
      "type": "function"
    },
    {
      "inputs": [],
      "name": "symbol",
      "outputs": [
        {
          "internalType": "string",
          "name": "",
          "type": "string"
        }
      ],
      "stateMutability": "view",
      "type": "function"
    },
    {
      "inputs": [],
      "name": "totalSupply",
      "outputs": [
        {
          "internalType": "uint256",
          "name": "",
          "type": "uint256"
        }
      ],
      "stateMutability": "view",
      "type": "function"
    },
    {
      "inputs": [
        {
          "internalType": "address",
          "name": "recipient",
          "type": "address"
        },
        {
          "internalType": "uint256",
          "name": "amount",
          "type": "uint256"
        }
      ],
      "name": "transfer",
      "outputs": [
        {
          "internalType": "bool",
          "name": "",
          "type": "bool"
        }
      ],
      "stateMutability": "nonpayable",
      "type": "function"
    },
    {
      "inputs": [
        {
          "internalType": "address",
          "name": "sender",
          "type": "address"
        },
        {
          "internalType": "address",
          "name": "recipient",
          "type": "address"
        },
        {
          "internalType": "uint256",
          "name": "amount",
          "type": "uint256"
        }
      ],
      "name": "transferFrom",
      "outputs": [
        {
          "internalType": "bool",
          "name": "",
          "type": "bool"
        }
      ],
      "stateMutability": "nonpayable",
      "type": "function"
    },
    {
      "inputs": [],
      "name": "unpause",
      "outputs": [],
      "stateMutability": "nonpayable",
      "type": "function"
    },
    {
      "inputs": [],
      "name": "updateProtocolFeePercentageCache",
      "outputs": [],
      "stateMutability": "nonpayable",
      "type": "function"
    },
    {
      "inputs": [],
      "name": "version",
      "outputs": [
        {
          "internalType": "string",
          "name": "",
          "type": "string"
        }
      ],
      "stateMutability": "view",
      "type": "function"
    }
  ],
  "bytecode": "0x610660604052346103ad57610021610015610567565b95949094939193610a6b565b60405161620d9081611a4b823960805181613817015260a0518161383d015260c051816137f4015260e051818181611e7301526147880152610100518181816113e80152613ac3015261012051818181610c6a015281816110f10152818161142d0152818161198d01528181611ec2015281816120ab015281816123090152818161351001526139260152610140518181816106f7015261124901526101605181818161071d01528181610a7b01526125670152610180518181816109e101528181610c2801528181611121015281816119bd01528181611ef2015261207f01526101a05181818161186401526139f201526101c051818181610541015261058c01526101e0518181816105180152818161069001528181611d490152611dd901526102005181611d7e015261022051818181611b670152614573015261024051818181611ba301526145a7015261026051818181611bd901526145e8015261028051818181611c0f015261462901526102a051818181611c45015261466a01526102c051818181611c7b01526146ab01526102e051818181611cb401526146ee015261030051818181611ce701526147300152610320518181816117ec0152818161371a0152613f10015261034051818181610f620152818161135b01528181611b390152818161259e0152612ebb01526103605181818161311701526140ad01526103805181818161316401526140fa01526103a0518181816131b9015261414f01526103c05181818161320e01526141a401526103e05181818161326301526141f90152610400518181816132b8015261424e01526104205181818161330d01526142a301526104405181818161336201526142f80152610460518181816125c901526131400152610480518181816125f4015261319501526104a05181818161262801526131ea01526104c05181818161265c015261323f01526104e05181818161269001526132940152610500518181816126c401526132e90152610520518181816126fb015261333e01526105405181818161272c0152613391015261056051818181612ee601526140d6015261058051818181612f11015261412b01526105a051818181612f45015261418001526105c051818181612f7901526141d501526105e051818181612fad015261422a015261060051818181612fe1015261427f01526106205181818161301801526142d401526106405181818161304901526143270152f35b600080fd5b634e487b7160e01b600052604160045260246000fd5b601f909101601f19168101906001600160401b038211908210176103eb57604052565b6103b2565b604051906103ff60e0836103c8565b565b81601f820112156103ad578051906001600160401b0382116103eb5760405192610435601f8401601f1916602001856103c8565b828452602083830101116103ad5760005b82811061045b57505060206000918301015290565b80602080928401015182828701015201610446565b6001600160401b0381116103eb5760051b60200190565b6001600160a01b038116036103ad57565b9080601f830112156103ad5781516104af81610470565b926104bd60405194856103c8565b81845260208085019260051b8201019283116103ad57602001905b8282106104e55750505090565b6020809183516104f481610487565b8152019101906104d8565b9080601f830112156103ad57815161051681610470565b9261052460405194856103c8565b81845260208085019260051b8201019283116103ad57602001905b82821061054c5750505090565b815181526020918201910161053f565b51906103ff82610487565b617c78803803806040519261057c82856103c8565b833981019160e0828403126103ad5781516001600160401b0381116103ad5782019160e0838503126103ad576105b06103f0565b83519093906001600160401b0381116103ad57856105cf918301610401565b845260208101516001600160401b0381116103ad57856105f0918301610401565b602085015260408101516001600160401b0381116103ad5785610614918301610498565b604085015260608101516001600160401b0381116103ad57856106389183016104ff565b606085015260808101516001600160401b0381116103ad578561065c918301610498565b608085015260a0810151906001600160401b0382116103ad576106838660c0938301610498565b60a0860152015160c084015261069b6020820161055c565b936106a86040830161055c565b936060830151936080840151936106c160a0820161055c565b60c08201519094906001600160401b0381116103ad576106e19201610401565b9196959493929190565b90600182811c9216801561071b575b602083101461070557565b634e487b7160e01b600052602260045260246000fd5b91607f16916106fa565b601f8111610731575050565b60036000526020600020906020601f840160051c8301931061076e575b601f0160051c01905b818110610762575050565b60008155600101610757565b909150819061074e565b601f821161078557505050565b6000526020600020906020601f840160051c830193106107c0575b601f0160051c01905b8181106107b4575050565b600081556001016107a9565b90915081906107a0565b80519091906001600160401b0381116103eb576107f3816107ec600b546106eb565b600b610778565b602092601f8211600114610835576108259293829160009261082a575b50508160011b916000199060031b1c19161790565b600b55565b015190503880610810565b600b600052601f198216937f0175b7a638427703f0dbe7bb9bbf987a2551717b34e79f33b5b1008d1fa01db99160005b86811061089c5750836001959610610883575b505050811b01600b55565b015160001960f88460031b161c19169055388080610878565b91926020600181928685015181550194019201610865565b80519091906001600160401b0381116103eb576108dd816108d66004546106eb565b6004610778565b602092601f82116001146109135761090e9293829160009261082a5750508160011b916000199060031b1c19161790565b600455565b6004600052601f198216937f8a35acfbc15ff81a39ae7d344fd709f28e8600b4aa8c65c6b64bfe7fe36bd19b9160005b86811061097a5750836001959610610961575b505050811b01600455565b015160001960f88460031b161c19169055388080610956565b91926020600181928685015181550194019201610943565b634e487b7160e01b600052601160045260246000fd5b60ff1660ff81146109b95760010190565b610992565b634e487b7160e01b600052603260045260246000fd5b8051156109e15760200190565b6109be565b8051600110156109e15760400190565b8051600210156109e15760600190565b8051600310156109e15760800190565b8051600410156109e15760a00190565b8051600510156109e15760c00190565b8051600610156109e15760e00190565b8051600710156109e1576101000190565b80518210156109e15760209160051b010190565b949192610aa1939694919686604081019889519081519360808401519184519160208601519360c060a088015197015197610de3565b610ac26060845151930191610ab88351518561143b565b83610340526107ca565b600093845b60ff861684811015610b0b57610b0591610ae5610aff928651610a57565b5190610afa662386f26fc1000083101561146b565b6114d2565b956109a8565b94610ac7565b50610b26919550670de0b6b3a764000090949392941461147a565b610b40610b3383516109d4565b516001600160a01b031690565b61036052610b51610b3383516109e6565b61038052600281118015610ddc57610b6c610b3384516109f6565b6103a052600382118015610dd557610b87610b338551610a06565b6103c05260048311908115610dce57610ba3610b338651610a16565b6103e05260058411928315610dc757610bbf610b338751610a26565b610400526007600686119586600014610dc057610bdf610b338951610a36565b6104205211958615610db957610bf8610b338251610a46565b61044052610c11610c0c610b3383516109d4565b61153c565b61046052610c25610c0c610b3383516109e6565b610480528115610db257610c3f610c0c610b3383516109f6565b6104a0528215610dab57610c59610c0c610b338351610a06565b6104c0528315610da457610c73610c0c610b338351610a16565b6104e0528415610d9d57610c8d610c0c610b338351610a26565b610500528515610d9657610ca7610c0c610b338351610a36565b610520528615610d8e57610c0c610b33610cc19251610a46565b61054052610ccf87516109d4565b5161056052610cde87516109e6565b516105805215610d8757610cf286516109f6565b515b6105a05215610d8057610d078551610a06565b515b6105c05215610d7957610d1c8451610a16565b515b6105e05215610d7257610d318351610a26565b515b6106005215610d6b57610d468251610a36565b515b6106205215610d6357610d5b9051610a46565b515b61064052565b506000610d5d565b6000610d48565b6000610d33565b6000610d1e565b6000610d09565b6000610cf4565b506000610cc1565b6000610ca7565b6000610c8d565b6000610c73565b6000610c59565b6000610c3f565b6000610bf8565b6000610bdf565b6000610bbf565b6000610ba3565b6000610b87565b6000610b6c565b98939460079a95610dff9994600099949d98939d8a1990610f1f565b610e0c6008821115611489565b610e1783518261143b565b610e20836115e2565b61032052610e30610b33846109d4565b61022052610e40610b33846109e6565b610240526002811115610efd57610e59610b33846109f6565b610260526003811115610ef657610e72610b3384610a06565b610280526004811115610eef57610e8b610b3384610a16565b6102a0526005811115610ee857610ea4610b3384610a26565b6102c0526006811115610ee157610ebd610b3384610a36565b6102e0521115610ed957610b33610ed391610a46565b61030052565b506000610ed3565b6000610ebd565b6000610ea4565b6000610e8b565b6000610e72565b6000610e59565b908160209103126103ad575190565b6040513d6000823e3d90fd5b999693909a97949192610f33999693611013565b600019821490816101e052806101c052610f4c8161161c565b610f55816116d1565b8115610f7857610f6490611781565b15610f73575060005b61020052565b610f6d565b60405163178b2b9360e21b81526000600482015290602090829060249082906001600160a01b03165afa801561100e57610fbd91600091610fdf575b50831115611497565b604051828152600090600080516020617c5883398151915290602090a2610f64565b611001915060203d602011611007575b610ff981836103c8565b810190610f04565b38610fb4565b503d610fef565b610f13565b9398956110979885602097946110459461106f979a60028c51149081611193575b501561118b5760029b5b3395611282565b6110536002865110156114a6565b611061600886511115611489565b61106a856119dc565b611821565b6040516309b2760f60e01b8152946001600160a01b039190911693859182916004830161119c565b03816000865af192831561100e5760009361116a575b50813b156103ad57604051633354e3e960e11b815293600091859182916110d9919087600485016111d0565b038183855af191821561100e5760049360209361114f575b506101805260405163d2946c2b60e01b815292839182905afa90811561100e57600091611120575b506101a052565b611142915060203d602011611148575b61113a81836103c8565b81019061125d565b38611119565b503d611130565b8061115e6000611164936103c8565b806111c5565b386110f1565b61118491935060203d60201161100757610ff981836103c8565b91386110ad565b60019b61103e565b90501538611034565b9190602083019260038210156111af5752565b634e487b7160e01b600052602160045260246000fd5b60009103126103ad57565b906060820190825260606020830152825180915260206080830193019060005b81811061123e5750505060408183039101526020808351928381520192019060005b81811061121f5750505090565b82516001600160a01b0316845260209384019390920191600101611212565b82516001600160a01b03168552602094850194909201916001016111f0565b908160209103126103ad575161127281610487565b90565b919082018092116109b957565b9492909591604051906112966040836103c8565b60018252603160f81b6020830190815281519093906001600160401b0381116103eb576112cd816112c86003546106eb565b610725565b6020601f82116001146113a65761138b9896949261130e836113959d9c9a9896946113169460009161139b575b508160011b916000199060031b1c19161790565b6003556108b4565b611328601260ff196005541617600555565b6020815191012060805251902060a0527f8b73c3c69bb8fe3d512ecc4cf759cc79239f7b179b0ffacaa9a75d522b39400f60c05260e05261010052610120526113766276a7008211156114b4565b61138562278d008411156114c3565b42611275565b8061014052611275565b61016052565b9050850151386112fa565b6003600052601f198216907fc2575a0e9e593c00f959f8c92f12db2869c3395a3b0502d05e2516446f71f85b9160005b8181106114235750836113169361138b9c9a9896936113959f9e9c9a98966001941061140a575b5050811b016003556108b4565b86015160001960f88460031b161c1916905538806113fd565b9192602060018192868a0151815501940192016113d6565b0361144257565b62461bcd60e51b6000908152602060045260076024526642414c2331303360c81b604452606490fd5b1561147257565b61012e611912565b1561148157565b610134611912565b1561149057565b60c9611912565b1561149e57565b610258611912565b156114ad57565b60c8611912565b156114bb57565b610194611912565b156114ca57565b610195611912565b908101908181116109b95781106114e65790565b62461bcd60e51b60009081526020600452600760245266042414c233030360cc1b604452606490fd5b604d81116109b957600a0a90565b9081670de0b6b3a76400000291670de0b6b3a76400008304036109b957565b6001600160a01b03163081146115d55760206004916040519283809263313ce56760e01b82525afa90811561100e57600091611590575b5061158b61158660ff611272931661195a565b61150f565b61151d565b6020813d6020116115cd575b816115a9602093836103c8565b810103126115c957519060ff821682036115c6575061158b611573565b80fd5b5080fd5b3d915061159c565b50670de0b6b3a764000090565b60005b8151811015611615576001600160a01b036116008284610a57565b511661160e576001016115e5565b5050600090565b5050600190565b604051631a7c326360e01b81526002600482015290602090829060249082906001600160a01b03165afa801561100e576116ad600080516020617c58833981519152916002936000916116b2575b5061167481611999565b60098054600160401b600160801b031916604092831b6fffffffffffffffff000000000000000016179055519081529081906020820190565b0390a2565b6116cb915060203d60201161100757610ff981836103c8565b3861166a565b604051631a7c326360e01b81526003600482015290602090829060249082906001600160a01b03165afa801561100e576116ad600080516020617c5883398151915291600393600091611762575b5061172981611999565b60098054600160801b600160c01b03191660809290921b600160801b600160c01b03169190911790556040519081529081906020820190565b61177b915060203d60201161100757610ff981836103c8565b3861171f565b604051631a7c326360e01b81526000600482015290602090829060249082906001600160a01b03165afa801561100e576116ad600080516020617c58833981519152916000938491611802575b506001600160401b036117e082611999565b1660018060401b03196009541617600955604051918291829190602083019252565b61181b915060203d60201161100757610ff981836103c8565b386117ce565b64e8d4a5100081106118975767016345785d8a000081116118925760085481603f1c61188d576001600160c01b03600160ff1b011660c082901b176008556040519081527fa9ba3ffe0b6c366b81232caab38605a0699ad5398d6cce76f91ee809e322dafc90602090a1565b6118e9565b6118c0565b62461bcd60e51b6000908152602060045260076024526642414c2332303360c81b604452606490fd5b62461bcd60e51b600090815260206004526007602452662120a61199181960c91b604452606490fd5b62461bcd60e51b600090815260206004526007602452662120a6119a199b60c91b604452606490fd5b6642414c2300003090600a81049062461bcd60e51b60005260206004526007602452600a6030818181808704060160101b94060160081b910601010160c81b60445260646000fd5b6012811161197057601203601281116109b95790565b62461bcd60e51b6000908152602060045260076024526642414c2330303160c81b604452606490fd5b6001600160401b0381116119b3576001600160401b031690565b62461bcd60e51b600090815260206004526007602452662120a6119a1a1960c91b604452606490fd5b90815160028110611a4557156109e1576020820151600192906001600160a01b03165b8151841015611a3f576001600160a01b03611a1a8584610a57565b5116906001600160a01b0316811115611a38576001909301926119ff565b6065611912565b50509050565b50905056fe6080604052600436101561001257600080fd5b60003560e01c806306fdde031461030d578063095ea7b3146103085780630da0669c1461030357806315b0015b146102fe57806318160ddd146102f95780631c0de051146102f45780631dd746ea146102ef578063238a2d59146102ea57806323b872dd146102e557806323ef89ed146102e0578063313ce567146102db5780633644e5151461023157806338e9922e146102d657806338fff2d0146102d157806339509351146102cc5780633f4ba83a146102c757806350dd6ed9146102c257806354a844ba146102bd57806354fd4d50146102b857806355c67628146102b35780636028bfd4146102ae57806370464016146102a957806370a08231146102a457806374f3b0091461029f5780637ecebe001461027c5780638456cb591461029a578063851c1bb314610295578063876f303b1461029057806387ec68171461028b578063893d20e8146102865780638d928af81461028157806390193b7c1461027c57806395d89b41146102775780639d2c110c14610272578063a457c2d71461026d578063a9059cbb14610268578063aaabadc514610263578063b10962781461025e578063b35056b814610259578063b7b814fc14610254578063c0ff1a151461024f578063d2946c2b1461024a578063d505accf14610245578063d5c096c414610240578063dd62ed3e1461023b578063ddf4627b14610236578063ed24911d146102315763f89f27ed1461022c57600080fd5b611a3c565b6108fd565b611a1f565b6119eb565b611976565b61189e565b61184e565b611833565b61175c565b611730565b611707565b6116da565b6116b0565b611608565b611521565b61145c565b6111f1565b611417565b6113d2565b611340565b611306565b6112d6565b61122e565b6110d8565b611076565b611058565b610f47565b610e46565b610d8e565b610d31565b610bcc565b610a60565b610a04565b6109c9565b610920565b6108dc565b6108be565b61080e565b6107a7565b610777565b6106d3565b6106b5565b610678565b6104c0565b61048b565b610377565b600091031261031d57565b600080fd5b919082519283825260005b84811061034e575050826000602080949584010152601f8019910116010190565b8060208092840101518282860101520161032d565b906020610374928181520190610322565b90565b3461031d57600036600319011261031d5760405160006003548060011c9060018116908115610463575b60208310821461044f57828552602085019190811561043657506001146103e3575b6103df846103d381860382610b39565b60405191829182610363565b0390f35b600360009081529250907fc2575a0e9e593c00f959f8c92f12db2869c3395a3b0502d05e2516446f71f85b5b818410610422575050016103d3826103c3565b80548484015260209093019260010161040f565b60ff191682525090151560051b0190506103d3826103c3565b634e487b7160e01b84526022600452602484fd5b91607f16916103a1565b6001600160a01b0381160361031d57565b35906104898261046d565b565b3461031d57604036600319011261031d576104b56004356104ab8161046d565b6024359033612363565b602060405160018152f35b3461031d57600036600319011261031d576104d9613900565b6104e161293a565b6104e9612070565b61050f6105016104f7612eb9565b6002549084613071565b929080610669575b5061475b565b80610660575b507f0000000000000000000000000000000000000000000000000000000000000000610570575b61056e7f0000000000000000000000000000000000000000000000000000000000000000610569816123d4565b6124a1565b005b604051631a7c326360e01b8152600060048201526020816024817f00000000000000000000000000000000000000000000000000000000000000006001600160a01b03165afa801561065b576106247f6bfb689528fa96ec1ad670ad6d6064be1ae96bfd5d2ee35c837fd0fe0c11959a91600093849161062c575b506106146105f882613a4a565b6001600160401b03166001600160401b03196009541617600955565b6040519081529081906020820190565b0390a261053c565b61064e915060203d602011610654575b6106468183610b39565b8101906123c5565b386105eb565b503d61063c565b612064565b600a5538610515565b610672906139d6565b38610509565b3461031d57600036600319011261031d5760206040517f000000000000000000000000000000000000000000000000000000000000000015158152f35b3461031d57600036600319011261031d576020600254604051908152f35b3461031d57600036600319011261031d5760606106ee612565565b156040519081527f000000000000000000000000000000000000000000000000000000000000000060208201527f00000000000000000000000000000000000000000000000000000000000000006040820152f35b906020808351928381520192019060005b8181106107615750505090565b8251845260209384019390920191600101610754565b3461031d57600036600319011261031d576103df61079361259c565b604051918291602083526020830190610743565b3461031d57600036600319011261031d576107c0611b37565b60405180916020820160208352815180915260206040840192019060005b8181106107ec575050500390f35b82516001600160a01b03168452859450602093840193909201916001016107de565b3461031d57606036600319011261031d5760043561082b8161046d565b6024356108378161046d565b60443561084433846122fb565b91336001600160a01b0385161480159190826108b4575b156108af578261086b91866127f4565b806108a3575b610882575b60405160018152602090f35b810390811161089e57610896913390612363565b388080610876565b611d13565b50600019821415610871565b612b00565b508284101561085b565b3461031d57600036600319011261031d576020600a54604051908152f35b3461031d57600036600319011261031d57602060ff60055416604051908152f35b3461031d57600036600319011261031d5760206109186137ea565b604051908152f35b3461031d57602036600319011261031d5760043561093c6128eb565b61094461293a565b64e8d4a5100081106109a05767016345785d8a0000811161099b5760208161098f7fa9ba3ffe0b6c366b81232caab38605a0699ad5398d6cce76f91ee809e322dafc93600854613bbf565b600855604051908152a1005b612b29565b62461bcd60e51b6000908152602060045260076024526642414c2332303360c81b604452606490fd5b3461031d57600036600319011261031d5760206040517f00000000000000000000000000000000000000000000000000000000000000008152f35b3461031d57604036600319011261031d576104b5600435610a248161046d565b610a59602435336000526001602052610a538360406000209060018060a01b0316600052602052604060002090565b5461299a565b9033612363565b3461031d57600036600319011261031d57610a796128eb565b7f0000000000000000000000000000000000000000000000000000000000000000421015610ada576007805460ff19169055604051600081527f9e3a5e37224532dea67b89face185703738a228a6e8a23dee546960180d3be6490602090a1005b62461bcd60e51b6000908152602060045260076024526642414c2334323560c81b604452606490fd5b634e487b7160e01b600052604160045260246000fd5b60a081019081106001600160401b03821117610b3457604052565b610b03565b90601f801991011681019081106001600160401b03821117610b3457604052565b6040519061048961012083610b39565b6001600160401b038111610b3457601f01601f191660200190565b81601f8201121561031d57803590610b9c82610b6a565b92610baa6040519485610b39565b8284526020838301011161031d57816000926020809301838601378301015290565b3461031d57604036600319011261031d57600435610be98161046d565b6024356001600160401b03811161031d57610c08903690600401610b85565b90610c116128eb565b610c1961293a565b60405163160bf1c960e31b81527f0000000000000000000000000000000000000000000000000000000000000000600482018190526001600160a01b039092166024820152608081806044810103817f00000000000000000000000000000000000000000000000000000000000000006001600160a01b03165afa90811561065b57600091610cfe575b506001600160a01b031691823b1561031d57610cd99260009283604051809681958294630639cdb560e21b8452600484016129d6565b03925af1801561065b57610ce957005b80610cf8600061056e93610b39565b80610312565b610d20915060803d608011610d2a575b610d188183610b39565b8101906129ae565b9250505038610ca3565b503d610d0e565b3461031d57600036600319011261031d57610d4a6128eb565b600880546001600160ff1b0316600160ff1b179055604051600181527feff3d4d215b42bf0960be9c6d5e05c22cba4df6627a3a523e2acee733b5854c890602090a1005b3461031d57600036600319011261031d576040516000600b548060011c9060018116908115610e3c575b60208310821461044f5782855260208501919081156104365750600114610de9576103df846103d381860382610b39565b600b60009081529250907f0175b7a638427703f0dbe7bb9bbf987a2551717b34e79f33b5b1008d1fa01db95b818410610e28575050016103d3826103c3565b805484840152602090930192600101610e15565b91607f1691610db8565b3461031d57600036600319011261031d576020610918677fffffffffffffff60085460c01c1690565b6001600160401b038111610b345760051b60200190565b60e060031982011261031d5760043591602435610ea28161046d565b91604435610eaf8161046d565b916064356001600160401b03811161031d578260238201121561031d57806004013590610edb82610e6f565b91610ee96040519384610b39565b8083526024602084019160051b8301019185831161031d57602401905b828210610f3757505050916084359160a4359160c435906001600160401b03821161031d5761037491600401610b85565b8135815260209182019101610f06565b3461031d57610f5536610e86565b919590610f8784969594517f0000000000000000000000000000000000000000000000000000000000000000906129ed565b333014610ffd5760008060405180610f9f8136612ac2565b039082305af1610fad612ad0565b5015610fb557fe5b60046000803e6000516001600160e01b03191663bc52450560e01b01610ff3576020600460003e60406020526023193d01602460403e601c3d016000f35b3d6000803e3d6000fd5b6110379660449661102c9561101061293a565b61101861259c565b9788956110258785612dbc565b600461615e565b939091846001616139565b8251601f198401919091526343adbafb603f1984015260051b019060231901fd5b3461031d57602036600319011261031d576020610918600435611dc4565b3461031d57602036600319011261031d576004356110938161046d565b60018060a01b031660005260006020526020604060002054604051908152f35b90916110ca61037493604084526040840190610743565b916020818403910152610743565b3461031d576110e636610e86565b9592935091600091507f00000000000000000000000000000000000000000000000000000000000000006001600160a01b031633036111ec577f0000000000000000000000000000000000000000000000000000000000000000036111e75761114e85612d86565b1561118d57505061117761117161117d9394611168612e0d565b60025484612e45565b94613e68565b51611a58565b906103df604051928392836110b3565b61117d936111d061117793966111da936111a561293a565b6111ad61259c565b986111b88a89612dbc565b60085460ff1c6001036111df5750505b878684612a1d565b9690929087612a71565b613e68565b9050506111c8565b612ba4565b612b7b565b3461031d57602036600319011261031d5760043561120e8161046d565b60018060a01b031660005260066020526020604060002054604051908152f35b3461031d57600036600319011261031d576112476128eb565b7f00000000000000000000000000000000000000000000000000000000000000004210156112ad576007805460ff191660019081179091556040519081527f9e3a5e37224532dea67b89face185703738a228a6e8a23dee546960180d3be6490602090a1005b62461bcd60e51b6000908152602060045260076024526642414c2334303360c81b604452606490fd5b3461031d57602036600319011261031d576004356001600160e01b03198116810361031d57610918602091611e69565b3461031d57600036600319011261031d5760206109186002546113398161132b612070565b611333612eb9565b90613071565b509061299a565b3461031d5761134e36610e86565b91959061138084969594517f0000000000000000000000000000000000000000000000000000000000000000906129ed565b3330146113985760008060405180610f9f8136612ac2565b611037966044966113c7956113ab61293a565b6113b361259c565b9788956113c08785612dbc565b600361615e565b939091846002616139565b3461031d57600036600319011261031d576040517f00000000000000000000000000000000000000000000000000000000000000006001600160a01b03168152602090f35b3461031d57600036600319011261031d576040517f00000000000000000000000000000000000000000000000000000000000000006001600160a01b03168152602090f35b3461031d57600036600319011261031d5760405160006004548060011c906001811690811561150a575b60208310821461044f57828552602085019190811561043657506001146114b7576103df846103d381860382610b39565b600460009081529250907f8a35acfbc15ff81a39ae7d344fd709f28e8600b4aa8c65c6b64bfe7fe36bd19b5b8184106114f6575050016103d3826103c3565b8054848401526020909301926001016114e3565b91607f1691611486565b3590600282101561031d57565b3461031d57606036600319011261031d576004356001600160401b03811161031d57610120600319823603011261031d5761155a610b5a565b9061156781600401611514565b82526115756024820161047e565b60208301526115866044820161047e565b6040830152606481013560608301526084810135608083015260a481013560a08301526115b560c4820161047e565b60c08301526115c660e4820161047e565b60e0830152610104810135916001600160401b03831161031d576115f66106149260046103df9536920101610b85565b61010082015260243560443591611eb7565b3461031d57604036600319011261031d576004356116258161046d565b60243561163282336122fb565b908181106116985750503360008181526001602090815260408083206001600160a01b0395909516808452948252808320839055519182527f8c5be1e5ebec7d5bd14f71427d1e84f3dd0314c0f7b2291e5b200ac8c7c3b92591a3602060405160018152f35b810390811161089e576116ab9133612363565b6104b5565b3461031d57604036600319011261031d576104b56004356116d08161046d565b60243590336127f4565b3461031d57600036600319011261031d5760206116f56134fb565b6040516001600160a01b039091168152f35b3461031d57600036600319011261031d576008546040516001600160c01b039091168152602090f35b3461031d57600036600319011261031d576020611752600160085460ff1c1490565b6040519015158152f35b3461031d57600036600319011261031d576117756128eb565b600880546001600160ff1b03169055604051600081527feff3d4d215b42bf0960be9c6d5e05c22cba4df6627a3a523e2acee733b5854c890602090a16117b9613900565b6117c1612070565b600854906001600160c01b03906117d89083613be5565b16906001600160401b0360c01b16176008557f00000000000000000000000000000000000000000000000000000000000000001561181257005b600a54611825611820612eb9565b61455e565b90811161182e57005b600a55005b3461031d57600036600319011261031d576020610918612070565b3461031d57600036600319011261031d576040517f00000000000000000000000000000000000000000000000000000000000000006001600160a01b03168152602090f35b60ff81160361031d57565b3461031d5760e036600319011261031d5761056e6004356118be8161046d565b6024356118ca8161046d565b604435916119716064356084356118e081611893565b61196a60a43560c4359060018060a01b0387168060005260066020526040600020546040519060208201927f6e71edae12b1b97f4d1f60370fef10105fa2faae0126114a169c64845d6126c98452604083015260018060a01b038b1660608301528b608083015260a08201528660c082015260c0815261196160e082610b39565b519020936135fa565b9084613626565b612363565b3461031d5761198436610e86565b949093919291907f00000000000000000000000000000000000000000000000000000000000000006001600160a01b031633036111ec577f000000000000000000000000000000000000000000000000000000000000000087036111e75761117d966121ce565b3461031d57604036600319011261031d576020610918600435611a0d8161046d565b60243590611a1a8261046d565b6122fb565b3461031d57600036600319011261031d5760206040516000198152f35b3461031d57600036600319011261031d576103df610793612eb9565b90611a6282610e6f565b611a6f6040519182610b39565b8281528092611a80601f1991610e6f565b0190602036910137565b634e487b7160e01b600052603260045260246000fd5b805115611aad5760200190565b611a8a565b805160011015611aad5760400190565b805160021015611aad5760600190565b805160031015611aad5760800190565b805160041015611aad5760a00190565b805160051015611aad5760c00190565b805160061015611aad5760e00190565b805160071015611aad576101000190565b8051821015611aad5760209160051b010190565b7f0000000000000000000000000000000000000000000000000000000000000000611b6181611a58565b90611b9e7f0000000000000000000000000000000000000000000000000000000000000000611b8f84611aa0565b6001600160a01b039091169052565b611bcb7f0000000000000000000000000000000000000000000000000000000000000000611b8f84611ab2565b6002811115611d0f57611c017f0000000000000000000000000000000000000000000000000000000000000000611b8f84611ac2565b6003811115611d0f57611c377f0000000000000000000000000000000000000000000000000000000000000000611b8f84611ad2565b6004811115611d0f57611c6d7f0000000000000000000000000000000000000000000000000000000000000000611b8f84611ae2565b6005811115611d0f57611ca37f0000000000000000000000000000000000000000000000000000000000000000611b8f84611af2565b6006811115611d0f57600790611cdc7f0000000000000000000000000000000000000000000000000000000000000000611b8f85611b02565b1115610374576103747f0000000000000000000000000000000000000000000000000000000000000000611b8f83611b12565b5090565b634e487b7160e01b600052601160045260246000fd5b620f423f1981019190821161089e57565b60085460ff1c600114611da0577f000000000000000000000000000000000000000000000000000000000000000015611d7c576001600160401b036009541690565b7f000000000000000000000000000000000000000000000000000000000000000090565b600090565b60085460ff1c600114611da05760095460401c6001600160401b031690565b60085460ff1c600114611e635780611e1e57507f000000000000000000000000000000000000000000000000000000000000000015611d7c57610374611e126009546001600160401b031690565b6001600160401b031690565b60028103611e3f57506009546103749060401c6001600160401b0316611e12565b600303611e5e576009546103749060801c6001600160401b0316611e12565b612b52565b50600090565b60405160208101917f0000000000000000000000000000000000000000000000000000000000000000835263ffffffff60e01b16604082015260248152611eb1604482610b39565b51902090565b6080810151909291907f00000000000000000000000000000000000000000000000000000000000000006001600160a01b031633036111ec577f0000000000000000000000000000000000000000000000000000000000000000036111e75761037492611f44565b634e487b7160e01b600052602160045260246000fd5b60021115611f3f57565b611f1f565b90611f9191611f5161293a565b6020810151611f68906001600160a01b0316613109565b928392611f8b611f83604085015160018060a01b0316613109565b958692613e2f565b95613e2f565b918151611f9d81611f35565b611fa681611f35565b611fda57938161037495611fce6060611fd596950191611fc6835161345c565b808452613e2f565b9052613485565b613d85565b91610374948261200295611ff66060611ffd9601918251613e2f565b90526133b8565b61404a565b61343a565b9080601f8301121561031d57815161201e81610e6f565b9261202c6040519485610b39565b81845260208085019260051b82010192831161031d57602001905b8282106120545750505090565b8151815260209182019101612047565b6040513d6000823e3d90fd5b604051631f29a8cd60e31b81527f000000000000000000000000000000000000000000000000000000000000000060048201526000816024817f00000000000000000000000000000000000000000000000000000000000000006001600160a01b03165afa801561065b57600090612106575b61037491506120f96120f361259c565b82612dbc565b612101612eb9565b613581565b3d8082843e6121158184610b39565b8201916060818403126121ca5780516001600160401b0381116121c657810183601f820112156121c657805160208061214d83610e6f565b61215a6040519182610b39565b838152019160051b830101918583116121c257602001905b8282106121a8575050506020810151916001600160401b0383116121a55750916121a0916103749301612007565b6120e3565b80fd5b6020809183516121b78161046d565b815201910190612172565b8480fd5b8280fd5b5080fd5b93509594909193956121de61293a565b6121e661259c565b936002541560001461223a5761222e97509261221085936103749796836122349561117798613713565b9890612221620f4240821015612758565b612229614497565b611d29565b9061451e565b856130b8565b5050918060006000805160206161b88339815191526020611177956122b1899861229c9c61226b886103749d612dbc565b60085460ff1c60011487146122f557505b612284612eb9565b9c8d918b6122928482613bfb565b94819b9192613f9c565b9d8e8c6122ab848c959c61299a565b94613d1c565b6122bd8560025461299a565b60025560018060a01b0316938484528382526122dd81604086205461299a565b8585528483526040852055604051908152a3856130b8565b5061227c565b906001600160a01b038082167f00000000000000000000000000000000000000000000000000000000000000009091160361233857505060001990565b6001600160a01b03918216600090815260016020908152604080832093909416825291909152205490565b6001600160a01b039081166000818152600160209081526040808320948616835293815292902090927f8c5be1e5ebec7d5bd14f71427d1e84f3dd0314c0f7b2291e5b200ac8c7c3b92592918590556040519485526001600160a01b031693a3565b9081602091031261031d575190565b604051631a7c326360e01b81526002600482015290602090829060249082906001600160a01b03165afa801561065b5761247d7f6bfb689528fa96ec1ad670ad6d6064be1ae96bfd5d2ee35c837fd0fe0c11959a91600293600091612482575b5061243e81613a4a565b600980546fffffffffffffffff00000000000000001916604092831b6fffffffffffffffff000000000000000016179055519081529081906020820190565b0390a2565b61249b915060203d602011610654576106468183610b39565b38612434565b604051631a7c326360e01b81526003600482015290602090829060249082906001600160a01b03165afa801561065b5761247d7f6bfb689528fa96ec1ad670ad6d6064be1ae96bfd5d2ee35c837fd0fe0c11959a91600393600091612546575b5061250b81613a4a565b6009805467ffffffffffffffff60801b191660809290921b67ffffffffffffffff60801b169190911790556040519081529081906020820190565b61255f915060203d602011610654576106468183610b39565b38612501565b7f0000000000000000000000000000000000000000000000000000000000000000421180156125915790565b5060ff600754161590565b7f00000000000000000000000000000000000000000000000000000000000000006125c681611a58565b907f00000000000000000000000000000000000000000000000000000000000000006125f183611aa0565b527f000000000000000000000000000000000000000000000000000000000000000061261c83611ab2565b526002811115611d0f577f000000000000000000000000000000000000000000000000000000000000000061265083611ac2565b526003811115611d0f577f000000000000000000000000000000000000000000000000000000000000000061268483611ad2565b526004811115611d0f577f00000000000000000000000000000000000000000000000000000000000000006126b883611ae2565b526005811115611d0f577f00000000000000000000000000000000000000000000000000000000000000006126ec83611af2565b526006811115611d0f576007907f000000000000000000000000000000000000000000000000000000000000000061272384611b02565b521115610374577f000000000000000000000000000000000000000000000000000000000000000061275482611b12565b5290565b1561275f57565b60cc612d3e565b1561276d57565b6101b8612d3e565b1561277c57565b60cf612d3e565b1561278a57565b610132612d3e565b1561279957565b610133612d3e565b156127a857565b60d0612d3e565b156127b657565b6006612d3e565b156127c457565b6007612d3e565b156127d257565b6008612d3e565b156127e057565b6009612d3e565b156127ef5750565b612d3e565b6001600160a01b038116919082156128c2576001600160a01b038216938415612899576000805160206161b8833981519152926128949285600052600060205261285f61284684604060002054613a8d565b9160018060a01b03166000526000602052604060002090565b5561288361284683610a538460018060a01b03166000526000602052604060002090565b556040519081529081906020820190565b0390a3565b62461bcd60e51b6000908152602060045260076024526642414c2334303960c81b604452606490fd5b62461bcd60e51b600090815260206004526007602452660848298466860760cb1b604452606490fd5b61290a6129036000356001600160e01b031916611e69565b3390613ac1565b1561291157565b62461bcd60e51b6000908152602060045260076024526642414c2334303160c81b604452606490fd5b612942612565565b1561294957565b62461bcd60e51b600090815260206004526007602452662120a6119a181960c91b604452606490fd5b906001820180921161089e57565b600181019081811161089e5781106129955790565b612bcd565b9081019081811161089e5781106129955790565b919082608091031261031d57815191602081015191606060408301519201516103748161046d565b604090610374939281528160208201520190610322565b036129f457565b62461bcd60e51b6000908152602060045260076024526642414c2331303360c81b604452606490fd5b50909291612a5a90612a2d612eb9565b94612a46612a3b8786613bfb565b939080938988613c42565b8195612a5482999385613d08565b94614a7a565b80612a6457509190565b612a6d906139d6565b9190565b805191612a7f8151846129ed565b60005b838110612a8f5750505050565b80612ab1612a9f60019386611b23565b51612aaa8386611b23565b5190613d85565b612abb8286611b23565b5201612a82565b908160008237016000815290565b3d15612afb573d90612ae182610b6a565b91612aef6040519384610b39565b82523d6000602084013e565b606090565b62461bcd60e51b6000908152602060045260076024526610905308cd0c4d60ca1b604452606490fd5b62461bcd60e51b600090815260206004526007602452662120a61199181960c91b604452606490fd5b62461bcd60e51b6000908152602060045260076024526642414c2334343360c81b604452606490fd5b62461bcd60e51b6000908152602060045260076024526642414c2332303560c81b604452606490fd5b62461bcd60e51b60009081526020600452600760245266042414c233530360cc1b604452606490fd5b62461bcd60e51b60009081526020600452600760245266042414c233030360cc1b604452606490fd5b62461bcd60e51b6000908152602060045260076024526642414c2333303960c81b604452606490fd5b62461bcd60e51b6000908152602060045260076024526642414c2334343160c81b604452606490fd5b62461bcd60e51b60009081526020600452600760245266042414c233130360cc1b604452606490fd5b62461bcd60e51b600090815260206004526007602452662120a6119a199b60c91b604452606490fd5b62461bcd60e51b6000908152602060045260076024526642414c2330303160c81b604452606490fd5b62461bcd60e51b6000908152602060045260076024526610905308cc0c0d60ca1b604452606490fd5b62461bcd60e51b6000908152602060045260076024526642414c2330303560c81b604452606490fd5b62461bcd60e51b6000908152602060045260076024526642414c2330303360c81b604452606490fd5b6642414c2300003090600a81049062461bcd60e51b60005260206004526007602452600a6030818181808704060160101b94060160081b910601010160c81b60445260646000fd5b8051908115159182612d9757505090565b819250906020918101031261031d5760ff602081920151612db781611893565b161490565b805191612dca8151846129ed565b60005b838110612dda5750505050565b80612dfc612dea60019386611b23565b51612df58386611b23565b5190613e2f565b612e068286611b23565b5201612dcd565b60085460ff1c600103612e1c57565b62461bcd60e51b600090815260206004526007602452660848298466866760cb1b604452606490fd5b909160408180518101031261031d57604081612e676020612e70940151611893565b01519283613d85565b90612e7b8151611a58565b9360005b8251811015612eb05780612e9f85612e9960019487611b23565b51613e2f565b612ea98289611b23565b5201612e7f565b50929150509190565b7f0000000000000000000000000000000000000000000000000000000000000000612ee381611a58565b907f0000000000000000000000000000000000000000000000000000000000000000612f0e83611aa0565b527f0000000000000000000000000000000000000000000000000000000000000000612f3983611ab2565b526002811115611d0f577f0000000000000000000000000000000000000000000000000000000000000000612f6d83611ac2565b526003811115611d0f577f0000000000000000000000000000000000000000000000000000000000000000612fa183611ad2565b526004811115611d0f577f0000000000000000000000000000000000000000000000000000000000000000612fd583611ae2565b526005811115611d0f577f000000000000000000000000000000000000000000000000000000000000000061300983611af2565b526006811115611d0f576007907f000000000000000000000000000000000000000000000000000000000000000061304084611b02565b521115610374577f000000000000000000000000000000000000000000000000000000000000000061275482611b12565b61309e6130a49194939294613099613087611d3a565b9160018060c01b036008541690613d85565b614b71565b93613f0d565b9390810180911161089e57612a6d91613f74565b8051916130c68151846129ed565b60005b8381106130d65750505050565b806130f86130e660019386611b23565b516130f18386611b23565b519061404a565b6131028286611b23565b52016130c9565b6001600160a01b03908116907f000000000000000000000000000000000000000000000000000000000000000016810361316257507f000000000000000000000000000000000000000000000000000000000000000090565b7f00000000000000000000000000000000000000000000000000000000000000006001600160a01b031681036131b757507f000000000000000000000000000000000000000000000000000000000000000090565b7f00000000000000000000000000000000000000000000000000000000000000006001600160a01b0316810361320c57507f000000000000000000000000000000000000000000000000000000000000000090565b7f00000000000000000000000000000000000000000000000000000000000000006001600160a01b0316810361326157507f000000000000000000000000000000000000000000000000000000000000000090565b7f00000000000000000000000000000000000000000000000000000000000000006001600160a01b031681036132b657507f000000000000000000000000000000000000000000000000000000000000000090565b7f00000000000000000000000000000000000000000000000000000000000000006001600160a01b0316810361330b57507f000000000000000000000000000000000000000000000000000000000000000090565b7f00000000000000000000000000000000000000000000000000000000000000006001600160a01b0316810361336057507f000000000000000000000000000000000000000000000000000000000000000090565b7f00000000000000000000000000000000000000000000000000000000000000006001600160a01b0316036133b3577f000000000000000000000000000000000000000000000000000000000000000090565b612bf6565b60208101516133cf906001600160a01b031661409f565b9060606133e760018060a01b0360408401511661409f565b910151906133f485613dcc565b82116134325761342161342c9361341b87613415613427966103749a613d08565b9061404a565b9261404a565b90614e76565b613cde565b906143de565b610131612d3e565b61037490613415613457677fffffffffffffff60085460c01c1690565b614349565b6103749061347f613479677fffffffffffffff60085460c01c1690565b826143de565b90613d08565b602081015191929161349f906001600160a01b031661409f565b60408201516060906134b9906001600160a01b031661409f565b920151906134c685613dcc565b82116134f3576134216134ed936134e787613415613457966103749a61299a565b92613d85565b90613e2f565b610130612d3e565b60405163aaabadc560e01b81526020816004817f00000000000000000000000000000000000000000000000000000000000000006001600160a01b03165afa90811561065b5760009161354c575090565b90506020813d602011613579575b8161356760209383610b39565b8101031261031d57516103748161046d565b3d915061355a565b60009291670de0b6b3a76400005b82518510156135c5576135bd6001916134ed6135ab8886611b23565b516135b68988611b23565b5190614414565b94019361358f565b9350505081156135d157565b62461bcd60e51b6000908152602060045260076024526642414c2333313160c81b604452606490fd5b90916040519261360b608085610b39565b60418452602084016060368237526040830152606082015390565b91906136306137ea565b9060405190602082019261190160f01b8452602283015260428201526042815261365b606282610b39565b519020604182510361370e5760806000918360208095015160606040830151920151851a604051938452868401526040830152606082015282805260015afa1561065b576000516136ed926136d3916136cb906101f8906001600160a01b031680151590816136fb575b506127e7565b421115612766565b6001600160a01b0316600090815260066020526040902090565b6136f78154612972565b9055565b6001600160a01b038716149050386136c5565b612c1f565b50505091907f0000000000000000000000000000000000000000000000000000000000000000156137d7575b61374881614c30565b61375181613f92565b6137d0576000815182016040838203126121ca5761377160208401614c23565b506040830151916001600160401b0383116121a5575091602061379c92816137b09501920101612007565b926137aa84518251906129ed565b83612dbc565b6137bc82612101612eb9565b612a6d6137ca845183614bf4565b9161475b565b60ce612d3e565b6137e2611820612eb9565b600a5561373f565b60405160208101907f000000000000000000000000000000000000000000000000000000000000000082527f000000000000000000000000000000000000000000000000000000000000000060408201527f000000000000000000000000000000000000000000000000000000000000000060608201524660808201523060a082015260a08152611eb160c082610b39565b60041115611f3f57565b602060408183019282815284518094520192019060005b8181106138aa5750505090565b909192602060a0600192865180516138c18161387c565b82528084015185841b8690039081168584015260408083015190840152606080830151821690840152608091820151169082015201940192910161389d565b604051602061390f8183610b39565b60008252601f19810160005b81811061399d5750507f00000000000000000000000000000000000000000000000000000000000000006001600160a01b03169050803b1561031d576040516303a38fa160e21b815291600091839182908490829061397d9060048301613886565b03925af1801561065b5761398e5750565b80610cf8600061048993610b39565b82906040516139ab81610b19565b600081526000838201526000604082015260006060820152600060808201528282870101520161391b565b60006000805160206161b8833981519152602060018060a01b037f00000000000000000000000000000000000000000000000000000000000000001693613a1f8160025461299a565b600255848452838252613a3681604086205461299a565b8585528483526040852055604051908152a3565b6001600160401b038111613a64576001600160401b031690565b62461bcd60e51b600090815260206004526007602452662120a6119a1a1960c91b604452606490fd5b90818111613aa157810390811161089e5790565b6101a0612d3e565b9081602091031261031d5751801515810361031d5790565b7f00000000000000000000000000000000000000000000000000000000000000006001600160a01b03169173ba1ba1ba1ba1ba1ba1ba1ba1ba1ba1ba1ba1ba1b83141580613bb0575b15613b16575050331490565b613b71925090602091613b36613b2a6134fb565b6001600160a01b031690565b6040516326f8aa2160e21b815260048101939093526001600160a01b0390911660248301523060448301529092839190829081906064820190565b03915afa90811561065b57600091613b87575090565b610374915060203d602011613ba9575b613ba18183610b39565b810190613aa9565b503d613b97565b50613bba82614786565b613b0a565b9080603f1c613be05760c01b90600167800000000000000160c01b03161790565b612c71565b8160c01c613be0576001600160c01b0319161790565b613c14613c1b612a6d9294939460025492839187613581565b9586613071565b80929192613c39575b50811561299a57613c34826139d6565b61299a565b600a5538613c24565b93929160208480518101031261031d57613c5e60208501614810565b613c678161387c565b80613c7b575050613c7793614999565b9091565b613c878193929361387c565b60018103613c9b57505050613c7792614934565b80613ca760029261387c565b03613cb557613c779461481d565b62461bcd60e51b600090815260206004526007602452662120a61199999b60c91b604452606490fd5b80670de0b6b3a764000011613d0357670de0b6b3a763ffff19810190811161089e5790565b612c9a565b90818111613d0357810390811161089e5790565b90613d2a9594939291614a7a565b80613d325750565b610489906139d6565b8181029291811591840414171561089e57565b634e487b7160e01b600052601260045260246000fd5b60008115613d8057506a0c097ce7bc90715b34b9f160241b0490565b612cc3565b8115613d805780613d97575050600090565b670de0b6b3a7640000810290810480670de0b6b3a76400000361089e57670de0b6b3a763ffff1901613dc7570490565b612cec565b670429d069189e000081029080820490159080670429d069189e00001482171561089e57818015613e12575b505015613e0d57670de0b6b3a7640000900490565b612d15565b909150613e2a57670429d069189e0000143880613df8565b613d4e565b613e398282613d3b565b918115918215613e5857505015613e0d57670de0b6b3a7640000900490565b9091613e2a578204143880613df8565b6001600160a01b038116908115613ee45781600052600060205260406000205490818411613edc5783820391821161089e576001600160a01b0316600090815260208190526040812090936000805160206161b8833981519152926128949255610614613ed782600254614b56565b600255565b6101b2612d3e565b62461bcd60e51b6000908152602060045260076024526642414c2334313160c81b604452606490fd5b907f0000000000000000000000000000000000000000000000000000000000000000613f6c57613f3f600a549261455e565b9180831115613f6357613f55612a6d9184613d85565b613f5d611da5565b90614b71565b50600091508190565b600091508190565b613f8182613f8792614bf4565b91614349565b908115613d80570490565b60051115611f3f57565b93929190613fa984614c30565b613fb281613f92565b60018103613fc45750613c7794614d5d565b909150613fd081613f92565b60028103613fe25750613c7793614cb4565b60039150613fef81613f92565b03613ffd57613c7792614c49565b62461bcd60e51b60009081526020600452600760245266042414c233331360cc1b604452606490fd5b6000908015613d805761037491506ec097ce7bc90715b34b9f0fffffffff04612972565b908015613d80578161405d575050600090565b670de0b6b3a7640000820291820480670de0b6b3a76400000361089e57670de0b6b3a763ffff1901613dc757600019820191821161089e576103749104612972565b6001600160a01b03908116907f00000000000000000000000000000000000000000000000000000000000000001681036140f857507f000000000000000000000000000000000000000000000000000000000000000090565b7f00000000000000000000000000000000000000000000000000000000000000006001600160a01b0316810361414d57507f000000000000000000000000000000000000000000000000000000000000000090565b7f00000000000000000000000000000000000000000000000000000000000000006001600160a01b031681036141a257507f000000000000000000000000000000000000000000000000000000000000000090565b7f00000000000000000000000000000000000000000000000000000000000000006001600160a01b031681036141f757507f000000000000000000000000000000000000000000000000000000000000000090565b7f00000000000000000000000000000000000000000000000000000000000000006001600160a01b0316810361424c57507f000000000000000000000000000000000000000000000000000000000000000090565b7f00000000000000000000000000000000000000000000000000000000000000006001600160a01b031681036142a157507f000000000000000000000000000000000000000000000000000000000000000090565b7f00000000000000000000000000000000000000000000000000000000000000006001600160a01b031681036142f657507f000000000000000000000000000000000000000000000000000000000000000090565b7f00000000000000000000000000000000000000000000000000000000000000006001600160a01b0316036133b3577f000000000000000000000000000000000000000000000000000000000000000090565b670de0b6b3a7640000811015611e6357670de0b6b3a764000003670de0b6b3a7640000811161089e5790565b612710810290808204901590806127101482171561089e578180156143cc575b505015613e0d57806143a75750600090565b600019810190811161089e57670de0b6b3a764000090046001810180911161089e5790565b909150613e2a57612710143880614395565b6143e88282613d3b565b91811591821561440457505015613e0d57806143a75750600090565b9091613e2a578204143880614395565b90670de0b6b3a76400008103614428575090565b671bc16d674ec80000810361444257508061037491613e2f565b673782dace9d9000008103614465575061445f8161037492613e2f565b80613e2f565b61446e9161543d565b61447f61447a82614375565b612980565b8082101561448e575050600090565b61037491613d08565b600254620f424081019081811161089e5781106129955760025560008080526020527fad3228b676f7d3cd4284a5443f17f1962b36e491b30a40b2405849e597ba5fb554620f424081019081811161089e578110612995576000805260006020526040600020556000806000805160206161b88339815191526020604051620f42408152a3565b6000805160206161b8833981519152602060009261453e8560025461299a565b60025560018060a01b031693848452838252613a3681604086205461299a565b8051906145cc61459861457083611aa0565b517f000000000000000000000000000000000000000000000000000000000000000090615540565b6134ed6145a484611ab2565b517f000000000000000000000000000000000000000000000000000000000000000090615540565b60028311156147555761460d906134ed6145e584611ac2565b517f000000000000000000000000000000000000000000000000000000000000000090615540565b60038311156147555761464e906134ed61462684611ad2565b517f000000000000000000000000000000000000000000000000000000000000000090615540565b60048311156147555761468f906134ed61466784611ae2565b517f000000000000000000000000000000000000000000000000000000000000000090615540565b6005831115614755576146d0906134ed6146a884611af2565b517f000000000000000000000000000000000000000000000000000000000000000090615540565b6006831115614755576147136007916134ed6146eb85611b02565b517f000000000000000000000000000000000000000000000000000000000000000090615540565b921161471d575090565b906134ed61472d61037493611b12565b517f000000000000000000000000000000000000000000000000000000000000000090615540565b91505090565b600854906001600160c01b03906147729083613be5565b16906001600160401b0360c01b1617600855565b7f0000000000000000000000000000000000000000000000000000000000000000906040516020810190838252631c74c91760e11b6040820152602481526147cf604482610b39565b51902081149182156147e057505090565b909150604051602081019182526350dd6ed960e01b604082015260248152614809604482610b39565b5190201490565b5190600482101561031d57565b909294938051810160608282031261031d5761483b60208301614810565b5060408201516001600160401b03811161031d57614866606091602080614877950191860101612007565b920151936120f383518551906129ed565b60085460c01c677fffffffffffffff16946148928251611a58565b936000976000985b85518a101561490f576149076001916148d68c6130f16148cf6148bd838d611b23565b516148c8848d611b23565b5190613d08565b918b611b23565b6148e08d8b611b23565b526149018c6148fa6148f2828d611b23565b51918d611b23565b51906143de565b9061299a565b99019861489a565b849950612a6d9661342c94999295613457949961492b98615fd8565b91821115612775565b909160408180518101031261031d57604081614955602061495f9401614810565b5001519283613d85565b9061496a8151611a58565b9360005b8251811015612eb0578061498885612e9960019487611b23565b6149928289611b23565b520161496e565b909392919360608380518101031261031d576149b760208401614810565b5060606040840151930151948251861015614a7557614a6284614901614a699361342c614a5c614a55614a4f614a49614a709a8f613457614a2c8f83614a036134ed95614a0a93611b23565b5195611b23565b5199611ffd614a25677fffffffffffffff60085460c01c1690565b9d82613d08565b614a406709b6e64a8ec60000821015612783565b6134218a613d64565b94614349565b846143de565b8093613d08565b93614349565b9251611a58565b9485611b23565b529190565b612c48565b9093959195949294808410159360005b8651811015614af0576001908615614acc57614abb614aa9828a611b23565b51614ab4838d611b23565b519061299a565b614ac5828a611b23565b5201614a8a565b614aeb614ad9828a611b23565b51614ae4838d611b23565b5190614b56565b614abb565b509350939094614b01929650613581565b91614b0a611d3a565b6008549093906001600160c01b03614b228383613be5565b16906001600160401b0360c01b16176008558315614b4c5761037494614b4791613d85565b6155ae565b5050505050600090565b90818111614b6a57810390811161089e5790565b6001612d3e565b80670de0b6b3a764000010801590614bc4575b614bbd57614b9a90670de0b6b3a7640000613d85565b670de0b6b3a76400000390670de0b6b3a7640000821161089e5761037491613e2f565b5050600090565b508115614b84565b808210801590614bec575b614be457614b9a91613d85565b505050600090565b508215614bd7565b614bfe8282613d3b565b918115918215614c13575b505015613e0d5790565b9091613e2a578204143880614c09565b5190600582101561031d57565b60208180518101031261031d5760206103749101614c23565b909160408180518101031261031d57604081614c6a6020614c749401614c23565b500151928361404a565b90614c7f8151611a58565b9360005b8251811015612eb05780614ca385614c9d60019487611b23565b516143de565b614cad8289611b23565b5201614c83565b909392919360608380518101031261031d57614cd260208401614c23565b5060606040840151930151948251861015614a7557614a6284614901614a6993613415614a5c614a55614a4f614a49614a709a8f613427614d408f83614a0361342c95614d1e93611b23565b5199611ffd614d39677fffffffffffffff60085460c01c1690565b9d8261299a565b614d546729a2241af62c0000821115612792565b6134218a614026565b909294938051810160608282031261031d57614d7b60208301614c23565b5060408201516001600160401b03811161031d57614da6606091602080614db7950191860101612007565b920151936120f384518451906129ed565b60085460c01c677fffffffffffffff1694614dd28251611a58565b936000976000985b85518a1015614e2c57614e24600191614e088c612aaa6148cf614dfd838d611b23565b51614ab4848d611b23565b614e128d8b611b23565b526149018c612df56148f2828d611b23565b990198614dda565b92979398509490958890614e3f95616098565b670de0b6b3a7640000811115614e6957612a6d916134ed614e5f92613cde565b915b8210156127a1565b5050612a6d600091614e61565b90670de0b6b3a76400008103614e8a575090565b671bc16d674ec800008103614ea4575080610374916143de565b673782dace9d9000008103614ec75750614ec181610374926143de565b806143de565b614ed4906103749261543d565b61490161447a82614375565b9068056bc75e2d630fffff19820191821360011661089e57565b906ec097ce7bc90715b34b9f0fffffffff19820191821360011661089e57565b906803782dace9d8ffffff19820191821360011661089e57565b906806f05b59d3b1ffffff19820191821360011661089e57565b9068ad78ebc5ac61ffffff19820191821360011661089e57565b906856bc75e2d630ffffff19820191821360011661089e57565b90682b5e3af16b187fffff19820191821360011661089e57565b906815af1d78b58c3fffff19820191821360011661089e57565b90680ad78ebc5ac61fffff19820191821360011661089e57565b906802b5e3af16b187ffff19820191821360011661089e57565b9068015af1d78b58c3ffff19820191821360011661089e57565b906803782dace9d900000082019160006803782dace9d90000008412911290801582169115161761089e57565b9068ad78ebc5ac62000000820191600068ad78ebc5ac620000008412911290801582169115161761089e57565b906856bc75e2d63100000082019160006856bc75e2d6310000008412911290801582169115161761089e57565b90682b5e3af16b188000008201916000682b5e3af16b188000008412911290801582169115161761089e57565b906815af1d78b58c40000082019160006815af1d78b58c4000008412911290801582169115161761089e57565b90680ad78ebc5ac62000008201916000680ad78ebc5ac62000008412911290801582169115161761089e57565b9068056bc75e2d63100000820191600068056bc75e2d631000008412911290801582169115161761089e57565b906802b5e3af16b188000082019160006802b5e3af16b18800008412911290801582169115161761089e57565b9068015af1d78b58c40000820191600068015af1d78b58c400008412911290801582169115161761089e57565b9067ad78ebc5ac620000820191600067ad78ebc5ac6200008412911290801582169115161761089e57565b906756bc75e2d631000082019160006756bc75e2d63100008412911290801582169115161761089e57565b906a0c097ce7bc90715b34b9f160241b82019160006a0c097ce7bc90715b34b9f160241b8412911290801582169115161761089e57565b908168056bc75e2d631000000191821260011661089e57565b9190916000838201938412911290801582169115161761089e57565b9060648202918083056064149015171561089e57565b9068056bc75e2d6310000082029180830568056bc75e2d63100000149015171561089e57565b908160011b918083056002149015171561089e57565b906a0c097ce7bc90715b34b9f160241b8202918083056a0c097ce7bc90715b34b9f160241b149015171561089e57565b906b02df0ab5a80a22c61ab5a7008202918083056b02df0ab5a80a22c61ab5a700149015171561089e57565b90693f1fce3da636ea5cf850820291808305693f1fce3da636ea5cf850149015171561089e57565b90690127fa27722cc06cc5e2820291808305690127fa27722cc06cc5e2149015171561089e57565b9068280e60114edb805d0382029180830568280e60114edb805d03149015171561089e57565b90680ebc5fb41746121110820291808305680ebc5fb41746121110149015171561089e57565b906808f00f760a4b2db55d8202918083056808f00f760a4b2db55d149015171561089e57565b906806f5f17757889379378202918083056806f5f1775788937937149015171561089e57565b818102929160008212600160ff1b82141661089e57818405149015171561089e57565b670de0b6b3a7640000900590565b8115613e2a57600160ff1b811460001983141661089e570590565b908015615532578115614bbd57816154e09161546561545f6103749560ff1c90565b156127af565b615488770bce5086492111aea88f4bb1ca6bcf584181ea8059f7653282106127bd565b81670c7d713b49da00001280615521575b15615515576154da6154146154b061541494615a3b565b926154c66154cb82670de0b6b3a7640000870583565b6153f1565b94670de0b6b3a7640000900790565b9061523f565b80680238fd42c5cf03ffff19131580615502575b6154fd906127cb565b615bc9565b5068070c1cc73b00c800008113156154f4565b6154c6615414926155dd565b50670f43fc2c04ee00008212615499565b5050670de0b6b3a764000090565b6001600160a01b03909116908161555f575050670de0b6b3a764000090565b6020600492604051938480926333cd77e760e11b82525afa801561065b576103749260009161558f575b50614414565b6155a8915060203d602011610654576106468183610b39565b38615589565b92610374936155c06155c69385613d85565b90614bcc565b90613f74565b600160ff1b811461089e5760000390565b670de0b6b3a76400008112615a12576157d76103749160007e1600ef3172e58d2e933ec884fde10064c63b5372d805e203c00000000000008212156159e7575b73011798004d755d3c8bc8e03204cf44619e00000082121561598d575b6157d26154da6154da6157cb6157626157a56157c56157bb61576261574c61566d6156676154da9c61525b565b9c61525b565b6e01855144814a7ff805980ff008400081121561595d575b6b02df0ab5a80a22c61ab5a700811215615930575b693f1fce3da636ea5cf850811215615905575b690127fa27722cc06cc5e28112156158da575b68280e60114edb805d038112156158b0575b680ebc5fb41746121110811215615886575b6808f00f760a4b2db55d81121561585c575b6806f5f1775788937937811215615832575b6806248f33704b286603811215615808575b6805c548670b9510e7ac8112156157de575b61574661574061573b83614ee0565b615271565b91615112565b90615422565b6157b56157ab61576261577161576285806153f1565b68056bc75e2d63100000900590565b80988561579c6157628461579661578c61576283809d6153f1565b94600386056154da565b936153f1565b9e8f6005900590565b9c6153f1565b9960078b056154da565b986153f1565b95600987056154da565b946153f1565b600b900590565b615297565b6064900590565b6157fc6157ed61580292615271565b6805c548670b9510e7ac900590565b9c6151c4565b9b61572c565b61582661581761582c92615271565b6806248f33704b286603900590565b9c615199565b9b61571a565b61585061584161585692615271565b6806f5f1775788937937900590565b9c61516c565b9b615708565b61587a61586b61588092615271565b6808f00f760a4b2db55d900590565b9c61513f565b9b6156f6565b6158a46158956158aa92615271565b680ebc5fb41746121110900590565b9c615112565b9b6156e4565b6158ce6158bf6158d492615271565b68280e60114edb805d03900590565b9c6150e5565b9b6156d2565b6158f96158e96158ff92615271565b690127fa27722cc06cc5e2900590565b9c6150b8565b9b6156c0565b61592461591461592a92615271565b693f1fce3da636ea5cf850900590565b9c61508b565b9b6156ad565b61595161593f61595792615271565b6b02df0ab5a80a22c61ab5a700900590565b9c61505e565b9b61569a565b61598161596c61598792615271565b6e01855144814a7ff805980ff0084000900590565b9c615031565b9b615685565b906157d26154da6154da6157cb6157626157a56157c56157bb61576261574c61566d6156676159d46159ce6154da9e6b1425982cf597cd205cef7380900590565b9e615004565b9c5050505050505050505050505061563a565b50770195e54c5dd42177f53a27172fa9ec63026282700000000090056806f05b59d3b200000061561d565b615a2d615a32916a0c097ce7bc90715b34b9f160241b615422565b6155dd565b610374906155cc565b670de0b6b3a7640000810290808205670de0b6b3a7640000149015171561089e57615a6581614efa565b615a6e906152ad565b90615a78906151ef565b615a8191615422565b615a8b81806153f1565b6a0c097ce7bc90715b34b9f160241b90058080808085615aac8280986153f1565b6a0c097ce7bc90715b34b9f160241b90059060038205615acb9161523f565b91615ad5916153f1565b6a0c097ce7bc90715b34b9f160241b90059060058205615af49161523f565b91615afe916153f1565b6a0c097ce7bc90715b34b9f160241b90059060078205615b1d9161523f565b91615b27916153f1565b6a0c097ce7bc90715b34b9f160241b90059060098205615b469161523f565b91615b50916153f1565b6a0c097ce7bc90715b34b9f160241b900590600b8205615b6f9161523f565b91615b79916153f1565b6a0c097ce7bc90715b34b9f160241b900590600d8205615b989161523f565b91615ba2916153f1565b6a0c097ce7bc90715b34b9f160241b9005600f9005615bc09161523f565b61037490615297565b680238fd42c5cf03ffff1981121580615fc5575b615be6906127d9565b60008112615fa1576806f05b59d3b20000008112615f6757615c0790614f34565b615c29770195e54c5dd42177f53a27172fa9ec6302628270000000009161525b565b68056bc75e2d631000009068ad78ebc5ac62000000811215615f47575b6856bc75e2d631000000811215615f2c575b682b5e3af16b18800000811215615f11575b6815af1d78b58c400000811215615ef6575b680ad78ebc5ac6200000811215615edb575b68056bc75e2d63100000811215615ec0575b6802b5e3af16b1880000811215615ea5575b68015af1d78b58c40000811215615e8a575b808080808080808080615cd681615226565b615ce082806153f1565b68056bc75e2d631000009005600290059081615cfb9161523f565b91615d05916153f1565b68056bc75e2d631000009005600390059081615d209161523f565b91615d2a916153f1565b68056bc75e2d631000009005600490059081615d459161523f565b91615d4f916153f1565b68056bc75e2d631000009005600590059081615d6a9161523f565b91615d74916153f1565b68056bc75e2d631000009005600690059081615d8f9161523f565b91615d99916153f1565b68056bc75e2d631000009005600790059081615db49161523f565b91615dbe916153f1565b68056bc75e2d631000009005600890059081615dd99161523f565b91615de3916153f1565b68056bc75e2d631000009005600990059081615dfe9161523f565b91615e08916153f1565b68056bc75e2d631000009005600a90059081615e239161523f565b91615e2d916153f1565b68056bc75e2d631000009005600b90059081615e489161523f565b91615e52916153f1565b68056bc75e2d631000009005600c9005615e6b9161523f565b615e74916153f1565b68056bc75e2d631000009005906157d7916153f1565b615762615e99615e9f92614fea565b926153cb565b90615cc4565b615762615eb4615eba92614fd0565b926153a5565b90615cb2565b615762615ecf615ed592614ee0565b9261537f565b90615ca0565b615762615eea615ef092614fb6565b92615359565b90615c8e565b615762615f05615f0b92614f9c565b92615331565b90615c7c565b615762615f20615f2692614f82565b92615309565b90615c6a565b615762615f3b615f4192614f68565b926152dd565b90615c58565b615f519150614f4e565b6e01855144814a7ff805980ff008400090615c46565b6803782dace9d90000008112615f9657615f8090614f1a565b615c296b1425982cf597cd205cef73809161525b565b615c2960019161525b565b615fbc6154fd6a0c097ce7bc90715b34b9f160241b926155cc565b61037491615422565b5068070c1cc73b00c80000811315615bdd565b929594919093670de0b6b3a7640000966000975b855189101561608e576160736001916134ed6160698c612aaa6160628c616056848e818f8f8f61601d848992611b23565b5182111561607b57613f816149019361605661604e61605c98956134ed6160478a61341598611b23565b5191614349565b968792611b23565b51613d08565b92611b23565b918c611b23565b6135b68d8c611b23565b980197615fec565b50506160879250611b23565b5192611b23565b9750505050505050565b929594919093670de0b6b3a7640000966000975b855189101561608e5761611b6001916134ed6160698c612aaa6160628c616115848e818f8f8f816160de858a93611b23565b51111561607b5761610e6149019361605661604e61605c98956134ed6161078a61347f98611b23565b5191613cde565b91826143de565b5161299a565b9801976160ac565b634e487b7160e01b600052605160045260246000fd5b919091806001146161545760020361612357610489916130b8565b5061048991612a71565b94505050509294939150806004146161aa5760030361612357612a5a90616183612eb9565b9461619c6161918786613bfb565b939080938988613f9c565b8195612a548299938561299a565b50612a5a90612a2d612eb956feddf252ad1be2c89b69c2b068fc378daa952ba7f163c4a11628f55a4df523b3efa264697066735822122087fcb62ceb47c6c0734c1c75c6a0da0d96c47ba0f04c461882a510ae2035c15e64736f6c634300081c00336bfb689528fa96ec1ad670ad6d6064be1ae96bfd5d2ee35c837fd0fe0c11959a",
  "linkReferences": {},
  "deployedLinkReferences": {}
}