{
  "_format": "hh-sol-artifact-1",
  "contractName": "ProtocolFeePercentagesProvider",
  "sourceName": "contracts/dexPool/balancer-v2/contracts/ProtocolFeePercentagesProvider.sol",
  "abi": [
    {
      "inputs": [
        {
          "internalType": "contract IVault",
          "name": "vault",
          "type": "address"
        },
        {
          "internalType": "uint256",
          "name": "maxYieldValue",
          "type": "uint256"
        },
        {
          "internalType": "uint256",
          "name": "maxAUMValue",
          "type": "uint256"
        }
      ],
      "stateMutability": "nonpayable",
      "type": "constructor"
    },
    {
      "anonymous": false,
      "inputs": [
        {
          "indexed": true,
          "internalType": "uint256",
          "name": "feeType",
          "type": "uint256"
        },
        {
          "indexed": false,
          "internalType": "uint256",
          "name": "percentage",
          "type": "uint256"
        }
      ],
      "name": "ProtocolFeePercentageChanged",
      "type": "event"
    },
    {
      "anonymous": false,
      "inputs": [
        {
          "indexed": true,
          "internalType": "uint256",
          "name": "feeType",
          "type": "uint256"
        },
        {
          "indexed": false,
          "internalType": "string",
          "name": "name",
          "type": "string"
        },
        {
          "indexed": false,
          "internalType": "uint256",
          "name": "maximumPercentage",
          "type": "uint256"
        }
      ],
      "name": "ProtocolFeeTypeRegistered",
      "type": "event"
    },
    {
      "inputs": [
        {
          "internalType": "bytes4",
          "name": "selector",
          "type": "bytes4"
        }
      ],
      "name": "getActionId",
      "outputs": [
        {
          "internalType": "bytes32",
          "name": "",
          "type": "bytes32"
        }
      ],
      "stateMutability": "view",
      "type": "function"
    },
    {
      "inputs": [],
      "name": "getAuthorizer",
      "outputs": [
        {
          "internalType": "contract IAuthorizer",
          "name": "",
          "type": "address"
        }
      ],
      "stateMutability": "view",
      "type": "function"
    },
    {
      "inputs": [
        {
          "internalType": "uint256",
          "name": "feeType",
          "type": "uint256"
        }
      ],
      "name": "getFeeTypeMaximumPercentage",
      "outputs": [
        {
          "internalType": "uint256",
          "name": "",
          "type": "uint256"
        }
      ],
      "stateMutability": "view",
      "type": "function"
    },
    {
      "inputs": [
        {
          "internalType": "uint256",
          "name": "feeType",
          "type": "uint256"
        }
      ],
      "name": "getFeeTypeName",
      "outputs": [
        {
          "internalType": "string",
          "name": "",
          "type": "string"
        }
      ],
      "stateMutability": "view",
      "type": "function"
    },
    {
      "inputs": [
        {
          "internalType": "uint256",
          "name": "feeType",
          "type": "uint256"
        }
      ],
      "name": "getFeeTypePercentage",
      "outputs": [
        {
          "internalType": "uint256",
          "name": "",
          "type": "uint256"
        }
      ],
      "stateMutability": "view",
      "type": "function"
    },
    {
      "inputs": [],
      "name": "getVault",
      "outputs": [
        {
          "internalType": "contract IVault",
          "name": "",
          "type": "address"
        }
      ],
      "stateMutability": "view",
      "type": "function"
    },
    {
      "inputs": [
        {
          "internalType": "uint256",
          "name": "feeType",
          "type": "uint256"
        }
      ],
      "name": "isValidFeeType",
      "outputs": [
        {
          "internalType": "bool",
          "name": "",
          "type": "bool"
        }
      ],
      "stateMutability": "view",
      "type": "function"
    },
    {
      "inputs": [
        {
          "internalType": "uint256",
          "name": "feeType",
          "type": "uint256"
        },
        {
          "internalType": "uint256",
          "name": "value",
          "type": "uint256"
        }
      ],
      "name": "isValidFeeTypePercentage",
      "outputs": [
        {
          "internalType": "bool",
          "name": "",
          "type": "bool"
        }
      ],
      "stateMutability": "view",
      "type": "function"
    },
    {
      "inputs": [
        {
          "internalType": "uint256",
          "name": "feeType",
          "type": "uint256"
        },
        {
          "internalType": "string",
          "name": "name",
          "type": "string"
        },
        {
          "internalType": "uint256",
          "name": "maximumValue",
          "type": "uint256"
        },
        {
          "internalType": "uint256",
          "name": "initialValue",
          "type": "uint256"
        }
      ],
      "name": "registerFeeType",
      "outputs": [],
      "stateMutability": "nonpayable",
      "type": "function"
    },
    {
      "inputs": [
        {
          "internalType": "uint256",
          "name": "feeType",
          "type": "uint256"
        },
        {
          "internalType": "uint256",
          "name": "newValue",
          "type": "uint256"
        }
      ],
      "name": "setFeeTypePercentage",
      "outputs": [],
      "stateMutability": "nonpayable",
      "type": "function"
    }
  ],
  "bytecode": "0x60e0604052346100875760606116a0803803809161001c826100a2565b60e039126100875761004160e05161003381610101565b6101005161012051916102ca565b604051610e8690816107da823960805181610a1e015260a0518181816104910152610a77015260c05181818161015301528181610207015281816106b001526107330152f35b600080fd5b634e487b7160e01b600052604160045260246000fd5b60e0601f91909101601f19168101906001600160401b038211908210176100c857604052565b61008c565b601f909101601f19168101906001600160401b038211908210176100c857604052565b604051906100ff6080836100cd565b565b6001600160a01b0381160361008757565b90816020910312610087575161012781610101565b90565b6040513d6000823e3d90fd5b604051906101456040836100cd565b6005825264165a595b1960da1b6020830152565b604051906101686040836100cd565b601782527f41737365747320556e646572204d616e6167656d656e740000000000000000006020830152565b90600182811c921680156101c4575b60208310146101ae57565b634e487b7160e01b600052602260045260246000fd5b91607f16916101a3565b8181106101d9575050565b600081556001016101ce565b9190601f81116101f457505050565b6100ff926000526020600020906020601f840160051c83019310610220575b601f0160051c01906101ce565b9091508190610213565b6102348154610194565b601f811161024d575b506008630537761760e41b019055565b6102699082600052601f6020600020910160051c8101906101ce565b3861023d565b6102798154610194565b601f81116102a8575b507f466c617368204c6f616e000000000000000000000000000000000000000000149055565b6102c49082600052601f6020600020910160051c8101906101ce565b38610282565b3060805260a081905260405163d2946c2b60e01b815291929190602090829060049082906001600160a01b03165afa9283156104345761032e9361032192600091610405575b5060c05261031c610136565b6105f4565b610329610159565b610717565b600080805260205261036e7fad3228b676f7d3cd4284a5443f17f1962b36e491b30a40b2405849e597ba5fb55b805460ff60801b1916600160801b179055565b600080805260205261039f7fad3228b676f7d3cd4284a5443f17f1962b36e491b30a40b2405849e597ba5fb661022a565b600160009081526020526103d27fada5013122d395ba3c54772283fb069b10426056ef8ca54750cb9bb552a59e7d61035b565b600160009081526020526100ff7fada5013122d395ba3c54772283fb069b10426056ef8ca54750cb9bb552a59e7e61026f565b610427915060203d60201161042d575b61041f81836100cd565b810190610112565b38610310565b503d610415565b61012a565b1561044057565b60405162461bcd60e51b815260206004820152601a60248201527f496e76616c696420696e697469616c2070657263656e746167650000000000006044820152606490fd5b8151815460208401516040808601516001600160881b03199093166001600160401b039485161791901b6fffffffffffffffff0000000000000000161790151560801b60ff60801b16178255606090920151805190939260019092019181116100c8576104fc816104f68454610194565b846101e5565b6020601f821160011461053d57819061052e939495600092610532575b50508160011b916000199060031b1c19161790565b9055565b015190503880610519565b601f1982169061055284600052602060002090565b9160005b81811061058e57509583600195969710610575575b505050811b019055565b015160001960f88460031b161c1916905538808061056b565b9192602060018192868b015181550194019201610556565b9291906040845280519081604086015260005b8281106105de57505060608160008260209488010152601f8019910116850101930152565b80602080928401015160608289010152016105b9565b81151580610705575b156106c0576002916000805160206116808339815191529161061f6001610439565b61068961062b83610796565b6106636106386000610796565b916106536106446100f0565b6001600160401b039094168452565b6001600160401b03166020830152565b60016040820152826060820152610684866000526000602052604060002090565b610485565b610698604051928392836105a6565b0390a2604051600081526002906000805160206116608339815191529080602081015b0390a2565b60405162461bcd60e51b815260206004820152601e60248201527f496e76616c6964206d6178696d756d206665652070657263656e7461676500006044820152606490fd5b50670de0b6b3a76400008211156105fd565b81151580610784575b156106c057600391600080516020611680833981519152916107426001610439565b61074e61062b83610796565b61075d604051928392836105a6565b0390a2604051600081526003906000805160206116608339815191529080602081016106bb565b50670de0b6b3a7640000821115610720565b6001600160401b0381116107b0576001600160401b031690565b62461bcd60e51b600090815260206004526007602452662120a6119a1a1960c91b604452606490fdfe6080604052600436101561001257600080fd5b60003560e01c80631a7c3263146100b75780634d44f0e9146100b25780635e2cae4c146100ad5780637268d6ce146100a857806374735e0b146100a3578063851c1bb31461009e578063868897a0146100995780638d928af814610094578063aaabadc51461008f5763b661eda11461008a57600080fd5b610542565b6104c0565b61047b565b61043c565b61040c565b6103e1565b610353565b6102e8565b6100fe565b346100f95760203660031901126100f95760206100f160043580600052600083526100ec60ff60406000205460801c16610636565b610695565b604051908152f35b600080fd5b346100f95760403660031901126100f95760043560243581600052600060205261013260ff60406000205460801c16610636565b61013a610b33565b61014c61014782846109e9565b6107a2565b816101fd577f00000000000000000000000000000000000000000000000000000000000000006001600160a01b031690813b156100f957604051631c74c91760e11b815260048101829052916000908390602490829084905af19081156101f857600080516020610e31833981519152926101d8926101dd575b505b6040519081529081906020820190565b0390a2005b806101ec60006101f29361031c565b80610470565b386101c6565b610689565b60018203610295577f00000000000000000000000000000000000000000000000000000000000000006001600160a01b031690813b156100f957604051636b6b9f6960e01b815260048101829052916000908390602490829084905af19081156101f857600080516020610e31833981519152926101d892610280575b506101c8565b806101ec600061028f9361031c565b3861027a565b6101d8816102e36102b4600080516020610e3183398151915294610bd8565b6102c8866000526000602052604060002090565b906001600160401b03166001600160401b0319825416179055565b6101c8565b346100f95760203660031901126100f95760206100f16004356107e7565b634e487b7160e01b600052604160045260246000fd5b90601f801991011681019081106001600160401b0382111761033d57604052565b610306565b6040519061035160808361031c565b565b346100f95760803660031901126100f9576024356004356001600160401b0382116100f957366023830112156100f95781600401356001600160401b03811161033d57604051906103ae601f8201601f19166020018361031c565b80825236602482860101116100f95760208160009260246103df97018386013783010152604435906064359261084b565b005b346100f95760403660031901126100f95760206104026024356004356109e9565b6040519015158152f35b346100f95760203660031901126100f9576004356001600160e01b0319811681036100f9576100f1602091610a14565b346100f95760203660031901126100f9576004356000526000602052602060ff60406000205460801c166040519015158152f35b60009103126100f957565b346100f95760003660031901126100f9576040517f00000000000000000000000000000000000000000000000000000000000000006001600160a01b03168152602090f35b346100f95760003660031901126100f95760206104db610a62565b6040516001600160a01b039091168152f35b919082519283825260005b848110610519575050826000602080949584010152601f8019910116010190565b806020809284010151828286010152016104f8565b90602061053f9281815201906104ed565b90565b346100f95760203660031901126100f95760043580600052600060205261057360ff60406000205460801c16610636565b600052600060205260016040600020016040519060009080549061059682610af9565b808552916001811690811561060f57506001146105ce575b6105ca846105be8186038261031c565b6040519182918261052e565b0390f35b600090815260208120939250905b8082106105f5575090915081016020016105be826105ae565b9192600181602092548385880101520191019092916105dc565b60ff191660208087019190915292151560051b850190920192506105be91508390506105ae565b1561063d57565b60405162461bcd60e51b81526020600482015260156024820152744e6f6e2d6578697374656e7420666565207479706560581b6044820152606490fd5b908160209103126100f9575190565b6040513d6000823e3d90fd5b806107155750604051630ab8cec560e31b81526020816004817f00000000000000000000000000000000000000000000000000000000000000006001600160a01b03165afa9081156101f8576000916106ec575090565b61053f915060203d60201161070e575b610706818361031c565b81019061067a565b503d6106fc565b6001810361076f575060405163361de11760e21b81526020816004817f00000000000000000000000000000000000000000000000000000000000000006001600160a01b03165afa9081156101f8576000916106ec575090565b61079661078961053f926000526000602052604060002090565b546001600160401b031690565b6001600160401b031690565b156107a957565b60405162461bcd60e51b8152602060048201526016602482015275496e76616c6964206665652070657263656e7461676560501b6044820152606490fd5b61053f9080600052600060205261080860ff60406000205460801c16610636565b8061081a57506706f05b59d3b2000090565b6001810361082e5750662386f26fc1000090565b60005260006020526001600160401b0360406000205460401c1690565b92610854610b33565b83600052600060205260ff60406000205460801c166109a45782151580610992575b1561094d57837fe07086969b318280a21b104288d59a9c26c15ccdc203744dfe88e76b56810a7684610948946108bd600080516020610e3183398151915297861115610c1b565b6109266108c983610bd8565b6109006108d588610bd8565b916108f06108e1610342565b6001600160401b039094168452565b6001600160401b03166020830152565b60016040820152826060820152610921866000526000602052604060002090565b610cb9565b61093560405192839283610de4565b0390a26040519081529081906020820190565b0390a2565b60405162461bcd60e51b815260206004820152601e60248201527f496e76616c6964206d6178696d756d206665652070657263656e7461676500006044820152606490fd5b50670de0b6b3a7640000831115610876565b60405162461bcd60e51b815260206004820152601b60248201527f466565207479706520616c7265616479207265676973746572656400000000006044820152606490fd5b610a0f90806000526000602052610a0a60ff60406000205460801c16610636565b6107e7565b101590565b60405160208101917f0000000000000000000000000000000000000000000000000000000000000000835263ffffffff60e01b16604082015260248152610a5c60448261031c565b51902090565b60405163aaabadc560e01b81526020816004817f00000000000000000000000000000000000000000000000000000000000000006001600160a01b03165afa9081156101f857600091610ab3575090565b6020813d602011610af1575b81610acc6020938361031c565b81010312610aed5751906001600160a01b0382168203610aea575090565b80fd5b5080fd5b3d9150610abf565b90600182811c92168015610b29575b6020831014610b1357565b634e487b7160e01b600052602260045260246000fd5b91607f1691610b08565b610b486000356001600160e01b031916610a14565b60206001600160a01b03610b5a610a62565b16916064604051809481936326f8aa2160e21b835260048301523360248301523060448301525afa9081156101f857600091610b9b575b5061035190610e00565b6020813d602011610bd0575b81610bb46020938361031c565b81010312610aed5751908115158203610aea5750610351610b91565b3d9150610ba7565b6001600160401b038111610bf2576001600160401b031690565b62461bcd60e51b600090815260206004526007602452662120a6119a1a1960c91b604452606490fd5b15610c2257565b60405162461bcd60e51b815260206004820152601a60248201527f496e76616c696420696e697469616c2070657263656e746167650000000000006044820152606490fd5b601f8211610c7457505050565b6000526020600020906020601f840160051c83019310610caf575b601f0160051c01905b818110610ca3575050565b60008155600101610c98565b9091508190610c8f565b81518154602084015160408086015170ffffffffffffffffffffffffffffffffff199093166001600160401b039485161791901b6fffffffffffffffff0000000000000000161790151560801b60ff60801b161782556060909201518051909392600190920191811161033d57610d3a81610d348454610af9565b84610c67565b6020601f8211600114610d7b578190610d6c939495600092610d70575b50508160011b916000199060031b1c19161790565b9055565b015190503880610d57565b601f19821690610d9084600052602060002090565b9160005b818110610dcc57509583600195969710610db3575b505050811b019055565b015160001960f88460031b161c19169055388080610da9565b9192602060018192868b015181550194019201610d94565b929190610dfb6020916040865260408601906104ed565b930152565b15610e0757565b62461bcd60e51b6000908152602060045260076024526642414c2334303160c81b604452606490fdfe34cd0fbe9e7d58e0835610336eda810722864e47a9b1f5dc5c8f976c13c384d3a2646970667358221220550ab35bd664a532ca0ca2568fcabd22b368cd8452efd915c5582276903b9cd364736f6c634300081c003334cd0fbe9e7d58e0835610336eda810722864e47a9b1f5dc5c8f976c13c384d3e07086969b318280a21b104288d59a9c26c15ccdc203744dfe88e76b56810a76",
  "linkReferences": {},
  "deployedLinkReferences": {}
}