{
  "_format": "hh-sol-artifact-1",
  "contractName": "TestKuru",
  "sourceName": "contracts/testingKuru/TestKuru.sol",
  "abi": [
    {
      "inputs": [
        {
          "internalType": "address",
          "name": "kuruRouterAddress_",
          "type": "address"
        },
        {
          "internalType": "address",
          "name": "pairToken_",
          "type": "address"
        },
        {
          "internalType": "address",
          "name": "lpOwner_",
          "type": "address"
        }
      ],
      "stateMutability": "nonpayable",
      "type": "constructor"
    },
    {
      "inputs": [
        {
          "internalType": "address",
          "name": "spender",
          "type": "address"
        },
        {
          "internalType": "uint256",
          "name": "allowance",
          "type": "uint256"
        },
        {
          "internalType": "uint256",
          "name": "needed",
          "type": "uint256"
        }
      ],
      "name": "ERC20InsufficientAllowance",
      "type": "error"
    },
    {
      "inputs": [
        {
          "internalType": "address",
          "name": "sender",
          "type": "address"
        },
        {
          "internalType": "uint256",
          "name": "balance",
          "type": "uint256"
        },
        {
          "internalType": "uint256",
          "name": "needed",
          "type": "uint256"
        }
      ],
      "name": "ERC20InsufficientBalance",
      "type": "error"
    },
    {
      "inputs": [
        {
          "internalType": "address",
          "name": "approver",
          "type": "address"
        }
      ],
      "name": "ERC20InvalidApprover",
      "type": "error"
    },
    {
      "inputs": [
        {
          "internalType": "address",
          "name": "receiver",
          "type": "address"
        }
      ],
      "name": "ERC20InvalidReceiver",
      "type": "error"
    },
    {
      "inputs": [
        {
          "internalType": "address",
          "name": "sender",
          "type": "address"
        }
      ],
      "name": "ERC20InvalidSender",
      "type": "error"
    },
    {
      "inputs": [
        {
          "internalType": "address",
          "name": "spender",
          "type": "address"
        }
      ],
      "name": "ERC20InvalidSpender",
      "type": "error"
    },
    {
      "anonymous": false,
      "inputs": [
        {
          "indexed": true,
          "internalType": "address",
          "name": "owner",
          "type": "address"
        },
        {
          "indexed": true,
          "internalType": "address",
          "name": "spender",
          "type": "address"
        },
        {
          "indexed": false,
          "internalType": "uint256",
          "name": "value",
          "type": "uint256"
        }
      ],
      "name": "Approval",
      "type": "event"
    },
    {
      "anonymous": false,
      "inputs": [
        {
          "indexed": true,
          "internalType": "address",
          "name": "from",
          "type": "address"
        },
        {
          "indexed": true,
          "internalType": "address",
          "name": "to",
          "type": "address"
        },
        {
          "indexed": false,
          "internalType": "uint256",
          "name": "value",
          "type": "uint256"
        }
      ],
      "name": "Transfer",
      "type": "event"
    },
    {
      "inputs": [],
      "name": "addLiquidity",
      "outputs": [],
      "stateMutability": "nonpayable",
      "type": "function"
    },
    {
      "inputs": [
        {
          "internalType": "address",
          "name": "owner",
          "type": "address"
        },
        {
          "internalType": "address",
          "name": "spender",
          "type": "address"
        }
      ],
      "name": "allowance",
      "outputs": [
        {
          "internalType": "uint256",
          "name": "",
          "type": "uint256"
        }
      ],
      "stateMutability": "view",
      "type": "function"
    },
    {
      "inputs": [
        {
          "internalType": "address",
          "name": "spender",
          "type": "address"
        },
        {
          "internalType": "uint256",
          "name": "value",
          "type": "uint256"
        }
      ],
      "name": "approve",
      "outputs": [
        {
          "internalType": "bool",
          "name": "",
          "type": "bool"
        }
      ],
      "stateMutability": "nonpayable",
      "type": "function"
    },
    {
      "inputs": [
        {
          "internalType": "address",
          "name": "account",
          "type": "address"
        }
      ],
      "name": "balanceOf",
      "outputs": [
        {
          "internalType": "uint256",
          "name": "",
          "type": "uint256"
        }
      ],
      "stateMutability": "view",
      "type": "function"
    },
    {
      "inputs": [],
      "name": "createMarket",
      "outputs": [],
      "stateMutability": "nonpayable",
      "type": "function"
    },
    {
      "inputs": [],
      "name": "decimals",
      "outputs": [
        {
          "internalType": "uint8",
          "name": "",
          "type": "uint8"
        }
      ],
      "stateMutability": "view",
      "type": "function"
    },
    {
      "inputs": [],
      "name": "kuruMarketProxyAddress",
      "outputs": [
        {
          "internalType": "address",
          "name": "",
          "type": "address"
        }
      ],
      "stateMutability": "view",
      "type": "function"
    },
    {
      "inputs": [],
      "name": "kuruRouterAddress",
      "outputs": [
        {
          "internalType": "address",
          "name": "",
          "type": "address"
        }
      ],
      "stateMutability": "view",
      "type": "function"
    },
    {
      "inputs": [],
      "name": "kuruVaultAddress",
      "outputs": [
        {
          "internalType": "address",
          "name": "",
          "type": "address"
        }
      ],
      "stateMutability": "view",
      "type": "function"
    },
    {
      "inputs": [],
      "name": "lpOwner",
      "outputs": [
        {
          "internalType": "address",
          "name": "",
          "type": "address"
        }
      ],
      "stateMutability": "view",
      "type": "function"
    },
    {
      "inputs": [],
      "name": "memeToken",
      "outputs": [
        {
          "internalType": "address",
          "name": "",
          "type": "address"
        }
      ],
      "stateMutability": "view",
      "type": "function"
    },
    {
      "inputs": [],
      "name": "mintTokenToThisContract",
      "outputs": [],
      "stateMutability": "nonpayable",
      "type": "function"
    },
    {
      "inputs": [],
      "name": "name",
      "outputs": [
        {
          "internalType": "string",
          "name": "",
          "type": "string"
        }
      ],
      "stateMutability": "view",
      "type": "function"
    },
    {
      "inputs": [],
      "name": "pairToken",
      "outputs": [
        {
          "internalType": "address",
          "name": "",
          "type": "address"
        }
      ],
      "stateMutability": "view",
      "type": "function"
    },
    {
      "inputs": [],
      "name": "symbol",
      "outputs": [
        {
          "internalType": "string",
          "name": "",
          "type": "string"
        }
      ],
      "stateMutability": "view",
      "type": "function"
    },
    {
      "inputs": [],
      "name": "totalSupply",
      "outputs": [
        {
          "internalType": "uint256",
          "name": "",
          "type": "uint256"
        }
      ],
      "stateMutability": "view",
      "type": "function"
    },
    {
      "inputs": [
        {
          "internalType": "address",
          "name": "to",
          "type": "address"
        },
        {
          "internalType": "uint256",
          "name": "value",
          "type": "uint256"
        }
      ],
      "name": "transfer",
      "outputs": [
        {
          "internalType": "bool",
          "name": "",
          "type": "bool"
        }
      ],
      "stateMutability": "nonpayable",
      "type": "function"
    },
    {
      "inputs": [
        {
          "internalType": "address",
          "name": "from",
          "type": "address"
        },
        {
          "internalType": "address",
          "name": "to",
          "type": "address"
        },
        {
          "internalType": "uint256",
          "name": "value",
          "type": "uint256"
        }
      ],
      "name": "transferFrom",
      "outputs": [
        {
          "internalType": "bool",
          "name": "",
          "type": "bool"
        }
      ],
      "stateMutability": "nonpayable",
      "type": "function"
    }
  ],
  "bytecode": "0x6080604052346103a2576112696060813803918261001c816103a7565b9384928339810103126103a257610032816103cc565b9061004b6040610044602084016103cc565b92016103cc565b9061005660406103a7565b92600984526854455354204b55525560b81b602085015261007760406103a7565b6002815261544b60f01b6020820152845190946001600160401b03821161029f5760035490600182811c92168015610398575b602083101461027f5781601f849311610328575b50602090601f83116001146102c0576000926102b5575b50508160011b916000199060031b1c1916176003555b83516001600160401b03811161029f57600454600181811c91168015610295575b602082101461027f57601f811161021a575b50602094601f82116001146101b3579481929394956000926101a8575b50508160011b916000199060031b1c1916176004555b600580546001600160a01b03199081166001600160a01b03938416179091556006805482163017905560078054821693831693909317909255600a80549092169216919091179055604051610e8890816103e18239f35b01519050388061013b565b601f198216956004600052806000209160005b888110610202575083600195969798106101e9575b505050811b01600455610151565b015160001960f88460031b161c191690553880806101db565b919260206001819286850151815501940192016101c6565b60046000527f8a35acfbc15ff81a39ae7d344fd709f28e8600b4aa8c65c6b64bfe7fe36bd19b601f830160051c81019160208410610275575b601f0160051c01905b818110610269575061011e565b6000815560010161025c565b9091508190610253565b634e487b7160e01b600052602260045260246000fd5b90607f169061010c565b634e487b7160e01b600052604160045260246000fd5b0151905038806100d5565b600360009081528281209350601f198516905b81811061031057509084600195949392106102f7575b505050811b016003556100eb565b015160001960f88460031b161c191690553880806102e9565b929360206001819287860151815501950193016102d3565b60036000529091507fc2575a0e9e593c00f959f8c92f12db2869c3395a3b0502d05e2516446f71f85b601f840160051c8101916020851061038e575b90601f859493920160051c01905b81811061037f57506100be565b60008155849350600101610372565b9091508190610364565b91607f16916100aa565b600080fd5b6040519190601f01601f191682016001600160401b0381118382101761029f57604052565b51906001600160a01b03821682036103a25756fe608080604052600436101561001357600080fd5b60003560e01c90816306fdde0314610be657508063095ea7b314610b6057806309ea7ccb14610b3757806318160ddd14610b1957806323b872dd14610a58578063313ce56714610a3c5780633de35b7914610a1357806344905e62146109ea57806370a08231146109b057806395d89b41146108a8578063972598e71461087f578063a9059cbb1461084e578063ae8e437614610825578063aea0e35f1461060f578063ba65d8cd14610433578063dd62ed3e146103e2578063e8078d94146101135763f444324b146100e557600080fd5b3461010e57600036600319011261010e57600a546040516001600160a01b039091168152602090f35b600080fd5b3461010e57600036600319011261010e57600854604051630445da7b60e51b81529061010090829060049082906001600160a01b03165afa9081156102cc57600091610366575b50600980546001600160a01b0319166001600160a01b03929092169182179055301561035057801561033a57306000526001602052604060002081600052602052604060002060001990558060405160001981527f8c5be1e5ebec7d5bd14f71427d1e84f3dd0314c0f7b2291e5b200ac8c7c3b92560203092a360075460405163095ea7b360e01b815260048101839052600019602482015290602090829060449082906000906001600160a01b03165af180156102cc5761030d575b503060005260006020526024604060002054602060018060a01b0360075416604051938480926370a0823160e01b82523060048301525afa9182156102cc576000926102d8575b50906064602092600060018060a01b03600a5416956040519687958694638dbdbe6d60e01b86526004860152602485015260448401525af180156102cc576102a257005b6102c39060203d6020116102c5575b6102bb8183610d17565b810190610d4f565b005b503d6102b1565b6040513d6000823e3d90fd5b91506020823d602011610305575b816102f360209383610d17565b8101031261010e57905190606461025e565b3d91506102e6565b61032e9060203d602011610333575b6103268183610d17565b810190610d72565b610217565b503d61031c565b634a1406b160e11b600052600060045260246000fd5b63e602df0560e01b600052600060045260246000fd5b9050610100813d82116103da575b816103826101009383610d17565b8101031261010e576103d360e061039883610d5e565b926103a560408201610d8a565b506103b260808201610d8a565b506103bf60a08201610d8a565b506103cc60c08201610d8a565b5001610d8a565b508161015a565b3d9150610374565b3461010e57604036600319011261010e576103fb610ceb565b610403610d01565b6001600160a01b039182166000908152600160209081526040808320949093168252928352819020549051908152f35b3461010e57600036600319011261010e576007546040516370a0823160e01b81523360048201526001600160a01b0390911690602081602481855afa80156102cc576000906105d4575b683635c9adc5dea0000091501061058f5760206000916064604051809481936323b872dd60e01b8352336004840152306024840152683635c9adc5dea0000060448401525af180156102cc57610572575b50301561055c5760025469d3c21bcecceda10000008101809111610546576002556000308152806020526040812069d3c21bcecceda1000000815401905560405169d3c21bcecceda10000008152817fddf252ad1be2c89b69c2b068fc378daa952ba7f163c4a11628f55a4df523b3ef60203093a380f35b634e487b7160e01b600052601160045260246000fd5b63ec442f0560e01b600052600060045260246000fd5b61058a9060203d602011610333576103268183610d17565b6104ce565b60405162461bcd60e51b815260206004820152601f60248201527f496e73756666696369656e74207061697220746f6b656e2062616c616e6365006044820152606490fd5b506020813d602011610607575b816105ee60209383610d17565b8101031261010e57683635c9adc5dea00000905161047d565b3d91506105e1565b3461010e57600036600319011261010e576008546001600160a01b03166107e7576007546040516370a0823160e01b81523060048201526001600160a01b0390911690602081602481855afa80156102cc576000906107ac575b683635c9adc5dea0000091501061076757602060009161016460018060a01b036005541691604051948593849263ce186ec360e01b845282600485015230602485015260448401526402540be40060648401526305f5e1006084840152606460a48401526298968060c484015266038d7ea4c6800060e4840152816101048401528161012484015260646101448401525af19081156102cc5760009161072d575b50600880546001600160a01b0319166001600160a01b0392909216919091179055005b90506020813d60201161075f575b8161074860209383610d17565b8101031261010e5761075990610d5e565b8161070a565b3d915061073b565b60405162461bcd60e51b815260206004820152601960248201527f5061697220746f6b656e2062616c616e6365203c2031303030000000000000006044820152606490fd5b506020813d6020116107df575b816107c660209383610d17565b8101031261010e57683635c9adc5dea000009051610669565b3d91506107b9565b60405162461bcd60e51b815260206004820152601660248201527513585c9ad95d08185b1c9958591e4818dc99585d195960521b6044820152606490fd5b3461010e57600036600319011261010e576009546040516001600160a01b039091168152602090f35b3461010e57604036600319011261010e5761087461086a610ceb565b6024359033610da3565b602060405160018152f35b3461010e57600036600319011261010e576006546040516001600160a01b039091168152602090f35b3461010e57600036600319011261010e5760405160006004548060011c906001811680156109a6575b6020831081146109925782855290811561096e575060011461090e575b61090a836108fe81850382610d17565b60405191829182610ca2565b0390f35b91905060046000527f8a35acfbc15ff81a39ae7d344fd709f28e8600b4aa8c65c6b64bfe7fe36bd19b916000905b808210610954575090915081016020016108fe6108ee565b91926001816020925483858801015201910190929161093c565b60ff191660208086019190915291151560051b840190910191506108fe90506108ee565b634e487b7160e01b84526022600452602484fd5b91607f16916108d1565b3461010e57602036600319011261010e576001600160a01b036109d1610ceb565b1660005260006020526020604060002054604051908152f35b3461010e57600036600319011261010e576008546040516001600160a01b039091168152602090f35b3461010e57600036600319011261010e576007546040516001600160a01b039091168152602090f35b3461010e57600036600319011261010e57602060405160128152f35b3461010e57606036600319011261010e57610a71610ceb565b610a79610d01565b6001600160a01b0382166000818152600160208181526040808420338552909152909120549193604435939290918101610ab9575b506108749350610da3565b838110610afc57841561035057331561033a57610874946000526001602052604060002060018060a01b0333166000526020528360406000209103905584610aae565b8390637dc7a0d960e11b6000523360045260245260445260646000fd5b3461010e57600036600319011261010e576020600254604051908152f35b3461010e57600036600319011261010e576005546040516001600160a01b039091168152602090f35b3461010e57604036600319011261010e57610b79610ceb565b602435903315610350576001600160a01b031690811561033a57336000526001602052604060002082600052602052806040600020556040519081527f8c5be1e5ebec7d5bd14f71427d1e84f3dd0314c0f7b2291e5b200ac8c7c3b92560203392a3602060405160018152f35b3461010e57600036600319011261010e5760006003548060011c90600181168015610c98575b6020831081146109925782855290811561096e5750600114610c385761090a836108fe81850382610d17565b91905060036000527fc2575a0e9e593c00f959f8c92f12db2869c3395a3b0502d05e2516446f71f85b916000905b808210610c7e575090915081016020016108fe6108ee565b919260018160209254838588010152019101909291610c66565b91607f1691610c0c565b91909160208152825180602083015260005b818110610cd5575060409293506000838284010152601f8019910116010190565b8060208092870101516040828601015201610cb4565b600435906001600160a01b038216820361010e57565b602435906001600160a01b038216820361010e57565b90601f8019910116810190811067ffffffffffffffff821117610d3957604052565b634e487b7160e01b600052604160045260246000fd5b9081602091031261010e575190565b51906001600160a01b038216820361010e57565b9081602091031261010e5751801515810361010e5790565b51906bffffffffffffffffffffffff8216820361010e57565b6001600160a01b0316908115610e3c576001600160a01b031691821561055c576000828152806020526040812054828110610e225791604082827fddf252ad1be2c89b69c2b068fc378daa952ba7f163c4a11628f55a4df523b3ef958760209652828652038282205586815280845220818154019055604051908152a3565b916064928463391434e360e21b8452600452602452604452fd5b634b637e8f60e11b600052600060045260246000fdfea264697066735822122099dd0e7de45b0d2c2a74993fcb49a039405d07a8c55e7f1cda3231104cf9614f64736f6c634300081c0033",
  "linkReferences": {},
  "deployedLinkReferences": {}
}