{
  "_format": "hh-sol-artifact-1",
  "contractName": "MyTokenV1",
  "sourceName": "contracts/example/MyTokenV1.sol",
  "abi": [
    {
      "inputs": [
        {
          "internalType": "address",
          "name": "spender",
          "type": "address"
        },
        {
          "internalType": "uint256",
          "name": "allowance",
          "type": "uint256"
        },
        {
          "internalType": "uint256",
          "name": "needed",
          "type": "uint256"
        }
      ],
      "name": "ERC20InsufficientAllowance",
      "type": "error"
    },
    {
      "inputs": [
        {
          "internalType": "address",
          "name": "sender",
          "type": "address"
        },
        {
          "internalType": "uint256",
          "name": "balance",
          "type": "uint256"
        },
        {
          "internalType": "uint256",
          "name": "needed",
          "type": "uint256"
        }
      ],
      "name": "ERC20InsufficientBalance",
      "type": "error"
    },
    {
      "inputs": [
        {
          "internalType": "address",
          "name": "approver",
          "type": "address"
        }
      ],
      "name": "ERC20InvalidApprover",
      "type": "error"
    },
    {
      "inputs": [
        {
          "internalType": "address",
          "name": "receiver",
          "type": "address"
        }
      ],
      "name": "ERC20InvalidReceiver",
      "type": "error"
    },
    {
      "inputs": [
        {
          "internalType": "address",
          "name": "sender",
          "type": "address"
        }
      ],
      "name": "ERC20InvalidSender",
      "type": "error"
    },
    {
      "inputs": [
        {
          "internalType": "address",
          "name": "spender",
          "type": "address"
        }
      ],
      "name": "ERC20InvalidSpender",
      "type": "error"
    },
    {
      "inputs": [],
      "name": "InvalidInitialization",
      "type": "error"
    },
    {
      "inputs": [],
      "name": "NotInitializing",
      "type": "error"
    },
    {
      "inputs": [
        {
          "internalType": "address",
          "name": "owner",
          "type": "address"
        }
      ],
      "name": "OwnableInvalidOwner",
      "type": "error"
    },
    {
      "inputs": [
        {
          "internalType": "address",
          "name": "account",
          "type": "address"
        }
      ],
      "name": "OwnableUnauthorizedAccount",
      "type": "error"
    },
    {
      "anonymous": false,
      "inputs": [
        {
          "indexed": true,
          "internalType": "address",
          "name": "owner",
          "type": "address"
        },
        {
          "indexed": true,
          "internalType": "address",
          "name": "spender",
          "type": "address"
        },
        {
          "indexed": false,
          "internalType": "uint256",
          "name": "value",
          "type": "uint256"
        }
      ],
      "name": "Approval",
      "type": "event"
    },
    {
      "anonymous": false,
      "inputs": [
        {
          "indexed": false,
          "internalType": "uint64",
          "name": "version",
          "type": "uint64"
        }
      ],
      "name": "Initialized",
      "type": "event"
    },
    {
      "anonymous": false,
      "inputs": [
        {
          "indexed": true,
          "internalType": "address",
          "name": "previousOwner",
          "type": "address"
        },
        {
          "indexed": true,
          "internalType": "address",
          "name": "newOwner",
          "type": "address"
        }
      ],
      "name": "OwnershipTransferred",
      "type": "event"
    },
    {
      "anonymous": false,
      "inputs": [
        {
          "indexed": true,
          "internalType": "address",
          "name": "from",
          "type": "address"
        },
        {
          "indexed": true,
          "internalType": "address",
          "name": "to",
          "type": "address"
        },
        {
          "indexed": false,
          "internalType": "uint256",
          "name": "value",
          "type": "uint256"
        }
      ],
      "name": "Transfer",
      "type": "event"
    },
    {
      "inputs": [
        {
          "internalType": "address",
          "name": "owner",
          "type": "address"
        },
        {
          "internalType": "address",
          "name": "spender",
          "type": "address"
        }
      ],
      "name": "allowance",
      "outputs": [
        {
          "internalType": "uint256",
          "name": "",
          "type": "uint256"
        }
      ],
      "stateMutability": "view",
      "type": "function"
    },
    {
      "inputs": [
        {
          "internalType": "address",
          "name": "spender",
          "type": "address"
        },
        {
          "internalType": "uint256",
          "name": "value",
          "type": "uint256"
        }
      ],
      "name": "approve",
      "outputs": [
        {
          "internalType": "bool",
          "name": "",
          "type": "bool"
        }
      ],
      "stateMutability": "nonpayable",
      "type": "function"
    },
    {
      "inputs": [
        {
          "internalType": "address",
          "name": "account",
          "type": "address"
        }
      ],
      "name": "balanceOf",
      "outputs": [
        {
          "internalType": "uint256",
          "name": "",
          "type": "uint256"
        }
      ],
      "stateMutability": "view",
      "type": "function"
    },
    {
      "inputs": [],
      "name": "decimals",
      "outputs": [
        {
          "internalType": "uint8",
          "name": "",
          "type": "uint8"
        }
      ],
      "stateMutability": "view",
      "type": "function"
    },
    {
      "inputs": [
        {
          "internalType": "string",
          "name": "name",
          "type": "string"
        },
        {
          "internalType": "string",
          "name": "symbol",
          "type": "string"
        },
        {
          "internalType": "uint256",
          "name": "initialValue",
          "type": "uint256"
        }
      ],
      "name": "initialize",
      "outputs": [],
      "stateMutability": "nonpayable",
      "type": "function"
    },
    {
      "inputs": [],
      "name": "myValue",
      "outputs": [
        {
          "internalType": "uint256",
          "name": "",
          "type": "uint256"
        }
      ],
      "stateMutability": "view",
      "type": "function"
    },
    {
      "inputs": [],
      "name": "name",
      "outputs": [
        {
          "internalType": "string",
          "name": "",
          "type": "string"
        }
      ],
      "stateMutability": "view",
      "type": "function"
    },
    {
      "inputs": [],
      "name": "owner",
      "outputs": [
        {
          "internalType": "address",
          "name": "",
          "type": "address"
        }
      ],
      "stateMutability": "view",
      "type": "function"
    },
    {
      "inputs": [],
      "name": "renounceOwnership",
      "outputs": [],
      "stateMutability": "nonpayable",
      "type": "function"
    },
    {
      "inputs": [
        {
          "internalType": "uint256",
          "name": "newValue",
          "type": "uint256"
        }
      ],
      "name": "setMyValue",
      "outputs": [],
      "stateMutability": "nonpayable",
      "type": "function"
    },
    {
      "inputs": [],
      "name": "symbol",
      "outputs": [
        {
          "internalType": "string",
          "name": "",
          "type": "string"
        }
      ],
      "stateMutability": "view",
      "type": "function"
    },
    {
      "inputs": [],
      "name": "totalSupply",
      "outputs": [
        {
          "internalType": "uint256",
          "name": "",
          "type": "uint256"
        }
      ],
      "stateMutability": "view",
      "type": "function"
    },
    {
      "inputs": [
        {
          "internalType": "address",
          "name": "to",
          "type": "address"
        },
        {
          "internalType": "uint256",
          "name": "value",
          "type": "uint256"
        }
      ],
      "name": "transfer",
      "outputs": [
        {
          "internalType": "bool",
          "name": "",
          "type": "bool"
        }
      ],
      "stateMutability": "nonpayable",
      "type": "function"
    },
    {
      "inputs": [
        {
          "internalType": "address",
          "name": "from",
          "type": "address"
        },
        {
          "internalType": "address",
          "name": "to",
          "type": "address"
        },
        {
          "internalType": "uint256",
          "name": "value",
          "type": "uint256"
        }
      ],
      "name": "transferFrom",
      "outputs": [
        {
          "internalType": "bool",
          "name": "",
          "type": "bool"
        }
      ],
      "stateMutability": "nonpayable",
      "type": "function"
    },
    {
      "inputs": [
        {
          "internalType": "address",
          "name": "newOwner",
          "type": "address"
        }
      ],
      "name": "transferOwnership",
      "outputs": [],
      "stateMutability": "nonpayable",
      "type": "function"
    }
  ],
  "bytecode": "0x60808060405234601557610f76908161001b8239f35b600080fdfe6080604052600436101561001257600080fd5b60003560e01c806306fdde0314610aca578063095ea7b314610a4957806318160ddd14610a0c5780631cbd2f65146109eb57806323b872dd14610908578063313ce567146108ec57806347f1aae7146108ce57806370a0823114610887578063715018a61461081d5780638da5cb5b146107e757806395d89b41146106f0578063a9059cbb146106bf578063b119490e1461013a578063dd62ed3e146100f15763f2fde38b146100c157600080fd5b346100ec5760203660031901126100ec576100ea6100dd610bd5565b6100e5610d63565b610ced565b005b600080fd5b346100ec5760403660031901126100ec5761010a610bd5565b61011b610115610beb565b91610cb4565b9060018060a01b03166000526020526020604060002054604051908152f35b346100ec5760603660031901126100ec5760043567ffffffffffffffff81116100ec5761016b903690600401610c23565b60243567ffffffffffffffff81116100ec5761018b903690600401610c23565b600080516020610f218339815191525460ff8160401c16159067ffffffffffffffff8116801590816106b7575b60011490816106ad575b1590816106a4575b506106935767ffffffffffffffff198116600117600080516020610f218339815191525581610666575b506101fd610e72565b610205610e72565b825167ffffffffffffffff81116105525761022e600080516020610ea183398151915254610c7a565b601f81116105f4575b506020601f82116001146105735781929394600092610568575b50508160011b916000199060031b1c191617600080516020610ea1833981519152555b815167ffffffffffffffff81116105525761029d600080516020610ee183398151915254610c7a565b601f81116104e0575b50602092601f82116001146104615792819293600092610456575b50508160011b916000199060031b1c191617600080516020610ee1833981519152555b6102ec610e72565b6102f4610e72565b6102fd33610ced565b3315610440577f52c63247e1f47db19d5ce0460030c497f067ca4cebf71ba98eeadabe20bace02546b204fce5e3e25026110000000810180911161042a577f52c63247e1f47db19d5ce0460030c497f067ca4cebf71ba98eeadabe20bace0255600090338252600080516020610ec1833981519152602052604082206b204fce5e3e2502611000000081540190556040516b204fce5e3e250261100000008152827fddf252ad1be2c89b69c2b068fc378daa952ba7f163c4a11628f55a4df523b3ef60203393a360443582556103d05780f35b68ff000000000000000019600080516020610f218339815191525416600080516020610f21833981519152557fc7f505b2f371ae2175ee4913f4499e1f2633a7b5936321eed1cdaeb6115181d2602060405160018152a180f35b634e487b7160e01b600052601160045260246000fd5b63ec442f0560e01b600052600060045260246000fd5b0151905083806102c1565b601f19821693600080516020610ee1833981519152600052806000209160005b8681106104c857508360019596106104af575b505050811b01600080516020610ee1833981519152556102e4565b015160001960f88460031b161c19169055838080610494565b91926020600181928685015181550194019201610481565b600080516020610ee18339815191526000527f46a2803e59a4de4e7a4c574b1243f25977ac4c77d5a1a4a609b5394cebb4a2aa601f830160051c81019160208410610548575b601f0160051c01905b81811061053c57506102a6565b6000815560010161052f565b9091508190610526565b634e487b7160e01b600052604160045260246000fd5b015190508480610251565b601f19821690600080516020610ea1833981519152600052806000209160005b8181106105dc575095836001959697106105c3575b505050811b01600080516020610ea183398151915255610274565b015160001960f88460031b161c191690558480806105a8565b9192602060018192868b015181550194019201610593565b600080516020610ea18339815191526000527f2ae08a8e29253f69ac5d979a101956ab8f8d9d7ded63fa7a83b16fc47648eab0601f830160051c8101916020841061065c575b601f0160051c01905b8181106106505750610237565b60008155600101610643565b909150819061063a565b68ffffffffffffffffff19166801000000000000000117600080516020610f2183398151915255836101f4565b63f92ee8a960e01b60005260046000fd5b905015856101ca565b303b1591506101c2565b8391506101b8565b346100ec5760403660031901126100ec576106e56106db610bd5565b6024359033610d99565b602060405160018152f35b346100ec5760003660031901126100ec576040516000600080516020610ee18339815191525461071f81610c7a565b80845290600181169081156107c35750600114610757575b6107538361074781850382610c01565b60405191829182610b8c565b0390f35b600080516020610ee183398151915260009081527f46a2803e59a4de4e7a4c574b1243f25977ac4c77d5a1a4a609b5394cebb4a2aa939250905b8082106107a957509091508101602001610747610737565b919260018160209254838588010152019101909291610791565b60ff191660208086019190915291151560051b840190910191506107479050610737565b346100ec5760003660031901126100ec57600080516020610f01833981519152546040516001600160a01b039091168152602090f35b346100ec5760003660031901126100ec57610836610d63565b600080516020610f0183398151915280546001600160a01b031981169091556000906001600160a01b03167f8be0079c531659141344cd1fd0a4f28419497f9722a3daafe3b4186f6b6457e08280a3005b346100ec5760203660031901126100ec576001600160a01b036108a8610bd5565b16600052600080516020610ec18339815191526020526020604060002054604051908152f35b346100ec5760003660031901126100ec576020600054604051908152f35b346100ec5760003660031901126100ec57602060405160128152f35b346100ec5760603660031901126100ec57610921610bd5565b610929610beb565b6044359061093683610cb4565b3360009081526020919091526040902054926001840161095b575b6106e59350610d99565b8284106109ce576001600160a01b038116156109b85733156109a2576106e59361098482610cb4565b60018060a01b03331660005260205283604060002091039055610951565b634a1406b160e11b600052600060045260246000fd5b63e602df0560e01b600052600060045260246000fd5b8284637dc7a0d960e11b6000523360045260245260445260646000fd5b346100ec5760203660031901126100ec57610a04610d63565b600435600055005b346100ec5760003660031901126100ec5760207f52c63247e1f47db19d5ce0460030c497f067ca4cebf71ba98eeadabe20bace0254604051908152f35b346100ec5760403660031901126100ec57610a62610bd5565b6024359033156109b8576001600160a01b03169081156109a257610a8533610cb4565b82600052602052806040600020556040519081527f8c5be1e5ebec7d5bd14f71427d1e84f3dd0314c0f7b2291e5b200ac8c7c3b92560203392a3602060405160018152f35b346100ec5760003660031901126100ec576040516000600080516020610ea183398151915254610af981610c7a565b80845290600181169081156107c35750600114610b20576107538361074781850382610c01565b600080516020610ea183398151915260009081527f2ae08a8e29253f69ac5d979a101956ab8f8d9d7ded63fa7a83b16fc47648eab0939250905b808210610b7257509091508101602001610747610737565b919260018160209254838588010152019101909291610b5a565b91909160208152825180602083015260005b818110610bbf575060409293506000838284010152601f8019910116010190565b8060208092870101516040828601015201610b9e565b600435906001600160a01b03821682036100ec57565b602435906001600160a01b03821682036100ec57565b90601f8019910116810190811067ffffffffffffffff82111761055257604052565b81601f820112156100ec5780359067ffffffffffffffff82116105525760405192610c58601f8401601f191660200185610c01565b828452602083830101116100ec57816000926020809301838601378301015290565b90600182811c92168015610caa575b6020831014610c9457565b634e487b7160e01b600052602260045260246000fd5b91607f1691610c89565b6001600160a01b031660009081527f52c63247e1f47db19d5ce0460030c497f067ca4cebf71ba98eeadabe20bace016020526040902090565b6001600160a01b03168015610d4d57600080516020610f0183398151915280546001600160a01b0319811683179091556001600160a01b03167f8be0079c531659141344cd1fd0a4f28419497f9722a3daafe3b4186f6b6457e0600080a3565b631e4fbdf760e01b600052600060045260246000fd5b600080516020610f01833981519152546001600160a01b03163303610d8457565b63118cdaa760e01b6000523360045260246000fd5b6001600160a01b0316908115610e5c576001600160a01b0316918215610440576000828152600080516020610ec18339815191526020526040812054828110610e425791604082827fddf252ad1be2c89b69c2b068fc378daa952ba7f163c4a11628f55a4df523b3ef958760209652600080516020610ec183398151915286520382822055868152600080516020610ec1833981519152845220818154019055604051908152a3565b916064928463391434e360e21b8452600452602452604452fd5b634b637e8f60e11b600052600060045260246000fd5b60ff600080516020610f218339815191525460401c1615610e8f57565b631afcd79f60e31b60005260046000fdfe52c63247e1f47db19d5ce0460030c497f067ca4cebf71ba98eeadabe20bace0352c63247e1f47db19d5ce0460030c497f067ca4cebf71ba98eeadabe20bace0052c63247e1f47db19d5ce0460030c497f067ca4cebf71ba98eeadabe20bace049016d09d72d40fdae2fd8ceac6b6234c7706214fd39c1cd1e609a0528c199300f0c57e16840df040f15088dc2f81fe391c3923bec73e23a9662efc9c229c6a00a26469706673582212204ae8ca809b31b6b865db2c13408c60fde7452d6db08c9605412fd48e00b636a164736f6c634300081c0033",
  "linkReferences": {},
  "deployedLinkReferences": {}
}